:020000040800F2
:10000000A82700209D01000845140008A30200084D
:1000100041140008A30300089D1D00080000000013
:10002000000000000000000000000000471400086D
:10003000E503000800000000EF0100084914000873
:10004000B7010008B7010008B7010008B7010008B0
:10005000B7010008B7010008E7030008B70100086E
:10006000B7010008B7010008B7010008B701000890
:10007000B7010008B7010008B7010008B701000880
:10008000B7010008B7010008B7010008B701000870
:10009000B7010008B7010008B7010008B701000860
:1000A000B7010008B7010008B7010008B701000850
:1000B000B7010008B7010008B7010008B701000840
:1000C000B7010008B7010008B7010008B701000830
:1000D000B7010008B7010008B7010008B701000820
:1000E000B7010008B7010008B7010008B701000810
:1000F000B7010008B7010008B7010008B701000800
:10010000B7010008B7010008B7010008B7010008EF
:10011000B7010008B7010008B7010008B7010008DF
:10012000B7010008B7010008B7010008B7010008CF
:10013000B7010008B7010008B7010008B7010008BF
:10014000B7010008B7010008B7010008B7010008AF
:10015000B7010008B7010008B7010008B70100089F
:10016000B7010008B7010008B7010008B70100088F
:10017000B7010008B7010008B7010008000000003F
:10018000B7010008B7010008DFF80CD000F0F0F864
:100190000048004795030008A8270020064880472C
:1001A00006480047FEE7FEE7FEE7FEE7FEE7FEE75C
:1001B000FEE7FEE7FEE7FEE71915000889010008E3
:1001C000EFF3108072B6704780F3108870473A4A98
:1001D0001368012B04D04FF001031360374A1060FD
:1001E000374A116037484FF0805101607047EFF394
:1001F000108272B63048016851B34FF000010160BF
:100200002E48016891B1EFF309811EF0100F08BF6D
:1002100021ED108B21E9F00F4FF000041EF0100FBC
:1002200008BF012441F8044D0068016024490968B1
:10023000096808C9B1E8F00F002B18BFB1EC108BAA
:1002400081F309884EF0100E002B18BF2EF0100E0F
:1002500082F310884EF0040E704719490860EFF3DE
:10026000148222F0040282F3148814494FF0000033
:10027000086011494FF00100086013484FF47F01F6
:10028000D0F8002041EA020101600E484FF0805191
:1002900001600E480068006880F3088861B662B6A5
:1002A0007047EFF3098000B502F034F95DF804EB14
:1002B0004EF0040E70470000A8000020A0000020AF
:1002C000A400002004ED00E020ED00E008ED00E0D7
:1002D0002DE9F05F0546002092469B46884606467B
:1002E000814640241BE0284641464746224600F00E
:1002F0002FF853465A46C01A914110D3114618465A
:10030000224600F016F82D1A67EB01084F462246E8
:100310000120002100F00DF817EB00094E41201ECE
:10032000A4F10104DFDC484631462A464346BDE8D5
:10033000F09F202A04DB203A00FA02F100207047E7
:100340009140C2F1200320FA03F319439040704713
:10035000202A04DB203A21FA02F00021704721FA1A
:1003600002F3D040C2F12002914008431946704781
:10037000064C074D06E0E06840F0010394E80700F2
:1003800098471034AC42F6D3FFF702FF003A00085A
:10039000203A000810B5FFF713FF03F039FA0020E8
:1003A00010BD00BFFEE7000010B50C480C49086006
:1003B0004FF4E1304860002109488160C16001616B
:1003C00081610C21416100F035FE05480068C0687C
:1003D00040F0200002490968C86010BD00100140CB
:1003E000B000002070477047F8B502460B46002564
:1003F000002400200021DCE0012606FA01F51E6839
:1004000006EA0504AC4273D15E68022E02D05E6833
:10041000122E13D1CF0802F1200656F827004E07FE
:10042000F70E0F26BE40B0434F07FF0E1E69BE40B9
:100430003043CF0802F1200646F8270010684F002D
:100440000326BE40B0431E7906F003064F00BE40AF
:10045000304310605E68012E08D05E68022E05D021
:100460005E68112E02D05E68122E13D190684F0084
:100470000326BE40B0434F00DE68BE40304390606C
:10048000506801268E40B0431E79C6F300168E4098
:1004900030435060D0684F000326BE40B0434F0049
:1004A0009E68BE403043D0605E6806F08056B6F16C
:1004B000805F7DD100BF00260096404E366846F42E
:1004C00080463E4F3E603E46366806F480460096C3
:1004D00000BF00BF3A4E8F0856F827008E07370F2F
:1004E0000F26BE40B043374EB24202D1002624E070
:1004F0005EE0354EB24201D101261EE0334EB242DB
:1005000001D1022619E0324EB24201D1032614E095
:10051000304EB24201D104260FE02F4EB24201D13B
:1005200005260AE02D4EB24201D1062605E02C4EEA
:10053000B24201D1072600E008268F073F0FBE40D8
:1005400030431F4E8F0846F82700264E3068A043E0
:100550005E6806F48036B6F5803F00D12043214E18
:100560003060361D3068A0435E6806F40036B6F58C
:10057000003F00D120431B4E361D3060361D3068D1
:10058000A0435E6806F48016B6F5801F00D12043B4
:10059000144E08363060361D3068A0435E6806F49D
:1005A0000016B6F5001F00D120430E4E0C36306009
:1005B000491C1029FFF420AFF8BD00004438024068
:1005C00008380140000002400004024000080240D8
:1005D000000C0240001002400014024000180240CB
:1005E000001C0240003C0140024613690B400BB165
:1005F000012000E00020704701480068000C7047AF
:10060000002004E00148006870470000040000205A
:1006100070B504460E4800784FF47A71B1FBF0F0E3
:100620000C490968B1FBF0F5284600F0C7FB08B19A
:10063000012070BD102C07D200222146501E00F070
:100640001DF80548046001E00120F2E70020F0E712
:100650000C00002000000020080000200146084691
:10066000002809DB00F01F0301229A4043099B0088
:1006700003F1E023C3F8002100BF70472DE9F05FCC
:1006800080460D461646002701F08AFB074639468C
:100690002A46334601F00700C0F1070ABAF1040FF9
:1006A00002D94FF0040A01E0C0F1070AD14600F177
:1006B000040ABAF1070F02D24FF0000A01E0A0F1DC
:1006C000030AD4464FF0010A0AFA09FAAAF1010A0C
:1006D0000AEA020A0AFA0CFA4FF0010B0BFA0CFBB9
:1006E000ABF1010B0BEA030B4AEA0B04214640462F
:1006F00001F05EFBBDE8F09F70B504460D460CB9F5
:10070000012070BD5848006800F00F00A84209D2CF
:1007100055490D700846006800F00F00A84201D04E
:100720000120EEE7207800F0020002281DD1207899
:1007300000F00400042805D14C48006840F4E05063
:100740004A490860207800F00800082805D1474889
:10075000006840F46040454908604448006820F063
:10076000F000A168084341490860207800F00100CA
:10077000A8B36068012807D13C4808380068C0F376
:100780004040B8B90120BCE76068022802D0606828
:10079000032807D1354808380068C0F3406048B9DD
:1007A0000120AEE7314808380068C0F3400008B9BE
:1007B0000120A6E72D48006820F003006168084387
:1007C0002A490860FFF71EFF064609E0FFF71AFFF7
:1007D000801B41F28831884202D9032091E707E06B
:1007E0002248006800F00C006168B0EB810FEDD189
:1007F0001D48006800F00F00A84209D91A490D7081
:100800000846006800F00F00A84201D0012078E7F8
:10081000207800F00400042807D11448006820F470
:10082000E050E168084311490860207800F00800B2
:10083000082808D10D48006820F46040216940EA8A
:10084000C1000A49086000F03DF808490968C1F391
:100850000311074A515CC840064908600F20FFF7A2
:10086000D7FE00204DE70000003C0240083802405F
:100870006038000800000020014800687047000050
:100880000000002000B5FFF7F7FF04490968C1F335
:100890008221034A515CC84000BD00000838024074
:1008A0007038000800B5FFF7E7FF04490968C1F395
:1008B0004231034A515CC84000BD00000838024084
:1008C000703800082DE9F047002400250026A146D5
:1008D0002548006800F00C0020B1042805D0082845
:1008E0003AD105E0DFF8849039E0DFF8849036E013
:1008F0001D48001F006800F03F041B48001F0068EF
:1009000000F4800078B11A481749091F0968C1F33B
:100910008811A0FB01700146224600233846FFF7EC
:10092000D7FC05460EE011480F49091F0968C1F3BD
:100930008811A0FB01700146224600233846FFF7CC
:10094000C7FC05460848001F0068C0F30140401C72
:100950004600B5FBF6F902E0DFF8109000BF00BFDB
:100960004846BDE8F0870000083802400024F40043
:1009700040787D01F8B504460CB90120F8BD207817
:1009800000F00100002874D0F948006800F00C0065
:1009900004280DD0F648006800F00C00082813D198
:1009A000F348001F006800F48000B0F5800F0BD101
:1009B000EF4808380068C0F34040002859D060680C
:1009C000002856D10120D9E700BF6068B0F5803F0C
:1009D00008D1E7480838006840F48030E449083915
:1009E00008601EE06068B0F5A02F0DD1E04808381F
:1009F000006840F48020DE49083908600846006835
:100A000040F4803008600CE0D9480838006820F4D1
:100A10008030D749083908600846006820F48020F3
:100A2000086000BF606890B1FFF7ECFD054606E086
:100A3000FFF7E8FD401B642801D903209EE7CC485E
:100A400008380068C0F340400028F1D011E0FFF7FB
:100A5000D9FD054606E0FFF7D5FD401B642801D906
:100A600003208BE7C24808380068C0F340400028E4
:100A7000F1D1207800F0020002285FD1BC48006864
:100A800000F00C0058B1BA48006800F00C000828CB
:100A90001CD1B748001F006800F48000B0B9B4480A
:100AA00008380068C0F3400020B1E068012801D098
:100AB000012063E7AE480838006820F0F80021699B
:100AC00040EAC100AA490839086037E0E06800B38D
:100AD0000120A8490860FFF795FD054606E0FFF7ED
:100AE00091FD401B022801D9032047E7A0480838A0
:100AF0000068C0F340000028F1D09D480838006825
:100B000020F0F800216940EAC100994908390860DD
:100B100014E0002097490860FFF774FD054606E0E1
:100B2000FFF770FD401B022801D9032026E79048FB
:100B300008380068C0F340000028F1D1207800F0A8
:100B4000080008282CD16069A8B101208A490860F2
:100B5000FFF758FD054606E0FFF754FD401B02284D
:100B600001D903200AE782486C300068C0F34000D6
:100B70000028F1D014E000207F490860FFF742FD13
:100B8000054606E0FFF73EFD401B022801D9032081
:100B9000F4E677486C300068C0F340000028F1D1DB
:100BA000207800F00400042870D100267048383006
:100BB000006800F0805090B900BF002000906C48A1
:100BC0003830006840F08050694938310860084684
:100BD000006800F08050009000BF00BF0126674809
:100BE000006800F48070B0B96448006840F4807018
:100BF00062490860FFF706FD054606E0FFF702FDC3
:100C0000401B022801D90320B8E65C48006800F4C4
:100C100080700028F2D000BFA068012808D1544895
:100C20006830006840F001005149683108601DE0FB
:100C3000A06805280DD14E486830006840F00400D7
:100C40004B49683108600846006840F001000860C0
:100C50000CE047486830006820F0010044496831E2
:100C600008600846006820F00400086000BFA06823
:100C7000A8B1FFF7C7FC054609E0FFF7C3FC401B1E
:100C800041F28831884202D9032077E626E03848CD
:100C900068300068C0F340000028EED013E0FFF792
:100CA000B1FC054608E0FFF7ADFC401B41F288317E
:100CB000884201D9032061E62D4868300068C0F3FE
:100CC00040000028EFD1012E07D1294838300068B4
:100CD00020F0805026493831086000BFA069B8B3C1
:100CE0002348006800F00C0008285ED0A0690228A4
:100CF00046D100201F490866FFF784FC054606E040
:100D0000FFF780FC401B022801D9032036E6184873
:100D100008380068C0F340600028F1D1D4E9070129
:100D20000843616A40EA81110122A06AC2EB5000C7
:100D300041EA00412C20005D41EA00600C49091F96
:100D4000086001200B490866FFF75CFC054607E0D8
:100D50002DE0FFF757FC401B022801D903200DE6C8
:100D6000034808380068C0F340600028F1D01EE056
:100D70000838024000004742800E474200700040A1
:100D800000200C490866FFF73DFC054606E0FFF72A
:100D900039FC401B022801D90320EFE50648006812
:100DA000C0F340600028F2D101E00120E6E5002018
:100DB000E4E50000000047420038024070B50446F8
:100DC0002546681EB0F1807F01D301200FE0681E28
:100DD0004FF0E02148610F214FF0FF3000F0E8FFB5
:100DE00000204FF0E021886107200861002070BDDD
:100DF00010B50346002200BF93F83C00012801D142
:100E0000022010BD012083F83C0000BF22F0FF004B
:100E1000CC6840EA040222F440708C6840EA040284
:100E200022F480604C6840EA040222F400600C68FE
:100E300040EA040222F480500C6940EA040222F4E1
:100E400000504C6940EA040222F48040CC6940EA38
:100E500004021868426400BF002083F83C0000BF11
:100E600000BFCEE770B504460D460422294620682F
:100E700000F001FC2068406C40F4004021684864A8
:100E80002068806800F00706062E05D020680068FC
:100E900040F0010021680860002070BD70B5044674
:100EA0000D46164600BF94F83C00012801D10220EF
:100EB00070BD012084F83C0000BF022084F83D0092
:100EC00036B1042E1BD0082E31D00C2E5ED145E059
:100ED0002946206800F03EFC2068806940F0080048
:100EE000216888612068806920F004002168886199
:100EF00020688069296908432168886147E029469C
:100F0000206800F05FFC2068806940F40060216880
:100F100088612068806920F4806021688861206889
:100F20008069296940EA0120216888612FE029460B
:100F3000206800F085FC2068C06940F00800216846
:100F4000C8612068C06920F004002168C861206879
:100F5000C069296908432168C86118E029462068EA
:100F600000F0AAFC2068C06940F400602168C861F4
:100F70002068C06920F480602168C8612068C06969
:100F8000296940EA01202168C86100E000BF00BF74
:100F9000012084F83D0000BF002084F83C0000BF21
:100FA00000BF85E710B504460CB9012010BD94F8C8
:100FB0003D0028B9002084F83C00204600F00CF8E1
:100FC000022084F83D00211D206800F0D7FA01209E
:100FD00084F83D000020E9E77047000070B5044642
:100FE0000E4601223146206800F034FB0F4920688C
:100FF000884203D00E492068884201D1012000E0D8
:10100000002028B12068406C40F40040216848640A
:101010002068806800F00705062D05D0206800686C
:1010200040F0010021680860002070BD0000014010
:101030000004014010B504460CB9012010BDA069A0
:1010400000B100E000BF94F8390028B9002084F80E
:101050003800204600F028F8242084F83900206861
:10106000C06820F400502168C860204600F0ACFC45
:101070002068006920F49040216808612068406978
:1010800020F02A00216848612068C06840F40050C0
:101090002168C8600020E063202084F8390084F8CB
:1010A0003A000020CAE7000010B586B0044600BF31
:1010B000002000902648006840F010002449086095
:1010C0000846006800F01000009000BF00BF00BF9D
:1010D000002000901E481438006840F002001C49AF
:1010E000143908600846006800F00200009000BF54
:1010F00000BF00BF002000900846006840F00200DA
:1011000008600846006800F00200009000BF00BFC1
:1011100040200190022002900120039003200490BF
:101120000720059001A90B48FFF75EF98020019088
:101130000720059001A90748FFF756F90122002171
:101140002520FFF79BFA2520FFF788FA06B010BD8F
:1011500044380240000402402DE9F84304460D469D
:1011600016461F464FF0000994F8390020285CD13C
:1011700005B116B90120BDE8F88300BF94F8380026
:10118000012801D10220F6E7012084F8380000BFD1
:101190000020E063212084F83900FFF733FA81460C
:1011A000A684E6842BE0E08C401EE084A068B0F5C5
:1011B000805F16D14B46002280212046009700F028
:1011C000B7FD08B10320D6E7A846B8F80000C0F381
:1011D000080021684860206908B9AD1C0FE06D1C4B
:1011E0000DE04B46002280212046009700F0A0FD34
:1011F00008B10320BFE715F8010B21684860E08CB7
:101200000028D0D14B46002240212046009700F014
:101210008FFD08B10320AEE7202084F8390000BF1D
:10122000002084F8380000BFA5E70220A3E70000F3
:1012300000B587B000BF002001903648006840F03C
:101240000100344908600846006800F00100019080
:1012500000BF00BF00BF002001900846006840F0BA
:10126000040008600846006800F00400019000BF18
:1012700000BF00BF002001900846006840F0400019
:1012800008600846006800F04000019000BF00BF01
:1012900000BF002001900846006840F04000086050
:1012A0000846006800F04000019000BF00BF00BF8A
:1012B000002001900846006840F0400008600846A1
:1012C000006800F04000019000BF00BF01200290C4
:1012D00000200390049002A90F48FFF785F84FF40F
:1012E0000050029002A90D48FFF77EF804200290FA
:1012F00002A90B48FFF778F80820029002A90848D5
:10130000FFF772F81020029002A90548FFF76CF869
:1013100007B000BD30380240000002400008024023
:101320000018024070B504460D4629462046FFF7D6
:101330005BF9012808D100BF29462046FFF754F980
:101340000128F9D0012070BD0020FCE700B587B06E
:1013500000BF002001903548006840F0010033498B
:1013600008600846006800F00100019000BF00BF5F
:1013700000BF002001900846006840F0100008609F
:101380000846006800F01000019000BF00BF00BFD9
:10139000002001900846006840F0400008600846C0
:1013A000006800F04000019000BF00BF00BF0020B7
:1013B00001900846006840F0020008600846006896
:1013C00000F00200019000BF00BF4FF40040029007
:1013D0000120039004900320059002A91448FFF710
:1013E00003F80420029002A91248FEF7FDFF4FF413
:1013F0000040029002A91048FEF7F6FF4FF48070FB
:10140000029002A90D48FEF7EFFF4FF40040084993
:101410008861042007498861400307491831086042
:10142000C01106491831086007B000BD30380240CD
:101430000000024000100240001802400004024078
:1014400000BFFEE77047704710B501F011F901F0D9
:1014500015FF01F01DF910BD00B593B000BF0020CD
:1014600001902A48006840F08050284908600846EA
:10147000006800F08050019000BF00BF00BF002056
:1014800001902348006840F48040214908600846E4
:10149000006800F48040019000BF00BF012002906E
:1014A00000040390022008904105099119210A9136
:1014B0004FF4A8710B9102210C9107210D9102A804
:1014C000FFF758FA08B100BFFEE70F200E90022088
:1014D0000F90002010904FF4A05011904FF48050C6
:1014E000129005210EA8FFF707F908B100BFFEE72B
:1014F000FFF782F841F20101884205D105480068F2
:1015000040F480700349086013B000BD40380240C9
:1015100000700040003C02401448006840F4700035
:10152000124908601248006840F001001049086044
:1015300000200F49083108600D4800680D49084037
:101540000B4908600C48091D0860081F006820F45A
:101550008020091F0860002005490C3108604FF009
:1015600000600249803908607047000088ED00E0A3
:1015700000380240FFFFF6FE1030002410B502686C
:10158000294B98420ED0B0F1804F0BD0274B984298
:1015900008D0274B984205D0264B984202D0264BC4
:1015A000984203D122F070024B681A431E4B9842B6
:1015B00020D0B0F1804F1DD01C4B98421AD01C4B4C
:1015C000984217D01B4B984214D01B4B984211D015
:1015D0001A4B98420ED01A4B98420BD0194B984296
:1015E00008D0194B984205D0184B984202D0184B9E
:1015F000984203D122F44072CB681A4322F0800350
:101600004C6943EA040202608B68C3620B68836220
:10161000054B984202D0084B984201D10B690363F5
:101620000123436110BD00000000014000040040A0
:1016300000080040000C0040000401400040014050
:10164000004401400048014000180040001C0040D8
:101650000020004030B501F01F05012404FA05F315
:10166000046A9C430462046A01F01F0502FA05F54E
:101670002C43046230BD30B501F01F05042404FA88
:1016800005F3046A9C430462046A01F01F0502FA30
:1016900005F52C43046230BD00B589B000BF0020C1
:1016A00000902748006840F002002549086008467D
:1016B000006800F00200009000BF00BF21482249EE
:1016C000086040F2E7312048C160D7201E494860D9
:1016D00000211D48016181604161FFF763FC6020CA
:1016E0001A4908601A480088486000208860C8606D
:1016F0004FF4807048610020886100221248FFF793
:10170000CDFB4FF4006001904010029080100390D8
:101710000B2004904FF480500590002006904FF469
:101720008040089001A90848FFF762FB00210648A5
:10173000FFF754FC00210448FFF794FB09B000BDFB
:101740004438024000040140F00000203001002035
:101750001800002030B5056A25F001050562026A0F
:101760004368846924F0700424F003040D682C435A
:1017700022F002028D682A43104DA84200D103E0F6
:101780000F4DA84206D100BF22F00802CD682A43BF
:1017900022F00402094DA84202D0094DA84207D107
:1017A00023F4807323F400734D692B438D692B431D
:1017B000436084614D684563026230BD00000140B2
:1017C0000004014030B5056A25F010050562026A83
:1017D0004368846924F4E04424F440740D6844EAC6
:1017E000052422F020028D6842EA0512124DA8421B
:1017F00000D103E0114DA84207D100BF22F08002C2
:10180000CD6842EA051222F040020B4DA84202D0F8
:101810000A4DA84209D123F4806323F400634D6983
:1018200043EA85038D6943EA8503436084614D681B
:101830008563026230BD00000000014000040140E9
:1018400030B5056A25F480750562026A4368C4698B
:1018500024F0700424F003040D682C4322F4007279
:101860008D6842EA0522124DA84200D103E0114DD5
:10187000A84207D100BF22F40062CD6842EA0522E7
:1018800022F480620A4DA84202D00A4DA84209D132
:1018900023F4805323F400534D6943EA05138D6903
:1018A00043EA05134360C4614D68C563026230BDFD
:1018B000000001400004014030B5056A25F4805560
:1018C0000562036A4468C26922F4E04222F440726D
:1018D0000D6842EA052223F400538D6843EA05337C
:1018E000084DA84202D0084DA84204D124F48044F7
:1018F0004D6944EA85144460C2614D680564036221
:1019000030BD0000000001400004014010B500F0AF
:1019100003F8FFF7C1FE10BD00B587B000BF00207F
:1019200001902548006840F480702349086008460B
:10193000006800F48070019000BF00BF00BF00206D
:1019400001900846006840F0800008600846006882
:1019500000F08000019000BF00BF00BF0020019098
:101960000846006840F0010008600846006800F082
:101970000100019000BF00BF2020029002200390D0
:101980000020049003200590069002A90B48FEF762
:101990002BFD4FF4005002900320069002A9084846
:1019A000FEF722FD402002900320069002A9054880
:1019B000FEF71AFD07B000BD30380240002002409B
:1019C000001C0240000002402DE9F041044620685E
:1019D000006920F44050E1680843216808612169EA
:1019E000A068084361690843E16940EA010520688D
:1019F000C06849F20C61884328432168C8602068A8
:101A0000406920F44070A169084321684861E06999
:101A1000B0F5004F7ED1C4492068884203D0C34945
:101A2000206888425DD1FEF73DFF00EBC00101EB6D
:101A3000001061684900B0FBF1F06421B0FBF1F0E7
:101A40000601FEF72FFF00EBC00101EB00106168FB
:101A50004900B0FBF1F7FEF725FF00EBC00101EBF9
:101A6000001061684900B0FBF1F06421B0FBF1F0B7
:101A700000EBC00101EB0010A7EB8000322101EB6D
:101A8000C0006421B0FBF1F000F0F80006EB400666
:101A9000FEF708FF00EBC00101EB00106168490090
:101AA000B0FBF1F7FEF7FEFE00EBC00101EB00100A
:101AB00061684900B0FBF1F06421B0FBF1F000EB8C
:101AC000C00101EB0010A7EB8000322101EBC00048
:101AD0006421B0FBF1F000F0070030442168886019
:101AE00020E1FEF7CFFE00EBC00101EB00106168C2
:101AF0004900B0FBF1F06421B0FBF1F00601FEF704
:101B0000C1FE00EBC00101EB001061684900B0FBB1
:101B1000F1F700E045E0FEF7B5FE00EBC00101EB98
:101B2000001061684900B0FBF1F06421B0FBF1F0F6
:101B300000EBC00101EB0010A7EB8000322101EBAC
:101B4000C0006421B0FBF1F000F0F80006EB4006A5
:101B5000FEF798FE00EBC00101EB00106168490040
:101B6000B0FBF1F7FEF78EFE00EBC00101EB0010B9
:101B700061684900B0FBF1F06421B0FBF1F000EBCB
:101B8000C00101EB0010A7EB8000322101EBC00087
:101B90006421B0FBF1F000F0070030442168886058
:101BA000C0E061492068884203D0604920688842CB
:101BB0005CD1FEF777FE00EBC00101EB001061681D
:101BC0008900B0FBF1F6FEF76DFE00EBC00101EB02
:101BD000001061688900B0FBF1F06421B0FBF1F006
:101BE00000EBC00101EB0010A6EB8000322101EBFD
:101BF00000106421B0FBF1F000F0F006FEF752FE99
:101C000000EBC00101EB001061688900B0FBF1F04E
:101C10006421B0FBF1F006EB0016FEF743FE00EB8B
:101C2000C00101EB001061688900B0FBF1F7FEF71D
:101C300039FE00EBC00101EB001061688900B0FBC8
:101C4000F1F06421B0FBF1F000EBC00101EB0010FA
:101C5000A7EB8000322101EB00106421B0FBF1F012
:101C600000F00F003044216888605BE0FEF70AFE58
:101C700000EBC00101EB001061688900B0FBF1F6D8
:101C8000FEF700FE00EBC00101EB00106168890067
:101C9000B0FBF1F06421B0FBF1F000EBC00101EB0F
:101CA0000010A6EB8000322101EB00106421B0FB94
:101CB000F1F000F0F006FEF7E5FD00EBC00101EBEE
:101CC000001061688900B0FBF1F06421B0FBF1F015
:101CD00006EB0016FEF7D6FD00EBC00101EB00108D
:101CE00061688900B0FBF1F7FEF7CCFD00EBC001A5
:101CF00001EB001061688900B0FBF1F06421B0FBDA
:101D0000F1F000EBC00101EB0010A7EB80003221E5
:101D100001EB00106421B0FBF1F000F00F00304443
:101D200021688860BDE8F081001001400014014086
:101D30002DE9F04104460D4617469846069E21E0DF
:101D4000701CF8B12EB1FEF75DFCA0EB0800B042AC
:101D500018D92068C06820F4D0702168C860206855
:101D6000406920F0010021684861202084F8390092
:101D700084F83A0000BF002084F8380000BF032038
:101D8000BDE8F081206800682840A84201D1012008
:101D900000E00020B842D3D00020F1E700BFFEE70A
:101DA00002480068C0F30220704700000CED00E01C
:101DB00010B5002804DB0A07130E054A135406E089
:101DC0000A07140E034A00F00F031B1FD45410BD62
:101DD00000E400E018ED00E0014609B9002070477A
:101DE000C8B220B1C8B20E4A105C401CF7E701F43B
:101DF0007F4028B10A48C1F30722805C0930EEE732
:101E000001F47F0028B10648C1F30742805C11301D
:101E1000E5E7034800EB116000781930DFE70000C8
:101E20007838000802E008C8121F08C1002AFAD159
:101E300070477047002001E001C1121F002AFBD14A
:101E40007047000003490868884201D001207047AC
:101E50000020FCE78C0000202DE9FC5F04468B4647
:101E600015461E46DDE90C9ADDE90E7804F11400F2
:101E70004060006000BF1C346560A660C4F80C9030
:101E8000C4F810A02321D4E9030200F06FFDD4E9C7
:101E9000033C63441A1F0F4BD4E9010100F0C0FB5F
:101EA0002060A77667760020E061C4F82080C4F83F
:101EB0002480606120766065A0651C3C009023460C
:101EC000054A2146019004F1440001F059FA00202E
:101ED000BDE8FC9FA12F0008ED3100082DE9F04777
:101EE00004460E4617469846DDF8209084F809907F
:101EF000607A20F001006072E66127620020A06233
:101F0000C4F82480002506E004F1140101EBC500AB
:101F100000F034FC6D1C012DF6DBBDE8F08710B538
:101F20000246002001460EE002F1140303EBC1005B
:101F3000D0E900436360D0E9003423604060006072
:101F400000BF481C01460129EEDB10BD10E0012155
:101F50000848FFF7E7F940B10748406980F00400FE
:101F60000549486105A000F0EBFB0A2001F011F8DB
:101F7000EDE7000000000240001002404C454432F2
:101F8000D7B4CCACB7ADD7AA0A00000015E04FF02B
:101F900000400A4988614FF4FA7000F0FAFF08A087
:101FA00000F0CEFB4FF40040044988614FF4FA7012
:101FB00000F0EFFF09A000F0C3FBE8E700000240DB
:101FC0004C45445F5461736B2052756E6E696E6749
:101FD0002C4C4544315F4F4E0D0A00004C45445F88
:101FE0005461736B2052756E6E696E672C4C45445C
:101FF000315F4F46460D0A001CB51A4800F0A0FBA1
:10200000142003214FF480630022CDE9001016490B
:1020100016A000F096FF174908600846006820B136
:102020000846006801F0AAF802E04FF0FF301CBD3E
:10203000142003214FF400730022CDE900100E4953
:102040000EA000F07EFF0E4908600846006820B12F
:102050000846006801F092F802E04FF0FF30E6E732
:102060000020E4E79C3900088D1F00086C6564318E
:1020700000000000100000204D1F00086B65790073
:102080001400002010B5044600F02AF9FFF7B4FF51
:1020900010BD000030B51A4C4368246819198842F5
:1020A00015D04B889BB9174B1B6899420FD0164B24
:1020B0001B688B4201D1144B18604B684360104B76
:1020C0001B68C31A0E4D4C682D682C44A3600C4C41
:1020D000836824681A19824211D053887BB90A4B4D
:1020E0001B68834201D1084B1A6043685360044B5C
:1020F0001B68D31A024D44682D682C44A36030BD80
:1021000024000020280000202C0000202DE9F04FA2
:1021100085B00D469C46DDE90F740E9B04F0400827
:10212000B8F1000F02D0DFF8688101E0DFF86481C8
:10213000CDF8008004F01008B8F1000F01D024F0B1
:10214000010404F00108B8F1000F02D04FF030088C
:1021500001E04FF02008C246002604F00208B8F162
:10216000000F11D0002A02DA2D2652420CE004F0B2
:102170000408B8F1000F01D02B2605E004F0080890
:10218000B8F1000F00D02026002142B94FF0300BEB
:102190008846491C0DF1040909F808B01DE01AE051
:1021A000E146B9F10A0F08D14FF00A0BB2FBFBFE72
:1021B0000BFB1E28B2FBFBF202E002F00F08120933
:1021C00000BFDDF8009019F808B08846491C0DF1F1
:1021D000040909F808B0002AE2D1B94200DD0F462F
:1021E000DB1B04F01108B8F1000F10D116B1002B61
:1021F00000DD5B1E06E0A84203D84FF0200880F8FF
:102200000080401CB3F10008A3F10103F3DC26B108
:10221000A84201D806705B1E401C04F01008B8F1FB
:10222000000F0AD104E0A84201D880F800A0401CA9
:10223000B3F10008A3F10103F5DC06E0A84203D8DE
:102240004FF0300880F80080401CB8467F1E88455B
:10225000F4DC08E0A84205D80DF1040818F8018064
:1022600080F80080401CB1F10008A1F10101F1DC0F
:1022700006E0A84203D84FF0200880F80080401CF8
:10228000B3F10008A3F10103F3DC05B0BDE8F08F62
:1022900089390008783900081CB5142002210B0286
:1022A0000022CDE90010044904A000F04AFE0446D3
:1022B000204600F063FF1CBD852000086D61696E3B
:1022C0000000000010B5044C02E020688047241D87
:1022D00002488442F9D310BDF4390008F8390008E7
:1022E00010B5044C02E020688047241D0248844257
:1022F000F9D310BDF8390008FC39000810B5FDF716
:102300005FFF044604480088401C00B20249088070
:102310002046FDF759FF10BD7C00002010B5FDF7E9
:102320004FFF04460B480088401E00B20949088050
:102330000846B0F90000002807DC0020088020468D
:10234000FDF742FF00F0B4FB02E02046FDF73CFF42
:1023500010BD00007C00002070B5054605B970BDB9
:102360001D480068854203D31C480068854200D39D
:10237000F5E7A5F10C044FF0FF31194800F062FCBD
:10238000608818B12088B0F5F55F08D015A000F07E
:10239000D7F923886288214619A000F0D1F90020DE
:1023A00060804FF4F550208021480068844201D2BB
:1023B0001F480460084960680968611A401A1D498D
:1023C0000968081A1B4908602046FFF763FE0448A5
:1023D00000F01BFC00BFC2E7240000202800002002
:1023E00044230020746F206672656520612062615D
:1023F00064206461746120626C6F636B3A0A000050
:102400006D656D3A203078253038782C20757365ED
:102410006420666C61673A2025642C206D616769D1
:102420006320636F64653A203078253034780A0081
:102430002C00002034000020004870474C01002090
:10244000004870474C21002070B51E4800684FF4CA
:102450007A72B0FBF2F1481EB0F1807F00D31BE02E
:10246000481E4FF0E022506150170F22002804DB75
:1024700013071C0E144B1C5406E013071D0E134BC0
:1024800000F00F04241F1D5500BF00204FF0E02274
:1024900090610720106100BFFEF7DEFFFEF756FFD8
:1024A000FEF7C6FEFDF780FFFFF730FAFFF70AFFE1
:1024B000FFF7C6FF0446FFF7BFFF0546214600F0C1
:1024C00077FC70BD0000002000E400E018ED00E0A3
:1024D00038B50446FFF712FF14E020780A2809D126
:1024E0000D2000904FF47A73012269460848FEF7E8
:1024F00033FE00BF2146641C4FF47A730122044866
:10250000FEF72AFE20780028E7D1FFF707FF38BD45
:10251000B000002070B504461948006838B1204664
:10252000174909688847054605B970BD00BF15A061
:10253000E16900F005F917A0A16900F001F919A0FF
:10254000616900F0FDF81BA0216900F0F9F81DA0F9
:10255000E16800F0F5F81FA0A16800F0F1F821A0F3
:10256000616800F0EDF823A0216800F0E9F800F0C0
:10257000DDFD0546294623A000F0E2F800BFFEE796
:10258000AC0000207073723A203078253038780A19
:10259000000000002070633A203078253038780A37
:1025A00000000000206C723A203078253038780A1C
:1025B000000000007231323A203078253038780A35
:1025C000000000007230333A203078253038780A25
:1025D000000000007230323A203078253038780A16
:1025E000000000007230313A203078253038780A07
:1025F000000000007230303A203078253038780AF8
:102600000000000068617264206661756C74206F60
:102610006E207468726561643A2025730A000000B8
:10262000F0B504460D461646301D20F0070044382C
:102630000146002203E00D4F41F82270521C112A7E
:10264000F9D34D624FF0000CC1F828C0C1F82CC07E
:10265000C1F830C0C1F834C08B63CC634FF0807CCC
:10266000C1F840C000270F60F0BD0000EFBEADDE36
:1026700010B5FDF7A5FD044604480078401C034949
:1026800008702046FDF7A0FD10BD000020000020CE
:1026900010B5FDF795FD044604480078401E034937
:1026A00008702046FDF790FD10BD000020000020BE
:1026B00070B504462068A0F11405284600F018FD06
:1026C000002070BD2DE9F04105460C46904620469D
:1026D00000F06AFDB8F1000F03D0B8F1010F23D16B
:1026E00005E004F11401284600F060F81CE02E68B3
:1026F0000FE0A6F1140794F8350097F835108842DA
:1027000006DA04F1140107F1140000F04FF802E0BA
:102710003668AE42EDD100BFAE4204D104F11401DF
:10272000284600F043F800BF00BF0020BDE8F0815C
:1027300010B5044604F1140000F01AF8002010BD92
:102740000FB438B505A800907F210848009B049A73
:1027500000F0C2FE04467F2C00D97F240348FFF717
:10276000B7FE0020009038BC5DF814FBC4220020A6
:1027700040600060704740600060704740600060EB
:1027800070470268516002680A60016048607047E3
:102790000268516002680A60016048607047026820
:1027A000516002680A6001604860704742681160C9
:1027B00042684A6041600860704701460868884284
:1027C00001D1012070470020FCE7014608688842DB
:1027D00001D1012070470020FCE7D0E900215160C1
:1027E000D0E900121160406000607047D0E900211C
:1027F0005160D0E900121160406000607047000035
:102800002DE9F041054615B90020BDE8F081E81C2E
:1028100020F003054E480068854201D90020F4E706
:102820000C2D00D20C254FF0FF314A4800F00AFA77
:102830004948006849490968461A7EE047480068E7
:1028400084196088002874D106F10C006168081AA8
:10285000A8426ED306F10C006168091A05F1180050
:10286000814230D306F10C0000EB05083B480068BC
:1028700000EB08074FF4F55038800020788060683E
:102880007860BE60C4F804800120608030487968B8
:1028900000680C30814205D03049786809680844E6
:1028A000C0F808802E48016805F10C0008442C4946
:1028B00008602C4800680968884219D228480068D6
:1028C0002849086014E00120608024496068096894
:1028D000611A401A224909680844214908602148C0
:1028E00000680968884203D21D4800681D490860D5
:1028F0004FF4F550208018480068844212D107E058
:10290000154800684068154909680844124908607C
:1029100011480068408828B10F48006812490968CA
:102920008842EDD10B4800F070F904F10C006CE71F
:10293000FFE70A4800683044466805480068401BC5
:10294000B0423FF67BAF034800F05FF900205CE740
:1029500030000020442300202C0000202400002010
:10296000340000203800002028000020F0B50C467C
:102970000546E6B2042A15D300F0030797B90146CD
:1029800046EA062343EA034304E008C108C108C13C
:1029900008C1103A102AF8D201E008C1121F042A17
:1029A000FBD20D4601E005F8016B171EA2F10102F2
:1029B000F9D1F0BD2DE9F04105460F46284600F05B
:1029C0003BF80646F068FFF71BFF044614B90020E9
:1029D000BDE8F08125720020607208223946204649
:1029E00000F0CBF9FDF7ECFB804604F10C01301D43
:1029F000FFF7C7FE4046FDF7E7FB2046E8E770B566
:102A00000446FDF7DDFB054604F10C00FFF7E5FE8B
:102A10002846FDF7D9FB2046FFF79EFC70BD70B538
:102A20000446FDF7CDFB054604F10C00FFF7D5FE8B
:102A30002846FDF7C9FB70BD024600210AE00748A1
:102A400000EB01100078904203D1044800EB011024
:102A50007047491C0429F2DB0020F9E73C00002004
:102A60002DE9F04104460D4616462846FFF7E4FFDF
:102A7000074645F08000207208223146204600F0CB
:102A80007CF9FDF79DFB804604F10C01381DFFF732
:102A900078FE4046FDF798FBBDE8F0810146087AD4
:102AA00000F0800008B1012070470020FCE7000022
:102AB0002DE9F041FDF784FB07461B48008868BB01
:102AC0001A480068FFF788F9461E194850F8360082
:102AD000A0F114041748006884421BD016490E70F8
:102AE0001448056804601548007848B904F11C01D1
:102AF00005F11C00FDF76BFB3846FDF765FB0CE0AC
:102B000004F11C0105F11C00FDF761FB3846FDF7DF
:102B10005BFB02E03846FDF757FB02E03846FDF765
:102B200053FBBDE8F08100007C00002088000020FD
:102B3000642300208000002084000020200000206A
:102B400070B50446FDF73CFB054614F8340F20F041
:102B50000F0040F0010020706278343C0A4B03EB18
:102B6000C20004F114014268116042684A60416089
:102B7000086000BF0549A06B096808430349086065
:102B80002846FDF721FB70BD64230020880000204B
:102B900070B50446FDF714FB054604F11400D0E9B6
:102BA00000215160D0E9001211604060006000BF58
:102BB00094F83510094A02EBC1000168814201D145
:102BC000012100E0002129B10548A16B006888437C
:102BD000034908602846FDF7F7FA70BD642300201A
:102BE000880000202DE9F04104460D4616461F4698
:102BF0002A4601212046FFF733FF2046FFF798FDC4
:102C0000A68367720020BDE8F08170B504460025F8
:102C1000FDF7D6FA064604F11400FFF7CEFD28B9F9
:102C200004F11400FFF744FD012502E0A08B401CD5
:102C3000A0833046FDF7C8FA012D01D1FFF738FF18
:102C4000002070BD73B50546FDF7BAFA0646A88B9D
:102C5000002806DDA88B401EA8833046FDF7B4FA95
:102C600028E0019828B93046FDF7AEFA6FF0010070
:102C70007CBD00F05BFA0446002020636A7A21469E
:102C800005F11400FFF71EFD0198002809DD01AAD7
:102C9000002104F1440000F047FB04F1440000F07F
:102CA00087FB3046FDF790FAFFF702FF206B08B173
:102CB000206BDDE70020DBE708B509A0FFF740FD4A
:102CC0000AA0FFF73DFD12A0032300221946009041
:102CD00012A0FFF735FD19A0FFF732FD08BD000077
:102CE0000A205C207C202F0A000000002D20525476
:102CF000202D2020202020546872656164204F70B0
:102D000065726174696E672053797374656D0A002A
:102D10004A756C202038203230323000202F207C41
:102D2000205C202020202025642E25642E25642070
:102D30006275696C642025730A000000203230300F
:102D400036202D203230313820436F707972696718
:102D500068742062792072742D74687265616420D1
:102D60007465616D0A00000001460A4600E0521CCD
:102D700010780028FBD1501A704770B50346A2B1F5
:102D800018460C4600BF14F8016B00F8016B3EB901
:102D900002E0002500F8015B551E2A1EF9D102E071
:102DA000551E2A1EEFD100BF00BF184670BD00009F
:102DB0002DE9F04105460E46E81C20F0030726F0F9
:102DC0000308B8F1180F09D9A8F11800B84205D3C3
:102DD000A8EB070018381E49086006E0324629466D
:102DE0001CA0FFF7ADFCBDE8F0812948076004682E
:102DF0004FF4F5502080164800680C3060600020C9
:102E0000A060608022496068096808442149086020
:102E10004FF4F5500968088001201E490968488070
:102E20000B4800680C301B49096848600848006876
:102E30000C301849096888600023012216A118483F
:102E4000FFF7D0FE124800681649086000BFCAE7C5
:102E5000300000206D656D20696E69742C206572EC
:102E6000726F7220626567696E2061646472657357
:102E70007320307825782C20616E6420656E642084
:102E80006164647265737320307825780A000000ED
:102E90002400002028000020686561700000000008
:102EA000442300202C00002010B500200B4908808E
:102EB000002405E00A4901EBC400FFF75CFC641C38
:102EC000082CF7DB07200749087000200649086036
:102ED000064908600648FFF74EFC10BD7C00002044
:102EE000642300208400002080000020880000204F
:102EF0008C00002070B508480068FEF76DFF451E85
:102F0000064850F83500A0F114040548046004F1A7
:102F10001C00FDF7A2F970BD88000020642300208A
:102F20008000002010B5002405E0044901EBC40036
:102F3000FFF724FC641C002CF7D010BD9400002087
:102F400070472DE9FF5F06460F4690461D46DDE9B6
:102F50000EAB31460020FFF72DFD8146B9F1000F81
:102F600003D1002004B0BDE8F09F2846FFF748FCDD
:102F7000044624B94846FFF742FD0020F2E74346E5
:102F80003A46314648468DE8300CFEF765FF484624
:102F9000E8E710B50446204600F0CEF810BD00006A
:102FA00070B512480468FDF70BF905462046FFF797
:102FB000EFFD042084F8340004F1440000F0D0F95F
:102FC0002046FFF76BFD012805D1206F18B9204678
:102FD000FFF725FD04E004F114010548FFF7D8FBD5
:102FE0002846FDF7F1F8FFF763FD70BD8000002073
:102FF0008C00002001E000F001F8FCE770B537E03C
:10300000FDF7DEF80546FEF71DFF18B31B48006804
:10301000A0F1140404F11400D0E900215160D0E9BA
:10302000001211604060006000BFFFF767F9206F79
:1030300010B12046216F88472046FFF72FFD012859
:1030400005D1FFF76BF92846FDF7BEF870BDFFF715
:1030500065F903E02846FDF7B7F8F7E72846FDF7DE
:10306000B3F8A06AFFF778F92046FFF7C8FC00BF65
:10307000FEF7E8FE0028C3D100BFE7E78C00002080
:103080001FB520200721C200074BCDE90032CDE952
:1030900002100023054A06A1074800F00FF8064871
:1030A00000F06CF81FBD0000C4210020F52F0008BF
:1030B0007469646C650000004C2100202DE9FF5FFD
:1030C00005460C4616461F46DDE910ABDDE90E89C4
:1030D000224600212846FFF7C3FC3B4632462146E4
:1030E00028468DE8000FFEF7B7FE04B0BDE8F09F5C
:1030F00070B5044694F8340000F00F00022802D0A6
:103100004FF0FF3070BDFDF75BF8054604F1140089
:10311000FFF76CFB04F1440000F0C6F92846FDF708
:1031200053F82046FFF70CFD0020EBE7014800684C
:10313000704700008000002031B5FDF741F80546DA
:103140000D480468204600F02FF86A46002104F17B
:10315000440000F0E9F804F1440000F029F92846A1
:10316000FDF732F8FFF7A4FC206B801C08B90020A3
:103170002063002038BD00008000002010B5044608
:103180003434A0786070617801208840606002204B
:1031900004F834092046FFF7ABFFFFF7C7FF08B17B
:1031A000FFF786FC002010BD70B5044694F834008B
:1031B00000F00F00012802D04FF0FF3070BDFCF787
:1031C000FFFF054694F8340020F00F0040F00200A5
:1031D00084F834002046FFF7DBFC04F1440000F0E3
:1031E00063F92846FCF7F0FF0020E7E770B50446D6
:1031F00025466FF00100286305F11400FFF7F6FA89
:103200002846FFF79DFCFFF753FC70BD70B5FCF737
:10321000D7FF05461448046894F8340000F00F0006
:1032200001281CD1D4E90510814218D004F1140002
:10323000FFF7DCFA94F835200C4B03EBC20004F1E5
:1032400014014268116042684A604160086000BF32
:103250002846FCF7B9FFFFF72BFC002070BD28467D
:10326000FCF7B2FF0020F9E7800000206423002073
:1032700001480068704700001C00002010B50A4893
:103280000068401C08490860FFF750FF0446206CA6
:10329000401E2064206C18B9E06B2064FFF7B6FF75
:1032A00000F004F810BD00001C00002070B5FFF70E
:1032B000DFFF0546FCF784FF064628E01948006852
:1032C000A0F11404A06A281A6FF0004188421DD2B0
:1032D0002046FEF724FED4E907108847FFF7C8FF11
:1032E0000546607A00F0020058B1607A00F00100F3
:1032F00038B1607A20F001006072204600F058F882
:1033000005E0607A20F00100607200E004E005480A
:10331000FFF75BFA0028D1D000BF3046FCF754FF1E
:1033200070BD000094000020034649B1012904D07B
:10333000022908D0032910D10AE0586A10600CE075
:103340001068586209E0587A20F00200587204E0D0
:10335000587A40F00200587200BF00BF002070474A
:1033600070B50446FCF72CFF05462046FEF7D7FD56
:103370002846FCF729FF2046FFF751FB002070BDCF
:103380002DE9F84307460C4615461E46DDE9088937
:10339000224609213846FFF763FB43463246294659
:1033A0003846CDF80090FEF799FDBDE8F88300009F
:1033B0002DE9F8430546FCF703FF80462846FEF753
:1033C000AEFD687A20F0010068724046FCF7FCFE12
:1033D000FFF74EFF696A0844A862FCF7F1FE8046D9
:1033E0002F4F009700242AE019E05DF8242011688F
:1033F000142202EBC402881A826AAB6AD21A00D184
:1034000008E0826AAB6AD21A6FF000439A4200D297
:103410000CE000BF5DF8240000684DF824005DF862
:10342000240007EBC40149688842DED100BF2CB1FB
:103430005DF824000830611C4DF82100641C002C4C
:10344000D2D018480068401C164908600846066833
:1034500005F114010098FFF7A2F9022412E006F02A
:10346000030060B9C4F1010305F1140202EBC301CA
:10347000C4F101025DF82200FFF791F900E003E0DA
:10348000B608641C012CEAD900BF687A40F001003C
:1034900068724046FCF798FE0020BDE8F883000003
:1034A000940000209C00002070B50446607A00F073
:1034B000010010B94FF0FF3070BDFCF781FE0546EA
:1034C0002046FEF72CFD2846FCF77EFE607A20F0B1
:1034D000010060720020EFE72DE9FF4F89B08046C0
:1034E00044460A984044461E464504D24FF0FF36F3
:1034F000A6EB08000A906FE10B980078252806D00B
:10350000B44202D80B9800782070641C61E1002559
:1035100026E00B98401C0B900B9800782D2802D1C8
:1035200045F010051CE00B9800782B2802D145F0DF
:10353000040515E00B980078202802D145F0080515
:103540000EE00B980078232802D145F0200507E013
:103550000B980078302802D145F0010500E000E02A
:10356000D7E700BF4FF0FF370B98007830380A28B4
:1035700004D20BA800F061F907460EE00B98007822
:103580002A280AD10B98401C0B900C9880C80C90EC
:10359000002F02DA7F4245F010054FF0FF390B98FB
:1035A00000782E281CD10B98401C0B900B980078AB
:1035B00030380A2804D20BA800F03FF981460AE00F
:1035C0000B9800782A2806D10B98401C0B900C9879
:1035D00050F8049B0C90B9F1000F01DA4FF000098C
:1035E000002004900B980078682803D00B9800788E
:1035F0006C2805D10B98007804900B98401C0B9018
:103600000A2005900B9800786F2875D00CDC632891
:1036100013D004DC252870D058286FD18DE06428A1
:103620006DD06928F9D18FE070286AD0732825D031
:10363000752878D07828F0D182E005F0100040B9E4
:1036400004E0B44201D820202070641C781E071EBC
:10365000F7DC0C9810F8041B0C90C8B20790B44229
:1036600001D807982070641C04E0B44201D82020DF
:103670002070641C781E071EF7DCAAE00C98006816
:1036800006900C98001D0C90069808B95AA0069058
:103690000698FFF769FB8346B9F1000F02DDCB45C1
:1036A00000DDCB4605F0100048B904E0B44201D873
:1036B00020202070641C38467F1E5845F6DC002010
:1036C00008900BE0B44202D8069800782070641C81
:1036D0000698401C06900898401C08900898584589
:1036E000F0DB04E0B44201D820202070641C38468E
:1036F0007F1E5845F6DC6CE01CE015E028E022E077
:10370000FFE7781C10B9082745F00105CDE90079DD
:1037100002950C9804C8102331460C902046FEF701
:10372000F5FC044655E012E0B44201D82520207093
:10373000641C4EE0082005901DE045F0400500BFE8
:103740001020059017E000BF45F0020500BF12E011
:10375000B44201D825202070641C0B98007830B149
:10376000B44202D80B9800782070641C02E00B98D9
:10377000401E0B902DE000BF04986C2807D10C98D8
:1037800050F804AB0C9005F00200B8B116E00498B4
:1037900068280BD10C9830F8041B1FFA81FA0C90A2
:1037A00005F0020050B10FFA8AFA07E00C9850F8C1
:1037B00004AB0C9005F0020000B100BFCDE9007928
:1037C0000295524631462046059BFEF79FFC044673
:1037D00000BF0B98401C0B900B98007800287FF4DA
:1037E0008BAEB44201D8207001E000203070A4EB11
:1037F00008000DB0BDE8F08F284E554C4C29000054
:10380000002070470020704700207047002070475C
:1038100010B5FCF7D5FCFEF717FEFFF74DFAFFF7E2
:1038200081FBFFF741FBFEF737FDFFF789FBFFF751
:1038300027FCFFF75FFB002010BD0146002009E0D8
:103840000B685A1C0A601A7800EB800302EB4302F3
:10385000A2F130000A681278303A0A2AF0D3704791
:103860000000000000000000010203040607080930
:10387000000000000102030400000100020001003A
:103880000300010002000100040001000200010029
:103890000300010002000100050001000200010018
:1038A0000300010002000100040001000200010009
:1038B00003000100020001000600010002000100F7
:1038C00003000100020001000400010002000100E9
:1038D00003000100020001000500010002000100D8
:1038E00003000100020001000400010002000100C9
:1038F00003000100020001000700010002000100B6
:1039000003000100020001000400010002000100A8
:103910000300010002000100050001000200010097
:103920000300010002000100040001000200010088
:103930000300010002000100060001000200010076
:103940000300010002000100040001000200010068
:103950000300010002000100050001000200010057
:103960000300010002000100040001000200010048
:1039700003000100020001003031323334353637A4
:10398000383961626364656600303132333435360C
:10399000373839414243444546000000D5E2CAC7A2
:1039A000D2BBB8F65BD2B0BBF05D2D53544D333271
:1039B0002D5254542DB8DFBCB6B6A8CAB1C6F750C4
:1039C000574DBBA5B2B9CAE4B3F6CAB5D1E92CCA02
:1039D000BEB2A8C6F7C1ACBDD3504935A1A250486C
:1039E0003133B2E9BFB4CFD6CFF3A3A10A000000B0
:1039F0000D380008053800080138000809380008AB
:103A0000203A000800000020B0000000241E00083A
:103A1000D03A0008B0000020F8260000341E00084C
:103A20000024F4000000000010000000010000006D
:103A30000000000000000000F40100000000000091
:103A40000000000000000000000000000000000076
:103A50000000000000000000000000000000000066
:103A6000400000204000002078000000010000001D
:103A70005000002050000020200000000400000042
:103A800060000020600000203000000009000000FD
:103A900070000020700000202C00000000000000DA
:103AA0000000000000000000000000000000000016
:103AB0000000000000000000000000000000000006
:103AC00000000000000000000000000000000000F6
:040000050800018965
:00000001FF
