:020000040800F2
:10000000306D00209D010008ED230008A3020008C8
:10001000E9230008250400084D2C0008000000001A
:100020000000000000000000000000004127000860
:100030006504000800000000EF01000843270008E5
:10004000B7010008B7010008B7010008B7010008B0
:10005000B7010008B701000879040008B7010008DB
:10006000B7010008B7010008B7010008B701000890
:10007000B7010008B7010008B7010008B701000880
:10008000B7010008B7010008B7010008B701000870
:10009000B7010008B7010008B7010008B701000860
:1000A000B7010008B7010008B7010008B701000850
:1000B000B7010008B7010008B7010008B701000840
:1000C000B7010008B7010008B7010008B701000830
:1000D000B7010008B7010008B7010008B701000820
:1000E000B7010008B7010008B7010008B701000810
:1000F000B7010008B7010008B7010008B701000800
:10010000B7010008B7010008B7010008B7010008EF
:10011000B7010008B7010008B7010008B7010008DF
:10012000B7010008B7010008B7010008B7010008CF
:10013000B7010008B7010008B7010008B7010008BF
:10014000B7010008B7010008B7010008B7010008AF
:10015000B7010008B7010008B7010008B70100089F
:10016000B7010008B7010008B7010008B70100088F
:10017000B7010008B7010008B7010008000000003F
:10018000B7010008B7010008DFF80CD000F006F94D
:100190000048004717040008306D002006488047DB
:1001A00006480047FEE7FEE7FEE7FEE7FEE7FEE75C
:1001B000FEE7FEE7FEE7FEE71528000889010008D4
:1001C000EFF3108072B6704780F3108870473A4A98
:1001D0001368012B04D04FF001031360374A1060FD
:1001E000374A116037484FF0805101607047EFF394
:1001F000108272B63048016851B34FF000010160BF
:100200002E48016891B1EFF309811EF0100F08BF6D
:1002100021ED108B21E9F00F4FF000041EF0100FBC
:1002200008BF012441F8044D0068016024490968B1
:10023000096808C9B1E8F00F002B18BFB1EC108BAA
:1002400081F309884EF0100E002B18BF2EF0100E0F
:1002500082F310884EF0040E704719490860EFF3DE
:10026000148222F0040282F3148814494FF0000033
:10027000086011494FF00100086013484FF47F01F6
:10028000D0F8002041EA020101600E484FF0805191
:1002900001600E480068006880F3088861B662B6A5
:1002A0007047EFF3098000B503F0B6F95DF804EB91
:1002B0004EF0040E70470000240100201C010020B5
:1002C0002001002004ED00E020ED00E008ED00E05A
:1002D0002DE9F05F0546002092469B46884606467B
:1002E000814640241BE0284641464746224600F00E
:1002F00045F853465A46C01A914110D31146184644
:10030000224600F02CF82D1A67EB01084F462246D2
:100310000120002100F023F817EB00094E41201EB8
:10032000A4F10104DFDC484631462A464346BDE8D5
:10033000F09F30B50B46014600202022012409E041
:1003400021FA02F59D4205D303FA02F5491B04FA8E
:1003500002F52844151EA2F10102F1DC30BD202A6D
:1003600004DB203A00FA02F1002070479140C2F10C
:10037000200320FA03F3194390407047202A04DB3E
:10038000203A21FA02F00021704721FA02F3D0400E
:10039000C2F120029140084319467047064C074DB0
:1003A00006E0E06840F0010394E807009847103445
:1003B000AC42F6D3FFF7ECFED09D0008F09D00089C
:1003C00070B58C1810F8015B15F0070301D110F817
:1003D000013B2A1106D110F8012B03E010F8016B44
:1003E00001F8016B5B1EF9D12B0705D40023521EC7
:1003F0000DD401F8013BFAE710F8013BCB1A921C2F
:1004000003E013F8015B01F8015B521EF9D5A1422C
:10041000D8D3002070BD10B5FFF7D2FE04F07AFAF1
:10042000002010BD00BFFEE710B50C480C49086065
:100430004FF4E1304860002109488160C1600161EA
:1004400081610C21416101F070F905480068C068C4
:1004500040F0200002490968C86010BD001001404A
:1004600030010020704701B502E00098401E009066
:1004700000980028F9D108BD7047000070B5044607
:100480001D460023B5F5804F13D154F822300C4897
:100490000340D1E9000640EA06108E6840EA0620D3
:1004A0008E8940EA06408E693043034344F8223087
:1004B00003E06FF0704044F82200002070BD00009F
:1004C0000000F0CF10B503460022086853F8202042
:1004D00012480240D1E901042043CC6820430C6952
:1004E00020434C6920438C692043CC6920430C6A2B
:1004F00020434C6A20438C6A2043CC6A2043CC6B57
:1005000020430C6B204302438868082801D142F045
:100510004002086843F82020002010BD8000F0FF52
:1005200030B503460024501C53F8204004F04044EA
:10053000D1E9000540EA05108D6840EA05208D8963
:1005400040EA0545088A401E45EA0055087D801EA0
:1005500045EA00608D6928430443501C43F820405D
:10056000002030BDF8B502460B46002500240020CF
:100570000021DCE0012606FA01F51E6806EA050402
:10058000AC4273D15E68022E02D05E68122E13D187
:10059000CF0802F1200656F827004E07F70E0F2667
:1005A000BE40B0434F07FF0E1E69BE403043CF0828
:1005B00002F1200646F8270010684F000326BE40CF
:1005C000B0431E7906F003064F00BE403043106072
:1005D0005E68012E08D05E68022E05D05E68112E7E
:1005E00002D05E68122E13D190684F000326BE40E1
:1005F000B0434F00DE68BE40304390605068012633
:100600008E40B0431E79C6F300168E4030435060D2
:10061000D0684F000326BE40B0434F009E68BE40E6
:100620003043D0605E6806F08056B6F1805F7DD1C1
:1006300000BF00260096404E366846F480463E4F86
:100640003E603E46366806F48046009600BF00BF16
:100650003A4E8F0856F827008E07370F0F26BE40F8
:10066000B043374EB24202D1002624E05EE0354E60
:10067000B24201D101261EE0334EB24201D1022620
:1006800019E0324EB24201D1032614E0304EB2429C
:1006900001D104260FE02F4EB24201D105260AE017
:1006A0002D4EB24201D1062605E02C4EB24201D1B8
:1006B000072600E008268F073F0FBE4030431F4E3D
:1006C0008F0846F82700264E3068A0435E6806F47F
:1006D0008036B6F5803F00D12043214E3060361D74
:1006E0003068A0435E6806F40036B6F5003F00D1DE
:1006F00020431B4E361D3060361D3068A0435E68B7
:1007000006F48016B6F5801F00D12043144E08363B
:100710003060361D3068A0435E6806F40016B6F5FA
:10072000001F00D120430E4E0C363060491C1029AA
:10073000FFF420AFF8BD0000443802400838014003
:10074000000002400004024000080240000C024089
:10075000001002400014024000180240001C024039
:10076000003C0140024613690B400BB1012000E040
:100770000020704701480068000C7047002004E02A
:1007800001480068704700000400002070B504466E
:100790000E4800784FF47A71B1FBF0F00C4909680B
:1007A000B1FBF0F5284600F0A6FF08B1012070BDAE
:1007B000102C07D200222146501E00F01DF80548DB
:1007C000046001E00120F2E70020F0E70C000020C7
:1007D000000000200800002001460846002809DB30
:1007E00000F01F0301229A4043099B0003F1E0231C
:1007F000C3F8002100BF70472DE9F05F80460D4629
:100800001646002702F048FA074639462A4633467C
:1008100001F00700C0F1070ABAF1040F02D94FF046
:10082000040A01E0C0F1070AD14600F1040ABAF156
:10083000070F02D24FF0000A01E0A0F1030AD446EC
:100840004FF0010A0AFA09FAAAF1010A0AEA020AB1
:100850000AFA0CFA4FF0010B0BFA0CFBABF1010B8F
:100860000BEA030B4AEA0B042146404602F01CFA4D
:10087000BDE8F09F012001490862704700000E4268
:10088000F8B5044600250026207800F0010020B9C4
:10089000207800F0040004282FD100205B498866EE
:1008A000FFF76EFF054606E0FFF76AFF401B0228D0
:1008B00001D90320F8BD56480068C0F3C060002885
:1008C000F2D160688101207A41EA00705049843198
:1008D000086001204D498866FFF752FF054606E093
:1008E000FFF74EFF401B022801D90320E2E74848EA
:1008F0000068C0F3C0600028F2D0207800F0020049
:1009000002287DD100BF002000904148403000689F
:1009100040F080503E49403108600846006800F0D1
:100920008050009000BF00BF3A48006840F48070DB
:1009300038490860FFF724FF054606E0FFF720FF6F
:10094000401B022801D90320B4E73248006800F4B4
:1009500080700028F2D02E487030006800F4407695
:100960004EB3A08900F44070B04224D028487030C3
:10097000006820F4407601202749086000200860C4
:10098000234870300660006800F0010098B1FFF75E
:10099000F7FE054608E0FFF7F3FE401B41F2883101
:1009A000884201D9032085E7194870300068C0F3F8
:1009B00040000028EFD000BFA08900F44070B0F5DF
:1009C000407F0CD112480830006820F4F810134A18
:1009D000E168114008430E490831086007E00C48FF
:1009E0000830006820F4F810094908310860084808
:1009F00070300068A189C1F30B010843044900E08D
:100A000002E07031086000BF002053E70000474259
:100A10000038024000700040400E4742FFFCFF0FCC
:100A200070B504460D460CB9012070BD58480068E9
:100A300000F00F00A84209D255490D700846006821
:100A400000F00F00A84201D00120EEE7207800F06E
:100A5000020002281DD1207800F00400042805D1EE
:100A60004C48006840F4E0504A490860207800F0A3
:100A70000800082805D14748006840F4604045490F
:100A800008604448006820F0F000A168084341492C
:100A90000860207800F00100A8B36068012807D141
:100AA0003C4808380068C0F34040B8B90120BCE7B2
:100AB0006068022802D06068032807D135480838EA
:100AC0000068C0F3406048B90120AEE731480838FB
:100AD0000068C0F3400008B90120A6E72D4800686F
:100AE00020F00300616808432A490860FFF748FEC8
:100AF000064609E0FFF744FE801B41F28831884238
:100B000002D9032091E707E02248006800F00C00BA
:100B10006168B0EB810FEDD11D48006800F00F0057
:100B2000A84209D91A490D700846006800F00F0064
:100B3000A84201D0012078E7207800F004000428C2
:100B400007D11448006820F4E050E16808431149D7
:100B50000860207800F00800082808D10D480068D7
:100B600020F46040216940EAC1000A49086000F0B1
:100B70003DF808490968C1F30311074A515CC840B0
:100B8000064908600F20FFF701FE00204DE7000036
:100B9000003C024008380240644900080000002080
:100BA00001480068704700000000002000B5FFF712
:100BB000F7FF04490968C1F38221034A515CC84028
:100BC00000BD0000083802407449000800B5FFF776
:100BD000E7FF04490968C1F34231034A515CC84048
:100BE00000BD000008380240744900082DE9F047B4
:100BF000002400250026A1462548006800F00C00CE
:100C000020B1042805D008283AD105E0DFF8849007
:100C100039E0DFF8849036E01D48001F006800F0DE
:100C20003F041B48001F006800F4800078B11A4898
:100C30001749091F0968C1F38811A0FB017001461B
:100C4000224600233846FFF743FB05460EE01148D5
:100C50000F49091F0968C1F38811A0FB0170014603
:100C6000224600233846FFF733FB05460848001F9D
:100C70000068C0F30140401C4600B5FBF6F902E0F5
:100C8000DFF8109000BF00BF4846BDE8F0870000C5
:100C9000083802400024F40040787D01F8B504468D
:100CA0000CB90120F8BD207800F00100002874D0B4
:100CB000F948006800F00C0004280DD0F6480068E0
:100CC00000F00C00082813D1F348001F006800F45E
:100CD0008000B0F5800F0BD1EF4808380068C0F3F2
:100CE0004040002859D06068002856D10120D9E73B
:100CF00000BF6068B0F5803F08D1E7480838006859
:100D000040F48030E449083908601EE06068B0F5BE
:100D1000A02F0DD1E0480838006840F48020DE495B
:100D2000083908600846006840F4803008600CE02C
:100D3000D9480838006820F48030D749083908605D
:100D40000846006820F48020086000BF606890B109
:100D5000FFF716FD054606E0FFF712FD401B64286D
:100D600001D903209EE7CC4808380068C0F3404012
:100D70000028F1D011E0FFF703FD054606E0FFF77C
:100D8000FFFC401B642801D903208BE7C2480838C8
:100D90000068C0F340400028F1D1207800F0020044
:100DA00002285FD1BC48006800F00C0058B1BA4876
:100DB000006800F00C0008281CD1B748001F00682C
:100DC00000F48000B0B9B44808380068C0F34000AF
:100DD00020B1E068012801D0012063E7AE4808385F
:100DE000006820F0F800216940EAC100AA490839EA
:100DF000086037E0E06800B30120A8490860FFF709
:100E0000BFFC054606E0FFF7BBFC401B022801D9EA
:100E1000032047E7A04808380068C0F340000028D6
:100E2000F1D09D480838006820F0F800216940EAB8
:100E3000C10099490839086014E00020974908600A
:100E4000FFF79EFC054606E0FFF79AFC401B0228D0
:100E500001D9032026E7904808380068C0F3400015
:100E60000028F1D1207800F0080008282CD1606912
:100E7000A8B101208A490860FFF782FC054606E018
:100E8000FFF77EFC401B022801D903200AE78248B5
:100E90006C300068C0F340000028F1D014E000205E
:100EA0007F490860FFF76CFC054606E0FFF768FC29
:100EB000401B022801D90320F4E677486C30006813
:100EC000C0F340000028F1D1207800F0040004288D
:100ED00070D1002670483830006800F0805090B91A
:100EE00000BF002000906C483830006840F080500F
:100EF0006949383108600846006800F08050009069
:100F000000BF00BF01266748006800F48070B0B9D8
:100F10006448006840F4807062490860FFF730FC64
:100F2000054606E0FFF72CFC401B022801D90320F0
:100F3000B8E65C48006800F480700028F2D000BF7A
:100F4000A068012808D154486830006840F00100CA
:100F50005149683108601DE0A06805280DD14E4850
:100F60006830006840F004004B496831086008466A
:100F7000006840F0010008600CE0474868300068F5
:100F800020F001004449683108600846006820F0FC
:100F90000400086000BFA068A8B1FFF7F1FB054698
:100FA00009E0FFF7EDFB401B41F28831884202D98E
:100FB000032077E626E0384868300068C0F3400038
:100FC0000028EED013E0FFF7DBFB054608E0FFF753
:100FD000D7FB401B41F28831884201D9032061E6EA
:100FE0002D4868300068C0F340000028EFD1012E82
:100FF00007D129483830006820F080502649383120
:10100000086000BFA069B8B32348006800F00C0076
:1010100008285ED0A069022846D100201F49086632
:10102000FFF7AEFB054606E0FFF7AAFB401B0228D0
:1010300001D9032036E6184808380068C0F340603C
:101040000028F1D1D4E907010843616A40EA81111F
:101050000122A06AC2EB500041EA00412C20005D51
:1010600041EA00600C49091F086001200B4908662D
:10107000FFF786FB054607E02DE0FFF781FB401BED
:10108000022801D903200DE6034808380068C0F3A0
:1010900040600028F1D01EE00838024000004742BE
:1010A000800E47420070004000200C490866FFF7A0
:1010B00067FB054606E0FFF763FB401B022801D9EA
:1010C0000320EFE506480068C0F340600028F2D135
:1010D00001E00120E6E50020E4E5000000004742D1
:1010E0000038024002460023106800F1500303EB71
:1010F00081031868704710B50023046804F1500399
:1011000003EB81031A6010BD70B505460B46164609
:101110000024286840680E4900EA0104200CD870B9
:10112000C4F30420587004F03F009870C4F34230B8
:1011300018705EB9D87801F05AF9D870587801F073
:1011400056F95870987801F052F99870002070BDE7
:101150003FFFFF0070B504460B4616460025206889
:10116000806A586020680069C0F30E0098602068AB
:1011700000680F4900EA0105C5F305401870C5F382
:101180000620587005F07F00987005F48000000C70
:10119000D8705EB9187801F02AF91870587801F003
:1011A00026F95870987801F022F99870002070BDE7
:1011B0007F7F7F0010B504460CB9012010BD607F11
:1011C00020B900202077204600F060F802206077E8
:1011D00000BFCA202168486253202168486200BFCE
:1011E000204601F083F940B100BFFF20216848622A
:1011F00000BF042060770120E0E720688068224972
:101200000840216888602169606808436169084373
:10121000216889680843216888602168E06808615E
:1012200020680169208941EA00402168086120683E
:10123000C06820F080002168C8602068806800F0E5
:10124000200060B9204600F03BF940B100BFFF200C
:101250002168486200BF042060770120AEE7206863
:10126000006C20F48020216808642068006CA1696B
:1012700008432168086400BFFF202168486200BF5E
:1012800001206077002099E7BFFF8FFF70470000C3
:101290002DE9F04104460D461646002700BF207F89
:1012A000012802D10220BDE8F0810120207700BF93
:1012B000022060774EB9687800F01000102804D141
:1012C000687800F0EF000A30687086B9E87801F0BD
:1012D00099F80304687801F095F843EA0023A878A8
:1012E00001F090F80343287843EA403709E0E878B2
:1012F0000004697840EA0120A9780843297840EA87
:10130000413700BFCA2021684862532021684862E3
:1013100000BF204601F0EAF860B100BFFF2021685D
:10132000486200BF0420607700BF0020207700BF24
:101330000120B8E716483840216848602068C06836
:1013400020F080002168C8602068806800F02000DC
:1013500080B9204600F0B4F860B100BFFF202168DA
:10136000486200BF0420607700BF0020207700BFE4
:10137000012098E700BFFF202168486200BF0120DC
:10138000607700BF0020207700BF00BF8BE7000020
:101390003FFFFF002DE9F04104460D4616460027A9
:1013A00000BF207F012802D10220BDE8F08101208A
:1013B000207700BF02206077CEB92068806800F0F7
:1013C000400000B102E00020E87000BF287801F082
:1013D00019F80304687801F015F843EA0023A878A7
:1013E00001F010F80343E87843EA004712E0206870
:1013F000806800F0400000B102E00020E87000BF0B
:1014000028780004697840EA0120A9780843E9783F
:1014100040EA014700BFCA20216848625320216882
:10142000486200BF204601F061F860B100BFFF20B4
:101430002168486200BF0420607700BF0020207749
:1014400000BF0120B1E71D483840216808602068CE
:10145000806820F4802021688860D5E90301084372
:10146000216889680843216888602068C06820F086
:1014700080002168C8602068806800F0200080B982
:10148000204600F01DF860B100BFFF2021684862CF
:1014900000BF0420607700BF0020207700BF01203C
:1014A00083E700BFFF202168486200BF012060770A
:1014B00000BF0020207700BF00BF76E77F7F7F005E
:1014C00070B5044600252068C06820F0A00021689F
:1014D000C860FFF755F9054607E0FFF751F9401BD3
:1014E000B0F57A7F01D9032070BD2068C06800F094
:1014F00020000028F1D00020F6E710B504460CB912
:10150000012010BD606A00B900BFA06AB0F5005F9D
:1015100000D100BF94F8510028B9002084F8500091
:10152000204600F03BF8022084F851002068006853
:1015300020F0400021680860D4E901010843E16817
:1015400008432169084361690843218B01F4007154
:101550000843E1690843216A0843A16A08432168F6
:1015600008600421A06901EA1040616A084321680B
:101570004860A06AB0F5005F02D12168E06A0861A6
:101580002068C06920F400602168C861002060659F
:10159000012084F851000020B3E7000010B586B0A8
:1015A000044600BF002000903948006840F0020067
:1015B000374908600846006800F00200009000BF4C
:1015C00000BF00BF002000900846006840F0020005
:1015D00008600846006800F00200009000BF00BFED
:1015E00000BF002000900846006840F0020008603C
:1015F0000846006800F00200009000BF00BF00BF76
:10160000002000900846006840F04000086008464E
:10161000006800F04000009000BF00BF00BF002045
:1016200000901B481430006840F480501849143171
:1016300008600846006800F48050009000BF00BFBA
:1016400008200190022002900120039002200490C3
:101650000520059001A90F48FEF784FF1020019096
:101660000520059001A90B48FEF77CFF2020019082
:101670000520059001A90748FEF774FF402001905E
:101680000120029001A90448FEF76CFF06B010BDCE
:1016900030380240000402400018024070B5044691
:1016A0000E4615460CB9012070BD94F8490028B9C2
:1016B000002084F84800204600F01CF804F10801DE
:1016C0002068FEF7FFFE3146A2682068FEF728FF7B
:1016D0002946236BD4E90102FEF7D0FEA1682068F9
:1016E00050F8210040F00100A268216841F8220072
:1016F0000020D9E7704770B504462546681EB0F152
:10170000807F01D301200FE0681E4FF0E021486187
:101710000F214FF0FF3001F0C7FA00204FF0E02119
:10172000886107200861002070BD10B504460CB91F
:10173000012010BDA06900B100E000BF94F839009D
:1017400028B9002084F83800204600F027F824202B
:1017500084F839002068C06820F400502168C8600F
:10176000204601F089F82068006920F49040216843
:1017700008612068406920F02A00216848612068DB
:10178000C06840F400502168C8600020E063202059
:1017900084F8390084F83A000020CAE710B586B012
:1017A000044600BF002000902648006840F010006A
:1017B000244908600846006800F01000009000BF4F
:1017C00000BF00BF002000901E481438006840F0A1
:1017D00002001C49143908600846006800F0020045
:1017E000009000BF00BF00BF0020009008460068C6
:1017F00040F0020008600846006800F00200009017
:1018000000BF00BF40200190022002900120039001
:10181000032004900720059001A90B48FEF7A2FEC3
:10182000802001900720059001A90748FEF79AFE45
:10183000012200212520FEF7DFFF2520FEF7CCFF47
:1018400006B010BD44380240000402402DE9F843C0
:1018500004460D4616461F464FF0000994F839001D
:1018600020285CD105B116B90120BDE8F88300BF7E
:1018700094F83800012801D10220F6E7012084F80D
:10188000380000BF0020E063212084F83900FEF713
:1018900077FF8146A684E6842BE0E08C401EE0843E
:1018A000A068B0F5805F16D14B460022802120460B
:1018B000009701F095F908B10320D6E7A846B8F8DB
:1018C0000000C0F3080021684860206908B9AD1C19
:1018D0000FE06D1C0DE04B46002280212046009752
:1018E00001F07EF908B10320BFE715F8010B21686C
:1018F0004860E08C0028D0D14B4600224021204691
:10190000009701F06DF908B10320AEE7202084F8BC
:10191000390000BF002084F8380000BFA5E702208E
:10192000A3E7000018B12021034A916103E04FF4BE
:101930000011014A91617047001002402DE9F04109
:1019400006460F4614461D462B462246394630466B
:1019500000F0FCF904FB05F00249098800F0DAF810
:10196000BDE8F0817600002001B502E00098401E3D
:10197000009000980028F9D108BD00002DE9F05F23
:10198000804689461646A6F120001FFA80FA1E49B5
:10199000096889881C4A1268D28801FB02F0C117C5
:1019A00000EB5171C1F3C7071748006800680AFBD4
:1019B000070B15480068C3881348006882884946A9
:1019C000404600F0C3F92C2000F0F8FB002416E09C
:1019D000002510E01BF8040080212941084020B1B7
:1019E0000A48008800F0EEFB03E00948008800F098
:1019F000E9FB681CC5B2082DECDB601CC4B2BC421C
:101A0000E6DBBDE8F09F00007000002074000020BD
:101A10007600002070B504460D46002624E03046CE
:101A2000134909688988084412490988884205DDF4
:101A300000260F480068C088204484B220460C4924
:101A40000968C98808440C490988884201DD0026D4
:101A500000242A7821463046FFF790FF6D1C044889
:101A600000688088304486B228780028D7D170BDBD
:101A700070000020680000206A00002008B54FF0C8
:101A80002040204908602048486000BF00200090A6
:101A90001E48006840F001001C49086008460068C4
:101AA00000F00100009000BF00BF0420184908604A
:101AB00000204860042088600020C86008614861F8
:101AC0004FF08050886104200E49886000210D4845
:101AD000C160082101611021416100218161C16162
:101AE00041624FF4805181620021C1620163416310
:101AF00081634FF48011C163054A1146FFF7CEFDA3
:101B000008BD000070010020040100A03838024028
:101B1000C001002070B504460D4600262C2000F0C0
:101B20004DFB00BF03E0284600F04CFB761CA642AC
:101B3000F9D370BD00B587B000BF002001903F48C9
:101B4000006840F008003D4908600846006800F061
:101B50000800019000BF00BF00BF002001900846B0
:101B6000006840F0100008600846006800F01000AF
:101B7000019000BF00BF00BF002001900846006830
:101B800040F0200008600846006800F02000019046
:101B900000BF00BF00BF002001900846006840F071
:101BA000400008600846006800F04000019000BF57
:101BB00000BF00BF0020019020480830006840F0BE
:101BC00001001E49083108600846006800F0010065
:101BD000019000BF00BF01200390049003200590F6
:101BE0002020029002A91648FEF7BCFC4FF480604A
:101BF000029002A91348FEF7B5FC4FF40060029072
:101C000002A91148FEF7AEFC022003900C200690BA
:101C10004CF23370029002A90C48FEF7A3FC4FF679
:101C20008070029002A90648FEF79CFC01200290F9
:101C300002A90548FEF796FC07B000BD3038024007
:101C4000001002400018024000140240000C024044
:101C500010B50446072C00DD10BD2948047020464D
:101C600004EBD0714910A4EB410141B94FF4F0707D
:101C70002449088040F256302349088007E040F2AA
:101C80005630204908804FF4F0701F4908803620F4
:101C900000F094FA002141EA441000F093FA2A205F
:101CA00000F08CFA002000F08DFA002000F08AFA93
:101CB00014490988491EC1F3072000F083FA11492D
:101CC0000978491EC8B200F07DFA2B2000F076FAA0
:101CD000002000F077FA002000F074FA0A49098821
:101CE000491EC1F3072000F06DFA07490978491E23
:101CF000C8B200F067FA2C2000F060FA00BFABE732
:101D00006C000020680000206A00002010B5FFF77A
:101D100011FFFFF7B3FE00F03DFA00F047F8084866
:101D20000078FFF795FF07480388074802880021DD
:101D30000846FFF703FE0120FFF7F4FD10BD000089
:101D40006C0000206A000020680000202DE9F041AE
:101D500004460D4616461F462A2000F02FFA201290
:101D600000F030FAE0B200F02DFAA119491EC1F3DB
:101D70000F2000F027FAA119491EC8B200F022FA7C
:101D80002B2000F01BFA281200F01CFAE8B200F039
:101D900019FAE919491EC1F30F2000F013FAE919E5
:101DA000491EC8B200F00EFABDE8F08110B54FF43C
:101DB000A040FEF758FBFF2000F000FAFF2000F0E3
:101DC00001FA982000F0FEF9062000F0FBF94FF42C
:101DD000A040FEF748FBBA2000F0F0F9602000F0C8
:101DE000F1F94FF4A040FEF73EFBBC2000F0E6F90D
:101DF000032000F0E7F90E2000F0E4F9612000F084
:101E0000E1F9FF2000F0DEF9052000F0DBF9052004
:101E100000F0D8F91B2000F0D5F9102000F0D2F91D
:101E2000732000F0CFF9632000F0CCF9FF2000F020
:101E3000C9F9FF2000F0C6F9052000F0C3F905201C
:101E400000F0C0F9002000F0BDF9002000F0BAF960
:101E5000D52000F0B7F9D02000F0B4F9012000F04F
:101E6000B1F9002000F0AEF9402000F0ABF94FF4DA
:101E7000A040FEF7F8FABD2000F0A0F9012000F024
:101E8000A1F9232000F09EF9452000F09BF967207E
:101E900000F098F9012000F095F9232000F092F964
:101EA000452000F08FF9672000F08CF94FF4A04036
:101EB000FEF7D9FABE2000F081F9012000F082F986
:101EC0002D2000F07FF9CB2000F07CF9A22000F05B
:101ED00079F9622000F076F9F22000F073F9E2203F
:101EE00000F070F9222000F06DF9222000F06AF96C
:101EF0004FF4A040FEF7B7FAC72000F05FF9632067
:101F000000F060F94FF4A040FEF7ADFAED2000F0CC
:101F100055F97F2000F056F90F2000F053F900200A
:101F200000F050F94FF4A040FEF79DFAC02000F0F9
:101F300045F9032000F046F90B2000F043F900209A
:101F400000F040F94FF4A040FEF78DFAFC2000F0BD
:101F500035F9082000F036F94FF4A040FEF783FA77
:101F6000DF2000F02BF9002000F02CF9002000F019
:101F700029F9002000F026F9002000F023F90020C4
:101F800000F020F9202000F01DF94FF4A040FEF7EA
:101F90006AFAF32000F012F9742000F013F94FF4FC
:101FA000A040FEF760FAF92000F008F9002000F0E8
:101FB00009F9FD2000F006F9802000F003F98020E7
:101FC00000F000F9C02000F0FDF84FF4A040FEF74B
:101FD0004AFAB42000F0F2F8022000F0F3F80220F0
:101FE00000F0F0F8022000F0EDF84FF4A040FEF70A
:101FF0003AFAF72000F0E2F8812000F0E3F84FF41D
:10200000A040FEF730FAB12000F0D8F8002000F030
:10201000D9F8132000F0D6F8132000F0D3F84FF4CD
:10202000A040FEF720FAF22000F0C8F8C02000F02F
:10203000C9F8022000F0C6F8402000F0C3F82820BC
:1020400000F0C0F84FF4A040FEF70DFAC12000F0F8
:10205000B5F8172000F0B6F8752000F0B3F8752039
:1020600000F0B0F8202000F0ADF84FF4A040FEF7EB
:10207000FAF9E02000F0A2F8002000F0A3F8052013
:1020800000F0A0F8082000F09DF80C2000F09AF86D
:102090000F2000F097F8152000F094F8092000F0C8
:1020A00091F8072000F08EF8012000F08BF8062050
:1020B00000F088F8092000F085F8162000F082F87A
:1020C000142000F07FF83E2000F07CF83E2000F065
:1020D00079F8002000F076F84FF4A040FEF7C3F93D
:1020E000E12000F06BF8002000F06CF8092000F00F
:1020F00069F8122000F066F8122000F063F813204F
:1021000000F060F81C2000F05DF8072000F05AF89D
:10211000082000F057F8052000F054F8082000F0DF
:1021200051F8032000F04EF8022000F04BF8042094
:1021300000F048F81E2000F045F81B2000F042F89F
:10214000002000F03FF84FF4A040FEF78CF93A2051
:1021500000F034F8552000F035F84FF4A040FEF7B9
:1021600082F9352000F02AF8002000F02BF84FF417
:10217000A040FEF778F9112000F020F84FF4A040BD
:10218000FEF771F9292000F019F84FF4A040FEF78E
:102190006AF910BD10B54FF000600749086040F6BD
:1021A000FF20FFF7E1FB4FF400600349086040F6B1
:1021B000FF20FFF7D9FB10BD181402404FF0D041AB
:1021C000088070474FF0D0414880704700B587B015
:1021D00000BF002001903648006840F001003449FB
:1021E00008600846006800F00100019000BF00BFD1
:1021F00000BF002001900846006840F0040008601D
:102200000846006800F00400019000BF00BF00BF56
:10221000002001900846006840F040000860084631
:10222000006800F04000019000BF00BF00BF002028
:1022300001900846006840F04000086008460068C9
:1022400000F04000019000BF00BF00BF00200190DF
:102250000846006840F0400008600846006800F04A
:102260004000019000BF00BF0120029000200390B9
:10227000049002A90F48FEF775F94FF40050029040
:1022800002A90D48FEF76EF90420029002A90B483E
:10229000FEF768F90820029002A90848FEF762F9E3
:1022A0001020029002A90548FEF75CF907B000BDB6
:1022B000303802400000024000080240001802408E
:1022C00070B504460D4629462046FEF74BFA012814
:1022D00008D100BF29462046FEF744FA0128F9D06C
:1022E000012070BD0020FCE7014800687047000035
:1022F0007000002000B587B000BF00200190354875
:10230000006840F00100334908600846006800F0AA
:102310000100019000BF00BF00BF002001900846EF
:10232000006840F0100008600846006800F01000E7
:10233000019000BF00BF00BF002001900846006868
:1023400040F0400008600846006800F0400001903E
:1023500000BF00BF00BF002001900846006840F0A9
:10236000020008600846006800F00200019000BF0B
:1023700000BF4FF40040029001200390049003201E
:10238000059002A91448FEF7EDF80420029002A976
:102390001248FEF7E7F84FF40040029002A91048F7
:1023A000FEF7E0F84FF48070029002A90D48FEF7A6
:1023B000D9F84FF400400849886104200749886132
:1023C0004003074918310860C011064918310860F8
:1023D00007B000BD3038024000000240001002404B
:1023E000001802400004024000BFFEE770470146AB
:1023F00000BF080900EB8000420001F00F0010440C
:10240000C0B270470146002203E0521CA1F10A004D
:10241000C1B20A29F9D2100741EA106070470000E2
:1024200000B591B026482749086000BF0020009001
:102430002548006840F0805023490860084600683D
:1024400000F08050009000BF00BF00BF002000904F
:102450001D481038006840F480201B49103908607E
:102460000846006800F48020009000BF00BFFEF71F
:1024700001FA0C20059000200B900120079000200D
:102480000A9005A8FEF70AFC02200190C001049002
:1024900001A8FEF7F5F901200C4908607F210948E1
:1024A0008160FF21C1600020064948600846FEF7B0
:1024B00081FE10B106A000F0CBFB11B000BD000002
:1024C000002800405C460020403802403C0E474255
:1024D0000A0D2052544320CAB1D6D3B3F5CABCBBAF
:1024E000AFCAA7B0DC200D0A0000000070B504469A
:1024F00000252068C06800F04000A0B9681E21686F
:10250000C860FEF73DF9054607E0FEF739F9401BC4
:10251000B0F57A7F01D9032070BD2068C06800F053
:1025200040000028F1D00020F6E7000000B587B099
:1025300000208DF8070001208DF804008DF80500BB
:102540008DF80600002201A90C48FEF723FF0120A8
:102550008DF818008DF81A008DF819008DF81B0001
:10256000002206A90548FEF793FE43F2F22200215D
:102570000248FEF7C0FD07B000BD00005C46002029
:10258000A2B0002452E0002204A92948FEF7E2FD8F
:10259000002203A92648FEF7B7FD9DF81200A042CD
:1025A00042D09DF80C0000909DF80E309DF80D2053
:1025B0009DF80F101FA000F04BFB9DF80C009DF83C
:1025C0000E10CDE900109DF80D309DF80F2027A1C9
:1025D00009A800F04DFBFFF787FEC0884004050CFA
:1025E00009A92846FFF716FA9DF812309DF8112028
:1025F0009DF810102AA000F02BFB9DF8120000900F
:102600009DF811309DF810202EA109A800F030FB94
:10261000FFF76AFEC08800EB800085B209A9284652
:10262000FFF7F8F92F4800689DF81240ABE700006B
:102630005C4600205468652044617465203A20207F
:10264000593A323025302E3264202D204D3A253033
:102650002E3264202D20443A25302E3264202D2045
:10266000573A25302E32640D0A0000005468652068
:1026700044617465203A2020593A323025302E3298
:1026800064202D204D3A25302E3264202D20443AEE
:1026900025302E3264202D20573A25302E3264000A
:1026A0005468652054696D65203A202025302E320B
:1026B000643A25302E32643A25302E3264200D0AD9
:1026C0000D0A00005468652054696D65203A202089
:1026D00025302E32643A25302E32643A25302E329F
:1026E000640000000428004010B513481349086036
:1026F00000211248C1618160012141610221016113
:10270000002181620721C1620021C16001624FF492
:1027100000718161002141624FF482700749486075
:102720000846FEF7EAFE05480068006840F04000F1
:1027300002490968086010BD003001407C46002055
:10274000704710B501F016F801F01AFE01F022F8FA
:1027500010BD000000B593B000BF002001902A48D2
:10276000006840F08050284908600846006800F082
:102770008050019000BF00BF00BF0020019023489F
:10278000006840F48040214908600846006800F471
:102790008040019000BF00BF012002900004039020
:1027A000022008904105099119210A914FF4A8715E
:1027B0000B9102210C9107210D9102A8FEF76EFAF0
:1027C00008B100BFFEE70F200E9002200F900020FE
:1027D00010904FF4A05011904FF4805012900521AA
:1027E0000EA8FEF71DF908B100BFFEE7FDF7C2FF16
:1027F00041F20101884205D10548006840F480702B
:102800000349086013B000BD40380240007000402A
:10281000003C02401448006840F47000124908600F
:102820001248006840F001001049086000200F497C
:10283000083108600D4800680D4908400B490860E0
:102840000C48091D0860081F006820F48020091F3B
:102850000860002005490C3108604FF00060024913
:10286000803908607047000088ED00E000380240C1
:10287000FFFFF6FE103000242DE9F04104462068E9
:10288000006920F44050E16808432168086121692B
:10289000A068084361690843E16940EA01052068CE
:1028A000C06849F20C61884328432168C8602068E9
:1028B000406920F44070A169084321684861E069DB
:1028C000B0F5004F7ED1C4492068884203D0C34987
:1028D000206888425DD1FEF779F900EBC00101EB79
:1028E000001061684900B0FBF1F06421B0FBF1F029
:1028F0000601FEF76BF900EBC00101EB0010616807
:102900004900B0FBF1F7FEF761F900EBC00101EB04
:10291000001061684900B0FBF1F06421B0FBF1F0F8
:1029200000EBC00101EB0010A7EB8000322101EBAE
:10293000C0006421B0FBF1F000F0F80006EB4006A7
:10294000FEF744F900EBC00101EB0010616849009B
:10295000B0FBF1F7FEF73AF900EBC00101EB001014
:1029600061684900B0FBF1F06421B0FBF1F000EBCD
:10297000C00101EB0010A7EB8000322101EBC00089
:102980006421B0FBF1F000F007003044216888605A
:1029900020E1FEF70BF900EBC00101EB00106168CC
:1029A0004900B0FBF1F06421B0FBF1F00601FEF745
:1029B000FDF800EBC00101EB001061684900B0FBBD
:1029C000F1F700E045E0FEF7F1F800EBC00101EBA4
:1029D000001061684900B0FBF1F06421B0FBF1F038
:1029E00000EBC00101EB0010A7EB8000322101EBEE
:1029F000C0006421B0FBF1F000F0F80006EB4006E7
:102A0000FEF7D4F800EBC00101EB0010616849004B
:102A1000B0FBF1F7FEF7CAF800EBC00101EB0010C4
:102A200061684900B0FBF1F06421B0FBF1F000EB0C
:102A3000C00101EB0010A7EB8000322101EBC000C8
:102A40006421B0FBF1F000F0070030442168886099
:102A5000C0E061492068884203D06049206888420C
:102A60005CD1FEF7B3F800EBC00101EB0010616828
:102A70008900B0FBF1F6FEF7A9F800EBC00101EB0D
:102A8000001061688900B0FBF1F06421B0FBF1F047
:102A900000EBC00101EB0010A6EB8000322101EB3E
:102AA00000106421B0FBF1F000F0F006FEF78EF8A4
:102AB00000EBC00101EB001061688900B0FBF1F090
:102AC0006421B0FBF1F006EB0016FEF77FF800EB97
:102AD000C00101EB001061688900B0FBF1F7FEF75F
:102AE00075F800EBC00101EB001061688900B0FBD4
:102AF000F1F06421B0FBF1F000EBC00101EB00103C
:102B0000A7EB8000322101EB00106421B0FBF1F053
:102B100000F00F003044216888605BE0FEF746F863
:102B200000EBC00101EB001061688900B0FBF1F619
:102B3000FEF73CF800EBC00101EB00106168890072
:102B4000B0FBF1F06421B0FBF1F000EBC00101EB50
:102B50000010A6EB8000322101EB00106421B0FBD5
:102B6000F1F000F0F006FEF721F800EBC00101EBF8
:102B7000001061688900B0FBF1F06421B0FBF1F056
:102B800006EB0016FEF712F800EBC00101EB001097
:102B900061688900B0FBF1F7FEF708F800EBC001AF
:102BA00001EB001061688900B0FBF1F06421B0FB1B
:102BB000F1F000EBC00101EB0010A7EB8000322127
:102BC00001EB00106421B0FBF1F000F00F00304485
:102BD00021688860BDE8F0810010014000140140C8
:102BE0002DE9F04104460D4617469846069E21E021
:102BF000701CF8B12EB1FDF7C3FDA0EB0800B04288
:102C000018D92068C06820F4D0702168C860206896
:102C1000406920F0010021684861202084F83900D3
:102C200084F83A0000BF002084F8380000BF032079
:102C3000BDE8F081206800682840A84201D1012049
:102C400000E00020B842D3D00020F1E700BFFEE74B
:102C50000FB4054B10B503A9044A029800F078F8A8
:102C600010BC5DF814FB0000A52F00082C0100200B
:102C70000FB4084B10B504A902AA039800F068F835
:102C8000044602A9002000F087F9204610BC5DF838
:102C900014FB0000992F000802480068C0F30220CE
:102CA000704700000CED00E010B5002804DB0A07B7
:102CB000130E054A135406E00A07140E034A00F0E7
:102CC0000F031B1FD45410BD00E400E018ED00E01A
:102CD000014609B900207047C8B220B1C8B20E4AF7
:102CE000105C401CF7E701F47F4028B10A48C1F3AB
:102CF0000722805C0930EEE701F47F0028B1064826
:102D0000C1F30742805C1130E5E7034800EB116036
:102D100000781930DFE700009C9C000802E008C83A
:102D2000121F08C1002AFAD170477047002001E045
:102D300001C1121F002AFBD1704700000349086837
:102D4000884201D0012070470020FCE708010020E4
:102D50002DE9FF4F89B09B460446002506E0252853
:102D60000BD05A460B999047641C6D1C20780028A4
:102D7000F5D10DB02846BDE8F08F0027B8460122F6
:102D8000474900E0074314F8013F203B02FA03F0F3
:102D90000842F7D120782E2819D114F8010F47F0F6
:102DA00004072A280ED06FF02F022078A0F13001FE
:102DB00009290CD808EB880102EB410100EB01085E
:102DC000641CF2E70A98641C50F8048B0A9020787F
:102DD0000028CED0642808D0692806D075281ED0D7
:102DE0005A460B9990476D1C58E00A994FF00A0912
:102DF00001C90A91002802DA40422D2102E039057A
:102E000004D52B218DF82010012103E0F90704D00F
:102E10002021F7E78A4608AE0DE00021FAE70A997B
:102E20004FF00A0901C90A91F7E74946FDF781FA0F
:102E3000303106F8011D0028F7D1ADEB060000F196
:102E40002009780701D44FF00108C84502DDA8EB3E
:102E5000090000E000208046002706E008A85A4646
:102E6000C05D0B9990476D1C7F1C5745F6DB04E055
:102E700030205A460B9990476D1CB8F10001A8F11B
:102E80000108F5DC05E016F8010B5A460B9990474E
:102E90006D1CB9F10001A9F10109F4DC641C65E7BE
:102EA000092801002DE9FC5F04468B4615461E46A5
:102EB000DDE90C9ADDE90E7804F114004060006051
:102EC00000BF1C346560A660C4F80C90C4F810A064
:102ED0002321D4E9030200F0CBFDD4E9033C634491
:102EE0001A1F0F4BD4E9010100F01CFC2060A776EB
:102EF00067760020E061C4F82080C4F82480606117
:102F000020766065A0651C3C00902346054A21465A
:102F1000019004F1440001F0B5FA0020BDE8FC9FE7
:102F2000A5400008F14200082DE9F04704460E468E
:102F300017469846DDF8209084F80990607A20F0D2
:102F400001006072E66127620020A062C4F824805C
:102F5000002506E004F1140101EBC50000F090FC2F
:102F60006D1C012DF6DBBDE8F08710B50246002090
:102F700001460EE002F1140303EBC100D0E9004367
:102F80006360D0E9003423604060006000BF481CEB
:102F900001460129EEDB10BD0A68531C0B6010705E
:102FA0007047000013B50C464FF47A73012269464E
:102FB0000248FEF74BFC00981CBD000030010020C9
:102FC00010E001210848FFF77BF940B1074840694C
:102FD00080F004000549486105A000F033FC0A2098
:102FE00001F059F8EDE70000000002400010024037
:102FF0004C4544D7B4CCACB7ADD7AA0A000000000A
:1030000001E0FFF7BDFAFCE71CB51AA000F01AFCBE
:10301000142003214FF480630022CDE900101F49E2
:103020001FA001F010F8204908600846006820B190
:103030000846006801F024F902E04FF0FF301CBDA3
:10304000142003214FF400730022CDE9001017492A
:1030500017A000F0F8FF174908600846006820B183
:103060000846006801F00CF902E04FF0FF30E6E797
:103070000020E4E7D5E2CAC7D2BBB8F65BD2B0BB4A
:10308000F05D2D53544D33322D5254542D52544330
:10309000C8D5C0FACAB5D1E9A3A10A000130000819
:1030A0006C6564310000000010000020C12F000892
:1030B0006B6579001400002010B5044600F02AF971
:1030C000FFF7A2FF10BD000030B51A4C436824681A
:1030D0001919884215D04B889BB9174B1B68994228
:1030E0000FD0164B1B688B4201D1144B18604B68F4
:1030F0004360104B1B68C31A0E4D4C682D682C445E
:10310000A3600C4C836824681A19824211D053883A
:103110007BB90A4B1B68834201D1084B1A60436894
:103120005360044B1B68D31A024D44682D682C442D
:10313000A36030BDA0000020A4000020A800002053
:103140002DE9F04F85B00D469C46DDE90F740E9BCE
:1031500004F04008B8F1000F02D0DFF8688101E008
:10316000DFF86481CDF8008004F01008B8F1000F9A
:1031700001D024F0010404F00108B8F1000F02D0DE
:103180004FF0300801E04FF02008C246002604F05E
:103190000208B8F1000F11D0002A02DA2D2652429F
:1031A0000CE004F00408B8F1000F01D02B2605E074
:1031B00004F00808B8F1000F00D02026002142B921
:1031C0004FF0300B8846491C0DF1040909F808B08E
:1031D0001DE01AE0E146B9F10A0F08D14FF00A0BE1
:1031E000B2FBFBFE0BFB1E28B2FBFBF202E002F07F
:1031F0000F08120900BFDDF8009019F808B08846E2
:10320000491C0DF1040909F808B0002AE2D1B942BD
:1032100000DD0F46DB1B04F01108B8F1000F10D1E0
:1032200016B1002B00DD5B1E06E0A84203D84FF06C
:10323000200880F80080401CB3F10008A3F10103CE
:10324000F3DC26B1A84201D806705B1E401C04F0D6
:103250001008B8F1000F0AD104E0A84201D880F8A4
:1032600000A0401CB3F10008A3F10103F5DC06E067
:10327000A84203D84FF0300880F80080401CB846C0
:103280007F1E8845F4DC08E0A84205D80DF104084B
:1032900018F8018080F80080401CB1F10008A1F10D
:1032A0000101F1DC06E0A84203D84FF0200880F8C5
:1032B0000080401CB3F10008A3F10103F3DC05B06A
:1032C000BDE8F08FAD9D00089C9D00081CB5142042
:1032D00002210B020022CDE90010044904A000F0F5
:1032E000B2FE0446204600F0CBFF1CBDB9300008FA
:1032F0006D61696E0000000010B5044C02E02068AA
:103300008047241D02488442F9D310BDC49D0008A3
:10331000C89D000810B5044C02E020688047241DB9
:1033200002488442F9D310BDC89D0008CC9D000816
:1033300010B5FCF745FF044604480088401C00B265
:10334000024908802046FCF73FFF10BDF80000202E
:1033500010B5FCF735FF04460B480088401E00B24C
:10336000094908800846B0F90000002807DC002061
:1033700008802046FCF728FF00F01CFC02E02046F5
:10338000FCF722FF10BD0000F800002070B50546D4
:1033900005B970BD1D480068854203D31C4800680C
:1033A000854200D3F5E7A5F10C044FF0FF31194831
:1033B00000F0CAFC608818B12088B0F5F55F08D02D
:1033C00015A000F03FFA23886288214619A000F07A
:1033D00039FA002060804FF4F550208021480068C1
:1033E000844201D21F480460084960680968611A74
:1033F000401A1D490968081A1B4908602046FFF752
:1034000063FE044800F083FC00BFC2E7A000002078
:10341000A4000020CC680020746F206672656520CF
:103420006120626164206461746120626C6F636B0F
:103430003A0A00006D656D3A203078253038782CD6
:10344000207573656420666C61673A2025642C20C2
:103450006D6167696320636F64653A203078253059
:1034600034780A00A8000020B0000020004870470F
:10347000D446002000487047D466002038B53D4847
:1034800000684FF47A72B0FBF2F1481EB0F1807F11
:1034900000D31BE0481E4FF0E022506150170F226E
:1034A000002804DB13071C0E334B1C5406E01307E3
:1034B0001D0E324B00F00F04241F1D5500BF0020CD
:1034C0004FF0E02290610720106100BFFFF742F942
:1034D000FEF710FFFEF77AFEFCF7A6FFFFF704F9F0
:1034E000FEF714FC0620FEF7B3FBFEF799FF002160
:1034F0002348FDF7F7FD43F2F321884202D0FFF79E
:1035000015F82AE01F480068C0F3C06018B11EA07B
:10351000FFF79EFB07E01B480068C0F3806010B116
:103520001FA0FFF795FB24A0FFF792FB00BF002030
:10353000009014483438006840F080501149343904
:1035400008600846006800F08050009000BF00BF8F
:10355000FDF790F90A48FDF7B3FFFFF7CDFEFFF73F
:1035600089FF0446FFF782FF0546214600F0A2FCD2
:1035700038BD00000000002000E400E018ED00E08D
:103580005C460020743802400D0A20B7A2C9FAB583
:10359000E7D4B4B8B4CEBB2E2E2E2E0D0A000000F8
:1035A0000D0A20B7A2C9FACDE2B2BFB8B4CEBB2E85
:1035B0002E2E2E0D0A0000000D0A20B2BBD0E8D23C
:1035C000AAD6D8D0C2C5E4D6C35254432E2E2E2E2E
:1035D0000D0A000038B50446FFF7AAFE14E0207873
:1035E0000A2809D10D2000904FF47A730122694610
:1035F0000848FEF72BF900BF2146641C4FF47A738C
:1036000001220448FEF722F920780028E7D1FFF7CD
:103610009FFE38BD3001002070B50446194800688F
:1036200038B12046174909688847054605B970BD75
:1036300000BF15A0E16900F005F917A0A16900F02D
:1036400001F919A0616900F0FDF81BA0216900F0E3
:10365000F9F81DA0E16800F0F5F81FA0A16800F0DE
:10366000F1F821A0616800F0EDF823A0216800F0D6
:10367000E9F800F0DDFD0546294623A000F0E2F858
:1036800000BFFEE7280100207073723A20307825D1
:103690003038780A000000002070633A2030782526
:1036A0003038780A00000000206C723A203078250B
:1036B0003038780A000000007231323A2030782524
:1036C0003038780A000000007230333A2030782514
:1036D0003038780A000000007230323A2030782505
:1036E0003038780A000000007230313A20307825F6
:1036F0003038780A000000007230303A20307825E7
:103700003038780A000000006861726420666175D4
:103710006C74206F6E207468726561643A20257342
:103720000A000000F0B504460D461646301D20F094
:10373000070044380146002203E00D4F41F8227093
:10374000521C112AF9D34D624FF0000CC1F828C069
:10375000C1F82CC0C1F830C0C1F834C08B63CC6351
:103760004FF0807CC1F840C000270F60F0BD000022
:10377000EFBEADDE10B5FCF723FD0446044800782B
:10378000401C034908702046FCF71EFD10BD0000D8
:103790009C00002010B5FCF713FD04460448007897
:1037A000401E034908702046FCF70EFD10BD0000C6
:1037B0009C00002070B504462068A0F1140528463E
:1037C00000F018FD002070BD2DE9F04105460C46C3
:1037D0009046204600F06AFDB8F1000F03D0B8F122
:1037E000010F23D105E004F11401284600F060F830
:1037F0001CE02E680FE0A6F1140794F8350097F846
:103800003510884206DA04F1140107F1140000F0C3
:103810004FF802E03668AE42EDD100BFAE4204D1AF
:1038200004F11401284600F043F800BF00BF002057
:10383000BDE8F08110B5044604F1140000F01AF858
:10384000002010BD0FB438B505A800907F210848AE
:10385000009B049A00F0C2FE04467F2C00D97F240E
:103860000348FFF7B7FE0020009038BC5DF814FB5A
:103870004C68002040600060704740600060704706
:103880004060006070470268516002680A60016031
:10389000486070470268516002680A6001604860D1
:1038A00070470268516002680A60016048607047B2
:1038B0004268116042684A60416008607047014692
:1038C0000868884201D1012070470020FCE70146CA
:1038D0000868884201D1012070470020FCE7D0E948
:1038E00000215160D0E90012116040600060704713
:1038F000D0E900215160D0E9001211604060006001
:10390000704700002DE9F041054615B90020BDE8DB
:10391000F081E81C20F003054E480068854201D97B
:103920000020F4E70C2D00D20C254FF0FF314A485F
:1039300000F00AFA4948006849490968461A7EE0D9
:103940004748006884196088002874D106F10C008B
:103950006168081AA8426ED306F10C006168091A62
:1039600005F11800814230D306F10C0000EB050888
:103970003B48006800EB08074FF4F5503880002002
:10398000788060687860BE60C4F804800120608040
:103990003048796800680C30814205D03049786839
:1039A00009680844C0F808802E48016805F10C0039
:1039B00008442C4908602C4800680968884219D2DC
:1039C000284800682849086014E0012060802449E4
:1039D00060680968611A401A224909680844214947
:1039E0000860214800680968884203D21D480068C1
:1039F0001D4908604FF4F550208018480068844243
:103A000012D107E015480068406815490968084464
:103A10001249086011480068408828B10F480068C2
:103A2000124909688842EDD10B4800F070F904F1A1
:103A30000C006CE7FFE70A48006830444668054818
:103A40000068401BB0423FF67BAF034800F05FF9CF
:103A500000205CE7AC000020CC680020A80000201B
:103A6000A0000020B0000020B4000020A40000202E
:103A7000F0B50C460546E6B2042A15D300F003075C
:103A800097B9014646EA062343EA034304E008C126
:103A900008C108C108C1103A102AF8D201E008C1D3
:103AA000121F042AFBD20D4601E005F8016B171E18
:103AB000A2F10102F9D1F0BD2DE9F04105460F4612
:103AC000284600F03BF80646F068FFF71BFF044667
:103AD00014B90020BDE8F081257200206072082230
:103AE0003946204600F0CBF9FCF76AFB804604F12A
:103AF0000C01301DFFF7C7FE4046FCF765FB204672
:103B0000E8E770B50446FCF75BFB054604F10C00E2
:103B1000FFF7E5FE2846FCF757FB2046FFF736FC8B
:103B200070BD70B50446FCF74BFB054604F10C0074
:103B3000FFF7D5FE2846FCF747FB70BD0246002183
:103B40000AE0074800EB01100078904203D10448D6
:103B500000EB01107047491C0429F2DB0020F9E753
:103B6000B80000202DE9F04104460D4616462846CF
:103B7000FFF7E4FF074645F0800020720822314637
:103B8000204600F07CF9FCF71BFB804604F10C0199
:103B9000381DFFF778FE4046FCF716FBBDE8F081C4
:103BA0000146087A00F0800008B10120704700202B
:103BB000FCE700002DE9F041FCF702FB07461B483B
:103BC000008868BB1A480068FFF782F8461E19484B
:103BD00050F83600A0F114041748006884421BD046
:103BE00016490E701448056804601548007848B9F5
:103BF00004F11C0105F11C00FCF7E9FA3846FCF75A
:103C0000E3FA0CE004F11C0105F11C00FCF7DFFAFB
:103C10003846FCF7D9FA02E03846FCF7D5FA02E05C
:103C20003846FCF7D1FABDE8F0810000F80000202A
:103C300004010020EC680020FC00002000010020AE
:103C40009C00002070B50446FCF7BAFA054614F84B
:103C5000340F20F00F0040F0010020706278343CF7
:103C60000A4B03EBC20004F1140142681160426880
:103C70004A604160086000BF0549A06B09680843BD
:103C8000034908602846FCF79FFA70BDEC680020E5
:103C90000401002070B50446FCF792FA054604F1D1
:103CA0001400D0E900215160D0E900121160406099
:103CB000006000BF94F83510094A02EBC1000168AA
:103CC000814201D1012100E0002129B10548A16B09
:103CD00000688843034908602846FCF775FA70BD00
:103CE000EC680020040100202DE9F04104460D4657
:103CF00016461F462A4601212046FFF733FF20467D
:103D0000FFF798FDA68367720020BDE8F08170B5CB
:103D100004460025FCF754FA064604F11400FFF7A8
:103D2000CEFD28B904F11400FFF744FD012502E09F
:103D3000A08B401CA0833046FCF746FA012D01D130
:103D4000FFF738FF002070BD73B50546FCF738FA61
:103D50000646A88B002806DDA88B401EA8833046A7
:103D6000FCF732FA28E0019828B93046FCF72CFA23
:103D70006FF001007CBD00F05BFA04460020206378
:103D80006A7A214605F11400FFF71EFD019800280C
:103D900009DD01AA002104F1440000F047FB04F111
:103DA000440000F087FB3046FCF70EFAFFF702FFF5
:103DB000206B08B1206BDDE70020DBE708B509A028
:103DC000FFF740FD0AA0FFF73DFD12A003230022EC
:103DD0001946009012A0FFF735FD19A0FFF732FD3C
:103DE00008BD00000A205C207C202F0A0000000093
:103DF0002D205254202D20202020205468726561EF
:103E000064204F7065726174696E672053797374B2
:103E1000656D0A004A756C2020382032303230003F
:103E2000202F207C205C202020202025642E25644B
:103E30002E2564206275696C642025730A000000D9
:103E40002032303036202D203230313820436F7010
:103E50007972696768742062792072742D7468724F
:103E6000656164207465616D0A00000001460A46C0
:103E700000E0521C10780028FBD1501A704770B532
:103E80000346A2B118460C4600BF14F8016B00F8B7
:103E9000016B3EB902E0002500F8015B551E2A1EA9
:103EA000F9D102E0551E2A1EEFD100BF00BF18460F
:103EB00070BD00002DE9F04105460E46E81C20F0DB
:103EC000030726F00308B8F1180F09D9A8F1180064
:103ED000B84205D3A8EB070018381E49086006E071
:103EE000324629461CA0FFF7ADFCBDE8F081294809
:103EF000076004684FF4F5502080164800680C30C5
:103F000060600020A0606080224960680968084401
:103F1000214908604FF4F5500968088001201E49C6
:103F2000096848800B4800680C301B4909684860E4
:103F3000084800680C30184909688860002301228D
:103F400016A11848FFF7D0FE12480068164908600D
:103F500000BFCAE7AC0000206D656D20696E697412
:103F60002C206572726F7220626567696E206164D1
:103F7000647265737320307825782C20616E64201C
:103F8000656E64206164647265737320307825788F
:103F90000A000000A0000020A400002068656170F5
:103FA00000000000CC680020A800002010B5002010
:103FB0000B490880002405E00A4901EBC400FFF723
:103FC0005CFC641C082CF7DB072007490870002004
:103FD00006490860064908600648FFF74EFC10BD18
:103FE000F8000020EC68002000010020FC00002008
:103FF000040100200801002070B508480068FEF7A1
:1040000067FE451E064850F83500A0F11404054827
:10401000046004F11C00FCF720F970BD04010020CD
:10402000EC680020FC00002010B5002405E00449E5
:1040300001EBC400FFF724FC641C002CF7D010BD7A
:104040001001002070472DE9FF5F06460F4690469D
:104050001D46DDE90EAB31460020FFF72DFD814600
:10406000B9F1000F03D1002004B0BDE8F09F28464D
:10407000FFF748FC044624B94846FFF742FD0020FC
:10408000F2E743463A46314648468DE8300CFEF7A3
:1040900009FF4846E8E710B50446204600F0CEF890
:1040A00010BD000070B512480468FCF789F8054699
:1040B0002046FFF7EFFD042084F8340004F14400AB
:1040C00000F0D0F92046FFF76BFD012805D1206FE5
:1040D00018B92046FFF725FD04E004F11401054856
:1040E000FFF7D8FB2846FCF76FF8FFF763FD70BDBC
:1040F000FC0000200801002001E000F001F8FCE7CE
:1041000070B537E0FCF75CF80546FEF717FE18B30C
:104110001B480068A0F1140404F11400D0E9002148
:104120005160D0E9001211604060006000BFFFF7ED
:10413000FFF8206F10B12046216F88472046FFF717
:104140002FFD012805D1FFF703F92846FCF73CF8BD
:1041500070BDFFF7FDF803E02846FCF735F8F7E7F8
:104160002846FCF731F8A06AFFF710F92046FFF760
:10417000C8FC00BFFEF7E2FD0028C3D100BFE7E79F
:10418000080100201FB520200721C200074BCDE900
:104190000032CDE902100023054A06A1074800F0CD
:1041A0000FF8064800F06CF81FBD00004C670020B7
:1041B000F94000087469646C65000000D466002052
:1041C0002DE9FF5F05460C4616461F46DDE910AB9C
:1041D000DDE90E89224600212846FFF7C3FC3B4655
:1041E0003246214628468DE8000FFEF75BFE04B0FC
:1041F000BDE8F09F70B5044694F8340000F00F005D
:10420000022802D04FF0FF3070BDFBF7D9FF054602
:1042100004F11400FFF76CFB04F1440000F0C6F950
:104220002846FBF7D1FF2046FFF70CFD0020EBE707
:104230000148006870470000FC00002031B5FBF722
:10424000BFFF05460D480468204600F02FF86A4677
:10425000002104F1440000F0E9F804F1440000F00A
:1042600029F92846FBF7B0FFFFF7A4FC206B801C60
:1042700008B900202063002038BD0000FC000020A9
:1042800010B504463434A07860706178012088400D
:104290006060022004F834092046FFF7ABFFFFF707
:1042A000C7FF08B1FFF786FC002010BD70B50446BB
:1042B00094F8340000F00F00012802D04FF0FF30D6
:1042C00070BDFBF77DFF054694F8340020F00F0029
:1042D00040F0020084F834002046FFF7DBFC04F1D4
:1042E000440000F063F92846FBF76EFF0020E7E783
:1042F00070B5044625466FF00100286305F11400EF
:10430000FFF7F6FA2846FFF79DFCFFF753FC70BD58
:1043100070B5FBF755FF05461448046894F834005F
:1043200000F00F0001281CD1D4E90510814218D0FB
:1043300004F11400FFF7DCFA94F835200C4B03EB82
:10434000C20004F114014268116042684A60416091
:10435000086000BF2846FBF737FFFFF72BFC002063
:1043600070BD2846FBF730FF0020F9E7FC00002075
:10437000EC680020014800687047000098000020A9
:1043800010B50A480068401C08490860FFF750FF54
:104390000446206C401E2064206C18B9E06B206439
:1043A000FFF7B6FF00F004F810BD000098000020F1
:1043B00070B5FFF7DFFF0546FBF702FF064628E072
:1043C00019480068A0F11404A06A281A6FF000418F
:1043D00088421DD22046FEF7C8FDD4E90710884761
:1043E000FFF7C8FF0546607A00F0020058B1607A16
:1043F00000F0010038B1607A20F0010060722046C0
:1044000000F058F805E0607A20F00100607200E0EA
:1044100004E00548FFF75BFA0028D1D000BF304622
:10442000FBF7D2FE70BD000010010020034649B129
:10443000012904D0022908D0032910D10AE0586AC2
:1044400010600CE01068586209E0587A20F0020011
:10445000587204E0587A40F00200587200BF00BF62
:104460000020704770B50446FBF7AAFE05462046BB
:10447000FEF77BFD2846FBF7A7FE2046FFF751FB22
:10448000002070BD2DE9F84307460C4615461E4630
:10449000DDE90889224609213846FFF763FB4346D8
:1044A000324629463846CDF80090FEF73DFDBDE87E
:1044B000F88300002DE9F8430546FBF781FE8046AE
:1044C0002846FEF752FD687A20F0010068724046E7
:1044D000FBF77AFEFFF74EFF696A0844A862FBF714
:1044E0006FFE80462F4F009700242AE019E05DF808
:1044F00024201168142202EBC402881A826AAB6A73
:10450000D21A00D108E0826AAB6AD21A6FF0004377
:104510009A4200D20CE000BF5DF8240000684DF81C
:1045200024005DF8240007EBC40149688842DED10D
:1045300000BF2CB15DF824000830611C4DF821004B
:10454000641C002CD2D018480068401C1649086032
:104550000846066805F114010098FFF7A2F9022445
:1045600012E006F0030060B9C4F1010305F1140282
:1045700002EBC301C4F101025DF82200FFF791F9DB
:1045800000E003E0B608641C012CEAD900BF687A99
:1045900040F0010068724046FBF716FE0020BDE8BF
:1045A000F8830000100100201801002070B50446B7
:1045B000607A00F0010010B94FF0FF3070BDFBF7DA
:1045C000FFFD05462046FEF7D0FC2846FBF7FCFD24
:1045D000607A20F0010060720020EFE72DE9FF4FC4
:1045E00089B0804644460A984044461E464504D257
:1045F0004FF0FF36A6EB08000A906FE10B980078A9
:10460000252806D0B44202D80B9800782070641C8C
:1046100061E1002526E00B98401C0B900B98007878
:104620002D2802D145F010051CE00B9800782B28AE
:1046300002D145F0040515E00B980078202802D13E
:1046400045F008050EE00B980078232802D145F0CC
:10465000200507E00B980078302802D145F00105CD
:1046600000E000E0D7E700BF4FF0FF370B9800787D
:1046700030380A2804D20BA800F061F907460EE092
:104680000B9800782A280AD10B98401C0B900C98A4
:1046900080C80C90002F02DA7F4245F010054FF0E1
:1046A000FF390B9800782E281CD10B98401C0B90DA
:1046B0000B98007830380A2804D20BA800F03FF994
:1046C00081460AE00B9800782A2806D10B98401CF6
:1046D0000B900C9850F8049B0C90B9F1000F01DA84
:1046E0004FF00009002004900B980078682803D050
:1046F0000B9800786C2805D10B98007804900B98E3
:10470000401C0B900A2005900B9800786F2875D0FC
:104710000CDC632813D004DC252870D058286FD116
:104720008DE064286DD06928F9D18FE070286AD0B7
:10473000732825D0752878D07828F0D182E005F04C
:10474000100040B904E0B44201D820202070641C5D
:10475000781E071EF7DC0C9810F8041B0C90C8B2EA
:104760000790B44201D807982070641C04E0B4425A
:1047700001D820202070641C781E071EF7DCAAE0F8
:104780000C98006806900C98001D0C90069808B9CB
:104790005AA006900698FFF769FB8346B9F1000F0F
:1047A00002DDCB4500DDCB4605F0100048B904E042
:1047B000B44201D820202070641C38467F1E584522
:1047C000F6DC002008900BE0B44202D8069800788E
:1047D0002070641C0698401C06900898401C0890A5
:1047E00008985845F0DB04E0B44201D8202020703E
:1047F000641C38467F1E5845F6DC6CE01CE015E072
:1048000028E022E0FFE7781C10B9082745F00105F1
:10481000CDE9007902950C9804C8102331460C901C
:104820002046FEF78DFC044655E012E0B44201D864
:1048300025202070641C4EE0082005901DE045F006
:10484000400500BF1020059017E000BF45F00205AD
:1048500000BF12E0B44201D825202070641C0B98E0
:10486000007830B1B44202D80B9800782070641CF4
:1048700002E00B98401E0B902DE000BF04986C28BE
:1048800007D10C9850F804AB0C9005F00200B8B1B9
:1048900016E0049868280BD10C9830F8041B1FFA16
:1048A00081FA0C9005F0020050B10FFA8AFA07E085
:1048B0000C9850F804AB0C9005F0020000B100BF5A
:1048C000CDE900790295524631462046059BFEF718
:1048D00037FC044600BF0B98401C0B900B980078E7
:1048E00000287FF48BAEB44201D8207001E0002094
:1048F0003070A4EB08000DB0BDE8F08F284E554C89
:104900004C290000002070470020704700207047AD
:104910000020704710B5FBF753FCFEF7AFFDFFF723
:104920004DFAFFF781FBFFF741FBFEF7CFFCFFF7E6
:1049300089FBFFF727FCFFF75FFB002010BD014656
:10494000002009E00B685A1C0A601A7800EB80030B
:1049500002EB4302A2F130000A681278303A0A2AC8
:10496000F0D37047000000000000000001020304C3
:10497000060708090000000001020304000000000F
:10498000000000000000000000000000000000180F
:104990001818181818080008180000000000003443
:1049A000242424000000000000000000000000009B
:1049B00016247F2424247E24240000000000000804
:1049C0003E6848681C1612127C101000000000613E
:1049D000D296740810162949C60000000000000095
:1049E0003C646438724ACE467F0000000000001824
:1049F000181818000000000000000000000000046B
:104A0000081810303030301010180C04000000204E
:104A10001008080C0404040C0818102000000008FA
:104A20000A341C6A080000000000000000000000BA
:104A300000001818187F1818180000000000000067
:104A400000000000000000181808300000000000FE
:104A500000000000003C000000000000000000001A
:104A60000000000000000018180000000000000214
:104A700006040C0808101020204000000000000070
:104A80003C6642475B7342663C0000000000000049
:104A900018784808080808087E0000000000000098
:104AA0003C460606040810207E00000000000000BE
:104AB0007C0606043C0202067C00000000000000A8
:104AC0000C1C14246444FF040400000000000000D7
:104AD0007E6060607E0202067C0000000000000034
:104AE0001E306048764242623C0000000000000038
:104AF0007E0206040C0818103000000000000000C0
:104B00003C6242361C6642423C000000000000004D
:104B10003C664242661A0204780000000000000071
:104B20000000181800000018180000000000000025
:104B300000001818000000181808300000000000DD
:104B4000000004183060100C060000000000000097
:104B5000000000007E007E00000000000000000059
:104B60000000301804060C10200000000000003087
:104B70001C06060618100010100000000000001CA3
:104B8000224141DDB5A5A5AF94C0403C0000000026
:104B9000181C342426627E43C1000000000000007F
:104BA0007C4642467C4242427C00000000000000FD
:104BB0001E204040404040603E00000000000000D9
:104BC0007C46424343434246780000000000000018
:104BD0007E6060607E6060607E000000000000001B
:104BE0007E6060607E606060600000000000000029
:104BF0001E604040CE4242623E00000000000000C5
:104C0000424242427E424242420000000000000016
:104C10007E181818181818187E00000000000000F0
:104C20007C04040404040444780000000000000034
:104C30004244485070584C444200000000000000BC
:104C400020202020202020203E0000000000000026
:104C50006266675F5B5BC1C1C100000000000000CD
:104C6000626272525A4A4E4646000000000000003E
:104C70003C6243C3C3C343623C0000000000000029
:104C80007C46424246784040400000000000000060
:104C90003C6243C3C3C343623C180F0000000000E2
:104CA0007C6662667C6C6466620000000000000046
:104CB0003E6040601C0602027C0000000000000014
:104CC0007F181818181818181800000000000000A5
:104CD00042424242424242623C0000000000000068
:104CE000C14342622624341C18000000000000006A
:104CF000C1C141495B5B76666600000000000000B0
:104D000043663418181C2466C3000000000000002D
:104D1000C14266341C18181818000000000000007A
:104D20007E02040C181020607E0000000000001CB1
:104D300010101010101010101010101C0000004067
:104D40002020101008080C04060200000000003C9F
:104D50000C0C0C0C0C0C0C0C0C0C0C3C0000000093
:104D6000181C246200000000000000000000000089
:104D70000000000000000000000000FF0000002014
:104D80001000000000000000000000000000000013
:104D900000003C06023E42467A000000000000404F
:104DA00040405C62424242427C0000000000000041
:104DB00000001E20604060203E0000000000000255
:104DC00002023E62424242663A00000000000000D9
:104DD00000003C62427E40603E0000000000000F88
:104DE0001810107E101010101000000000000000BD
:104DF00000003F66426658403E43423C000000408F
:104E000040405C6242424242420000000000001802
:104E100018007808080808087E0000000000000458
:104E20000C007C040404040404040C7800000060FA
:104E30006060626C78706864620000000000007856
:104E400008080808080808087E00000000000000A4
:104E50000000764B4B4B4B4B4B000000000000001A
:104E600000005C624242424242000000000000003A
:104E700000003C62424342623C000000000000002F
:104E800000005C62424242427C4040400000000020
:104E900000003E62424242663A0202020000000006
:104EA00000006E726360606060000000000000003F
:104EB00000003E20203C06027C00000000000000B4
:104EC0001010FE10101010101E0000000000000056
:104ED00000004242424242663A00000000000000E8
:104EE000000043426624341818000000000000004F
:104EF0000000C1C15B5A5E66660000000000000051
:104F0000000062261C181C26620000000000000041
:104F1000000043426624341C181830E000000000F2
:104F200000007E060C1810207E0000000000000E1D
:104F300018101010307010101010180E0000080813
:104F400008080808080808080808080800000030D1
:104F5000180808080C0E080808081830000000009F
:104F600000000000714B060000000000000000007F
:104F70000000000000000000000000000000000031
:104F80000000000000000000000000000000000021
:104F90000000000000000000000000000000000011
:104FA0000000000000000000000000000000000001
:104FB00000000000000000000380038001800180E9
:104FC00001800180018001800180018001800180D9
:104FD0000180018000000000038003C00380000006
:104FE00000000000000000000000000000000000C1
:104FF00000000000000000000E700E700E700E70B9
:105000000E700C300C3000000000000000000000AA
:105010000000000000000000000000000000000090
:105020000000000000000000000000000000000080
:105030000000000000000000000000000618063814
:10504000063006307FFE7FFE0C300C300C300C300A
:105050007FFE7FFE0C601C60186018601860000006
:105060000000000000000000000000000000000040
:1050700000000000000000C000C000C007F81FF8DA
:1050800038C031C0318039803D801F8007F001F881
:1050900003BC031C030C031C233C3FF83FE0070048
:1050A00006000600000000000000000000000000F4
:1050B00000000000000000001C077E06630C63185F
:1050C000633863307E603CE000C0018003800338B9
:1050D000067E0CC61CC618C630C670EE607C00008A
:1050E00000000000000000000000000000000000C0
:1050F000000000000000000000000FC01FE018705A
:105100003870387018701CE00FC00F003F8C3B8C5B
:1051100071CC60EC607C7038707C3FFE1FCF00006B
:10512000000000000000000000000000000000007F
:10513000000000000000000003C003C003800180E5
:1051400001800180018000000000000000000000DC
:10515000000000000000000000000000000000004F
:10516000000000000000000000000000000000003F
:1051700000000000000000000030006000E001C0FE
:10518000038003000700070006000E000E000E005B
:105190000E000E000E0006000700070003800380CB
:1051A00001C000E0007000300000000000000000BE
:1051B00000000000000000000C000E00070003804B
:1051C00001C001C000E000E00060007000700070ED
:1051D000007000700060006000E000E001C001C0ED
:1051E000038007000E000C0000000000000000001B
:1051F0000000000000000000018001800188199873
:105200000FF803C003C01FF81998018001800180C6
:10521000000000000000000000000000000000008E
:10522000000000000000000000000000000000007E
:10523000000000000000000000000000000000006E
:1052400000000180018001800180018001807FFEDB
:105250007FFE01800180018001800180000000004C
:10526000000000000000000000000000000000003E
:10527000000000000000000000000000000000002E
:10528000000000000000000000000000000000001E
:10529000000000000000038003C003C001C001C083
:1052A00001C007801F001000000000000000000087
:1052B00000000000000000000000000000000000EE
:1052C00000000000000000000000000000000FF0DF
:1052D0000FF00000000000000000000000000000CF
:1052E00000000000000000000000000000000000BE
:1052F00000000000000000000000000000000000AE
:10530000000000000000000000000000000000009D
:1053100000000000000003C003C003C003C0000081
:10532000000000000000000000000000000000007D
:105330000000000000000000001C001800380030D1
:1053400000700060006000C000C001C001800380E8
:105350000300070006000E000C000C0018001800E7
:1053600038003000000000000000000000000000D5
:1053700000000000000000000000000007F01FF81F
:105380001838381C300C303C707E71EE73CE7F0EB6
:105390007E0E380C300C381C1C381FF007E0000063
:1053A00000000000000000000000000000000000FD
:1053B00000000000000000000000000003C00FC05B
:1053C0003FC039C001C001C001C001C001C001C05F
:1053D00001C001C001C001C001C03FFC3FFC000092
:1053E00000000000000000000000000000000000BD
:1053F0000000000000000000000000000FE03FF08F
:10540000183800380018001800380030007000E02C
:1054100001C0038007000E001C003FFC3FFC0000A1
:10542000000000000000000000000000000000007C
:105430000000000000000000000000001FE01FF05E
:105440000038003800380038007007E007F00078B6
:10545000001C001C001C001C00383FF03FC0000076
:10546000000000000000000000000000000000003C
:1054700000000000000000000000000000F001F04B
:1054800001B00330073006300C301C30383030307B
:1054900070307FFE7FFE00300030003000300000B2
:1054A00000000000000000000000000000000000FC
:1054B0000000000000000000000000001FF81FF8BE
:1054C000180018001800180018001FE01FF8003816
:1054D000001C001C001C001800381FF01FC000003A
:1054E00000000000000000000000000000000000BC
:1054F00000000000000000000000000001F807F8B4
:105500000E001C001800380031C03FF83E3C301C33
:10551000300C300C380C380C1C1C1FF807E0000055
:10552000000000000000000000000000000000007B
:105530000000000000000000000000003FFC3FFCF5
:10554000001C0018003800300070006000E000C04F
:1055500001C001800380070007000E000E0000005C
:10556000000000000000000000000000000000003B
:105570000000000000000000000000000FF01E7896
:10558000381C381C381C3C181E780FE007E01E78C9
:105590003C3C381C300C300C381C1FF80FF000005D
:1055A00000000000000000000000000000000000FB
:1055B0000000000000000000000000000FE01E7866
:1055C0003838301C701C700C300C381C3EFC0FEC52
:1055D000001C001C0018003800F01FE01F00000035
:1055E00000000000000000000000000000000000BB
:1055F00000000000000000000000000000000000AB
:105600000000000003C003C003C0018000000000D0
:10561000000000000000018003C003C003C00000C0
:10562000000000000000000000000000000000007A
:10563000000000000000000000000000000000006A
:105640000000000003C003C003C001800000000090
:1056500000000000000003C003C003C001C001C07F
:1056600001C007800F0000000000000000000000E3
:10567000000000000000000000000000000000002A
:1056800000100038007001E003C007000E003C006D
:105690001C000E00078001C000E000780010000030
:1056A00000000000000000000000000000000000FA
:1056B00000000000000000000000000000000000EA
:1056C000000000000000000000003FFC000000009F
:1056D00000003FFC3FFC0000000000000000000054
:1056E00000000000000000000000000000000000BA
:1056F00000000000000000000000000000000000AA
:1057000008001C000E00070003C000E00070003C11
:105710000038007001E0038007001E000800000050
:105720000000000000000000000000000000000079
:1057300000000000000000000E000FC003E0007039
:105740000038003800380038007803F003C0030048
:1057500003000300000000000700078007000000AE
:105760000000000000000000000000000000000039
:10577000000000000000000001E007F80E1C1C0EF5
:1057800018063006300361F363F36633E673CE63C5
:10579000CC63CC66CC66CCE6CFFCC73C6000600036
:1057A000600030003C301FF00000000000000000EE
:1057B00000000000000000000000000003C003C063
:1057C00007E006E006600E700C700C301C381838CC
:1057D000381C3FFC3FFC700E700E6006E0070000B6
:1057E00000000000000000000000000000000000B9
:1057F0000000000000000000000000003FF03FF843
:105800003838381C381C381838383FF03FF0383CEE
:10581000381C380C380C381C383C3FF83FE000008E
:105820000000000000000000000000000000000078
:1058300000000000000000000000000007FC0FFC5A
:105840001E003800380030007000700070007000DA
:105850007000300038003C001E040FFC03FC000008
:105860000000000000000000000000000000000038
:105870000000000000000000000000003FE03FF0DA
:105880003038301C300C300E300E300E300E300EF2
:10589000300E300C301C301C30783FF03F80000060
:1058A00000000000000000000000000000000000F8
:1058B0000000000000000000000000001FF81FF8BA
:1058C000180018001800180018001FF81FF818001A
:1058D000180018001800180018001FF81FF8000022
:1058E00000000000000000000000000000000000B8
:1058F0000000000000000000000000001FF81FF87A
:10590000180018001800180018001FF81FF81800D9
:1059100018001800180018001800180018000000DF
:105920000000000000000000000000000000000077
:1059300000000000000000000000000007FC0FFC59
:105940001C00380030007000700070FC70FC700C9F
:10595000700C700C300C380C1C0C0FFC07FC000099
:105960000000000000000000000000000000000037
:10597000000000000000000000000000300C300CAF
:10598000300C300C300C300C300C3FFC3FFC300C39
:10599000300C300C300C300C300C300C300C000063
:1059A00000000000000000000000000000000000F7
:1059B0000000000000000000000000003FFC3FFC71
:1059C00001800180018001800180018001800180CF
:1059D000018001800180018001803FFC3FFC0000CC
:1059E00000000000000000000000000000000000B7
:1059F0000000000000000000000000001FF01FF089
:105A00000030003000300030003000300030003016
:105A1000003000300030003010701FE01FC0000068
:105A20000000000000000000000000000000000076
:105A3000000000000000000000000000381C3838A2
:105A4000387038E038C039803B003F003F003B00F1
:105A50003B8039C038E038703838383C381C00009A
:105A60000000000000000000000000000000000036
:105A70000000000000000000000000001C001C00EE
:105A80001C001C001C001C001C001C001C001C0036
:105A90001C001C001C001C001C001FFC1FFC000044
:105AA00000000000000000000000000000000000F6
:105AB000000000000000000000000000381C381C3E
:105AC0006C3E6C3E6C6E666E666E67CE63CE6386B1
:105AD000618660066006600660066006600600007B
