:020000040800F2
:10000000202800209D010008C5130008A302000855
:10001000C1130008C7030008151F000800000000F6
:10002000000000000000000000000000091A0008A5
:100030000904000800000000EF0100080B1A000886
:10004000B7010008B7010008B7010008B7010008B0
:10005000B7010008B70100080B040008B701000849
:10006000B7010008B7010008B7010008B701000890
:10007000B7010008B7010008B7010008B701000880
:10008000B7010008B7010008B7010008B701000870
:10009000B7010008B7010008B7010008B701000860
:1000A000B7010008B7010008B7010008B701000850
:1000B000B7010008B7010008B7010008B701000840
:1000C000B7010008B7010008B7010008B701000830
:1000D000B7010008B7010008B7010008B701000820
:1000E000B7010008B7010008B7010008B701000810
:1000F000B7010008B7010008B7010008B701000800
:10010000B7010008B7010008B7010008B7010008EF
:10011000B7010008B7010008B7010008B7010008DF
:10012000B7010008B7010008B7010008B7010008CF
:10013000B7010008B7010008B7010008B7010008BF
:10014000B7010008B7010008B7010008B7010008AF
:10015000B7010008B7010008B7010008B70100089F
:10016000B7010008B7010008B7010008B70100088F
:10017000B7010008B7010008B7010008000000003F
:10018000B7010008B7010008DFF80CD000F0F0F864
:1001900000480047950300082028002006488047B3
:1001A00006480047FEE7FEE7FEE7FEE7FEE7FEE75C
:1001B000FEE7FEE7FEE7FEE7DD1A0008890100081A
:1001C000EFF3108072B6704780F3108870473A4A98
:1001D0001368012B04D04FF001031360374A1060FD
:1001E000374A116037484FF0805101607047EFF394
:1001F000108272B63048016851B34FF000010160BF
:100200002E48016891B1EFF309811EF0100F08BF6D
:1002100021ED108B21E9F00F4FF000041EF0100FBC
:1002200008BF012441F8044D0068016024490968B1
:10023000096808C9B1E8F00F002B18BFB1EC108BAA
:1002400081F309884EF0100E002B18BF2EF0100E0F
:1002500082F310884EF0040E704719490860EFF3DE
:10026000148222F0040282F3148814494FF0000033
:10027000086011494FF00100086013484FF47F01F6
:10028000D0F8002041EA020101600E484FF0805191
:1002900001600E480068006880F3088861B662B6A5
:1002A0007047EFF3098000B502F05EFB5DF804EBE8
:1002B0004EF0040E70470000EC000020E400002027
:1002C000E800002004ED00E020ED00E008ED00E093
:1002D0002DE9F05F0546002092469B46884606467B
:1002E000814640241BE0284641464746224600F00E
:1002F0002FF853465A46C01A914110D3114618465A
:10030000224600F016F82D1A67EB01084F462246E8
:100310000120002100F00DF817EB00094E41201ECE
:10032000A4F10104DFDC484631462A464346BDE8D5
:10033000F09F202A04DB203A00FA02F100207047E7
:100340009140C2F1200320FA03F319439040704713
:10035000202A04DB203A21FA02F00021704721FA1A
:1003600002F3D040C2F12002914008431946704781
:10037000064C074D06E0E06840F0010394E80700F2
:1003800098471034AC42F6D3FFF702FF003E000856
:10039000203E000810B5FFF713FF03F063FC0020B8
:1003A00010BD10B5034607E018780C78A04201D0C4
:1003B000002010BD5B1C491C101EA2F10104A2B25A
:1003C000F2D10120F5E700BFFEE7000010B50C48B0
:1003D0000C4908604FF4E130486000210948816011
:1003E000C160016181610C21416100F0E3FD0548BC
:1003F0000068C06840F0200002490968C86010BD6C
:10040000001001403001002070477047F8B50246E7
:100410000B460025002400200021DCE0012606FA1E
:1004200001F51E6806EA0504AC4273D15E68022E2F
:1004300002D05E68122E13D1CF0802F1200656F8C2
:1004400027004E07F70E0F26BE40B0434F07FF0EA2
:100450001E69BE403043CF0802F1200646F827004F
:1004600010684F000326BE40B0431E7906F0030615
:100470004F00BE40304310605E68012E08D05E68B9
:10048000022E05D05E68112E02D05E68122E13D1A6
:1004900090684F000326BE40B0434F00DE68BE4068
:1004A00030439060506801268E40B0431E79C6F3F9
:1004B00000168E4030435060D0684F000326BE4087
:1004C000B0434F009E68BE403043D0605E6806F087
:1004D0008056B6F1805F7DD100BF00260096404E69
:1004E000366846F480463E4F3E603E46366806F427
:1004F0008046009600BF00BF3A4E8F0856F827008E
:100500008E07370F0F26BE40B043374EB24202D19E
:10051000002624E05EE0354EB24201D101261EE005
:10052000334EB24201D1022619E0324EB24201D11D
:10053000032614E0304EB24201D104260FE02F4EC4
:10054000B24201D105260AE02D4EB24201D1062663
:1005500005E02C4EB24201D1072600E008268F07A5
:100560003F0FBE4030431F4E8F0846F82700264EEF
:100570003068A0435E6806F48036B6F5803F00D14F
:100580002043214E3060361D3068A0435E6806F47B
:100590000036B6F5003F00D120431B4E361D3060BB
:1005A000361D3068A0435E6806F48016B6F5801FDD
:1005B00000D12043144E08363060361D3068A04309
:1005C0005E6806F40016B6F5001F00D120430E4EFB
:1005D0000C363060491C1029FFF420AFF8BD000034
:1005E0004438024008380140000002400004024044
:1005F00000080240000C02400010024000140240BB
:1006000000180240001C0240003C014002461369F1
:100610000B400BB1012000E000207047014800684A
:10062000000C7047002004E001480068704700009B
:100630000400002070B504460E4800784FF47A712B
:10064000B1FBF0F00C490968B1FBF0F5284600F069
:1006500097FC08B1012070BD102C07D20022214662
:10066000501E00F01DF80548046001E00120F2E78B
:100670000020F0E70C00002000000020080000200F
:1006800001460846002809DB00F01F0301229A40BA
:1006900043099B0003F1E023C3F8002100BF70472A
:1006A0002DE9F05F80460D461646002701F044FC18
:1006B000074639462A46334601F00700C0F1070ACB
:1006C000BAF1040F02D94FF0040A01E0C0F1070AA1
:1006D000D14600F1040ABAF1070F02D24FF0000A26
:1006E00001E0A0F1030AD4464FF0010A0AFA09FA20
:1006F000AAF1010A0AEA020A0AFA0CFA4FF0010BFF
:100700000BFA0CFBABF1010B0BEA030B4AEA0B04EF
:100710002146404601F018FCBDE8F09F70B5044644
:100720000D460CB9012070BD5848006800F00F005C
:10073000A84209D255490D700846006800F00F0024
:10074000A84201D00120EEE7207800F00200022844
:100750001DD1207800F00400042805D14C48006821
:1007600040F4E0504A490860207800F0080008286A
:1007700005D14748006840F4604045490860444856
:10078000006820F0F000A168084341490860207823
:1007900000F00100A8B36068012807D13C48083880
:1007A0000068C0F34040B8B90120BCE76068022887
:1007B00002D06068032807D1354808380068C0F3C4
:1007C000406048B90120AEE7314808380068C0F3FE
:1007D000400008B90120A6E72D48006820F003007A
:1007E000616808432A490860FFF71EFF064609E0D2
:1007F000FFF71AFF801B41F28831884202D903209B
:1008000091E707E02248006800F00C006168B0EB57
:10081000810FEDD11D48006800F00F00A84209D9F2
:100820001A490D700846006800F00F00A84201D078
:10083000012078E7207800F00400042807D114484C
:10084000006820F4E050E16808431149086020780E
:1008500000F00800082808D10D48006820F4604026
:10086000216940EAC1000A49086000F03DF80849E2
:100870000968C1F30311074A515CC8400649086082
:100880000F20FFF7D7FE00204DE70000003C02409C
:1008900008380240B43C000800000020014800680D
:1008A000704700000000002000B5FFF7F7FF044983
:1008B0000968C1F38221034A515CC84000BD0000B1
:1008C00008380240C43C000800B5FFF7E7FF0449C0
:1008D0000968C1F34231034A515CC84000BD0000C1
:1008E00008380240C43C00082DE9F04700240025E8
:1008F0000026A1462548006800F00C0020B104281D
:1009000005D008283AD105E0DFF8849039E0DFF817
:10091000849036E01D48001F006800F03F041B482B
:10092000001F006800F4800078B11A481749091FB9
:100930000968C1F38811A0FB01700146224600231B
:100940003846FFF7C5FC05460EE011480F49091F60
:100950000968C1F38811A0FB0170014622460023FB
:100960003846FFF7B5FC05460848001F0068C0F38D
:100970000140401C4600B5FBF6F902E0DFF810909C
:1009800000BF00BF4846BDE8F087000008380240BD
:100990000024F40040787D01F8B504460CB901202C
:1009A000F8BD207800F00100002874D0F9480068F4
:1009B00000F00C0004280DD0F648006800F00C0090
:1009C000082813D1F348001F006800F48000B0F538
:1009D000800F0BD1EF4808380068C0F34040002872
:1009E00059D06068002856D10120D9E700BF60685F
:1009F000B0F5803F08D1E7480838006840F48030FF
:100A0000E449083908601EE06068B0F5A02F0DD1F8
:100A1000E0480838006840F48020DE490839086062
:100A20000846006840F4803008600CE0D948083877
:100A3000006820F48030D74908390860084600680B
:100A400020F48020086000BF606890B1FFF7ECFDE3
:100A5000054606E0FFF7E8FD401B642801D90320A6
:100A60009EE7CC4808380068C0F340400028F1D029
:100A700011E0FFF7D9FD054606E0FFF7D5FD401B65
:100A8000642801D903208BE7C24808380068C0F306
:100A900040400028F1D1207800F0020002285FD108
:100AA000BC48006800F00C0058B1BA48006800F07B
:100AB0000C0008281CD1B748001F006800F4800013
:100AC000B0B9B44808380068C0F3400020B1E0680D
:100AD000012801D0012063E7AE480838006820F003
:100AE000F800216940EAC100AA490839086037E0E6
:100AF000E06800B30120A8490860FFF795FD0546AE
:100B000006E0FFF791FD401B022801D9032047E7CB
:100B1000A04808380068C0F340000028F1D09D4884
:100B20000838006820F0F800216940EAC1009949BE
:100B30000839086014E0002097490860FFF774FD49
:100B4000054606E0FFF770FD401B022801D903208F
:100B500026E7904808380068C0F340000028F1D12B
:100B6000207800F0080008282CD16069A8B1012085
:100B70008A490860FFF758FD054606E0FFF754FD77
:100B8000401B022801D903200AE782486C30006824
:100B9000C0F340000028F1D014E000207F49086035
:100BA000FFF742FD054606E0FFF73EFD401B022829
:100BB00001D90320F4E677486C300068C0F34000A8
:100BC0000028F1D1207800F00400042870D100261C
:100BD00070483830006800F0805090B900BF0020A5
:100BE00000906C483830006840F0805069493831D6
:100BF00008600846006800F08050009000BF00BF09
:100C000001266748006800F48070B0B96448006845
:100C100040F4807062490860FFF706FD054606E073
:100C2000FFF702FD401B022801D90320B8E65C480B
:100C3000006800F480700028F2D000BFA06801288E
:100C400008D154486830006840F0010051496831CB
:100C500008601DE0A06805280DD14E486830006886
:100C600040F004004B49683108600846006840F0D5
:100C7000010008600CE047486830006820F001007F
:100C80004449683108600846006820F004000860A4
:100C900000BFA068A8B1FFF7C7FC054609E0FFF751
:100CA000C3FC401B41F28831884202D9032077E619
:100CB00026E0384868300068C0F340000028EED0D5
:100CC00013E0FFF7B1FC054608E0FFF7ADFC401B61
:100CD00041F28831884201D9032061E62D4868300D
:100CE0000068C0F340000028EFD1012E07D1294849
:100CF0003830006820F0805026493831086000BF45
:100D0000A069B8B32348006800F00C0008285ED042
:100D1000A069022846D100201F490866FFF784FC1D
:100D2000054606E0FFF780FC401B022801D903209E
:100D300036E6184808380068C0F340600028F1D152
:100D4000D4E907010843616A40EA81110122A06ADF
:100D5000C2EB500041EA00412C20005D41EA0060F6
:100D60000C49091F086001200B490866FFF75CFC6D
:100D7000054607E02DE0FFF757FC401B022801D98C
:100D800003200DE6034808380068C0F340600028DF
:100D9000F1D01EE00838024000004742800E474272
:100DA0000070004000200C490866FFF73DFC054636
:100DB00006E0FFF739FC401B022801D90320EFE5CC
:100DC00006480068C0F340600028F2D101E001202D
:100DD000E6E50020E4E5000000004742003802405C
:100DE00010B504460CB9012010BD606A00B900BFFF
:100DF000A06AB0F5005F00D100BF94F8510028B997
:100E0000002084F85000204600F03AF8022084F8D0
:100E100051002068006820F0400021680860D4E993
:100E200001010843E16808432169084361690843F7
:100E3000218B01F400710843E1690843216A0843EA
:100E4000A16A0843216808600421A06901EA1040F2
:100E5000616A084321684860A06AB0F5005F02D16A
:100E60002168E06A08612068C06920F40060216898
:100E7000C86100206065012084F851000020B3E7BC
:100E800010B586B0044600BF0020009039480068C5
:100E900040F00200374908600846006800F0020090
:100EA000009000BF00BF00BF00200090084600680F
:100EB00040F0020008600846006800F00200009060
:100EC00000BF00BF00BF002000900846006840F04F
:100ED000020008600846006800F00200009000BFB1
:100EE00000BF00BF002000900846006840F04000AE
:100EF00008600846006800F04000009000BF00BF96
:100F000000BF002000901B481430006840F480505F
:100F10001849143108600846006800F480500090B9
:100F200000BF00BF08200190022002900120039022
:100F3000022004900520059001A90F48FFF766FAEA
:100F4000102001900520059001A90B48FFF75EFADB
:100F5000202001900520059001A90748FFF756FAC7
:100F6000402001900120029001A90448FFF74EFAA9
:100F700006B010BD303802400004024000180240A4
:100F800070B504462546681EB0F1807F01D301206C
:100F90000FE0681E4FF0E02148610F214FF0FF3055
:100FA00000F0D2FF00204FF0E021886107200861A7
:100FB000002070BD10B504460CB9012010BDA06919
:100FC00000B100E000BF94F8390028B9002084F88F
:100FD0003800204600F028F8242084F839002068E2
:100FE000C06820F400502168C860204600F0A8FDC9
:100FF0002068006920F490402168086120684069F9
:1010000020F02A00216848612068C06840F4005040
:101010002168C8600020E063202084F8390084F84B
:101020003A000020CAE7000010B586B0044600BFB1
:10103000002000902648006840F010002449086015
:101040000846006800F01000009000BF00BF00BF1D
:10105000002000901E481438006840F002001C492F
:10106000143908600846006800F00200009000BFD4
:1010700000BF00BF002000900846006840F002005A
:1010800008600846006800F00200009000BF00BF42
:101090004020019002200290012003900320049040
:1010A0000720059001A90B48FFF7B0F980200190B7
:1010B0000720059001A90748FFF7A8F901220021A0
:1010C0002520FFF7EDFA2520FFF7DAFA06B010BD6C
:1010D00044380240000402402DE9F84304460D461E
:1010E00016461F464FF0000994F8390020285CD1BD
:1010F00005B116B90120BDE8F88300BF94F83800A7
:10110000012801D10220F6E7012084F8380000BF51
:101110000020E063212084F83900FFF785FA81463A
:10112000A684E6842BE0E08C401EE084A068B0F545
:10113000805F16D14B46002280212046009700F0A8
:10114000B3FE08B10320D6E7A846B8F80000C0F304
:10115000080021684860206908B9AD1C0FE06D1CCB
:101160000DE04B46002280212046009700F09CFEB7
:1011700008B10320BFE715F8010B21684860E08C37
:101180000028D0D14B46002240212046009700F095
:101190008BFE08B10320AEE7202084F8390000BFA1
:1011A000002084F8380000BFA5E70220A3E7000074
:1011B00000B587B000BF002001903648006840F0BD
:1011C0000100344908600846006800F00100019001
:1011D00000BF00BF00BF002001900846006840F03B
:1011E000040008600846006800F00400019000BF99
:1011F00000BF00BF002001900846006840F040009A
:1012000008600846006800F04000019000BF00BF81
:1012100000BF002001900846006840F040000860D0
:101220000846006800F04000019000BF00BF00BF0A
:10123000002001900846006840F040000860084621
:10124000006800F04000019000BF00BF0120029044
:1012500000200390049002A90F48FFF7D7F84FF43D
:101260000050029002A90D48FFF7D0F80420029028
:1012700002A90B48FFF7CAF80820029002A9084803
:10128000FFF7C4F81020029002A90548FFF7BEF846
:1012900007B000BD303802400000024000080240A4
:1012A0000018024070B504460D4629462046FFF757
:1012B000ADF9012808D100BF29462046FFF7A6F95D
:1012C0000128F9D0012070BD0020FCE700B587B0EF
:1012D00000BF002001903548006840F0010033490C
:1012E00008600846006800F00100019000BF00BFE0
:1012F00000BF002001900846006840F01000086020
:101300000846006800F01000019000BF00BF00BF59
:10131000002001900846006840F040000860084640
:10132000006800F04000019000BF00BF00BF002037
:1013300001900846006840F0020008600846006816
:1013400000F00200019000BF00BF4FF40040029087
:101350000120039004900320059002A91448FFF790
:1013600055F80420029002A91248FFF74FF84FF4F5
:101370000040029002A91048FFF748F84FF480702F
:10138000029002A90D48FFF741F84FF400400849C8
:1013900088610420074988614003074918310860C3
:1013A000C01106491831086007B000BD303802404E
:1013B00000000240001002400018024000040240F9
:1013C00000BFFEE77047000070B505460C461646A4
:1013D0004FF480000F490860032000F08BF9C4F33C
:1013E000074000F087F9C4F3072000F083F9E0B26A
:1013F00000F080F904E0FF2000F07CF928706D1CFB
:10140000301EA6F101018EB2F5D1402001490860DD
:1014100070BD0000181802402DE9F05F07460E4627
:1014200014464FF00008C146C2460025AB4606F000
:10143000FF0ACAF10000C5B22046E11704EB1161B2
:10144000C1F30728E11704EB11610912A4EB012194
:1014500001F0FF09BAF1000F20D1B8F1000F05D15A
:1014600022463146384600F095F864E009E04FF432
:1014700080723146384600F08DF806F5807607F523
:101480008077B8F10000A8F1010101F0FF08EED16A
:101490004A463146384600F07DF84CE0B8F1000F7E
:1014A00018D1A94510DDA9EB050000F0FF0B2A4675
:1014B0003146384600F06EF82E442F445A463146E5
:1014C000384600F067F836E022463146384600F0EC
:1014D00061F830E0601B84B22046E11704EB116133
:1014E000C1F30728E11704EB11610912A4EB0121F4
:1014F00001F0FF092A463146384600F04BF82E44E9
:101500002F4409E04FF480723146384600F042F82B
:1015100006F5807607F58077B8F10000A8F10101A3
:1015200001F0FF08EED1B9F1000F04D04A46314670
:10153000384600F02FF8BDE8F09F000010B51348C2
:101540001349086000211248C16181600121416195
:1015500002210161002181620721C1620021C16075
:1015600001624FF400718161002141624FF4827089
:10157000074948600846FFF733FC054800680068E3
:1015800040F0400002490968086010BD0030014089
:101590007001002070B505460C46164600F010F9A3
:1015A0004FF4800013490860022000F0A3F8C4F350
:1015B000074000F09FF8C4F3072000F09BF8E0B26A
:1015C00000F098F8B6F5807F04DD4FF480760AA02D
:1015D00000F0A2FC03E0287800F08CF86D1C301EAF
:1015E000A6F101018EB2F6D140200249086000F058
:1015F000BDF870BD181802403C3C2D464C41534884
:101600002D4552524F522D3E3E205350495F464C7D
:101610004153485F50616765577269746520746F04
:101620006F206C61726765210A00000010B500240C
:101630004FF480000B490860AB2000F05BF8FF20FE
:1016400000F058F8FF2000F055F8FF2000F052F8A5
:10165000FF2000F04FF80446402002490860204671
:1016600010BD0000181802402DE9F04100240025AB
:10167000002600274FF480000D4908609F2000F0ED
:1016800039F8FF2000F036F80546FF2000F032F868
:101690000646FF2000F02EF8074640200449086067
:1016A000280440EA062040EA07042046BDE8F0810D
:1016B0001818024010B5044600F082F800F056F801
:1016C0004FF480000A490860202000F013F8C4F3AA
:1016D000074000F00FF8C4F3072000F00BF8E0B269
:1016E00000F008F840200249086000F03FF810BD03
:1016F0001818024010B504464FF48050194908608C
:101700000AE018490868411E164A116020B90020F5
:1017100000F072F8C0B210BD134800688068C0F3D2
:1017200040000028EDD010480068C4604FF480509D
:101730000C4908600AE00B490868411E094A11601B
:1017400020B9012000F058F8C0B2E4E7064800686C
:10175000806800F001000028EDD003480068C068F0
:10176000C0B2D8E75C0000207001002010B5002452
:101770004FF48000104908600520FFF7BBFF4FF4CD
:1017800080500E49086000BFFF20FFF7B3FF0446FA
:101790000A490868411E094A116018B9042000F07E
:1017A0002BF810BD04F001000028EDD140200249C3
:1017B000086000BFF5E70000181802405C00002038
:1017C00010B54FF48000044908600620FFF792FF2F
:1017D00040200149086010BD1818024010B54FF4B0
:1017E000800004490860B920FFF784FF40200149C8
:1017F000086010BD1818024010B50446214602A02A
:1018000000F08AFB002010BD3C3C2D464C41534863
:101810002D4552524F522D3E3E2053504920B5C8BF
:10182000B4FDB3ACCAB1216572726F72436F646567
:10183000203D2025640A000010B5FFF7F7FE2D4972
:101840000860C82001F0CFFDFFF70EFF2A490860AD
:10185000284802680846016828A000F05DFB264879
:101860000068344988423AD133A000F055FB00208B
:10187000FFF720FF362200213748FFF7CDFD36491C
:1018800036A000F049FB362200213A48FFF79CFDC4
:10189000384939A000F040FB362236492E48FEF781
:1018A00080FD3B4908700846007801280FD1C00729
:1018B00038498861400B38498861400337490860DE
:1018C000C0093749086037A000F026FB0EE04FF44E
:1018D0008020314988613CA000F01EFB06E04FF4F7
:1018E00080202D49886141A000F016FBFFF776FFAC
:1018F00010BD000050000020540000200D0A466C6E
:10190000617368494420697320307825582C202061
:101910004D616E756661637475726572204465769B
:1019200069636520494420697320307825580D0A81
:10193000000000001840EF000D0ABCECB2E2B5BD9B
:1019400053504920464C415348205732355131328B
:101950003820210D0A000000180000200D0AD0B424
:10196000C8EBB5C4CAFDBEDDCEAAA3BA0D0A257365
:1019700000000000F80000200D0AB6C1B3F6B5C49F
:10198000CAFDBEDDCEAAA3BA0D0A25730000000071
:1019900058000020000002400010024018180240C9
:1019A000180402400D0A31364DB4AED0D0666C61D9
:1019B0007368285732355131323829B2E2CAD4B36C
:1019C000C9B9A6210A0D00000D0A31364DB4AED0BA
:1019D000D0666C617368285732355131323829B27C
:1019E000E2CAD4CAA7B0DC210A0D00000D0ABBF17F
:1019F000C8A1B2BBB5BD205732355131323820496C
:101A000044210A0D00000000704710B501F05AF89B
:101A100001F05EFE01F066F810BD000000B593B065
:101A200000BF002001902A48006840F080502849FB
:101A300008600846006800F08050019000BF00BFB9
:101A400000BF002001902348006840F480402149F5
:101A500008600846006800F48040019000BF00BFA5
:101A60000120029000040390022008904105099192
:101A700019210A914FF4A8710B9102210C910721B1
:101A80000D9102A8FEF788FF08B100BFFEE70F2006
:101A90000E9002200F90002010904FF4A050119053
:101AA0004FF48050129005210EA8FEF737FE08B1C2
:101AB00000BFFEE7FEF7B2FD41F20101884205D109
:101AC0000548006840F480700349086013B000BD09
:101AD0004038024000700040003C0240144800685A
:101AE00040F47000124908601248006840F001009C
:101AF0001049086000200F49083108600D4800684F
:101B00000D4908400B4908600C48091D0860081F72
:101B1000006820F48020091F0860002005490C316E
:101B200008604FF00060024980390860704700008B
:101B300088ED00E000380240FFFFF6FE1030002480
:101B40002DE9F04104462068006920F44050E16826
:101B50000843216808612169A06808436169084356
:101B6000E16940EA01052068C06849F20C618843D8
:101B700028432168C8602068406920F44070A1694A
:101B8000084321684861E069B0F5004F7ED1C4493F
:101B90002068884203D0C349206888425DD1FEF79F
:101BA00093FE00EBC00101EB001061684900B0FB3F
:101BB000F1F06421B0FBF1F00601FEF785FE00EBC9
:101BC000C00101EB001061684900B0FBF1F7FEF7BE
:101BD0007BFE00EBC00101EB001061684900B0FB27
:101BE000F1F06421B0FBF1F000EBC00101EB00105B
:101BF000A7EB8000322101EBC0006421B0FBF1F0C3
:101C000000F0F80006EB4006FEF75EFE00EBC001B8
:101C100001EB001061684900B0FBF1F7FEF754FEDC
:101C200000EBC00101EB001061684900B0FBF1F06E
:101C30006421B0FBF1F000EBC00101EB0010A7EB59
:101C40008000322101EBC0006421B0FBF1F000F014
:101C5000070030442168886020E1FEF725FE00EB94
:101C6000C00101EB001061684900B0FBF1F0642194
:101C7000B0FBF1F00601FEF717FE00EBC00101EB2F
:101C8000001061684900B0FBF1F700E045E0FEF7A5
:101C90000BFE00EBC00101EB001061684900B0FBD6
:101CA000F1F06421B0FBF1F000EBC00101EB00109A
:101CB000A7EB8000322101EBC0006421B0FBF1F002
:101CC00000F0F80006EB4006FEF7EEFD00EBC00169
:101CD00001EB001061684900B0FBF1F7FEF7E4FD8D
:101CE00000EBC00101EB001061684900B0FBF1F0AE
:101CF0006421B0FBF1F000EBC00101EB0010A7EB99
:101D00008000322101EBC0006421B0FBF1F000F053
:101D10000700304421688860C0E06149206888423B
:101D200003D06049206888425CD1FEF7CDFD00EB0E
:101D3000C00101EB001061688900B0FBF1F6FEF70D
:101D4000C3FD00EBC00101EB001061688900B0FB2E
:101D5000F1F06421B0FBF1F000EBC00101EB0010E9
:101D6000A6EB8000322101EB00106421B0FBF1F002
:101D700000F0F006FEF7A8FD00EBC00101EB00103B
:101D800061688900B0FBF1F06421B0FBF1F006EB73
:101D90000016FEF799FD00EBC00101EB0010616831
:101DA0008900B0FBF1F7FEF78FFD00EBC00101EBFE
:101DB000001061688900B0FBF1F06421B0FBF1F024
:101DC00000EBC00101EB0010A7EB8000322101EB1A
:101DD00000106421B0FBF1F000F00F0030442168E6
:101DE00088605BE0FEF760FD00EBC00101EB0010D6
:101DF00061688900B0FBF1F6FEF756FD00EBC0010B
:101E000001EB001061688900B0FBF1F06421B0FBC8
:101E1000F1F000EBC00101EB0010A6EB80003221D5
:101E200001EB00106421B0FBF1F000F0F006FEF7CA
:101E30003BFD00EBC00101EB001061688900B0FBC5
:101E4000F1F06421B0FBF1F006EB0016FEF72CFD7B
:101E500000EBC00101EB001061688900B0FBF1F7F5
:101E6000FEF722FD00EBC00101EB00106168890064
:101E7000B0FBF1F06421B0FBF1F000EBC00101EB2D
:101E80000010A7EB8000322101EB00106421B0FBB1
:101E9000F1F000F00F00304421688860BDE8F08167
:101EA00000100140001401402DE9F04104460D46A8
:101EB00017469846069E21E0701CF8B12EB1FEF739
:101EC000B3FBA0EB0800B04218D92068C06820F42A
:101ED000D0702168C8602068406920F00100216846
:101EE0004861202084F8390084F83A0000BF0020BF
:101EF00084F8380000BF0320BDE8F0812068006846
:101F00002840A84201D1012000E00020B842D3D0EF
:101F10000020F1E700BFFEE70FB4054B10B503A9A1
:101F2000044A029800F064F810BC5DF814FB00004D
:101F3000A5230008F400002002480068C0F3022036
:101F4000704700000CED00E010B5002804DB0A0724
:101F5000130E054A135406E00A07140E034A00F054
:101F60000F031B1FD45410BD00E400E018ED00E087
:101F7000014609B900207047C8B220B1C8B20E4A64
:101F8000105C401CF7E701F47F4028B10A48C1F318
:101F90000722805C0930EEE701F47F0028B1064893
:101FA000C1F30742805C1130E5E7034800EB1160A4
:101FB00000781930DFE70000CC3C000802E008C8D8
:101FC000121F08C1002AFAD170477047002001E0B3
:101FD00001C1121F002AFBD17047000003490868A5
:101FE000884201D0012070470020FCE7D00000208B
:101FF0002DE9FF4F8DB09B460F460446002606E0B4
:1020000025280BD05A460F999047641C761C2078DF
:102010000028F5D111B03046BDE8F08F0025A84664
:102020000122984900E0054314F8013F203B02FAE1
:1020300003F00842F7D120782E2817D114F8010FA9
:1020400045F004052A280ED06FF02F022078A0F169
:10205000300109290AD808EB880102EB410100EBA5
:102060000108641CF2E757F8048B641C20786C2884
:102070000DD004DC4C2812D06A2811D104E0742859
:102080000DD07A280CD10AE045F4001507E06178FC
:1020900045F48015814202D1641C05F58015641C4D
:1020A0002278692A45D008DC002AB3D0582A69D0A2
:1020B000632A10D0642A08D13BE0702A67D0732AC3
:1020C00013D0752A5CD0782A5CD010465A460F99F6
:1020D0009047761CD3E017F8040B8DF80000002021
:1020E0008DF80100E946012003E057F8049B4FF00A
:1020F000FF3069074FF0000501D40AE06D1C45452B
:102100000DDA8542FADB19F805100029F6D106E050
:102110006D1C8542FCDB19F805100029F8D12E440E
:1021200004E019F8010B5A460F9990476D1EF8D23A
:10213000A5E00A200021CDE90801C5F302500228DC
:102140000DD001CFC117031E71F100030DDA4FF05E
:10215000000CD0EB0C006CEB01012D2308E0FF1DFF
:1021600027F00707F7E80201EDE72B0504D52B233D
:102170008DF8283001233BE0EB0739D02023F7E727
:102180000A2000E010200021CDE9080107E010201E
:10219000002145F00405CDE908014FF00808C5F31A
:1021A000025002280FD001CF00214FF0000A2B0768
:1021B0001FD5702A0DD0DDE908C38CF0100C5CEA45
:1021C000030C0CD015E0FF1D27F00707F7E802010C
:1021D000EBE740228DF828204FF0010A0BE050EA8F
:1021E000010306D030238DF828308DF829200223F2
:1021F0009A46582A04D024A20DF120090B9209E036
:1022000026A2F9E7DDE90823FEF762F80B9B9B5C49
:1022100009F8013D50EA0102F4D1ADEB090020308C
:102220000890680701D44FF001080899884502DD3D
:10223000A8EB010000E000208046002506E00AA887
:102240005A46405D0F9990476D1C761C5545F6DB4C
:1022500004E030205A460F999047761CB8F10001EF
:10226000A8F10108F5DC05E019F8010B5A460F99B1
:102270009047761C0899481E08900029F4DC641CDD
:10228000C5E60000092801003031323334353637D5
:1022900038396162636465660000000030313233B2
:1022A0003435363738394142434445460000000052
:1022B0002DE9FC5F04468B4615461E46DDE90C9A67
:1022C000DDE90E7804F114004060006000BF1C34AA
:1022D0006560A660C4F80C90C4F810A02321D4E96E
:1022E000030200F06DFDD4E9033C63441A1F0F4B59
:1022F000D4E9010100F0BEFB2060A77667760020DC
:10230000E061C4F82080C4F82480606120766065B4
:10231000A0651C3C00902346054A2146019004F12B
:10232000440001F057FA0020BDE8FC9FF533000897
:10233000413600082DE9F04704460E4617469846F8
:10234000DDF8209084F80990607A20F00100607236
:10235000E66127620020A062C4F82480002506E020
:1023600004F1140101EBC50000F032FC6D1C012DDD
:10237000F6DBBDE8F08710B50246002001460EE00E
:1023800002F1140303EBC100D0E900436360D0E91C
:10239000003423604060006000BF481C01460129F2
:1023A000EEDB10BD13B50C464FF47A73012269467B
:1023B0000248FEF791FE00981CBD0000300100208D
:1023C00010E001210848FEF76DFF40B10748406961
:1023D00080F004000549486105A000F0DBFB0A20FD
:1023E00001F001F8EDE7000000000240001002409B
:1023F0004C4544D7B4CCACB7ADD7AA0A0000000016
:10240000FFF71AFA09E00548406980F400400349E3
:1024100048614FF4FA7000F0E6FFF4E70000024074
:102420001CB51AA000F0B6FB142003214FF4806302
:102430000022CDE90010214921A000F0ACFF224983
:1024400008600846006820B10846006801F0C0F83E
:1024500002E04FF0FF301CBD14200421CB0100220C
:10246000CDE9001019491AA000F095FF194908603C
:102470000846006820B10846006801F0A9F802E0AB
:102480004FF0FF30E7E70020E5E70000D5E2CAC7DC
:10249000D2BBB8F65BD2B0BBF05D2D53544D333296
:1024A0002D5254542DCDE2B2BF5350492D464C41CC
:1024B0005348CAB5D1E9A3A10A00000001240008CD
:1024C0006C6564310000000010000020C12300088A
:1024D0006B6579001400002010B5044600F02AF95D
:1024E000FFF79EFF10BD000030B51A4C436824680A
:1024F0001919884215D04B889BB9174B1B68994214
:102500000FD0164B1B688B4201D1144B18604B68DF
:102510004360104B1B68C31A0E4D4C682D682C4449
:10252000A3600C4C836824681A19824211D0538826
:102530007BB90A4B1B68834201D1084B1A60436880
:102540005360044B1B68D31A024D44682D682C4419
:10255000A36030BD680000206C00002070000020E7
:102560002DE9F04F85B00D469C46DDE90F740E9BBA
:1025700004F04008B8F1000F02D0DFF8688101E0F4
:10258000DFF86481CDF8008004F01008B8F1000F86
:1025900001D024F0010404F00108B8F1000F02D0CA
:1025A0004FF0300801E04FF02008C246002604F04A
:1025B0000208B8F1000F11D0002A02DA2D2652428B
:1025C0000CE004F00408B8F1000F01D02B2605E060
:1025D00004F00808B8F1000F00D02026002142B90D
:1025E0004FF0300B8846491C0DF1040909F808B07A
:1025F0001DE01AE0E146B9F10A0F08D14FF00A0BCD
:10260000B2FBFBFE0BFB1E28B2FBFBF202E002F06A
:102610000F08120900BFDDF8009019F808B08846CD
:10262000491C0DF1040909F808B0002AE2D1B942A9
:1026300000DD0F46DB1B04F01108B8F1000F10D1CC
:1026400016B1002B00DD5B1E06E0A84203D84FF058
:10265000200880F80080401CB3F10008A3F10103BA
:10266000F3DC26B1A84201D806705B1E401C04F0C2
:102670001008B8F1000F0AD104E0A84201D880F890
:1026800000A0401CB3F10008A3F10103F5DC06E053
:10269000A84203D84FF0300880F80080401CB846AC
:1026A0007F1E8845F4DC08E0A84205D80DF1040837
:1026B00018F8018080F80080401CB1F10008A1F1F9
:1026C0000101F1DC06E0A84203D84FF0200880F8B1
:1026D0000080401CB3F10008A3F10103F3DC05B056
:1026E000BDE8F08FDD3D0008CC3D00081CB514208E
:1026F00002210B020022CDE90010044904A000F0E1
:102700004AFE0446204600F063FF1CBDD9240008A1
:102710006D61696E0000000010B5044C02E0206895
:102720008047241D02488442F9D310BDF43D0008BF
:10273000F83D000810B5044C02E020688047241DD5
:1027400002488442F9D310BDF83D0008FC3D000862
:1027500010B5FDF735FD044604480088401C00B262
:10276000024908802046FDF72FFD10BDC000002063
:1027700010B5FDF725FD04460B480088401E00B249
:10278000094908800846B0F90000002807DC00204D
:1027900008802046FDF718FD00F0B4FB02E020465B
:1027A000FDF712FD10BD0000C000002070B5054609
:1027B00005B970BD1D480068854203D31C480068F8
:1027C000854200D3F5E7A5F10C044FF0FF3119481D
:1027D00000F062FC608818B12088B0F5F55F08D081
:1027E00015A000F0D7F923886288214619A000F0CF
:1027F000D1F9002060804FF4F55020802148006816
:10280000844201D21F480460084960680968611A5F
:10281000401A1D490968081A1B4908602046FFF73D
:1028200063FE044800F01BFC00BFC2E76800002004
:102830006C000020C0230020746F20667265652044
:102840006120626164206461746120626C6F636BFB
:102850003A0A00006D656D3A203078253038782CC2
:10286000207573656420666C61673A2025642C20AE
:102870006D6167696320636F64653A203078253045
:1028800034780A007000002078000020004870476B
:10289000C801002000487047C821002070B51E48BC
:1028A00000684FF47A72B0FBF2F1481EB0F1807FFD
:1028B00000D31BE0481E4FF0E022506150170F225A
:1028C000002804DB13071C0E144B1C5406E01307EE
:1028D0001D0E134B00F00F04241F1D5500BF0020D8
:1028E0004FF0E02290610720106100BFFFF796F8DB
:1028F000FEF7ECFCFEF75CFCFDF768FDFEF71EFE44
:10290000FFF70AFFFFF7C6FF0446FFF7BFFF0546C4
:10291000214600F077FC70BD0000002000E400E0DC
:1029200018ED00E038B50446FFF712FF14E02078F8
:102930000A2809D10D2000904FF47A7301226946CC
:102940000848FEF7C9FB00BF2146641C4FF47A73A8
:1029500001220448FEF7C0FB20780028E7D1FFF7EA
:1029600007FF38BD3001002070B5044619480068E3
:1029700038B12046174909688847054605B970BD32
:1029800000BF15A0E16900F005F917A0A16900F0EA
:1029900001F919A0616900F0FDF81BA0216900F0A0
:1029A000F9F81DA0E16800F0F5F81FA0A16800F09B
:1029B000F1F821A0616800F0EDF823A0216800F093
:1029C000E9F800F0DDFD0546294623A000F0E2F815
:1029D00000BFFEE7F00000207073723A20307825C7
:1029E0003038780A000000002070633A20307825E3
:1029F0003038780A00000000206C723A20307825C8
:102A00003038780A000000007231323A20307825E0
:102A10003038780A000000007230333A20307825D0
:102A20003038780A000000007230323A20307825C1
:102A30003038780A000000007230313A20307825B2
:102A40003038780A000000007230303A20307825A3
:102A50003038780A00000000686172642066617591
:102A60006C74206F6E207468726561643A202573FF
:102A70000A000000F0B504460D461646301D20F051
:102A8000070044380146002203E00D4F41F8227050
:102A9000521C112AF9D34D624FF0000CC1F828C026
:102AA000C1F82CC0C1F830C0C1F834C08B63CC630E
:102AB0004FF0807CC1F840C000270F60F0BD0000DF
:102AC000EFBEADDE10B5FDF77BFB04460448007891
:102AD000401C034908702046FDF776FB10BD00003E
:102AE0006400002010B5FDF76BFB04460448007835
:102AF000401E034908702046FDF766FB10BD00002C
:102B00006400002070B504462068A0F11405284632
:102B100000F018FD002070BD2DE9F04105460C467F
:102B20009046204600F06AFDB8F1000F03D0B8F1DE
:102B3000010F23D105E004F11401284600F060F8EC
:102B40001CE02E680FE0A6F1140794F8350097F802
:102B50003510884206DA04F1140107F1140000F080
:102B60004FF802E03668AE42EDD100BFAE4204D16C
:102B700004F11401284600F043F800BF00BF002014
:102B8000BDE8F08110B5044604F1140000F01AF815
:102B9000002010BD0FB438B505A800907F2108486B
:102BA000009B049A00F0C2FE04467F2C00D97F24CB
:102BB0000348FFF7B7FE0020009038BC5DF814FB17
:102BC0004023002040600060704740600060704714
:102BD0004060006070470268516002680A600160EE
:102BE000486070470268516002680A60016048608E
:102BF00070470268516002680A600160486070476F
:102C00004268116042684A6041600860704701464E
:102C10000868884201D1012070470020FCE7014686
:102C20000868884201D1012070470020FCE7D0E904
:102C300000215160D0E900121160406000607047CF
:102C4000D0E900215160D0E90012116040600060BD
:102C5000704700002DE9F041054615B90020BDE898
:102C6000F081E81C20F003054E480068854201D938
:102C70000020F4E70C2D00D20C254FF0FF314A481C
:102C800000F00AFA4948006849490968461A7EE096
:102C90004748006884196088002874D106F10C0048
:102CA0006168081AA8426ED306F10C006168091A1F
:102CB00005F11800814230D306F10C0000EB050845
:102CC0003B48006800EB08074FF4F55038800020BF
:102CD000788060687860BE60C4F8048001206080FD
:102CE0003048796800680C30814205D030497868F6
:102CF00009680844C0F808802E48016805F10C00F6
:102D000008442C4908602C4800680968884219D298
:102D1000284800682849086014E0012060802449A0
:102D200060680968611A401A224909680844214903
:102D30000860214800680968884203D21D4800687D
:102D40001D4908604FF4F5502080184800688442FF
:102D500012D107E015480068406815490968084421
:102D60001249086011480068408828B10F4800687F
:102D7000124909688842EDD10B4800F070F904F15E
:102D80000C006CE7FFE70A480068304446680548D5
:102D90000068401BB0423FF67BAF034800F05FF98C
:102DA00000205CE774000020C02300207000002099
:102DB00068000020780000207C0000206C000020CB
:102DC000F0B50C460546E6B2042A15D300F0030719
:102DD00097B9014646EA062343EA034304E008C1E3
:102DE00008C108C108C1103A102AF8D201E008C190
:102DF000121F042AFBD20D4601E005F8016B171ED5
:102E0000A2F10102F9D1F0BD2DE9F04105460F46CE
:102E1000284600F03BF80646F068FFF71BFF044623
:102E200014B90020BDE8F0812572002060720822EC
:102E30003946204600F0CBF9FDF7C2F9804604F18F
:102E40000C01301DFFF7C7FE4046FDF7BDF92046D7
:102E5000E8E770B50446FDF7B3F9054604F10C0048
:102E6000FFF7E5FE2846FDF7AFF92046FFF79EFC89
:102E700070BD70B50446FDF7A3F9054604F10C00DA
:102E8000FFF7D5FE2846FDF79FF970BD02460021E9
:102E90000AE0074800EB01100078904203D1044893
:102EA00000EB01107047491C0429F2DB0020F9E710
:102EB000800000202DE9F04104460D4616462846C4
:102EC000FFF7E4FF074645F08000207208223146F4
:102ED000204600F07CF9FDF773F9804604F10C01FF
:102EE000381DFFF778FE4046FDF76EF9BDE8F0812A
:102EF0000146087A00F0800008B1012070470020E8
:102F0000FCE700002DE9F041FDF75AF907461B48A0
:102F1000008868BB1A480068FFF72AF8461E19485F
:102F200050F83600A0F114041748006884421BD002
:102F300016490E701448056804601548007848B9B1
:102F400004F11C0105F11C00FDF741F93846FDF7BD
:102F50003BF90CE004F11C0105F11C00FDF737F909
:102F60003846FDF731F902E03846FDF72DF902E069
:102F70003846FDF729F9BDE8F0810000C0000020C7
:102F8000CC000020E0230020C4000020C800002066
:102F90006400002070B50446FDF712F9054614F8E8
:102FA000340F20F00F0040F0010020706278343CB4
:102FB0000A4B03EBC20004F114014268116042683D
:102FC0004A604160086000BF0549A06B096808437A
:102FD000034908602846FDF7F7F870BDE02300209C
:102FE000CC00002070B50446FDF7EAF8054604F170
:102FF0001400D0E900215160D0E900121160406056
:10300000006000BF94F83510094A02EBC100016866
:10301000814201D1012100E0002129B10548A16BC5
:1030200000688843034908602846FDF7CDF870BD65
:10303000E0230020CC0000202DE9F04104460D469D
:1030400016461F462A4601212046FFF733FF204639
:10305000FFF798FDA68367720020BDE8F08170B588
:1030600004460025FDF7ACF8064604F11400FFF70E
:10307000CEFD28B904F11400FFF744FD012502E05C
:10308000A08B401CA0833046FDF79EF8012D01D196
:10309000FFF738FF002070BD73B50546FDF790F8C7
:1030A0000646A88B002806DDA88B401EA883304664
:1030B000FDF78AF828E0019828B93046FDF784F832
:1030C0006FF001007CBD00F05BFA04460020206335
:1030D0006A7A214605F11400FFF71EFD01980028C9
:1030E00009DD01AA002104F1440000F047FB04F1CE
:1030F000440000F087FB3046FDF766F8FFF702FF5B
:10310000206B08B1206BDDE70020DBE708B509A0E4
:10311000FFF740FD0AA0FFF73DFD12A003230022A8
:103120001946009012A0FFF735FD19A0FFF732FDF8
:1031300008BD00000A205C207C202F0A000000004F
:103140002D205254202D20202020205468726561AB
:1031500064204F7065726174696E6720537973746F
:10316000656D0A004A756C202037203230323000FD
:10317000202F207C205C202020202025642E256408
:103180002E2564206275696C642025730A00000096
:103190002032303036202D203230313820436F70CD
:1031A0007972696768742062792072742D7468720C
:1031B000656164207465616D0A00000001460A467D
:1031C00000E0521C10780028FBD1501A704770B5EF
:1031D0000346A2B118460C4600BF14F8016B00F874
:1031E000016B3EB902E0002500F8015B551E2A1E66
:1031F000F9D102E0551E2A1EEFD100BF00BF1846CC
:1032000070BD00002DE9F04105460E46E81C20F097
:10321000030726F00308B8F1180F09D9A8F1180020
:10322000B84205D3A8EB070018381E49086006E02D
:10323000324629461CA0FFF7ADFCBDE8F0812948C5
:10324000076004684FF4F5502080164800680C3081
:1032500060600020A06060802249606809680844BE
:10326000214908604FF4F5500968088001201E4983
:10327000096848800B4800680C301B4909684860A1
:10328000084800680C30184909688860002301224A
:1032900016A11848FFF7D0FE1248006816490860CA
:1032A00000BFCAE7740000206D656D20696E697407
:1032B0002C206572726F7220626567696E2061648E
:1032C000647265737320307825782C20616E6420D9
:1032D000656E64206164647265737320307825784C
:1032E0000A000000680000206C0000206865617022
:1032F00000000000C02300207000002010B5002056
:103300000B490880002405E00A4901EBC400FFF7DF
:103310005CFC641C082CF7DB0720074908700020C0
:1033200006490860064908600648FFF74EFC10BDD4
:10333000C0000020E0230020C8000020C4000020BE
:10334000CC000020D000002070B508480068FEF7CF
:103350000FFE451E064850F83500A0F1140405483C
:10336000046004F11C00FCF778FF70BDCC00002065
:10337000E0230020C400002010B5002405E004492B
:1033800001EBC400FFF724FC641C002CF7D010BD37
:10339000D800002070472DE9FF5F06460F46904693
:1033A0001D46DDE90EAB31460020FFF72DFD8146BD
:1033B000B9F1000F03D1002004B0BDE8F09F28460A
:1033C000FFF748FC044624B94846FFF742FD0020B9
:1033D000F2E743463A46314648468DE8300CFEF760
:1033E00067FF4846E8E710B50446204600F0CEF8EF
:1033F00010BD000070B512480468FCF7E1FE0546F8
:103400002046FFF7EFFD042084F8340004F1440067
:1034100000F0D0F92046FFF76BFD012805D1206FA1
:1034200018B92046FFF725FD04E004F11401054812
:10343000FFF7D8FB2846FCF7C7FEFFF763FD70BD1A
:10344000C4000020D000002001E000F001F8FCE7FB
:1034500070B537E0FCF7B4FE0546FEF7BFFD18B3C4
:103460001B480068A0F1140404F11400D0E9002105
:103470005160D0E9001211604060006000BFFFF7AA
:1034800067F9206F10B12046216F88472046FFF76B
:103490002FFD012805D1FFF76BF92846FCF794FEB4
:1034A00070BDFFF765F903E02846FCF78DFEF7E7EE
:1034B0002846FCF789FEA06AFFF778F92046FFF757
:1034C000C8FC00BFFEF78AFD0028C3D100BFE7E7B4
:1034D000D00000201FB520200721C200074BCDE9F6
:1034E0000032CDE902100023054A06A1074800F08A
:1034F0000FF8064800F06CF81FBD000040220020C5
:10350000493400087469646C65000000C82100201B
:103510002DE9FF5F05460C4616461F46DDE910AB58
:10352000DDE90E89224600212846FFF7C3FC3B4611
:103530003246214628468DE8000FFEF7B9FE04B05A
:10354000BDE8F09F70B5044694F8340000F00F0019
:10355000022802D04FF0FF3070BDFCF731FE054667
:1035600004F11400FFF76CFB04F1440000F0C6F90D
:103570002846FCF729FE2046FFF70CFD0020EBE76C
:103580000148006870470000C400002031B5FCF716
:1035900017FE05460D480468204600F02FF86A46DD
:1035A000002104F1440000F0E9F804F1440000F0C7
:1035B00029F92846FCF708FEFFF7A4FC206B801CC5
:1035C00008B900202063002038BD0000C40000209E
:1035D00010B504463434A0786070617801208840CA
:1035E0006060022004F834092046FFF7ABFFFFF7C4
:1035F000C7FF08B1FFF786FC002010BD70B5044678
:1036000094F8340000F00F00012802D04FF0FF3092
:1036100070BDFCF7D5FD054694F8340020F00F008E
:1036200040F0020084F834002046FFF7DBFC04F190
:10363000440000F063F92846FCF7C6FD0020E7E7E8
:1036400070B5044625466FF00100286305F11400AB
:10365000FFF7F6FA2846FFF79DFCFFF753FC70BD15
:1036600070B5FCF7ADFD05461448046894F83400C5
:1036700000F00F0001281CD1D4E90510814218D0B8
:1036800004F11400FFF7DCFA94F835200C4B03EB3F
:10369000C20004F114014268116042684A6041604E
:1036A000086000BF2846FCF78FFDFFF72BFC0020C9
:1036B00070BD2846FCF788FD0020F9E7C400002013
:1036C000E0230020014800687047000060000020EF
:1036D00010B50A480068401C08490860FFF750FF11
:1036E0000446206C401E2064206C18B9E06B2064F6
:1036F000FFF7B6FF00F004F810BD000060000020E6
:1037000070B5FFF7DFFF0546FCF75AFD064628E0D7
:1037100019480068A0F11404A06A281A6FF000414B
:1037200088421DD22046FEF726FED4E907108847BE
:10373000FFF7C8FF0546607A00F0020058B1607AD2
:1037400000F0010038B1607A20F00100607220467C
:1037500000F058F805E0607A20F00100607200E0A7
:1037600004E00548FFF75BFA0028D1D000BF3046DF
:10377000FCF72AFD70BD0000D8000020034649B1C7
:10378000012904D0022908D0032910D10AE0586A7F
:1037900010600CE01068586209E0587A20F00200CE
:1037A000587204E0587A40F00200587200BF00BF1F
:1037B0000020704770B50446FCF702FD0546204620
:1037C000FEF7D9FD2846FCF7FFFC2046FFF751FB2A
:1037D000002070BD2DE9F84307460C4615461E46ED
:1037E000DDE90889224609213846FFF763FB434695
:1037F000324629463846CDF80090FEF79BFDBDE8DD
:10380000F88300002DE9F8430546FCF7D9FC804613
:103810002846FEF7B0FD687A20F001006872404645
:10382000FCF7D2FCFFF74EFF696A0844A862FCF778
:10383000C7FC80462F4F009700242AE019E05DF86E
:1038400024201168142202EBC402881A826AAB6A2F
:10385000D21A00D108E0826AAB6AD21A6FF0004334
:103860009A4200D20CE000BF5DF8240000684DF8D9
:1038700024005DF8240007EBC40149688842DED1CA
:1038800000BF2CB15DF824000830611C4DF8210008
:10389000641C002CD2D018480068401C16490860EF
:1038A0000846066805F114010098FFF7A2F9022402
:1038B00012E006F0030060B9C4F1010305F114023F
:1038C00002EBC301C4F101025DF82200FFF791F998
:1038D00000E003E0B608641C012CEAD900BF687A56
:1038E00040F0010068724046FCF76EFC0020BDE825
:1038F000F8830000D8000020E000002070B50446E6
:10390000607A00F0010010B94FF0FF3070BDFCF795
:1039100057FC05462046FEF72EFD2846FCF754FCD2
:10392000607A20F0010060720020EFE72DE9FF4F80
:1039300089B0804644460A984044461E464504D213
:103940004FF0FF36A6EB08000A906FE10B98007865
:10395000252806D0B44202D80B9800782070641C49
:1039600061E1002526E00B98401C0B900B98007835
:103970002D2802D145F010051CE00B9800782B286B
:1039800002D145F0040515E00B980078202802D1FB
:1039900045F008050EE00B980078232802D145F089
:1039A000200507E00B980078302802D145F001058A
:1039B00000E000E0D7E700BF4FF0FF370B9800783A
:1039C00030380A2804D20BA800F061F907460EE04F
:1039D0000B9800782A280AD10B98401C0B900C9861
:1039E00080C80C90002F02DA7F4245F010054FF09E
:1039F000FF390B9800782E281CD10B98401C0B9097
:103A00000B98007830380A2804D20BA800F03FF950
:103A100081460AE00B9800782A2806D10B98401CB2
:103A20000B900C9850F8049B0C90B9F1000F01DA40
:103A30004FF00009002004900B980078682803D00C
:103A40000B9800786C2805D10B98007804900B989F
:103A5000401C0B900A2005900B9800786F2875D0B9
:103A60000CDC632813D004DC252870D058286FD1D3
:103A70008DE064286DD06928F9D18FE070286AD074
:103A8000732825D0752878D07828F0D182E005F009
:103A9000100040B904E0B44201D820202070641C1A
:103AA000781E071EF7DC0C9810F8041B0C90C8B2A7
:103AB0000790B44201D807982070641C04E0B44217
:103AC00001D820202070641C781E071EF7DCAAE0B5
:103AD0000C98006806900C98001D0C90069808B988
:103AE0005AA006900698FFF769FB8346B9F1000FCC
:103AF00002DDCB4500DDCB4605F0100048B904E0FF
:103B0000B44201D820202070641C38467F1E5845DE
:103B1000F6DC002008900BE0B44202D8069800784A
:103B20002070641C0698401C06900898401C089061
:103B300008985845F0DB04E0B44201D820202070FA
:103B4000641C38467F1E5845F6DC6CE01CE015E02E
:103B500028E022E0FFE7781C10B9082745F00105AE
:103B6000CDE9007902950C9804C8102331460C90D9
:103B70002046FEF7F5FC044655E012E0B44201D8B9
:103B800025202070641C4EE0082005901DE045F0C3
:103B9000400500BF1020059017E000BF45F002056A
:103BA00000BF12E0B44201D825202070641C0B989D
:103BB000007830B1B44202D80B9800782070641CB1
:103BC00002E00B98401E0B902DE000BF04986C287B
:103BD00007D10C9850F804AB0C9005F00200B8B176
:103BE00016E0049868280BD10C9830F8041B1FFAD3
:103BF00081FA0C9005F0020050B10FFA8AFA07E042
:103C00000C9850F804AB0C9005F0020000B100BF16
:103C1000CDE900790295524631462046059BFEF7D4
:103C20009FFC044600BF0B98401C0B900B9800783B
:103C300000287FF48BAEB44201D8207001E0002050
:103C40003070A4EB08000DB0BDE8F08F284E554C45
:103C50004C2900000020704700207047002070476A
:103C60000020704710B5FCF7ABFAFEF717FEFFF720
:103C70004DFAFFF781FBFFF741FBFEF737FDFFF73A
:103C800089FBFFF727FCFFF75FFB002010BD014613
:103C9000002009E00B685A1C0A601A7800EB8003C8
:103CA00002EB4302A2F130000A681278303A0A2A85
:103CB000F0D3704700000000000000000102030480
:103CC00006070809000000000102030400000100CB
:103CD00002000100030001000200010004000100D5
:103CE00002000100030001000200010005000100C4
:103CF00002000100030001000200010004000100B5
:103D000002000100030001000200010006000100A2
:103D10000200010003000100020001000400010094
:103D20000200010003000100020001000500010083
:103D30000200010003000100020001000400010074
:103D40000200010003000100020001000700010061
:103D50000200010003000100020001000400010054
:103D60000200010003000100020001000500010043
:103D70000200010003000100020001000400010034
:103D80000200010003000100020001000600010022
:103D90000200010003000100020001000400010014
:103DA0000200010003000100020001000500010003
:103DB00002000100030001000200010004000100F4
:103DC0000200010003000100020001003031323323
:103DD00034353637383961626364656600303132B4
:103DE00033343536373839414243444546000000C4
:103DF000613C0008593C0008553C00085D3C000847
:103E0000203E000800000020F8000000BC1F000851
:103E1000183F0008F800002028270000CC1F0008E9
:103E20000024F40000000000100000000100000069
:103E30000000000000000000B8D0D0BBC4FAD1A13F
:103E4000D3C3D2B0BBF073746D3332BFAAB7A2B084
:103E5000E50D0A687474703A2F2F66697265737481
:103E60006D33322E74616F62616F2E636F6D00006F
:103E700000000000000000000000000000A00000A2
:103E80000000000000000000000000000000000032
:103E90000000000000000000000000000000000022
:103EA0000000000084000020840000207800000052
:103EB0000100000094000020940000202000000079
:103EC00004000000A4000020A40000203000000036
:103ED00009000000B4000020B40000202C00000005
:103EE00000000000000000000000000000000000D2
:103EF00000000000000000000000000000000000C2
:103F000000000000000000000000000000000000B1
:083F10000000000000000000A9
:040000050800018965
:00000001FF
