:020000040800F2
:10000000C01B00209D0100080D190008A302000874
:1000100009190008A30300081D20000800000000C3
:100020000000000000000000000000000F190008A0
:10003000C304000800000000EF01000811190008C7
:10004000B7010008B7010008B7010008B7010008B0
:10005000B7010008B70100089D050008B7010008B6
:10006000090600081506000821060008B701000867
:10007000B7010008B7010008B7010008B701000880
:10008000B7010008B7010008B7010008B701000870
:10009000B7010008B7010008B7010008B701000860
:1000A000B7010008B7010008B7010008B701000850
:1000B000B7010008B7010008B7010008B701000840
:1000C000B7010008B7010008B7010008B701000830
:1000D000B7010008091F0008B7010008B7010008B0
:1000E000D1050008B7010008B7010008B7010008F2
:1000F000B7010008B7010008B7010008B701000800
:10010000B7010008B7010008B7010008B7010008EF
:10011000B7010008B7010008B7010008B7010008DF
:10012000B7010008B7010008B7010008B7010008CF
:10013000B7010008B7010008B7010008B7010008BF
:10014000B7010008B7010008B7010008B7010008AF
:10015000A9030008B7010008B7010008B7010008AB
:10016000B7010008B7010008B7010008B70100088F
:10017000B7010008B7010008B7010008000000003F
:10018000B7010008B7010008DFF80CD000F0F0F864
:100190000048004795030008C01B00200648804720
:1001A00006480047FEE7FEE7FEE7FEE7FEE7FEE75C
:1001B000FEE7FEE7FEE7FEE7E11900088901000817
:1001C000EFF3108072B6704780F3108870473A4A98
:1001D0001368012B04D04FF001031360374A1060FD
:1001E000374A116037484FF0805101607047EFF394
:1001F000108272B63048016851B34FF000010160BF
:100200002E48016891B1EFF309811EF0100F08BF6D
:1002100021ED108B21E9F00F4FF000041EF0100FBC
:1002200008BF012441F8044D0068016024490968B1
:10023000096808C9B1E8F00F002B18BFB1EC108BAA
:1002400081F309884EF0100E002B18BF2EF0100E0F
:1002500082F310884EF0040E704719490860EFF3DE
:10026000148222F0040282F3148814494FF0000033
:10027000086011494FF00100086013484FF47F01F6
:10028000D0F8002041EA020101600E484FF0805191
:1002900001600E480068006880F3088861B662B6A5
:1002A0007047EFF3098000B502F0C2FA5DF804EB85
:1002B0004EF0040E70470000BC000020B400002087
:1002C000B800002004ED00E020ED00E008ED00E0C3
:1002D0002DE9F05F0546002092469B46884606467B
:1002E000814640241BE0284641464746224600F00E
:1002F0002FF853465A46C01A914110D3114618465A
:10030000224600F016F82D1A67EB01084F462246E8
:100310000120002100F00DF817EB00094E41201ECE
:10032000A4F10104DFDC484631462A464346BDE8D5
:10033000F09F202A04DB203A00FA02F100207047E7
:100340009140C2F1200320FA03F319439040704713
:10035000202A04DB203A21FA02F00021704721FA1A
:1003600002F3D040C2F12002914008431946704781
:10037000064C074D06E0E06840F0010394E80700F2
:1003800098471034AC42F6D3FFF702FF943F0008C1
:10039000B43F000810B5FFF713FF03F009FD00207C
:1003A00010BD00BFFEE7000010B50249486B00F029
:1003B000F7F910BD240100200146087810381823F1
:1003C000B0FBF3F20848805CC865032A05D90868C9
:1003D0006FF30900001D886503E008686FF30900EA
:1003E0008865886D70470000183E000801460020AF
:1003F0008A6A8B69CBB932B1012A0DD0022A03D0A7
:10040000032A10D10EE000BFCB6A03F08073B3F172
:10041000807F00D1012007E0CB6AB3F1C07F00D11B
:10042000012001E000E000BF34E08B69B3F5005F1C
:100430001AD132B1012A07D0022A03D0032A11D1DE
:100440000AE000BF01200EE0CB6A03F08073B3F135
:10045000807F00D1012006E0CB6AB3F1C07F00D1DC
:10046000012000E000BF15E032B1012A05D0022AC8
:1004700004D0032A0CD103E000BF00BF012008E034
:10048000CB6A03F08073B3F1807F00D1012000E0DC
:1004900000BF00BF704730B50468246824F480248E
:1004A00005682C60046863608468402C04D104688B
:1004B000A2600468E16003E00468A1600468E2608F
:1004C00030BD704700B587B000BF002001902F48B5
:1004D000006840F002002D4908600846006800F0FE
:1004E0000200019000BF00BF00BF0020019008463D
:1004F000006840F0020008600846006800F0020052
:10050000019000BF00BF00BF002001901F481430C1
:10051000006840F010001D4914310860084600686A
:1005200000F01000019000BF00BF402002900220A8
:10053000039001200490032005900720069002A953
:10054000134800F013FB802002900720069002A9B8
:100550000F4800F00BFB0F480F4908604FF4E130E3
:10056000486000210C488160C160016181610C21FB
:10057000416101F044F808480068C06840F010008C
:1005800005490968C86007B000BD00003038024066
:1005900000040240001001402401002010B502F0C8
:1005A000F5F90848006800F0010040B1042206494E
:1005B0000648006802F0B0FC01200249086002F021
:1005C000F5F910BD143C0140180000201400002073
:1005D00010B502F0DBF90948006800F4005048B19A
:1005E000042207490748006802F096FC4FF40050C7
:1005F0000249086002F0DAF910BD0000143C014025
:100600001C000020140000200420014908607047ED
:10061000143C01400820014908607047143C014027
:100620001020014908607047143C014000B587B0B4
:1006300000BF002001904B48006840F0010049498C
:1006400008600846006800F00100019000BF00BF8C
:1006500000BF002001900846006840F001000860DB
:100660000846006800F00100019000BF00BF00BF15
:10067000002001900846006840F0400008600846ED
:10068000006800F04000019000BF00BF00BF0020E4
:1006900001900846006840F0400008600846006885
:1006A00000F04000019000BF00BF00BF002001909B
:1006B0000846006840F0400008600846006800F006
:1006C0004000019000BF00BF012002902648039027
:1006D0000020049002A9254800F048FA00220621D3
:1006E000084600F085FB062000F072FB4FF4005036
:1006F000029002A91E4800F039FA002206212820A3
:1007000000F076FB282000F063FB0420029002A991
:10071000184800F02BFA00220621082000F068FBA0
:10072000082000F055FB0820029002A9114800F0B3
:100730001DFA00220621092000F05AFB092000F0D2
:1007400047FB1020029002A90A4800F00FFA00228D
:1007500006210A2000F04CFB0A2000F039FB07B00C
:1007600000BD0000303802400000111000000240BF
:100770000008024000180240014691F835000228A6
:1007800003D08020486501207047052081F835009E
:100790000868006820F001000A6810600020F3E794
:1007A000F8B50446002000908C4800684FF41651BC
:1007B000B0FBF1F7A56D2E6894F85C100820884016
:1007C000304098B12068006800F0040070B12068E3
:1007D000006820F004002168086094F85C1008208C
:1007E0008840A860606D40F00100606594F85C107E
:1007F00001208840304068B12068406900F08000E6
:1008000040B194F85C1001208840A860606D40F011
:100810000200606594F85C1004208840304068B1A4
:100820002068006800F0020040B194F85C100420D9
:100830008840A860606D40F00400606594F85C102A
:1008400010208840304078B32068006800F008002D
:1008500050B394F85C1010208840A86020680068AD
:1008600000F4802080B12068006800F4002028B9DE
:10087000206CC8B12046216C884715E0A06C98B167
:100880002046A16C88470FE02068006800F4807063
:1008900028B92068006820F0080021680860206CF2
:1008A00010B12046216C884794F85C1020208840C5
:1008B0003040002865D02068006800F01000002853
:1008C0005FD094F85C1020208840A86094F8350030
:1008D000052828D12068006820F0160021680860EB
:1008E0002068406920F0800021684861206C08B9C8
:1008F000A06C28B12068006820F00800216808601A
:1009000094F85C103F208840A86000BF002084F865
:10091000340000BF012084F83500206D10B120465E
:10092000216D8847F8BD2068006800F4802080B100
:100930002068006800F4002028B9606C10B12046DF
:10094000616C88471DE0E06BD8B12046E16B8847B9
:1009500017E02068006800F4807068B920680068BB
:1009600020F010002168086000BF002084F83400E7
:1009700000BF012084F83500E06B10B12046E16B28
:100980008847606D38B3606D00F00100F0B105205C
:1009900084F835002068006820F0010021680860B4
:1009A00000BF0098401C0090B84200D905E02068C4
:1009B000006800F001000028F3D100BF00BF002054
:1009C00084F8340000BF012084F83500E06C10B1D9
:1009D0002046E16C884700BFA4E70000000000202B
:1009E0002DE9F0410446002500F0C6F9074614B988
:1009F0000120BDE8F081606A00B100BF00BF0020A7
:100A000084F8340000BF022084F8350020680068B4
:100A100020F00100216808600AE000F0ADF9C01B79
:100A2000052805D920206065032084F83500E0E71B
:100A30002068006800F001000028EED120680568F9
:100A400021480540D4E901010843E16808432169D0
:100A5000084361690843A1690843E1690843216AC1
:100A600008430543606A042803D1D4E90B01084315
:100A70000543206805602068456925F00705606A20
:100A80000543606A04280DD1A06A0543E06A48B1B5
:100A90002046FFF7ABFC28B140206065012084F8B8
:100AA0003500A6E7206845612046FFF785FC06462D
:100AB00094F85C103F208840B06000206065012001
:100AC00084F83500002094E73F8010F02DE9F047CE
:100AD00004460D4616461F464FF00008D4F85890BD
:100AE00000BF94F83400012802D10220BDE8F0874D
:100AF000012084F8340000BF94F8350001282BD180
:100B0000022084F83500002060653B4632462946C5
:100B10002046FFF7C0FC94F85C103F208840C9F8DD
:100B200008002068006840F016002168086020680E
:100B3000406940F0800021684861206C28B120683D
:100B4000006840F00800216808602068006840F0F4
:100B500001002168086006E000BF002084F834002E
:100B600000BF4FF002084046C0E70000F8B502465B
:100B70000B460025002400200021DCE0012606FAB7
:100B800001F51E6806EA0504AC4273D15E68022EC8
:100B900002D05E68122E13D1CF0802F1200656F85B
:100BA00027004E07F70E0F26BE40B0434F07FF0E3B
:100BB0001E69BE403043CF0802F1200646F82700E8
:100BC00010684F000326BE40B0431E7906F00306AE
:100BD0004F00BE40304310605E68012E08D05E6852
:100BE000022E05D05E68112E02D05E68122E13D13F
:100BF00090684F000326BE40B0434F00DE68BE4001
:100C000030439060506801268E40B0431E79C6F391
:100C100000168E4030435060D0684F000326BE401F
:100C2000B0434F009E68BE403043D0605E6806F01F
:100C30008056B6F1805F7DD100BF00260096404E01
:100C4000366846F480463E4F3E603E46366806F4BF
:100C50008046009600BF00BF3A4E8F0856F8270026
:100C60008E07370F0F26BE40B043374EB24202D137
:100C7000002624E05EE0354EB24201D101261EE09E
:100C8000334EB24201D1022619E0324EB24201D1B6
:100C9000032614E0304EB24201D104260FE02F4E5D
:100CA000B24201D105260AE02D4EB24201D10626FC
:100CB00005E02C4EB24201D1072600E008268F073E
:100CC0003F0FBE4030431F4E8F0846F82700264E88
:100CD0003068A0435E6806F48036B6F5803F00D1E8
:100CE0002043214E3060361D3068A0435E6806F414
:100CF0000036B6F5003F00D120431B4E361D306054
:100D0000361D3068A0435E6806F48016B6F5801F75
:100D100000D12043144E08363060361D3068A043A1
:100D20005E6806F40016B6F5001F00D120430E4E93
:100D30000C363060491C1029FFF420AFF8BD0000CC
:100D400044380240083801400000024000040240DC
:100D500000080240000C0240001002400014024053
:100D600000180240001C0240003C0140014800689D
:100D7000000C7047002004E0014800687047000044
:100D80000400002070B504460E4800784FF47A71D4
:100D9000B1FBF0F00C490968B1FBF0F5284600F012
:100DA000C7FB08B1012070BD102C07D200222146DC
:100DB000501E00F01DF80548046001E00120F2E734
:100DC0000020F0E70C0000200000002008000020B8
:100DD00001460846002809DB00F01F0301229A4063
:100DE00043099B0003F1E023C3F8002100BF7047D3
:100DF0002DE9F05F80460D461646002701F010F9F8
:100E0000074639462A46334601F00700C0F1070A73
:100E1000BAF1040F02D94FF0040A01E0C0F1070A49
:100E2000D14600F1040ABAF1070F02D24FF0000ACE
:100E300001E0A0F1030AD4464FF0010A0AFA09FAC8
:100E4000AAF1010A0AEA020A0AFA0CFA4FF0010BA7
:100E50000BFA0CFBABF1010B0BEA030B4AEA0B0498
:100E60002146404601F0E4F8BDE8F09F70B5044625
:100E70000D460CB9012070BD5848006800F00F0005
:100E8000A84209D255490D700846006800F00F00CD
:100E9000A84201D00120EEE7207800F002000228ED
:100EA0001DD1207800F00400042805D14C480068CA
:100EB00040F4E0504A490860207800F00800082813
:100EC00005D14748006840F46040454908604448FF
:100ED000006820F0F000A1680843414908602078CC
:100EE00000F00100A8B36068012807D13C48083829
:100EF0000068C0F34040B8B90120BCE76068022830
:100F000002D06068032807D1354808380068C0F36C
:100F1000406048B90120AEE7314808380068C0F3A6
:100F2000400008B90120A6E72D48006820F0030022
:100F3000616808432A490860FFF71EFF064609E07A
:100F4000FFF71AFF801B41F28831884202D9032043
:100F500091E707E02248006800F00C006168B0EB00
:100F6000810FEDD11D48006800F00F00A84209D99B
:100F70001A490D700846006800F00F00A84201D021
:100F8000012078E7207800F00400042807D11448F5
:100F9000006820F4E050E1680843114908602078B7
:100FA00000F00800082808D10D48006820F46040CF
:100FB000216940EAC1000A49086000F03DF808498B
:100FC0000968C1F30311074A515CC840064908602B
:100FD0000F20FFF7D7FE00204DE70000003C024045
:100FE00008380240003E0008000000200148006868
:100FF000704700000000002000B5FFF7F7FF04492C
:101000000968C1F38221034A515CC84000BD000059
:1010100008380240103E000800B5FFF7E7FF04491A
:101020000968C1F34231034A515CC84000BD000069
:1010300008380240103E00082DE9F0470024002542
:101040000026A1462548006800F00C0020B10428C5
:1010500005D008283AD105E0DFF8849039E0DFF8C0
:10106000849036E01D48001F006800F03F041B48D4
:10107000001F006800F4800078B11A481749091F62
:101080000968C1F38811A0FB0170014622460023C4
:101090003846FFF71DF905460EE011480F49091FB4
:1010A0000968C1F38811A0FB0170014622460023A4
:1010B0003846FFF70DF905460848001F0068C0F3E1
:1010C0000140401C4600B5FBF6F902E0DFF8109045
:1010D00000BF00BF4846BDE8F08700000838024066
:1010E0000024F40040787D01F8B504460CB90120D5
:1010F000F8BD207800F00100002874D0F94800689D
:1011000000F00C0004280DD0F648006800F00C0038
:10111000082813D1F348001F006800F48000B0F5E0
:10112000800F0BD1EF4808380068C0F3404000281A
:1011300059D06068002856D10120D9E700BF606807
:10114000B0F5803F08D1E7480838006840F48030A7
:10115000E449083908601EE06068B0F5A02F0DD1A1
:10116000E0480838006840F48020DE49083908600B
:101170000846006840F4803008600CE0D948083820
:10118000006820F48030D7490839086008460068B4
:1011900020F48020086000BF606890B1FFF7ECFD8C
:1011A000054606E0FFF7E8FD401B642801D903204F
:1011B0009EE7CC4808380068C0F340400028F1D0D2
:1011C00011E0FFF7D9FD054606E0FFF7D5FD401B0E
:1011D000642801D903208BE7C24808380068C0F3AF
:1011E00040400028F1D1207800F0020002285FD1B1
:1011F000BC48006800F00C0058B1BA48006800F024
:101200000C0008281CD1B748001F006800F48000BB
:10121000B0B9B44808380068C0F3400020B1E068B5
:10122000012801D0012063E7AE480838006820F0AB
:10123000F800216940EAC100AA490839086037E08E
:10124000E06800B30120A8490860FFF795FD054656
:1012500006E0FFF791FD401B022801D9032047E774
:10126000A04808380068C0F340000028F1D09D482D
:101270000838006820F0F800216940EAC100994967
:101280000839086014E0002097490860FFF774FDF2
:10129000054606E0FFF770FD401B022801D9032038
:1012A00026E7904808380068C0F340000028F1D1D4
:1012B000207800F0080008282CD16069A8B101202E
:1012C0008A490860FFF758FD054606E0FFF754FD20
:1012D000401B022801D903200AE782486C300068CD
:1012E000C0F340000028F1D014E000207F490860DE
:1012F000FFF742FD054606E0FFF73EFD401B0228D2
:1013000001D90320F4E677486C300068C0F3400050
:101310000028F1D1207800F00400042870D10026C4
:1013200070483830006800F0805090B900BF00204D
:1013300000906C483830006840F08050694938317E
:1013400008600846006800F08050009000BF00BFB1
:1013500001266748006800F48070B0B964480068EE
:1013600040F4807062490860FFF706FD054606E01C
:10137000FFF702FD401B022801D90320B8E65C48B4
:10138000006800F480700028F2D000BFA068012837
:1013900008D154486830006840F001005149683174
:1013A00008601DE0A06805280DD14E48683000682F
:1013B00040F004004B49683108600846006840F07E
:1013C000010008600CE047486830006820F0010028
:1013D0004449683108600846006820F0040008604D
:1013E00000BFA068A8B1FFF7C7FC054609E0FFF7FA
:1013F000C3FC401B41F28831884202D9032077E6C2
:1014000026E0384868300068C0F340000028EED07D
:1014100013E0FFF7B1FC054608E0FFF7ADFC401B09
:1014200041F28831884201D9032061E62D486830B5
:101430000068C0F340000028EFD1012E07D12948F1
:101440003830006820F0805026493831086000BFED
:10145000A069B8B32348006800F00C0008285ED0EB
:10146000A069022846D100201F490866FFF784FCC6
:10147000054606E0FFF780FC401B022801D9032047
:1014800036E6184808380068C0F340600028F1D1FB
:10149000D4E907010843616A40EA81110122A06A88
:1014A000C2EB500041EA00412C20005D41EA00609F
:1014B0000C49091F086001200B490866FFF75CFC16
:1014C000054607E02DE0FFF757FC401B022801D935
:1014D00003200DE6034808380068C0F34060002888
:1014E000F1D01EE00838024000004742800E47421B
:1014F0000070004000200C490866FFF73DFC0546DF
:1015000006E0FFF739FC401B022801D90320EFE574
:1015100006480068C0F340600028F2D101E00120D5
:10152000E6E50020E4E50000000047420038024004
:1015300070B504462546681EB0F1807F01D30120B6
:101540000FE0681E4FF0E02148610F214FF0FF309F
:1015500000F06EFD00204FF0E02188610720086157
:10156000002070BD10B504460448844204D14FF4F5
:101570008062034900F07EF810BD000024010020C5
:101580006401002010B504462068C06820F4907003
:101590002168C8602068406920F001002168486126
:1015A0002068406900F0400040281BD12068406955
:1015B00020F0400021684861606B50B10E48616BBB
:1015C0000865606BFFF7D8F8A0B1606B016D8847C4
:1015D00010E00020E085202084F83A002046FFF744
:1015E000C1FF07E00020E085202084F83A00204673
:1015F000FFF7B8FF002010BDE91A0008704710B5CA
:1016000004460CB9012010BDA06900B100E000BF84
:1016100094F8390028B9002084F83800204600F0FA
:1016200027F8242084F839002068C06820F400508E
:101630002168C860204600F07DFA2068006920F427
:101640009040216808612068406920F02A002168E4
:1016500048612068C06840F400502168C8600020DC
:10166000E063202084F8390084F83A000020CAE7BB
:101670007047000077B581B00446154694F83A00EB
:10168000202850D1029800B115B9012004B070BDD6
:1016900000BF94F83800012801D10220F6E70120AC
:1016A00084F8380000BF0298A062A5850020E0639E
:1016B000222084F83A001D48616BC8631C48616BA6
:1016C00008641C48616BC8640020616B086502AE49
:1016D00032682368191D2B46606BFFF7F7F900BFCE
:1016E000002000902068006800902068406800900A
:1016F00000BF00BF00BF002084F8380000BF206892
:10170000C06840F480702168C8602068406940F07B
:101710000100216848612068406940F0400021686C
:1017200048610020B2E70220B0E70000951A0008E7
:10173000DB1A0008451A0008704770472DE9F84386
:1017400004460D4616461F464FF0000994F839002E
:1017500020285CD105B116B90120BDE8F88300BF8F
:1017600094F83800012801D10220F6E7012084F81E
:10177000380000BF0020E063212084F83900FFF723
:10178000FBFA8146A684E6842BE0E08C401EE084D0
:10179000A068B0F5805F16D14B460022802120461C
:1017A000009700F07BFB08B10320D6E7A846B8F805
:1017B0000000C0F3080021684860206908B9AD1C2A
:1017C0000FE06D1C0DE04B46002280212046009763
:1017D00000F064FB08B10320BFE715F8010B216896
:1017E0004860E08C0028D0D14B46002240212046A2
:1017F000009700F053FB08B10320AEE7202084F8E7
:10180000390000BF002084F8380000BFA5E702209F
:10181000A3E7000000B587B000BF00200190354865
:10182000006840F00100334908600846006800F095
:101830000100019000BF00BF00BF002001900846DA
:10184000006840F0100008600846006800F01000D2
:10185000019000BF00BF00BF002001900846006853
:1018600040F0400008600846006800F04000019029
:1018700000BF00BF00BF002001900846006840F094
:10188000020008600846006800F00200019000BFF6
:1018900000BF4FF400400290012003900490032009
:1018A000059002A91448FFF761F90420029002A9EB
:1018B0001248FFF75BF94FF40040029002A910486C
:1018C000FFF754F94FF48070029002A90D48FFF71A
:1018D0004DF94FF4004008498861042007498861A8
:1018E0004003074918310860C011064918310860E3
:1018F00007B000BD30380240000002400010024036
:10190000001802400004024000BFFEE77047704725
:1019100010B501F03BF801F081FF01F047F810BD70
:1019200000B593B000BF002001902A48006840F045
:101930008050284908600846006800F080500190F7
:1019400000BF00BF00BF002001902348006840F4A2
:101950008040214908600846006800F480400190FA
:1019600000BF00BF012002900004039002200890F5
:101970004105099119210A914FF4A8710B91022197
:101980000C9107210D9102A8FFF7AEFB08B100BF33
:10199000FEE70F200E9002200F90002010904FF4D1
:1019A000A05011904FF48050129005210EA8FFF71F
:1019B0005DFA08B100BFFEE7FFF7D8F941F2010177
:1019C000884205D10548006840F4807003490860EA
:1019D00013B000BD4038024000700040003C02409F
:1019E0001448006840F4700012490860124800680A
:1019F00040F001001049086000200F4908310860DC
:101A00000D4800680D4908400B4908600C48091D45
:101A10000860081F006820F48020091F086000206B
:101A200005490C3108604FF00060024980390860B8
:101A30007047000088ED00E000380240FFFFF6FE2E
:101A40001030002470B506460025B46B206840694C
:101A5000C0F3C01594F83900212805D125B1002024
:101A6000E084204600F05CF820684069C0F38015EF
:101A700094F83A00222805D125B10020E0852046BF
:101A800000F03EF8E06B40F01000E0632046FFF706
:101A9000B5FD70BD70B50546AC6B2868006800F4F4
:101AA0008070B0B90020E0852068C06820F48070A4
:101AB0002168C8602068406920F001002168486101
:101AC0002068406920F0400021684861202084F8A7
:101AD0003A002046FFF730FE70BD70B50446A56B96
:101AE0002846FFF72AFE70BD70B50546AC6B002096
:101AF000E085202084F83A002046FFF733FD70BDD2
:101B00000168C96821F490710268D160016849696F
:101B100021F0010102685161202180F83A107047DC
:101B20000168C96821F0C0010268D160202180F8F5
:101B3000391070472DE9F04104462068006920F40F
:101B40004050E1680843216808612169A0680843A2
:101B500061690843E16940EA01052068C06849F20B
:101B60000C61884328432168C8602068406920F4DC
:101B70004070A169084321684861E069B0F5004FF1
:101B80007ED1C4492068884203D0C3492068884276
:101B90005DD1FFF741FA00EBC00101EB0010616875
:101BA0004900B0FBF1F06421B0FBF1F00601FFF752
:101BB00033FA00EBC00101EB001061684900B0FB93
:101BC000F1F7FFF729FA00EBC00101EB00106168A3
:101BD0004900B0FBF1F06421B0FBF1F000EBC00173
:101BE00001EB0010A7EB8000322101EBC000642163
:101BF000B0FBF1F000F0F80006EB4006FFF70CFA3E
:101C000000EBC00101EB001061684900B0FBF1F787
:101C1000FFF702FA00EBC00101EB00106168490018
:101C2000B0FBF1F06421B0FBF1F000EBC00101EB7F
:101C30000010A7EB8000322101EBC0006421B0FB53
:101C4000F1F000F0070030442168886020E1FFF7E0
:101C5000D3F900EBC00101EB001061684900B0FB53
:101C6000F1F06421B0FBF1F00601FFF7C5F900EBDC
:101C7000C00101EB001061684900B0FBF1F700E022
:101C800045E0FFF7B9F900EBC00101EB0010616816
:101C90004900B0FBF1F06421B0FBF1F000EBC001B2
:101CA00001EB0010A7EB8000322101EBC0006421A2
:101CB000B0FBF1F000F0F80006EB4006FFF79CF9EE
:101CC00000EBC00101EB001061684900B0FBF1F7C7
:101CD000FFF792F900EBC00101EB001061684900C9
:101CE000B0FBF1F06421B0FBF1F000EBC00101EBBF
:101CF0000010A7EB8000322101EBC0006421B0FB93
:101D0000F1F000F00700304421688860C0E06149CC
:101D10002068884203D06049206888425CD1FFF780
:101D20007BF900EBC00101EB001061688900B0FB9A
:101D3000F1F6FFF771F900EBC00101EB00106168EB
:101D40008900B0FBF1F06421B0FBF1F000EBC001C1
:101D500001EB0010A6EB8000322101EB00106421A2
:101D6000B0FBF1F000F0F006FFF756F900EBC00110
:101D700001EB001061688900B0FBF1F06421B0FB59
:101D8000F1F006EB0016FFF747F900EBC00101EB9D
:101D9000001061688900B0FBF1F7FFF73DF900EB37
:101DA000C00101EB001061688900B0FBF1F0642113
:101DB000B0FBF1F000EBC00101EB0010A7EB8000DD
:101DC000322101EB00106421B0FBF1F000F00F00B4
:101DD0003044216888605BE0FFF70EF900EBC0013A
:101DE00001EB001061688900B0FBF1F6FFF704F920
:101DF00000EBC00101EB001061688900B0FBF1F05D
:101E00006421B0FBF1F000EBC00101EB0010A6EB88
:101E10008000322101EB00106421B0FBF1F000F0F2
:101E2000F006FFF7E9F800EBC00101EB0010616874
:101E30008900B0FBF1F06421B0FBF1F006EB001675
:101E4000FFF7DAF800EBC00101EB001061688900D0
:101E5000B0FBF1F7FFF7D0F800EBC00101EB001089
:101E600061688900B0FBF1F06421B0FBF1F000EB98
:101E7000C00101EB0010A7EB8000322101EB001044
:101E80006421B0FBF1F000F00F003044216888605D
:101E9000BDE8F08100100140001401402DE9F0413F
:101EA00004460D4617469846069E21E0701CF8B180
:101EB0002EB1FEF761FFA0EB0800B04218D92068F0
:101EC000C06820F4D0702168C8602068406920F0A4
:101ED000010021684861202084F8390084F83A0024
:101EE00000BF002084F8380000BF0320BDE8F08167
:101EF000206800682840A84201D1012000E00020AD
:101F0000B842D3D00020F1E708B500F03FFD0C48FF
:101F100000680068C0F3001078B10948FFF732FB91
:101F200000BF002000900648006800680090044848
:101F300000684068009000BF00BF00F037FD08BD9A
:101F40002401002008B500BF00200090214800684F
:101F500040F480001F4908600846006800F48000D3
:101F6000009000BF00BF1C481C4908604FF0006093
:101F70004860002119488160C1604FF480610161AF
:101F80000021416181614FF48071C16109020162E8
:101F900000214162032181620021C1620163FEF7D9
:101FA0001FFD00BF0D480E49486308460B49886372
:101FB00000BF406B0068006840F01C000849496B96
:101FC000096808604FF4806206490548FFF752FB34
:101FD00008BD00003038024088640240C400002080
:101FE000240100206401002010B5FEF76BFAFFF712
:101FF000A9FF00F001F810BD10B500220721442010
:10200000FEF7F6FE4420FEF7E3FE0022082125201D
:10201000FEF7EEFE2520FEF7DBFE10BD00BFFEE75B
:1020200002480068C0F30220704700000CED00E099
:1020300010B5002804DB0A07130E054A135406E006
:102040000A07140E034A00F00F031B1FD45410BDDF
:1020500000E400E018ED00E0014609B900207047F7
:10206000C8B220B1C8B20E4A105C401CF7E701F4B8
:102070007F4028B10A48C1F30722805C0930EEE7AF
:1020800001F47F0028B10648C1F30742805C11309B
:10209000E5E7034800EB116000781930DFE7000046
:1020A000503E000802E008C8121F08C1002AFAD1F9
:1020B00070477047002001E001C1121F002AFBD1C8
:1020C0007047000003490868884201D0012070472A
:1020D0000020FCE7A00000202DE9FC5F04468B46B1
:1020E00015461E46DDE90C9ADDE90E7804F1140070
:1020F0004060006000BF1C346560A660C4F80C90AE
:10210000C4F810A02321D4E9030200F015FED4E99D
:10211000033C63441A1F0F4BD4E9010100F00EFC8D
:102120002060A77667760020E061C4F82080C4F8BC
:102130002480606120766065A0651C3C0090234689
:10214000054A2146019004F1440001F0E9FB00201A
:10215000BDE8FC9F853500088D3700082DE9F04764
:1021600004460E4617469846DDF8209084F80990FC
:10217000607A20F001006072E66127620020A062B0
:10218000C4F82480002506E004F1140101EBC50029
:1021900000F09CFC6D1C012DF6DBBDE8F08710B54E
:1021A0000246002001460EE002F1140303EBC100D9
:1021B000D0E900436360D0E90034236040600060F0
:1021C00000BF481C01460129EEDB10BD08B5002404
:1021D00018E04FF0FF33042269460B48006800F016
:1021E0001DFE044624B909A0009900F051FC03E04B
:1021F00021460BA000F04CFC1148406980F40040DF
:102200000F494861E5E7000014000020B4A5B7A21B
:10221000D6D0B6CFB5C4CAC74B45592564210A00EC
:10222000CAFDBEDDBDD3CAD5B3F6B4ED2CB4EDCE38
:10223000F3B4FAC2EB3A203078256C780A0000003B
:10224000000002401CB516A000F022FC21A000F006
:102250001FFC00230222042125A000F091FD264945
:1022600008600846006810B124A000F011FC14209A
:1022700001214B020022CDE90010264926A001F0E1
:1022800058F9264908600846006820B108460068E9
:1022900001F044FA02E04FF0FF301CBD0020FCE7E3
:1022A000D5E2CAC7D2BBB8F65BD2B0BBF05D2D5346
:1022B000544D3332463430372DBDBED1F42D5254F7
:1022C00054CDE2B2BFD6D0B6CFCAB5D1E9A3A10AE8
:1022D00000000000B0B4CFC24B455931207C204BE8
:1022E000455932B4A5B7A2D6D0B6CFA3A10A0000F3
:1022F000746573745F6D710014000020CFFBCFA272
:10230000B6D3C1D0B4B4BDA8B3C9B9A6A3A10A0AB3
:1023100000000000CD2100086B657900100000204E
:1023200010B5044600F042F9FFF78CFF10BD000025
:1023300030B51A4C436824681919884215D04B8867
:102340009BB9174B1B6899420FD0164B1B688B42E9
:1023500001D1144B18604B684360104B1B68C31AC3
:102360000E4D4C682D682C44A3600C4C8368246887
:102370001A19824211D053887BB90A4B1B688342D9
:1023800001D1084B1A6043685360044B1B68D31A91
:10239000024D44682D682C44A36030BD2800002005
:1023A0002C000020300000202DE9F04F85B00D46B4
:1023B0009C46DDE90F740E9B04F04008B8F1000F55
:1023C00002D0DFF8688101E0DFF86481CDF8008099
:1023D00004F01008B8F1000F01D024F0010404F05B
:1023E0000108B8F1000F02D04FF0300801E04FF0C3
:1023F0002008C246002604F00208B8F1000F11D0F0
:10240000002A02DA2D2652420CE004F00408B8F14A
:10241000000F01D02B2605E004F00808B8F1000FEA
:1024200000D02026002142B94FF0300B8846491CCD
:102430000DF1040909F808B01DE01AE0E146B9F110
:102440000A0F08D14FF00A0BB2FBFBFE0BFB1E2854
:10245000B2FBFBF202E002F00F08120900BFDDF848
:10246000009019F808B08846491C0DF1040909F8D4
:1024700008B0002AE2D1B94200DD0F46DB1B04F0B0
:102480001108B8F1000F10D116B1002B00DD5B1E52
:1024900006E0A84203D84FF0200880F80080401CD6
:1024A000B3F10008A3F10103F3DC26B1A84201D87F
:1024B00006705B1E401C04F01008B8F1000F0AD132
:1024C00004E0A84201D880F800A0401CB3F1000845
:1024D000A3F10103F5DC06E0A84203D84FF0300871
:1024E00080F80080401CB8467F1E8845F4DC08E078
:1024F000A84205D80DF1040818F8018080F8008082
:10250000401CB1F10008A1F10101F1DC06E0A84294
:1025100003D84FF0200880F80080401CB3F1000879
:10252000A3F10103F3DC05B0BDE8F08F613F0008C3
:10253000503F00081CB5142002210B020022CDE9F7
:102540000010044904A000F0F4FF0446204601F006
:10255000E5F81CBD212300086D61696E00000000D4
:1025600070B5094C0BE009A0216800F091FA606891
:1025700080470546294609A000F08AFA08340A482F
:102580008442F0D370BD00007C3F0008696E69741E
:1025900069616C697A652025730000003A25642022
:1025A000646F6E650A000000843F000870B50AA0E1
:1025B00000F06EFA104C0BE010A0216800F068FAF1
:1025C000606880470546294610A000F061FA08348B
:1025D00011488442F0D370BD646F20636F6D706FDB
:1025E0006E656E747320696E7469616C697A61746A
:1025F000696F6E2E0A000000843F0008696E6974DE
:1026000069616C697A652025730000003A256420B1
:10261000646F6E650A0000008C3F000810B5FDF77E
:10262000CFFD044604480088401C00B202490880DF
:102630002046FDF7C9FD10BD9000002010B5FDF744
:10264000BFFD04460B480088401E00B209490880BF
:102650000846B0F90000002807DC0020088020466A
:10266000FDF7B2FD00F01CFD02E02046FDF7ACFDD9
:1026700010BD00009000002070B5054605B970BD82
:102680001D480068854203D31C480068854200D37A
:10269000F5E7A5F10C044FF0FF31194800F0CAFD31
:1026A000608818B12088B0F5F55F08D015A000F05B
:1026B000EFF923886288214619A000F0E9F900208B
:1026C00060804FF4F550208021480068844201D298
:1026D0001F480460084960680968611A401A1D496A
:1026E0000968081A1B4908602046FFF721FE0448C4
:1026F00000F083FD00BFC2E7280000202C0000206E
:102700005C170020746F206672656520612062612D
:1027100064206461746120626C6F636B3A0A00002C
:102720006D656D3A203078253038782C20757365CA
:102730006420666C61673A2025642C206D616769AE
:102740006320636F64653A203078253034780A005E
:102750003000002038000020004870476405002049
:10276000004870476415002070B51D4800684FF49C
:102770007A72B0FBF2F1481EB0F1807F00D31BE00B
:10278000481E4FF0E022506150170F22002804DB52
:1027900013071C0E134B1C5406E013071D0E124B9F
:1027A00000F00F04241F1D5500BF00204FF0E02251
:1027B00090610720106100BFFFF7B2F8FFF72AF819
:1027C000FDF734FFFFF710FCFFF7CAFEFFF7C8FF65
:1027D0000446FFF7C1FF0546214600F0E1FD70BD4C
:1027E0000000002000E400E018ED00E038B50446E9
:1027F000FFF714FF14E020780A2809D10D2000907B
:102800004FF47A73012269460848FEF797FF00BF2C
:102810002146641C4FF47A7301220448FEF78EFFB0
:1028200020780028E7D1FFF709FF38BD24010020F8
:1028300070B504461948006838B120461749096840
:102840008847054605B970BD00BF15A0E16900F0D5
:102850001FF917A0A16900F01BF919A0616900F028
:1028600017F91BA0216900F013F91DA0E16800F021
:102870000FF91FA0A16800F00BF921A0616800F01A
:1028800007F923A0216800F003F900F041FF054695
:10289000294623A000F0FCF800BFFEE7C00000209E
:1028A0007073723A203078253038780A00000000C2
:1028B0002070633A203078253038780A0000000014
:1028C000206C723A203078253038780A00000000F9
:1028D0007231323A203078253038780A0000000012
:1028E0007230333A203078253038780A0000000002
:1028F0007230323A203078253038780A00000000F3
:102900007230313A203078253038780A00000000E3
:102910007230303A203078253038780A00000000D4
:1029200068617264206661756C74206F6E207468D3
:10293000726561643A2025730A000000F0B5044610
:102940000D461646301D20F007004438014600228F
:1029500003E00D4F41F82270521C112AF9D34D6249
:102960004FF0000CC1F828C0C1F82CC0C1F830C02D
:10297000C1F834C08B63CC634FF0807CC1F840C099
:1029800000270F60F0BD0000EFBEADDE10B5FDF713
:1029900017FC044604480078401C03490870204690
:1029A000FDF712FC10BD00002400002010B5FDF75B
:1029B00007FC044604480078401E0349087020467E
:1029C000FDF702FC10BD00002400002070B5044695
:1029D0002068A0F11405284600F07CFE002070BDA0
:1029E00070B505460EE0FDF7EBFB06462868A0F142
:1029F00014044FF0FF302063204600F06BFE304699
:102A0000FDF7E2FB284600F080F80028EBD000201C
:102A100070BD2DE9F04105460C469046204600F079
:102A200093FEB8F1000F03D0B8F1010F23D105E0F8
:102A300004F11401284600F061F81CE02E680FE054
:102A4000A6F1140794F8350097F83510884206DA95
:102A500004F1140107F1140000F050F802E03668A8
:102A6000AE42EDD100BFAE4204D104F114012846BC
:102A700000F044F800BF00BF0020BDE8F08110B5B1
:102A8000044604F1140000F01BF8002010BD000003
:102A90000FB438B505A800907F210848009B049A20
:102AA00000F0EAFF04467F2C00D97F240348FFF79B
:102AB0009DFE0020009038BC5DF814FBDC16002061
:102AC0004060006070474060006070474060006098
:102AD00070470268516002680A6001604860704790
:102AE0000268516002680A600160486070470268CD
:102AF000516002680A600160486070474268116076
:102B000042684A6041600860704701460868884230
:102B100001D1012070470020FCE701460868884287
:102B200001D1012070470020FCE7D0E9002151606D
:102B3000D0E900121160406000607047D0E90021C8
:102B40005160D0E9001211604060006070470000E1
:102B50002DE9F041054615B90020BDE8F081E81CDB
:102B600020F003054E480068854201D90020F4E7B3
:102B70000C2D00D20C254FF0FF314A4800F05AFBD3
:102B80004948006849490968461A7EE04748006894
:102B900084196088002874D106F10C006168081A55
:102BA000A8426ED306F10C006168091A05F11800FD
:102BB000814230D306F10C0000EB05083B48006869
:102BC00000EB08074FF4F5503880002078806068EB
:102BD0007860BE60C4F80480012060803048796865
:102BE00000680C30814205D0304978680968084493
:102BF000C0F808802E48016805F10C0008442C49F3
:102C000008602C4800680968884219D22848006882
:102C10002849086014E00120608024496068096840
:102C2000611A401A2249096808442149086021486C
:102C300000680968884203D21D4800681D49086081
:102C40004FF4F550208018480068844212D107E004
:102C50001548006840681549096808441249086029
:102C600011480068408828B10F4800681249096877
:102C70008842EDD10B4800F0C0FA04F10C006CE77B
:102C8000FFE70A4800683044466805480068401B72
:102C9000B0423FF67BAF034800F0AFFA00205CE79C
:102CA000340000205C1700203000002028000020A5
:102CB000380000203C0000202C0000202DE9F041CD
:102CC0000F46164604463D463346102B28D305F0E2
:102CD000030C04F003084CEA080CBCF1000F1FD1F0
:102CE00021462A4610E052F804CB41F804CB52F8B2
:102CF00004CB41F804CB52F804CB41F804CB52F892
:102D000004CB41F804CB103B102BECD204E052F87A
:102D100004CB41F804CB1B1F042BF8D20C461546FC
:102D200003E015F801CB04F801CBB3F1000CA3F1DB
:102D30000103F6D1BDE8F081F0B50C460546E6B2D8
:102D4000042A15D300F0030797B9014646EA062383
:102D500043EA034304E008C108C108C108C1103AAE
:102D6000102AF8D201E008C1121F042AFBD20D4636
:102D700001E005F8016B171EA2F10102F9D1F0BDC7
:102D80002DE9F0470746884691469A463946052080
:102D900000F008F9044614B92046BDE8F08784F82D
:102DA00009A02046FFF76BFE08F1030020F00300A6
:102DB0002084A4F82290218C091D628C01FB02F072
:102DC000FFF7C6FEE061E06920B9204600F018F880
:102DD0000020E2E70020A062E0622063002508E016
:102DE000208C001DE16905FB0016206B3060266316
:102DF0006D1C608CA842F3DC0020A0842046CCE748
:102E000010B5044604F11400FFF7EAFDE069FFF78E
:102E100033FC204600F0EBF8002010BD2DE9FF4701
:102E200004460F4690464FF0000900F071FC05463D
:102E3000FDF7C6F98246A08C48B9039838B95046C8
:102E4000FDF7C2F96FF0010004B0BDE8F0873CE087
:102E500000202863039830B95046FDF7B5F96FF0AC
:102E600001002863F0E7627A294604F11400FFF7B5
:102E7000D0FD039800280CDD00F0CAFC814603AAAF
:102E8000002105F1440000F01FFD05F1440000F0B1
:102E90005FFD5046FDF798F900F002F9286B08B184
:102EA000286BD1E7FDF78CF98246039800280CDDEA
:102EB00000F0AEFCA0EB09090398A0EB0900039019
:102EC0000398002801DA00200390A08C0028BFD0CE
:102ED000A66A3068A062E06AB04201D10020E062D8
:102EE000A08C401EA0845046FDF76EF9208C404512
:102EF00001D2208C00E040460246311D3846FFF7E3
:102F0000DDFEFDF75DF98246206B3060266350469A
:102F1000FDF75AF9002097E72DE9F04104460F46E6
:102F20001646208CB04203D24FF0FF30BDE8F0814E
:102F3000FDF746F98046256B2DB94046FDF744F96B
:102F40006FF00200F2E7286820634046FDF73CF985
:102F50000020286032463946281DFFF7AFFEFDF7F6
:102F60002FF98046E06A08B1E06A0560E562A06A70
:102F700000B9A562A08C401CA08404F11400FFF7E6
:102F8000C4FD50B904F11400FFF720FD4046FDF7E1
:102F90001BF900F085F80020C8E74046FDF714F95A
:102FA0000020C3E72DE9F04105460F46284600F012
:102FB0003BF80646F068FFF7CBFD044614B9002045
:102FC000BDE8F08125720020607208223946204653
:102FD00000F0CBF9FDF7F4F8804604F10C01301D48
:102FE000FFF777FD4046FDF7EFF82046E8E770B5BC
:102FF0000446FDF7E5F8054604F10C00FFF795FDE2
:103000002846FDF7E1F82046FFF736FB70BD70B5A6
:103010000446FDF7D5F8054604F10C00FFF785FDE1
:103020002846FDF7D1F870BD024600210AE00748A6
:1030300000EB01100078904203D1044800EB01102E
:103040007047491C0529F2DB0020F9E74000002009
:103050002DE9F04104460D4616462846FFF7E4FFE9
:10306000074645F08000207208223146204600F0D5
:103070007CF9FDF7A5F8804604F10C01381DFFF737
:1030800028FD4046FDF7A0F8BDE8F0810146087A2A
:1030900000F0800008B1012070470020FCE700002C
:1030A0002DE9F041FDF78CF807461B48008868BB06
:1030B0001A480068FEF7D0FF461E194850F836003F
:1030C000A0F114041748006884421BD016490E7002
:1030D0001448056804601548007848B904F11C01DB
:1030E00005F11C00FDF773F83846FDF76DF80CE0AC
:1030F00004F11C0105F11C00FDF769F83846FDF7E5
:1031000063F802E03846FDF75FF802E03846FDF765
:103110005BF8BDE8F0810000900000209C000020DA
:103120007C1700209400002098000020240000203C
:1031300070B50446FDF744F8054614F8340F20F046
:103140000F0040F0010020706278343C0A4B03EB22
:10315000C20004F114014268116042684A60416093
:10316000086000BF0549A06B09680843034908606F
:103170002846FDF729F870BD7C1700209C00002030
:1031800070B50446FDF71CF8054604F11400D0E9BB
:1031900000215160D0E9001211604060006000BF62
:1031A00094F83510094A02EBC1000168814201D14F
:1031B000012100E0002129B10548A16B0068884386
:1031C000034908602846FCF7FFFF70BD7C1700200C
:1031D0009C0000202DE9F04104460D4616461F468E
:1031E0002A4601212046FFF733FF2046FFF747FC20
:1031F000A68367720020BDE8F08170B50446002503
:10320000FCF7DEFF064604F11400FFF77EFC28B948
:1032100004F11400FFF7DAFB012502E0A08B401C4B
:10322000A0833046FCF7D0FF012D01D1FFF738FF16
:10323000002070BD73B50546FCF7C2FF0646A88B9B
:10324000002806DDA88B401EA8833046FCF7BCFF93
:1032500028E0019828B93046FCF7B6FF6FF001006E
:103260007CBD00F055FA0446002020636A7A2146AE
:1032700005F11400FFF7CDFB0198002809DD01AA34
:10328000002104F1440000F01FFB04F1440000F0B1
:103290005FFB3046FCF798FFFFF702FF206B08B199
:1032A000206BDDE70020DBE708B509A0FFF7F0FBA6
:1032B0000AA0FFF7EDFB12A003230022194600909D
:1032C00012A0FFF7E5FB19A0FFF7E2FB08BD000025
:1032D0000A205C207C202F0A000000002D20525480
:1032E000202D2020202020546872656164204F70BA
:1032F00065726174696E672053797374656D0A0035
:103300004A756C202037203230323000202F207C4C
:10331000205C202020202025642E25642E2564207A
:103320006275696C642025730A0000002032303019
:1033300036202D203230313820436F707972696722
:1033400068742062792072742D74687265616420DB
:103350007465616D0A00000001460A4600E0521CD7
:1033600010780028FBD1501A704770B50346A2B1FF
:1033700018460C4600BF14F8016B00F8016B3EB90B
:1033800002E0002500F8015B551E2A1EF9D102E07B
:10339000551E2A1EEFD100BF00BF184670BD0000A9
:1033A0002DE9F04105460E46E81C20F0030726F003
:1033B0000308B8F1180F09D9A8F11800B84205D3CD
:1033C000A8EB070018381E49086006E03246294677
:1033D0001CA0FFF75DFBBDE8F08129480760046889
:1033E0004FF4F5502080164800680C3060600020D3
:1033F000A06060802249606809680844214908602B
:103400004FF4F5500968088001201E49096848807A
:103410000B4800680C301B49096848600848006880
:103420000C301849096888600023012216A1184849
:10343000FFF7D0FE124800681649086000BFCAE7CF
:10344000340000206D656D20696E69742C206572F2
:10345000726F7220626567696E2061646472657361
:103460007320307825782C20616E6420656E64208E
:103470006164647265737320307825780A000000F7
:10348000280000202C00002068656170000000000A
:103490005C1700203000002010B500200B49088088
:1034A000002405E00A4901EBC400FFF70CFB641C93
:1034B000082CF7DB07200749087000200649086040
:1034C000064908600648FFF7FEFA10BD900000208C
:1034D0007C17002098000020940000209C00002011
:1034E000A000002070B508480068FEF7B5FD451E35
:1034F000064850F83500A0F114040548046004F1B2
:103500001C00FCF7AAFE70BD9C0000207C17002068
:103510009400002010B5002405E0044901EBC4002C
:10352000FFF7D4FA641C002CF7D010BDA8000020CF
:1035300070472DE9FF5F06460F4690461D46DDE9C0
:103540000EAB31460020FFF72DFD8146B9F1000F8B
:1035500003D1002004B0BDE8F09F2846FFF7F8FA39
:10356000044624B94846FFF742FD0020F2E74346EF
:103570003A46314648468DE8300CFEF7ADFD4846E8
:10358000E8E7000070B512480468FCF719FE05462C
:103590002046FFF7F5FD042084F8340004F14400D0
:1035A00000F0AEF92046FFF771FD012805D1206F2C
:1035B00018B92046FFF72BFD04E004F1140105487B
:1035C000FFF78EFA2846FCF7FFFDFFF769FD70BD97
:1035D00094000020A000002001E000F001F8FCE7CA
:1035E00070B537E0FCF7ECFD0546FEF76BFD18B350
:1035F0001B480068A0F1140404F11400D0E9002174
:103600005160D0E9001211604060006000BFFFF718
:1036100005F8206F10B12046216F88472046FFF73C
:1036200035FD012805D1FFF709F82846FCF7CCFD48
:1036300070BDFFF703F803E02846FCF7C5FDF7E788
:103640002846FCF7C1FDA06AFFF716F82046FFF7F1
:10365000CEFC00BFFEF736FD0028C3D100BFE7E770
:10366000A00000201FB520200721C200074BCDE994
:103670000032CDE902100023054A06A1074800F0F8
:103680000FF8064800F04AF81FBD0000DC150020C6
:10369000D93500087469646C650000006415002069
:1036A0002DE9FF5F05460C4616461F46DDE910ABC7
:1036B000DDE90E89224600212846FFF7C9FC3B467A
:1036C0003246214628468DE8000FFEF705FD04B07E
:1036D000BDE8F09F70B5044694F8340000F00F0088
:1036E000022802D04FF0FF3070BDFCF769FD05469F
:1036F00004F11400FFF722FA04F1440000F0A4F9E9
:103700002846FCF761FD2046FFF712FD0020EBE79D
:1037100001480068704700009400002010B504467E
:103720003434A078607061780120884060600220A5
:1037300004F834092046FFF7CDFFFFF7E9FF08B191
:10374000FFF7AEFC002010BD70B5044694F83400BD
:1037500000F00F00012802D04FF0FF3070BDFCF7E1
:103760002FFD054694F8340020F00F0040F00200D1
:1037700084F834002046FFF703FD04F1440000F014
:1037800063F92846FCF720FD0020E7E770B5044602
:1037900025466FF00100286305F11400FFF7CEF90C
:1037A0002846FFF7C5FCFFF77BFC70BD70B5FCF742
:1037B00007FD05461448046894F8340000F00F0033
:1037C00001281CD1D4E90510814218D004F114005D
:1037D000FFF7B4F994F835200C4B03EBC20004F169
:1037E00014014268116042684A604160086000BF8D
:1037F0002846FCF7E9FCFFF753FC002070BD284683
:10380000FCF7E2FC0020F9E7940000207C17002080
:1038100001480068704700002000002010B50A48E9
:103820000068401C08490860FFF772FF0446206CDE
:10383000401E2064206C18B9E06B2064FFF7B6FFCF
:1038400000F004F810BD00002000002070B5FFF764
:10385000DFFF0546FCF7B4FC064628E0194800687F
:10386000A0F11404A06A281A6FF0004188421DD20A
:103870002046FEF794FCD4E907108847FFF7C8FFFD
:103880000546607A00F0020058B1607A00F001004D
:1038900038B1607A20F001006072204600F058F8DC
:1038A00005E0607A20F00100607200E004E0054865
:1038B000FFF733F90028D1D000BF3046FCF784FC75
:1038C00070BD0000A8000020034649B1012904D0C2
:1038D000022908D0032910D10AE0586A10600CE0D0
:1038E0001068586209E0587A20F00200587204E02B
:1038F000587A40F00200587200BF00BF00207047A5
:1039000070B50446FCF75CFC05462046FEF747FC14
:103910002846FCF759FC2046FFF779FB002070BDD4
:103920002DE9F84307460C4615461E46DDE9088991
:10393000224609213846FFF78BFB4346324629468B
:103940003846CDF80090FEF709FCBDE8F88300008A
:103950002DE9F8430546FCF733FC80462846FEF780
:103960001EFC687A20F0010068724046FCF72CFCCF
:10397000FFF74EFF696A0844A862FCF721FC804605
:103980002F4F009700242AE019E05DF824201168E9
:10399000142202EBC402881A826AAB6AD21A00D1DE
:1039A00008E0826AAB6AD21A6FF000439A4200D2F2
:1039B0000CE000BF5DF8240000684DF824005DF8BD
:1039C000240007EBC40149688842DED100BF2CB156
:1039D0005DF824000830611C4DF82100641C002CA7
:1039E000D2D018480068401C16490860084606688E
:1039F00005F114010098FFF77AF8022412E006F0AE
:103A0000030060B9C4F1010305F1140202EBC30124
:103A1000C4F101025DF82200FFF769F800E003E05D
:103A2000B608641C012CEAD900BF687A40F0010096
:103A300068724046FCF7C8FB0020BDE8F883000030
:103A4000A8000020B000002070B50446607A00F0A5
:103A5000010010B94FF0FF3070BDFCF7B1FB054617
:103A60002046FEF79CFB2846FCF7AEFB607A20F070
:103A7000010060720020EFE72DE9FF4F89B080461A
:103A800044460A984044461E464504D24FF0FF364D
:103A9000A6EB08000A906FE10B980078252806D065
:103AA000B44202D80B9800782070641C61E10025B4
:103AB00026E00B98401C0B900B9800782D2802D123
:103AC00045F010051CE00B9800782B2802D145F03A
:103AD000040515E00B980078202802D145F0080570
:103AE0000EE00B980078232802D145F0200507E06E
:103AF0000B980078302802D145F0010500E000E085
:103B0000D7E700BF4FF0FF370B98007830380A280E
:103B100004D20BA800F061F907460EE00B9800787C
:103B20002A280AD10B98401C0B900C9880C80C9046
:103B3000002F02DA7F4245F010054FF0FF390B9855
:103B400000782E281CD10B98401C0B900B98007805
:103B500030380A2804D20BA800F03FF981460AE069
:103B60000B9800782A2806D10B98401C0B900C98D3
:103B700050F8049B0C90B9F1000F01DA4FF00009E6
:103B8000002004900B980078682803D00B980078E8
:103B90006C2805D10B98007804900B98401C0B9072
:103BA0000A2005900B9800786F2875D00CDC6328EC
:103BB00013D004DC252870D058286FD18DE06428FC
:103BC0006DD06928F9D18FE070286AD0732825D08C
:103BD000752878D07828F0D182E005F0100040B93F
:103BE00004E0B44201D820202070641C781E071E17
:103BF000F7DC0C9810F8041B0C90C8B20790B44284
:103C000001D807982070641C04E0B44201D8202039
:103C10002070641C781E071EF7DCAAE00C98006870
:103C200006900C98001D0C90069808B95AA00690B2
:103C30000698FFF791FB8346B9F1000F02DDCB45F3
:103C400000DDCB4605F0100048B904E0B44201D8CD
:103C500020202070641C38467F1E5845F6DC00206A
:103C600008900BE0B44202D8069800782070641CDB
:103C70000698401C06900898401C089008985845E3
:103C8000F0DB04E0B44201D820202070641C3846E8
:103C90007F1E5845F6DC6CE01CE015E028E022E0D1
:103CA000FFE7781C10B9082745F00105CDE9007938
:103CB00002950C9804C8102331460C902046FEF75C
:103CC00073FB044655E012E0B44201D82520207071
:103CD000641C4EE0082005901DE045F0400500BF43
:103CE0001020059017E000BF45F0020500BF12E06C
:103CF000B44201D825202070641C0B98007830B1A4
:103D0000B44202D80B9800782070641C02E00B9833
:103D1000401E0B902DE000BF04986C2807D10C9832
:103D200050F804AB0C9005F00200B8B116E004980E
:103D300068280BD10C9830F8041B1FFA81FA0C90FC
:103D400005F0020050B10FFA8AFA07E00C9850F81B
:103D500004AB0C9005F0020000B100BFCDE9007982
:103D60000295524631462046059BFEF71DFB044650
:103D700000BF0B98401C0B900B98007800287FF434
:103D80008BAEB44201D8207001E000203070A4EB6B
:103D900008000DB0BDE8F08F284E554C4C290000AE
:103DA00000207047002070470020704700207047B7
:103DB00010B5FCF705FAFEF7D7FCFFF775FAFFF729
:103DC000A9FBFFF769FBFEF7B5FBFFF7B1FBFFF7B8
:103DD00049FCFFF787FB002010BD0146002009E0E9
:103DE0000B685A1C0A601A7800EB800302EB43024E
:103DF000A2F130000A681278303A0A2AF0D37047EC
:103E0000000000000000000001020304060708098A
:103E10000000000001020304000610160006101640
:103E20007274695F7374617274007274695F626F37
:103E30006172645F7374617274007274695F626F3F
:103E40006172645F656E64007274695F656E6400C0
:103E50000000010002000100030001000200010057
:103E60000400010002000100030001000200010043
:103E70000500010002000100030001000200010032
:103E80000400010002000100030001000200010023
:103E90000600010002000100030001000200010011
:103EA0000400010002000100030001000200010003
:103EB00005000100020001000300010002000100F2
:103EC00004000100020001000300010002000100E3
:103ED00007000100020001000300010002000100D0
:103EE00004000100020001000300010002000100C3
:103EF00005000100020001000300010002000100B2
:103F000004000100020001000300010002000100A2
:103F10000600010002000100030001000200010090
:103F20000400010002000100030001000200010082
:103F30000500010002000100030001000200010071
:103F40000400010002000100030001000200010062
:103F500030313233343536373839616263646566FF
:103F600000303132333435363738394142434445F5
:103F700046000000203E0008AD3D00082A3E000833
:103F8000A53D00083A3E0008A13D0008483E000853
:103F9000A93D0008B43F000800000020C400000054
:103FA000A420000878400008C4000020FC1A00008B
:103FB000B42000080024F4000000000010000000FD
:103FC00001000000000000000000000001000000EF
:103FD00002000000000000000000000000000000DF
:103FE00000000000000000000000000000000000D1
:103FF00000000000000000004400002044000020F9
:10400000780000000100000054000020540000204F
:104010002000000004000000640000206400002074
:104020003000000005000000740000207400002033
:1040300034000000090000008400002084000020FB
:104040002C00000000000000000000000000000044
:104050000000000000000000000000000000000060
:104060000000000000000000000000000000000050
:08407000000000000000000048
:040000050800018965
:00000001FF
