:020000040800F2
:10000000F82700209D01000811280008A30200081D
:100010000D280008370800081D2D0008000000000A
:10002000000000000000000000000000132800088D
:100030007908000800000000EF01000815280008FA
:10004000B7010008B7010008B7010008B7010008B0
:10005000B7010008B70100087B080008B7010008D5
:10006000B7010008B7010008B7010008B701000890
:10007000B7010008B7010008B7010008B701000880
:10008000B7010008B7010008B7010008B701000870
:10009000B7010008B7010008B7010008B701000860
:1000A000B7010008B7010008B7010008B701000850
:1000B000B7010008B7010008B7010008B701000840
:1000C000B7010008B7010008B7010008B701000830
:1000D000B7010008B7010008B7010008B701000820
:1000E000B7010008B7010008B7010008B701000810
:1000F000B7010008B7010008B7010008B701000800
:10010000B7010008B7010008B7010008B7010008EF
:10011000B7010008B7010008B7010008B7010008DF
:10012000B7010008B7010008B7010008B7010008CF
:10013000B7010008B7010008B7010008B7010008BF
:10014000B7010008B7010008B7010008B7010008AF
:10015000B7010008B7010008B7010008B70100089F
:10016000B7010008B7010008B7010008B70100088F
:10017000B7010008B7010008B7010008000000003F
:10018000B7010008B7010008DFF80CD000F03AFB17
:100190000048004729080008F82700200648804743
:1001A00006480047FEE7FEE7FEE7FEE7FEE7FEE75C
:1001B000FEE7FEE7FEE7FEE7E52800088901000804
:1001C000EFF3108072B6704780F3108870473A4A98
:1001D0001368012B04D04FF001031360374A1060FD
:1001E000374A116037484FF0805101607047EFF394
:1001F000108272B63048016851B34FF000010160BF
:100200002E48016891B1EFF309811EF0100F08BF6D
:1002100021ED108B21E9F00F4FF000041EF0100FBC
:1002200008BF012441F8044D0068016024490968B1
:10023000096808C9B1E8F00F002B18BFB1EC108BAA
:1002400081F309884EF0100E002B18BF2EF0100E0F
:1002500082F310884EF0040E704719490860EFF3DE
:10026000148222F0040282F3148814494FF0000033
:10027000086011494FF00100086013484FF47F01F6
:10028000D0F8002041EA020101600E484FF0805191
:1002900001600E480068006880F3088861B662B6A5
:1002A0007047EFF3098000B503F05CFD5DF804EBE7
:1002B0004EF0040E70470000E4000020DC00002037
:1002C000E000002004ED00E020ED00E008ED00E09B
:1002D0002DE9F05F0546002092469B46884606467B
:1002E000814640241BE0284641464746224600F00E
:1002F000F9F853465A46C01A914110D31146184690
:10030000224600F0E0F82D1A67EB01084F4622461E
:100310000120002100F0D7F817EB00094E41201E04
:10032000A4F10104DFDC484631462A464346BDE8D5
:10033000F09F2DE9FE4F804681EA0300C00F0C4676
:10034000009021F0004123F00045B8EB0200A941E4
:1003500005D24046214690461C460B46024623F0F5
:100360000040104347D0270DC7F30A00C3F30A51DA
:100370000290401A019040286BDAC3F3130040F456
:10038000801B0098924620B10023D2EB030A63EB56
:100390000B0B01985946C0F14002504600F093F80B
:1003A00006460D4650465946019A00F0ABF810EB50
:1003B00008006141002487EA115284EAE7731A4376
:1003C00040D0009A62B3019A012A4FEA075215DC25
:1003D000001B61EB02014FF0004202EA0752CDE937
:1003E0000042001C41F5801132462B4600F0ABF86C
:1003F00003B0BDE8F08F40462146F9E7001B61EBF2
:100400000201001C41F5801300185B412018A2F581
:10041000001747EB030140EAD570B6196D4111E0B2
:100420006D084FEA360645EAC0754FEA0752001BD1
:1004300061EB0201001C41F5801149084FEA3000D0
:100440000019514132462B4603B0BDE8F04F00F091
:100450006BB80098012240000023D0EB020263EB4E
:10046000E073009821464FEAE074B8EB000061EBBE
:100470000401E9E783F000435BE781F0004158E7BE
:100480000EB540F2334102910021CDE900110A4638
:100490000B4600F058F803B000BD30B50B460146DE
:1004A00000202022012409E021FA02F59D4205D313
:1004B00003FA02F5491B04FA02F52844151EA2F1BD
:1004C0000102F1DC30BD202A04DB203A00FA02F1FF
:1004D000002070479140C2F1200320FA03F3194332
:1004E00090407047202A04DB203A21FA02F00021D4
:1004F000704721FA02F3D040C2F120029140084334
:1005000019467047202A06DBCB17203A41FA02F041
:1005100043EAE07306E041FA02F3D040C2F1200260
:10052000914008431946704710B5141E73F100043A
:1005300008DA401C41F1000192185B411A4301D1D5
:1005400020F0010010BD2DE9F04D92469B4611B1FF
:10055000B1FA81F202E0B0FA80F220329046FFF761
:10056000B2FF04460F4640EA0A0041EA0B01534637
:100570005A46084313D0114653EA010019D0C8F176
:1005800040025046FFF7AEFF05460E46504659461C
:100590004246FFF798FF084305D0012004E02046BB
:1005A0003946BDE8F08D0020054346EAE0762C434D
:1005B00037430A986305E40AA0EB08000022FD0A0D
:1005C00044EA47540A3002D500200146E9E7010514
:1005D00010196941DDE9084500196941BDE8F04D90
:1005E000A2E72DE9FE4F81EA030404F0004421F064
:1005F000004100944FF0000B23F0004350EA010447
:100600005ED052EA03045BD0C3F30A54C1F30A5527
:100610002C44A4F2F3340194A0FB0254C1F313015F
:1006200041F48011C3F3130343F4801301FB02442C
:1006300000FB034E840A970A44EA815447EA835731
:10064000A4FB076802958D0A05FB07854FEA932CEA
:1006500004FB0C542705029D4FEA065847EA16375B
:10066000B5EB08056EEB070C870E920E47EA811773
:1006700042EA8312A7FB0201B6EB0B0164EB000414
:100680002B0D43EA0C335E1844EB1C50DA465146FE
:10069000E7FB0201C5F313044FEA0B3343EA14539B
:1006A0004FEA0432019C43EA0603A4F10C040294CD
:1006B000009CCDE900B4FFF746FF03B0BDE8F08F22
:1006C00000200146F9E72DE9F04D81EA030404F02A
:1006D000004B21F0004514464FF0000A23F0004182
:1006E00050EA050220D054EA01021DD0C5F30A5792
:1006F0000246C5F31303C1F31300C1F30A5640F4D5
:10070000801543F48013A7EB0608101BD64608F2A9
:10071000FD3873EB050002D308F1010801E09218DF
:100720005B41B8F1000F03DA00200146BDE8F08D0F
:1007300000204FF48011064684460EE0171B73EB31
:10074000050705D3121B63EB050306434CEA010CB6
:1007500049084FEA300092185B4150EA0107EDD199
:1007600052EA030012D082EA040083EA050108433A
:1007700005D0101BAB4106D20122002306E0002267
:100780004FF0004302E06FF0010253101AEB060035
:100790004CEB085110EB0A0041EB0B01BDE8F04DAA
:1007A000FFF7C2BEC1F30A52C1F3130140F2FF3397
:1007B00041F480119A4202DA00200146704740F26B
:1007C00033439A42A2F2334202DC5242FFF78ABE1E
:1007D000FFF779BE30B5041E71F1000404DB4FF061
:1007E0000044404264EB0101141E73F1000405DB78
:1007F0001C464FF00043524263EB0403994208BF8A
:10080000904230BD064C074D06E0E06840F0010321
:1008100094E8070098471034AC42F6D3FFF7B8FCD1
:10082000FC5100081C52000810B5FFF7C9FC04F089
:1008300017FC002010BD00BFFEE7000010B50C48FB
:100840000C4908604FF4E13048600021094881609C
:10085000C160016181610C21416101F04FF90548DE
:100860000068C06840F0200002490968C86010BDF7
:1008700000100140F000002070477047F8B50246B4
:100880000B460025002400200021DCE0012606FAAA
:1008900001F51E6806EA0504AC4273D15E68022EBB
:1008A00002D05E68122E13D1CF0802F1200656F84E
:1008B00027004E07F70E0F26BE40B0434F07FF0E2E
:1008C0001E69BE403043CF0802F1200646F82700DB
:1008D00010684F000326BE40B0431E7906F00306A1
:1008E0004F00BE40304310605E68012E08D05E6845
:1008F000022E05D05E68112E02D05E68122E13D132
:1009000090684F000326BE40B0434F00DE68BE40F3
:1009100030439060506801268E40B0431E79C6F384
:1009200000168E4030435060D0684F000326BE4012
:10093000B0434F009E68BE403043D0605E6806F012
:100940008056B6F1805F7DD100BF00260096404EF4
:10095000366846F480463E4F3E603E46366806F4B2
:100960008046009600BF00BF3A4E8F0856F8270019
:100970008E07370F0F26BE40B043374EB24202D12A
:10098000002624E05EE0354EB24201D101261EE091
:10099000334EB24201D1022619E0324EB24201D1A9
:1009A000032614E0304EB24201D104260FE02F4E50
:1009B000B24201D105260AE02D4EB24201D10626EF
:1009C00005E02C4EB24201D1072600E008268F0731
:1009D0003F0FBE4030431F4E8F0846F82700264E7B
:1009E0003068A0435E6806F48036B6F5803F00D1DB
:1009F0002043214E3060361D3068A0435E6806F407
:100A00000036B6F5003F00D120431B4E361D306046
:100A1000361D3068A0435E6806F48016B6F5801F68
:100A200000D12043144E08363060361D3068A04394
:100A30005E6806F40016B6F5001F00D120430E4E86
:100A40000C363060491C1029FFF420AFF8BD0000BF
:100A500044380240083801400000024000040240CF
:100A600000080240000C0240001002400014024046
:100A700000180240001C0240003C0140024613697D
:100A80000B400BB1012000E00020704701480068D6
:100A9000000C7047002004E0014800687047000027
:100AA00004000020014691F83D00704770B50446EF
:100AB0000CB9012070BD94F83D0028B9002084F8DD
:100AC0003C00204600F0CCFB242084F83D00206848
:100AD000006820F001002168086000F059FD05461B
:100AE0005C496068884206D85B48854201D2012093
:100AF00007E0002005E05948854201D2012000E0CE
:100B00000020012800D1D5E75548B5FBF0F6206854
:100B1000406820F03F003043216848604D496068DC
:100B2000884201D8701C07E04FF4967070434FF470
:100B30007A71B0FBF1F0401C2168096A21F03F0195
:100B400008432168086243496068884214D8681ED7
:100B500061684900B0FBF1F0401CC0F30B000428B1
:100B600001D204203DE0681E61684900B0FBF1F04D
:100B7000401CC0F30B0034E0A06838B9681E6168FF
:100B800001EB4101B0FBF1F0401C0AE0681E616816
:100B900001EBC10202EB0111B0FBF1F0401C40F48B
:100BA0008040C0F30B0008B901201AE0A06848B9E2
:100BB000681E616801EB4101B0FBF1F0401CC0F31D
:100BC0000B000CE0681E616801EBC10202EB011131
:100BD000B0FBF1F0401CC0F30B0040F4804040F447
:100BE00000402168C9694CF6FF72914308432168AF
:100BF000C861D4E9070108432168096821F0C001F0
:100C0000084321680860D4E9031008432168896813
:100C100048F2FF329143084321688860D4E9050116
:100C200008432168C96821F0FF0108432168C860B2
:100C30002068006840F001002168086000202064FE
:100C4000202084F83D000020206384F83E0000BF8F
:100C500030E70000A086010080841E0000093D00EE
:100C600040420F002DE9F84F04460F4690461E46BD
:100C7000FFF712FF05464FF0010994F83D002028C8
:100C80007ED1192301225E492046009501F0A2FB86
:100C900010B10220BDE8F88F00BF94F83C00012895
:100CA00001D10220F6E7012084F83C0000BF206853
:100CB000006800F0010028B92068006840F00100D9
:100CC000216808602068006820F4006021680860DE
:100CD000242084F83D00002020644A48E06200BFE0
:100CE0002068006840F48070216808603346002264
:100CF0004FF001112046009501F06CFB08B1012076
:100D0000C8E707F0FE0021680861FFF7C5FE054649
:100D100020684069C0F3400A20684069C0F3802B16
:100D200010E0FFF7B9FE401BB04200D816B9A02072
:100D300084F83D0020684069C0F3400A206840699B
:100D4000C0F3802B94F83D00A02805D0BAF1000F25
:100D500002D1BBF1000FE4D0202084F83D002068D0
:100D60004069C0F3400028B32068006840F4007078
:100D70002168086000BF002000902068406900E002
:100D80003BE0009020688069009000BF00BF1923FD
:100D900001221B492046009501F01CFB08B10120EF
:100DA00078E7202084F83D0000BF002084F83C0054
:100DB00000BF6FE72068006840F400702168086099
:100DC0006FF4806021684861192301220C49204694
:100DD000009501F0FFFA08B101205BE709F1010974
:100DE000C145FFF47DAF202084F83D0000BF002006
:100DF00084F83C0000BF01204CE702204AE70000D5
:100E0000020010000000FFFF2DE9FC5F04460F46C2
:100E100090469946DDE90CAB0E9EFFF73DFE054678
:100E200094F83D00202870D119230122B0492046B2
:100E3000009501F0CFFA10B10220BDE8FC9F00BF81
:100E400094F83C00012801D10220F6E7012084F843
:100E50003C0000BF2068006800F0010028B920684D
:100E6000006840F00100216808602068006820F4F4
:100E7000006021680860222084F83D00402084F84A
:100E80003E0000202064C4F824A0A4F82AB0608D9D
:100E900020859848E0624B46424639462046CDE9D7
:100EA000006501F033F808B10120C6E7208D88B94C
:100EB00000BF00200190206840690190206880698F
:100EC000019000BF00BF2068006840F400702168F6
:100ED000086040E0208D012818D12068006820F4C7
:100EE00080602168086000BF002001902068406990
:100EF000019020688069019000BF00BF20680068F1
:100F000040F400702168086025E0EFE0208D0228A1
:100F100016D12068006820F480602168086020688D
:100F2000006840F400602168086000BF0020019064
:100F300020684069019020688069019000BF0AE044
:100F400000BF0020019020684069019020688069FE
:100F5000019000BF00BFBAE0208D03287ED8208D0D
:100F6000012815D12A463146204601F0D8FA08B1A9
:100F7000012062E720680069616A0870606A401CAD
:100F80006062208D401E2085608D401E60859EE041
:100F9000208D02282AD13346002257492046009549
:100FA00001F018FA08B1012047E72068006840F412
:100FB00000702168086020680069616A0870606AD2
:100FC000401C6062208D401E2085608D401E608523
:100FD00020680069616A0870606A401C6062208D48
:100FE000401E2085608D401E608570E033460022E3
:100FF00041492046009501F0EDF908B101201CE7B8
:101000002068006820F4806021680860206800691A
:10101000616A0870606A401C6062208D401E2085F5
:10102000608D401E6085334600223349204600957E
:1010300001F0D0F908B10120FFE62068006840F413
:1010400000702168086020680069616A0870606A41
:10105000401C6062208D401E208500E010E0608D05
:10106000401E608520680069616A0870606A401CE3
:101070006062208D401E2085608D401E608526E0C8
:101080002A463146204601F04AFA08B10120D4E64A
:1010900020680069616A0870606A401C6062208D87
:1010A000401E2085608D401E608520684069C0F329
:1010B000800060B120680069616A0870606A401C45
:1010C0006062208D401E2085608D401E6085208DD1
:1010D00000287FF441AF202084F83D00002084F8F0
:1010E0003E0000BF84F83C0000BFA6E60220A4E654
:1010F000020010000000FFFF040001002DE9FC5F6A
:1011000004460F4690469946DDE90CAB0E9EFFF76C
:10111000C3FC054694F83D0020287DD11923012207
:101120004D492046009501F055F910B10220BDE867
:10113000FC9F00BF94F83C00012801D10220F6E793
:10114000012084F83C0000BF2068006800F0010026
:1011500028B92068006840F0010021680860206814
:10116000006820F4006021680860212084F83D00B8
:10117000402084F83E0000202064C4F824A0A4F895
:101180002AB0608D20853548E0624B46424639469C
:101190002046CDE9006500F055FF08B10120C6E703
:1011A00031E02A463146204601F0F9F950B1206C71
:1011B000042805D12068006840F4007021680860A8
:1011C0000120B4E7606A007821680861606A401C09
:1011D0006062208D401E2085608D401E60852068E5
:1011E0004069C0F3800070B1208D60B1606A007802
:1011F00021680861606A401C6062208D401E208565
:10120000608D401E6085208D0028CAD12A46314657
:10121000204601F0B1F800E01CE050B1206C042839
:1012200005D12068006840F4007021680860012042
:101230007DE72068006840F4007021680860202085
:1012400084F83D00002084F83E0000BF84F83C0094
:1012500000BF6CE702206AE7020010000000FFFFF9
:1012600010B586B0044600BF0020009029480068F1
:1012700040F08000274908600846006800F08000C0
:10128000009000BF00BF00BF00200090084600682B
:1012900040F0800008600846006800F08000009080
:1012A00000BF00BF00BF002000901A481030006847
:1012B00040F480001749103108600846006800F4C7
:1012C0008000009000BF00BF10200190122002900B
:1012D00000200390022004900420059001A90E48EC
:1012E000FFF7CCFA202001900420059001A90A48BC
:1012F000FFF7C4FA07481038006840F48000054939
:10130000103908600846006820F48000086006B0C4
:1013100010BD000030380240001C024070B5044689
:101320000E4800784FF47A71B1FBF0F00C4909686F
:10133000B1FBF0F5284600F0C7FB08B1012070BDF5
:10134000102C07D200222146501E00F01DF805483F
:10135000046001E00120F2E70020F0E70C0000202B
:10136000000000200800002001460846002809DB94
:1013700000F01F0301229A4043099B0003F1E02380
:10138000C3F8002100BF70472DE9F05F80460D468D
:101390001646002701F0D4FC074639462A46334654
:1013A00001F00700C0F1070ABAF1040F02D94FF0AB
:1013B000040A01E0C0F1070AD14600F1040ABAF1BB
:1013C000070F02D24FF0000A01E0A0F1030AD44651
:1013D0004FF0010A0AFA09FAAAF1010A0AEA020A16
:1013E0000AFA0CFA4FF0010B0BFA0CFBABF1010BF4
:1013F0000BEA030B4AEA0B042146404601F0A8FC25
:10140000BDE8F09F70B504460D460CB9012070BDD3
:101410005848006800F00F00A84209D255490D70E5
:101420000846006800F00F00A84201D00120EEE756
:10143000207800F0020002281DD1207800F004007E
:10144000042805D14C48006840F4E0504A4908603F
:10145000207800F00800082805D14748006840F4CB
:101460006040454908604448006820F0F000A168E9
:10147000084341490860207800F00100A8B3606883
:10148000012807D13C4808380068C0F34040B8B98B
:101490000120BCE76068022802D06068032807D1F9
:1014A000354808380068C0F3406048B90120AEE70D
:1014B000314808380068C0F3400008B90120A6E7A9
:1014C0002D48006820F00300616808432A4908603D
:1014D000FFF7E2FA064609E0FFF7DEFA801B41F269
:1014E0008831884202D9032091E707E0224800684A
:1014F00000F00C006168B0EB810FEDD11D48006871
:1015000000F00F00A84209D91A490D70084600687A
:1015100000F00F00A84201D0012078E7207800F009
:101520000400042807D11448006820F4E050E16862
:10153000084311490860207800F00800082808D105
:101540000D48006820F46040216940EAC1000A4962
:10155000086000F03DF808490968C1F30311074A23
:10156000515CC840064908600F20FFF7D7FE0020F5
:101570004DE70000003C024008380240B05000082F
:1015800000000020014800687047000000000020B3
:1015900000B5FFF7F7FF04490968C1F38221034A48
:1015A000515CC84000BD000008380240C05000082F
:1015B00000B5FFF7E7FF04490968C1F34231034A68
:1015C000515CC84000BD000008380240C05000080F
:1015D0002DE9F047002400250026A1462548006893
:1015E00000F00C0020B1042805D008283AD105E00D
:1015F000DFF8849039E0DFF8849036E01D48001F62
:10160000006800F03F041B48001F006800F48000E1
:1016100078B11A481749091F0968C1F38811A0FB5E
:1016200001700146224600233846FEF751FE05466A
:101630000EE011480F49091F0968C1F38811A0FB8A
:1016400001700146224600233846FEF741FE05465A
:101650000848001F0068C0F30140401C4600B5FB6D
:10166000F6F902E0DFF8109000BF00BF4846BDE881
:10167000F0870000083802400024F40040787D0123
:10168000F8B504460CB90120F8BD207800F001003F
:10169000002874D0F948006800F00C0004280DD030
:1016A000F648006800F00C00082813D1F348001F2A
:1016B000006800F48000B0F5800F0BD1EF480838C7
:1016C0000068C0F34040002859D06068002856D117
:1016D0000120D9E700BF6068B0F5803F08D1E74836
:1016E0000838006840F48030E449083908601EE09A
:1016F0006068B0F5A02F0DD1E0480838006840F4CC
:101700008020DE49083908600846006840F48030CF
:1017100008600CE0D9480838006820F48030D749C8
:10172000083908600846006820F48020086000BF7F
:10173000606890B1FFF7B0F9054606E0FFF7ACF935
:10174000401B642801D903209EE7CC480838006874
:10175000C0F340400028F1D011E0FFF79DF90546A5
:1017600006E0FFF799F9401B642801D903208BE7B5
:10177000C24808380068C0F340400028F1D1207802
:1017800000F0020002285FD1BC48006800F00C00A5
:1017900058B1BA48006800F00C0008281CD1B748BE
:1017A000001F006800F48000B0B9B4480838006831
:1017B000C0F3400020B1E068012801D0012063E7B8
:1017C000AE480838006820F0F800216940EAC100FE
:1017D000AA490839086037E0E06800B30120A84949
:1017E0000860FFF759F9054606E0FFF755F9401B79
:1017F000022801D9032047E7A04808380068C0F351
:1018000040000028F1D09D480838006820F0F8001A
:10181000216940EAC10099490839086014E00020B4
:1018200097490860FFF738F9054606E0FFF734F9F5
:10183000401B022801D9032026E790480838006899
:10184000C0F340000028F1D1207800F008000828FB
:101850002CD16069A8B101208A490860FFF71CF902
:10186000054606E0FFF718F9401B022801D90320BE
:101870000AE782486C300068C0F340000028F1D0CD
:1018800014E000207F490860FFF706F9054606E0EE
:10189000FFF702F9401B022801D90320F4E677483C
:1018A0006C300068C0F340000028F1D1207800F0CF
:1018B0000400042870D1002670483830006800F019
:1018C000805090B900BF002000906C48383000680C
:1018D00040F080506949383108600846006800F0DF
:1018E0008050009000BF00BF01266748006800F4E8
:1018F0008070B0B96448006840F480706249086044
:10190000FFF7CAF8054606E0FFF7C6F8401B0228B5
:1019100001D90320B8E65C48006800F48070002814
:10192000F2D000BFA068012808D154486830006890
:1019300040F001005149683108601DE0A0680528A9
:101940000DD14E486830006840F004004B496831C2
:1019500008600846006840F0010008600CE0474855
:101960006830006820F0010044496831086008468A
:10197000006820F00400086000BFA068A8B1FFF76D
:101980008BF8054609E0FFF787F8401B41F28831E4
:10199000884202D9032077E626E03848683000689C
:1019A000C0F340000028EED013E0FFF775F80546BD
:1019B00008E0FFF771F8401B41F28831884201D9F5
:1019C000032061E62D4868300068C0F3400000281D
:1019D000EFD1012E07D129483830006820F080501F
:1019E00026493831086000BFA069B8B323480068B1
:1019F00000F00C0008285ED0A069022846D1002023
:101A00001F490866FFF748F8054606E0FFF744F867
:101A1000401B022801D9032036E618480838006820
:101A2000C0F340600028F1D1D4E907010843616A9E
:101A300040EA81110122A06AC2EB500041EA004154
:101A40002C20005D41EA00600C49091F086001205C
:101A50000B490866FFF720F8054607E02DE0FFF781
:101A60001BF8401B022801D903200DE60348083863
:101A70000068C0F340600028F1D01EE00838024042
:101A800000004742800E47420070004000200C4991
:101A90000866FFF701F8054606E0FEF7FDFF401B6C
:101AA000022801D90320EFE506480068C0F3406032
:101AB0000028F2D101E00120E6E50020E4E5000085
:101AC000000047420038024070B504462546681EB3
:101AD000B0F1807F01D301200FE0681E4FF0E021BC
:101AE00048610F214FF0FF3001F032F900204FF034
:101AF000E021886107200861002070BD10B5044610
:101B00000CB9012010BDA06900B100E000BF94F83D
:101B1000390028B9002084F83800204600F028F861
:101B2000242084F839002068C06820F4005021681F
:101B3000C860204600F008FF2068006920F490404B
:101B4000216808612068406920F02A002168486106
:101B50002068C06840F400502168C8600020E0633D
:101B6000202084F8390084F83A000020CAE70000F9
:101B700010B586B0044600BF0020009026480068DB
:101B800040F01000244908600846006800F010008A
:101B9000009000BF00BF00BF002000901E48143816
:101BA000006840F002001C491439086008460068CB
:101BB00000F00200009000BF00BF00BF00200090B6
:101BC0000846006840F0020008600846006800F01F
:101BD0000200009000BF00BF402001900220029050
:101BE00001200390032004900720059001A90B48D1
:101BF000FEF744FE802001900720059001A90748C8
:101C0000FEF73CFE012200212520FFF7BDFB252029
:101C1000FFF7AAFB06B010BD4438024000040240A2
:101C20002DE9F84304460D4616461F464FF00009BD
:101C300094F8390020285CD105B116B90120BDE81F
:101C4000F88300BF94F83800012801D10220F6E79C
:101C5000012084F8380000BF0020E063212084F8D0
:101C60003900FEF719FF8146A684E6842BE0E08C5C
:101C7000401EE084A068B0F5805F16D14B4600227C
:101C800080212046009701F013F808B10320D6E721
:101C9000A846B8F80000C0F3080021684860206931
:101CA00008B9AD1C0FE06D1C0DE04B4600228021F1
:101CB0002046009700F0FCFF08B10320BFE715F8AD
:101CC000010B21684860E08C0028D0D14B460022EF
:101CD00040212046009700F0EBFF08B10320AEE75B
:101CE000202084F8390000BF002084F8380000BFAD
:101CF000A5E70220A3E70000FEB504460D46164600
:101D000000274FF47A7001232A46A021CDE900462E
:101D100002900348FFF778F807463846FEBD0000FA
:101D2000300100202DE9F04707460D4614464FF0DC
:101D30000008C146C24600262846E91705EB517146
:101D4000C910A5EBC10101F0FF0ACAF10800C6B233
:101D50002046E11704EB5171C1F3C708E11704EB0A
:101D60005171C910A4EBC10101F0FF09BAF1000FD4
:101D700022D1B8F1000F05D14A462946384600F075
:101D80005DF854E008E008222946384600F056F88D
:101D900005F10800C5B20837B8F10000A8F101014B
:101DA00001F0FF08EFD1B9F1000F40D04A462946B3
:101DB000384600F043F83AE0B8F1000F05D14A4642
:101DC0002946384600F03AF831E0A01B84B220469C
:101DD000E11704EB5171C1F3C708E11704EB51712E
:101DE000C910A4EBC10101F0FF093EB132462946FA
:101DF000384600F023F8A819C5B2374408E0082295
:101E00002946384600F01AF805F10800C5B208372F
:101E1000B8F10000A8F1010101F0FF08EFD1B9F11C
:101E2000000F04D04A462946384600F007F8BDE8BE
:101E3000F08710B500F04CF810BD0000FEB5044668
:101E40000D4616460027642001232A46A021CDE92D
:101E5000004602900D48FFF751F9074600BF0B48B6
:101E6000FEF720FE2028FAD100BF4FF496731A46E1
:101E7000A0210648FEF7F6FE0328F6D000BF03486F
:101E8000FEF710FE2028FAD13846FEBD30010020B2
:101E9000014608684069C0F38020B0B16FF48060EB
:101EA0000A68506100200863202081F83D0000206E
:101EB00081F83E00086C40F00400086400BF002078
:101EC00081F83C0000BF012070470020FCE70000C3
:101ED00010B50B480B49086001140A4801610A4813
:101EE000084948600021074841618160C161016281
:101EF0000A21C16000218161FEF7D8FD10BD0000FC
:101F00000058004030010020801A06002DE9F843F7
:101F100004460F4615469946DDE9088620680068A4
:101F200040F48060216808602068006840F4807098
:101F300021680860434600224FF0011120460096B8
:101F400000F048FA10B10120BDE8F88307F0FE0068
:101F500021680861334642463949204600F07DFA3F
:101F600008B10120F0E700BF002000902068406920
:101F7000009020688069009000BF00BF3246414653
:101F8000204600F00CFB50B1206C042805D12068DD
:101F9000006840F40070216808600120D4E7B9F1BE
:101FA000010F03D1E8B22168086117E0C5F30720EB
:101FB0002168086132464146204600F0F0FA50B1EF
:101FC000206C042805D12068006840F40070216866
:101FD00008600120B8E7E8B221680861324641464E
:101FE000204600F0DCFA50B1206C042805D12068AE
:101FF000006840F40070216808600120A4E72068B0
:10200000006840F4807021680860434600224FF069
:1020100001112046009600F0DDF908B1012093E798
:10202000F8B240F001002168086133464246044995
:10203000204600F012FA08B1012085E7002083E76E
:10204000020001002DE9F8430446884615469946EA
:10205000DDE908672068006840F480702168086046
:10206000334600224FF001112046009700F0B2F9EC
:1020700010B10120BDE8F88308F0FE002168086176
:102080003B4632462149204600F0E7F908B10120DD
:10209000F0E700BF002000902068406900902068B1
:1020A0008069009000BF00BF3A463146204600F0EC
:1020B00076FA50B1206C042805D12068006840F4FD
:1020C0000070216808600120D4E7B9F1010F03D145
:1020D000E8B22168086117E0C5F3072021680861AC
:1020E0003A463146204600F05AFA50B1206C042896
:1020F00005D12068006840F4007021680860012064
:10210000B8E7E8B2216808610020B3E702000100E7
:1021100010B52DED028B012200215648FFF7ECFD92
:1021200054480078AB286BD053A000F0F9FDAB20E9
:1021300050490870012200214E48FFF7F3FD0020AE
:102140005D49087022E05C480078FEF799F99FED40
:102150005B0B53EC102BFEF7ECF85A4A564B1B78EE
:1021600002EBC30203C25448007800EB4001C1EB0C
:10217000C010012101EB800053494F4A127841F809
:1021800022004D480078401C4B4908704A480078AE
:102190000728D8DB38220A214A48FFF7C3FD1C2252
:1021A00046214948FFF7BEFD48A000F0B9FD0020D8
:1021B000414908701CE043483F49097800EBC100E1
:1021C00090ED001BB0EE410AF0EE610A53EC102BCB
:1021D00043A000F0A5FD3C48374A127850F8221081
:1021E00043A000F09DFD34480078401C324908703F
:1021F000314800780728DEDB41A000F091FD34E093
:1022000049A000F08DFD38220A212E48FFF774FD09
:102210001C2246212C48FFF76FFD48A000F080FDEE
:102220000020254908701CE026482349097800EB66
:10223000C10090ED001BB0EE410AF0EE610A53ECD4
:10224000102B44A000F06CFD1F481B4A127850F878
:10225000221045A000F064FD17480078401C164984
:102260000870154800780728DEDB0120BDEC028BE2
:1022700010BD0000180000200D0AC3BBD3D0BCEC79
:10228000B2E2B5BDCAFDBEDDB1EAD6BEA3AC464CD6
:10229000415348C3BBD3D0B4E6B4A2CAFDBEDDA34C
:1022A000ACBCB4BDABBDF8D0D0D0A1CAFDD0B4C8D1
:1022B000EBCAB5D1E90D0A00190000209A99999945
:1022C0009999B93F2000002084010020CFF2D0BEB0
:1022D000C6ACD0B4C8EBCAFDBEDDA3BA0000000096
:1022E000D0A1CAFD7478203D20254C460D0A00007F
:1022F000D5FBCAFD7478203D2025640D0A0000003E
:102300000D0AC7EBB8B4CEBBBFAAB7A2B0E5A3AC69
:10231000D2D4B6C1C8A1CAFDBEDDBDF8D0D0BCECD8
:10232000D1E90D0A000000000D0ABCECB2E2B5BD17
:10233000CAFDBEDDB1EAD6BE0D0A00000D0AB4D357
:10234000D0BEC6ACB6C1B5BDCAFDBEDDA3BA0D0ACE
:1023500000000000D0A1CAFD207278203D20254C4D
:1023600046200D0A00000000D5FBCAFD207278202F
:102370003D202564200D0A0070B504460D46164622
:1023800020E02046FFF784FD08B1012070BD681CE5
:10239000C0B1FEF781FB801BA84200D895B9002090
:1023A0002063202084F83D00002084F83E00206C4B
:1023B00040F02000206400BF002084F83C0000BFF3
:1023C0000120E3E720684069C0F380000028D8D0EE
:1023D0000020DBE72DE9F04104460D4617461E4676
:1023E000DDF818801CE0701CD0B1FEF755FBA0EBA7
:1023F0000800B04200D89EB900202063202084F855
:102400003D00002084F83E00206C40F02000206455
:1024100000BF002084F83C0000BF0120BDE8F0812F
:10242000C5F3074001280AD120684069A9B20840D5
:10243000A9B2884201D101200BE0002009E0206808
:102440008069A9B20840A9B2884201D1012000E008
:102450000020B842C7D00020E0E72DE9F041044653
:102460000D4616461F463DE020684069C0F38020B7
:10247000E8B12068006840F40070216808606FF4DB
:1024800080602168486100202063202084F83D009E
:10249000002084F83E00206C40F00400206400BF5F
:1024A000002084F83C0000BF0120BDE8F081701CD2
:1024B000C0B1FEF7F1FAC01BB04200D896B90020B7
:1024C0002063202084F83D00002084F83E00206C2A
:1024D00040F02000206400BF002084F83C0000BFD2
:1024E0000120E2E7C5F3074001280AD120684069CE
:1024F000A9B20840A9B2884201D101200BE0002016
:1025000009E020688069A9B20840A9B2884201D1D7
:10251000012000E000200028A6D00020C5E770B50B
:1025200004460D46164632E020684069C0F30010AC
:10253000A0B16FF0100021684861002020632020C6
:1025400084F83D00002084F83E00206C206400BF29
:10255000002084F83C0000BF012070BDFEF79CFA0B
:10256000801BA84200D895B900202063202084F861
:102570003D00002084F83E00206C40F020002064E4
:1025800000BF002084F83C0000BF0120E5E7206880
:102590004069C0F380100028C6D00020DDE770B588
:1025A00004460D46164620E02046FFF771FC08B1B0
:1025B000012070BD681CC0B1FEF76EFA801BA842F6
:1025C00000D895B900202063202084F83D00002029
:1025D00084F83E00206C40F02000206400BF002002
:1025E00084F83C0000BF0120E3E720684069C0F3A5
:1025F000C0100028D8D00020DBE7000000B587B06D
:1026000000BF002001903648006840F001003449C6
:1026100008600846006800F00100019000BF00BF9C
:1026200000BF002001900846006840F004000860E8
:102630000846006800F00400019000BF00BF00BF22
:10264000002001900846006840F0400008600846FD
:10265000006800F04000019000BF00BF00BF0020F4
:1026600001900846006840F0400008600846006895
:1026700000F04000019000BF00BF00BF00200190AB
:102680000846006840F0400008600846006800F016
:102690004000019000BF00BF012002900020039085
:1026A000049002A90F48FEF7E9F84FF40050029099
:1026B00002A90D48FEF7E2F80420029002A90B4897
:1026C000FEF7DCF80820029002A90848FEF7D6F8C9
:1026D0001020029002A90548FEF7D0F807B000BD0F
:1026E000303802400000024000080240001802405A
:1026F00070B504460D4629462046FEF7BFF901286D
:1027000008D100BF29462046FEF7B8F90128F9D0C4
:10271000012070BD0020FCE700B587B000BF00209D
:1027200001903548006840F00100334908600846D0
:10273000006800F00100019000BF00BF00BF002052
:1027400001900846006840F01000086008460068E4
:1027500000F01000019000BF00BF00BF00200190FA
:102760000846006840F0400008600846006800F035
:102770004000019000BF00BF00BF0020019008464C
:10278000006840F0020008600846006800F002009F
:10279000019000BF00BF4FF4004002900120039061
:1027A00004900320059002A91448FEF767F804205E
:1027B000029002A91248FEF761F84FF4004002901F
:1027C00002A91048FEF75AF84FF48070029002A94F
:1027D0000D48FEF753F84FF4004008498861042083
:1027E000074988614003074918310860C01106494C
:1027F0001831086007B000BD3038024000000240C8
:1028000000100240001802400004024000BFFEE732
:102810007047704710B501F053FB02F057F901F013
:102820005FFB10BD00B593B000BF002001902A48A7
:10283000006840F08050284908600846006800F0B1
:102840008050019000BF00BF00BF002001902348CE
:10285000006840F48040214908600846006800F4A0
:102860008040019000BF00BF01200290000403904F
:10287000022008904105099119210A914FF4A8718D
:102880000B9102210C9107210D9102A8FEF7F8FE91
:1028900008B100BFFEE70F200E9002200F9000202D
:1028A00010904FF4A05011904FF4805012900521D9
:1028B0000EA8FEF7A7FD08B100BFFEE7FEF7E6F899
:1028C00041F20101884205D10548006840F480705A
:1028D0000349086013B000BD40380240007000405A
:1028E000003C02401448006840F47000124908603F
:1028F0001248006840F001001049086000200F49AC
:10290000083108600D4800680D4908400B4908600F
:102910000C48091D0860081F006820F48020091F6A
:102920000860002005490C3108604FF00060024942
:10293000803908607047000088ED00E000380240F0
:10294000FFFFF6FE103000242DE9F0410446206818
:10295000006920F44050E16808432168086121695A
:10296000A068084361690843E16940EA01052068FD
:10297000C06849F20C61884328432168C860206818
:10298000406920F44070A169084321684861E0690A
:10299000B0F5004F7ED1C4492068884203D0C349B6
:1029A000206888425DD1FEF703FE00EBC00101EB19
:1029B000001061684900B0FBF1F06421B0FBF1F058
:1029C0000601FEF7F5FD00EBC00101EB00106168A8
:1029D0004900B0FBF1F7FEF7EBFD00EBC00101EBA6
:1029E000001061684900B0FBF1F06421B0FBF1F028
:1029F00000EBC00101EB0010A7EB8000322101EBDE
:102A0000C0006421B0FBF1F000F0F80006EB4006D6
:102A1000FEF7CEFD00EBC00101EB0010616849003C
:102A2000B0FBF1F7FEF7C4FD00EBC00101EB0010B5
:102A300061684900B0FBF1F06421B0FBF1F000EBFC
:102A4000C00101EB0010A7EB8000322101EBC000B8
:102A50006421B0FBF1F000F0070030442168886089
:102A600020E1FEF795FD00EBC00101EB001061686D
:102A70004900B0FBF1F06421B0FBF1F00601FEF774
:102A800087FD00EBC00101EB001061684900B0FB5D
:102A9000F1F700E045E0FEF77BFD00EBC00101EB44
:102AA000001061684900B0FBF1F06421B0FBF1F067
:102AB00000EBC00101EB0010A7EB8000322101EB1D
:102AC000C0006421B0FBF1F000F0F80006EB400616
:102AD000FEF75EFD00EBC00101EB001061684900EC
:102AE000B0FBF1F7FEF754FD00EBC00101EB001065
:102AF00061684900B0FBF1F06421B0FBF1F000EB3C
:102B0000C00101EB0010A7EB8000322101EBC000F7
:102B10006421B0FBF1F000F00700304421688860C8
:102B2000C0E061492068884203D06049206888423B
:102B30005CD1FEF73DFD00EBC00101EB00106168C8
:102B40008900B0FBF1F6FEF733FD00EBC00101EBAD
:102B5000001061688900B0FBF1F06421B0FBF1F076
:102B600000EBC00101EB0010A6EB8000322101EB6D
:102B700000106421B0FBF1F000F0F006FEF718FD44
:102B800000EBC00101EB001061688900B0FBF1F0BF
:102B90006421B0FBF1F006EB0016FEF709FD00EB37
:102BA000C00101EB001061688900B0FBF1F7FEF78E
:102BB000FFFC00EBC00101EB001061688900B0FB75
:102BC000F1F06421B0FBF1F000EBC00101EB00106B
:102BD000A7EB8000322101EB00106421B0FBF1F083
:102BE00000F00F003044216888605BE0FEF7D0FC05
:102BF00000EBC00101EB001061688900B0FBF1F649
:102C0000FEF7C6FC00EBC00101EB00106168890013
:102C1000B0FBF1F06421B0FBF1F000EBC00101EB7F
:102C20000010A6EB8000322101EB00106421B0FB04
:102C3000F1F000F0F006FEF7ABFC00EBC00101EB99
:102C4000001061688900B0FBF1F06421B0FBF1F085
:102C500006EB0016FEF79CFC00EBC00101EB001038
:102C600061688900B0FBF1F7FEF792FC00EBC00150
:102C700001EB001061688900B0FBF1F06421B0FB4A
:102C8000F1F000EBC00101EB0010A7EB8000322156
:102C900001EB00106421B0FBF1F000F00F003044B4
:102CA00021688860BDE8F0810010014000140140F7
:102CB0002DE9F04104460D4617469846069E21E050
:102CC000701CF8B12EB1FDF7E7FEA0EB0800B04292
:102CD00018D92068C06820F4D0702168C8602068C6
:102CE000406920F0010021684861202084F8390003
:102CF00084F83A0000BF002084F8380000BF0320A9
:102D0000BDE8F081206800682840A84201D1012078
:102D100000E00020B842D3D00020F1E700BFFEE77A
:102D20000FB4054B10B503A9044A029800F026F928
:102D300010BC5DF814FB0000A1370008EC00002077
:102D400002480068C0F30220704700000CED00E06C
:102D500010B5002804DB0A07130E054A135406E0D9
:102D60000A07140E034A00F00F031B1FD45410BDB2
:102D700000E400E018ED00E0014609B900207047CA
:102D8000C8B220B1C8B20E4A105C401CF7E701F48B
:102D90007F4028B10A48C1F30722805C0930EEE782
:102DA00001F47F0028B10648C1F30742805C11306E
:102DB000E5E7034800EB116000781930DFE7000019
:102DC000C850000802E008C8121F08C1002AFAD142
:102DD00070477047002001E001C1121F002AFBD19B
:102DE000704700002DE9FF5F82B00021DDE904306B
:102DF000020DDDF840B0034318D044F61050A2F2A3
:102E0000FF3242431514119801281FD0A5EB0B0087
:102E1000401C5FEA000A4FF000064E4FDFF8389181
:102E2000B046504615D5CAF1000413E011980124AC
:102E30004AA3012801D16FEA0B010298119AC0E957
:102E40000031C0E9024206B0BDE8F09FCBF10000BE
:102E5000DFE704460021404A491842EB0450CDE91F
:102E6000001012E0E00707D032463B464046494694
:102E7000FDF7B7FB8046894632463B461046194669
:102E8000FDF7AFFB06460F466410002CEAD1DDE9E2
:102E90000401DDE90023BAF1000F06DAFDF7A1FB1A
:102EA00042464B46FDF79DFB05E0FDF70CFC424614
:102EB0004B46FDF708FC04460E460022284BFDF762
:102EC00089FC03D84FF0FF30014607E00022254B74
:102ED00020463146FDF72DFAFDF764FC102409E089
:102EE000002C0ADB0A220023FDF7F2F9039B3032A3
:102EF0001A55641E50EA0102F2D1641C039AC4F10F
:102F000011031444119A012A03D0012208430DD160
:102F10000AE0084304D000204FF0110B119072E733
:102F2000A3EB0B056D1E0DE05B4504DD4FF00002C9
:102F300005F1010504E003DA4FF00002A5F10105F7
:102F4000002AECD002981199C0E90231C0E900458D
:102F500079E70000000014400000F03F300000005E
:102F60000000F0430000E03F03490868884201D0B8
:102F7000012070470020FCE7C80000202DE9FF4F2A
:102F800095B09B468946064600250FE2252877D155
:102F900000242746F84A0121059400E0044316F86E
:102FA000013F203B01FA03F01042F7D130782A2884
:102FB00011D06FF02F033078A0F13002092A16D813
:102FC000059A44F0020402EB820203EB4202104431
:102FD000761C0590EFE759F8042B0592002A03DAD6
:102FE000504244F40054059044F00204761C3078BA
:102FF0002E2816D116F8010F44F004042A280DD00B
:103000006FF02F023078A0F13003092B09D807EBBD
:10301000870302EB4303C718761CF3E759F8047BD8
:10302000761C30786C280FD006DC4C2817D0682826
:103030000DD06A2814D104E0742810D07A280FD15A
:103040000DE044F400140AE044F4801401E044F478
:1030500040147278824202D104F58014761C761CEA
:10306000307866280BD013DC582877D009DC00288C
:1030700075D04528F6D04628F4D047281AD19DE1CE
:1030800018E0632835D0642879D0652812D195E1FD
:10309000702873D008DC6728F1D069286FD06E28BB
:1030A0000DD06F2806D1B5E073282CD0752875D0C7
:1030B000782874D05A46179990476D1C75E1C4F36F
:1030C0000250022809D003280DD0D9F80010042896
:1030D0000DD00D6009F1040967E1D9F80010EA1775
:1030E000C1E90052F6E7D9F800100D80F2E70D7043
:1030F000F0E719F8041B8DF8001000208DF801008E
:10310000EA46012003E059F804AB4FF0FF306107B5
:103110004FF0000102D40DE008F101018846B942E8
:103120000FDA8045F8DB1AF808100029F4D108E01E
:1031300008F1010188468142FADB1AF808100029DB
:10314000F6D105985B46A0EB080721463846179A4A
:1031500000F094FA284400EB080507E04DE029E16F
:103160000DE01AF8010B5A4617999047B8F101087B
:10317000F7D25B4621463846179A13E142E00A220D
:103180000092C4F302524FF0000A022A08D059F804
:1031900004CB032A4FEAEC710AD00DE029E02AE0C3
:1031A00009F1070121F00702F2E802C1914609E0A6
:1031B0000FFA8CFC4FEAEC71042A03D14FFA8CFC15
:1031C0004FEAEC71002907DA0A460021DCF1000C15
:1031D00061EB02012D2202E0220504D52B228DF89D
:1031E0000420012203E0E20701D02022F7E7904605
:1031F00059E00A2102E010220DE010214FF0000AF0
:1032000000910BE010224FF0000A44F0040408275C
:10321000009203E008224FF0000A0092C4F3025229
:10322000022A05D059F804CB0021032A08D009E06E
:1032300009F1070121F00702F2E802C1914605E019
:103240001FFA8CFC042A01D10CF0FF0C4FF000088F
:10325000220728D5702806D0009B83F0100353EA7C
:103260000A0305D00EE040228DF80420012208E078
:103270005CEA010206D030228DF804208DF80500AA
:1032800002229046009B83F0080353EA0A030AD106
:103290005CEA010201D1620705D530228DF80420D5
:1032A0004FF001087F1E582804D034A003900EA8C8
:1032B00002900DE036A0F9E753466046009AFDF70C
:1032C00007F884460398825C0298401E02900270C0
:1032D0005CEA0100F0D1029806A9081A00F1200A60
:1032E000600702D524F4803400E00127574502DD51
:1032F000A7EB0A0000E0002000EB0A01009005980F
:103300004144401A0590E00306D45B462146179AD3
:10331000059800F0B3F90544002706E001A85A46D5
:10332000C05D179990476D1C7F1C4745F6DBE00395
:103330000CD55B462146179A059800F09FF9054485
:1033400004E030205A46179990476D1C0099481E9A
:1033500000900029F5DC08E0029802995A460078AE
:10336000491C0291179990476D1CBAF10001AAF10E
:10337000010AF1DC65E10000092801003031323337
:1033800034353637383961626364656600000000A1
:10339000303132333435363738394142434445468B
:1033A0000000000000F058F90544761C3078002831
:1033B0007FF4ECAD19B02846BDE8F08F620700D469
:1033C000062709F1070222F0070CFCE80223E14678
:1033D00003F000485FEA080C02D00FF2702C0DE0F9
:1033E0005FEA045C02D50FF2682C07E05FEAC47C58
:1033F00002D00FF2602C01E0AFF2700C4FF0FF38FA
:1034000023F00043CDF850C065280CD006DC4528D9
:1034100009D046281DD047283DD13DE0662818D068
:1034200067287ED138E00021112F01DB112000E058
:10343000781CCDE9000106A90EA8FFF7D3FCDDE951
:103440000F010E9A03910021009207F1010A0491E5
:103450004DE04FF000400097CDE9011006A90EA8FD
:10346000FFF7C0FCDDE90F0203920E9B11990022C9
:10347000DDF80CA00093049211B9791C00EB010A4D
:10348000B7EB0A0004D4C0F1FF3007F1010A049041
:10349000AAEB0700019044E0012F00DA0127002188
:1034A000112F01DD112000E03846CDE9000106A909
:1034B0000EA8FFF797FCDDE90F010E9A039100219A
:1034C00004910092BA4621070CD40399514500DAC1
:1034D0008A46BAF1010F05DD009AAAF10101515C9B
:1034E000302908D0B84202DA10F1040F06DA0121BF
:1034F000CDE9011015E0AAF10101E9E7002805DC9A
:10350000049901440491AAEB000102E0411C5145D9
:1035100000DD8A460499401A401C01904FF000409B
:103520000290200704D40198504501DBCDF80480B7
:1035300000208DF84F0002980DF14F07B0F1004FB9
:1035400025D02B200E9002984FF0020800280CDAAC
:10355000404202902D200E9007E00A210298FCF7CD
:103560009CFF3031029007F8011DB8F10001A8F16D
:103570000108F2DC02980028EFD1791E0E9808703D
:10358000307800F0200040F0450007F8020D12A846
:10359000C01B00F107081498007800B1012000EB6F
:1035A0000A01019801EBE07105984144401A401E60
:1035B0000590E00306D45B462146179A059800F073
:1035C0005DF805441498007818B15A461799904749
:1035D0006D1CE00324D55B462146179A059800F040
:1035E0004DF805441CE00498002807DBDDE90301E1
:1035F000884203DD0098405C179901E0179930205C
:103600005A469047049805F10105401C0490019822
:10361000401E019004D12E205A46179990476D1CE8
:10362000BAF10001AAF1010ADDDC05E017F8010B8F
:103630005A46179990476D1CB8F10001A8F101088E
:10364000F4DC5B462146179A0598ABE62D00000096
:103650002B000000200000002DE9F0410446002569
:103660001E461746880404D405E039462020B0479A
:103670006D1C641EF9D52846BDE8F0812DE9F041A6
:10368000044600251E469046C80301D5302700E0B9
:103690002027880404D505E041463846B0476D1C14
:1036A000641EF9D52846BDE8F08100002DE9FC5FD5
:1036B00004468B4615461E46DDE90C9ADDE90E7878
:1036C00004F114004060006000BF1C346560A66017
:1036D000C4F80C90C4F810A02321D4E9030200F030
:1036E0006DFDD4E9033C63441A1F0F4BD4E901017B
:1036F00000F0BEFB2060A77667760020E061C4F88A
:103700002080C4F82480606120766065A0651C3C40
:1037100000902346054A2146019004F1440001F03F
:1037200057FA0020BDE8FC9FF14700083D4A000819
:103730002DE9F04704460E4617469846DDF82090DE
:1037400084F80990607A20F001006072E6612762D7
:103750000020A062C4F82480002506E004F11401D2
:1037600001EBC50000F032FC6D1C012DF6DBBDE85D
:10377000F08710B50246002001460EE002F1140366
:1037800003EBC100D0E900436360D0E9003423605B
:103790004060006000BF481C01460129EEDB10BDFF
:1037A00013B50C464FF47A73012269460248FEF7BE
:1037B00037FA00981CBD0000F000002010E0012145
:1037C0000848FEF795FF40B10748406980F00400C3
:1037D0000549486105A000F0DBFB0A2001F001F873
:1037E000EDE7000000000240001002404C4544D7C5
:1037F000B4CCACB7ADD7AA0A00000000FEF788FC35
:1038000009E00548406980F40040034948614FF4ED
:10381000FA7000F0E6FFF4E7000002401CB51AA0C1
:1038200000F0B6FB142003214FF480630022CDE9A1
:103830000010214921A000F0ACFF22490860084691
:10384000006820B10846006801F0C0F802E04FF0BF
:10385000FF301CBD14200421CB010022CDE9001053
:1038600019491AA000F095FF194908600846006838
:1038700020B10846006801F0A9F802E04FF0FF30DF
:10388000E7E70020E5E70000D5E2CAC7D2BBB8F6FB
:103890005BD2B0BBF05D2D53544D33322D52545496
:1038A000D3B2BCFE494943B4E6C8A1D0A1CAFDCAFF
:1038B000B5D1E9A3A10A0000FD3700086C656431A9
:1038C0000000000010000020BD3700086B65790083
:1038D0001400002010B5044600F02AF9FFF79EFFFF
:1038E00010BD000030B51A4C43682468191988428D
:1038F00015D04B889BB9174B1B6899420FD0164BBC
:103900001B688B4201D1144B18604B684360104B0D
:103910001B68C31A0E4D4C682D682C44A3600C4CD8
:10392000836824681A19824211D053887BB90A4BE4
:103930001B68834201D1084B1A6043685360044BF3
:103940001B68D31A024D44682D682C44A36030BD17
:103950006000002064000020680000202DE9F04F86
:1039600085B00D469C46DDE90F740E9B04F04008BF
:10397000B8F1000F02D0DFF8688101E0DFF8648160
:10398000CDF8008004F01008B8F1000F01D024F049
:10399000010404F00108B8F1000F02D04FF0300824
:1039A00001E04FF02008C246002604F00208B8F1FA
:1039B000000F11D0002A02DA2D2652420CE004F04A
:1039C0000408B8F1000F01D02B2605E004F0080828
:1039D000B8F1000F00D02026002142B94FF0300B83
:1039E0008846491C0DF1040909F808B01DE01AE0E9
:1039F000E146B9F10A0F08D14FF00A0BB2FBFBFE0A
:103A00000BFB1E28B2FBFBF202E002F00F081209CA
:103A100000BFDDF8009019F808B08846491C0DF188
:103A2000040909F808B0002AE2D1B94200DD0F46C6
:103A3000DB1B04F01108B8F1000F10D116B1002BF8
:103A400000DD5B1E06E0A84203D84FF0200880F896
:103A50000080401CB3F10008A3F10103F3DC26B1A0
:103A6000A84201D806705B1E401C04F01008B8F193
:103A7000000F0AD104E0A84201D880F800A0401C41
:103A8000B3F10008A3F10103F5DC06E0A84203D876
:103A90004FF0300880F80080401CB8467F1E8845F3
:103AA000F4DC08E0A84205D80DF1040818F80180FC
:103AB00080F80080401CB1F10008A1F10101F1DCA7
:103AC00006E0A84203D84FF0200880F80080401C90
:103AD000B3F10008A3F10103F3DC05B0BDE8F08FFA
:103AE000D9510008C85100081CB5142002210B024E
:103AF0000022CDE90010044904A000F04AFE04466B
:103B0000204600F063FF1CBDD53800086D61696E6A
:103B10000000000010B5044C02E020688047241D1E
:103B200002488442F9D310BDF0510008F451000856
:103B300010B5044C02E020688047241D02488442EE
:103B4000F9D310BDF4510008F851000810B5FCF786
:103B500037FB044604480088401C00B20249088034
:103B60002046FCF731FB10BDB800002010B5FCF773
:103B700027FB04460B480088401E00B20949088014
:103B80000846B0F90000002807DC00200880204625
:103B9000FCF71AFB00F0B4FB02E02046FCF714FB34
:103BA00010BD0000B800002070B5054605B970BD15
:103BB0001D480068854203D31C480068854200D335
:103BC000F5E7A5F10C044FF0FF31194800F062FC55
:103BD000608818B12088B0F5F55F08D015A000F016
:103BE000D7F923886288214619A000F0D1F9002076
:103BF00060804FF4F550208021480068844201D253
:103C00001F480460084960680968611A401A1D4924
:103C10000968081A1B4908602046FFF763FE04483C
:103C200000F01BFC00BFC2E7600000206400002021
:103C300098230020746F20667265652061206261A0
:103C400064206461746120626C6F636B3A0A0000E7
:103C50006D656D3A203078253038782C2075736585
:103C60006420666C61673A2025642C206D61676969
:103C70006320636F64653A203078253034780A0019
:103C8000680000207000002000487047A00100205C
:103C900000487047A021002070B51E4800684FF40E
:103CA0007A72B0FBF2F1481EB0F1807F00D31BE0C6
:103CB000481E4FF0E022506150170F22002804DB0D
:103CC00013071C0E144B1C5406E013071D0E134B58
:103CD00000F00F04241F1D5500BF00204FF0E0220C
:103CE00090610720106100BFFEF79CFDFEF714FDF8
:103CF000FEF784FCFCF7A2FDFEF79BF8FFF70AFF36
:103D0000FFF7C6FF0446FFF7BFFF0546214600F058
:103D100077FC70BD0000002000E400E018ED00E03A
:103D200038B50446FFF712FF14E020780A2809D1BD
:103D30000D2000904FF47A73012269460848FDF780
:103D40006FFF00BF2146641C4FF47A7301220448C0
:103D5000FDF766FF20780028E7D1FFF707FF38BDA1
:103D6000F000002070B504461948006838B12046BC
:103D7000174909688847054605B970BD00BF15A0F9
:103D8000E16900F005F917A0A16900F001F919A097
:103D9000616900F0FDF81BA0216900F0F9F81DA091
:103DA000E16800F0F5F81FA0A16800F0F1F821A08B
:103DB000616800F0EDF823A0216800F0E9F800F058
:103DC000DDFD0546294623A000F0E2F800BFFEE72E
:103DD000E80000207073723A203078253038780A75
:103DE000000000002070633A203078253038780ACF
:103DF00000000000206C723A203078253038780AB4
:103E0000000000007231323A203078253038780ACC
:103E1000000000007230333A203078253038780ABC
:103E2000000000007230323A203078253038780AAD
:103E3000000000007230313A203078253038780A9E
:103E4000000000007230303A203078253038780A8F
:103E50000000000068617264206661756C74206FF8
:103E60006E207468726561643A2025730A00000050
:103E7000F0B504460D461646301D20F007004438C4
:103E80000146002203E00D4F41F82270521C112A16
:103E9000F9D34D624FF0000CC1F828C0C1F82CC016
:103EA000C1F830C0C1F834C08B63CC634FF0807C64
:103EB000C1F840C000270F60F0BD0000EFBEADDECE
:103EC00010B5FCF77DF9044604480078401C03490E
:103ED00008702046FCF778F910BD00005C00002057
:103EE00010B5FCF76DF9044604480078401E0349FC
:103EF00008702046FCF768F910BD00005C00002047
:103F000070B504462068A0F11405284600F018FD9D
:103F1000002070BD2DE9F04105460C469046204634
:103F200000F06AFDB8F1000F03D0B8F1010F23D102
:103F300005E004F11401284600F060F81CE02E684A
:103F40000FE0A6F1140794F8350097F83510884271
:103F500006DA04F1140107F1140000F04FF802E052
:103F60003668AE42EDD100BFAE4204D104F1140177
:103F7000284600F043F800BF00BF0020BDE8F081F4
:103F800010B5044604F1140000F01AF8002010BD2A
:103F90000FB438B505A800907F210848009B049A0B
:103FA00000F0C2FE04467F2C00D97F240348FFF7AF
:103FB000B7FE0020009038BC5DF814FB18230020E9
:103FC0004060006070474060006070474060006083
:103FD00070470268516002680A600160486070477B
:103FE0000268516002680A600160486070470268B8
:103FF000516002680A600160486070474268116061
:1040000042684A604160086070470146086888421B
:1040100001D1012070470020FCE701460868884272
:1040200001D1012070470020FCE7D0E90021516058
:10403000D0E900121160406000607047D0E90021B3
:104040005160D0E9001211604060006070470000CC
:104050002DE9F041054615B90020BDE8F081E81CC6
:1040600020F003054E480068854201D90020F4E79E
:104070000C2D00D20C254FF0FF314A4800F00AFA0F
:104080004948006849490968461A7EE0474800687F
:1040900084196088002874D106F10C006168081A40
:1040A000A8426ED306F10C006168091A05F11800E8
:1040B000814230D306F10C0000EB05083B48006854
:1040C00000EB08074FF4F5503880002078806068D6
:1040D0007860BE60C4F80480012060803048796850
:1040E00000680C30814205D030497868096808447E
:1040F000C0F808802E48016805F10C0008442C49DE
:1041000008602C4800680968884219D2284800686D
:104110002849086014E0012060802449606809682B
:10412000611A401A22490968084421490860214857
:1041300000680968884203D21D4800681D4908606C
:104140004FF4F550208018480068844212D107E0EF
:104150001548006840681549096808441249086014
:1041600011480068408828B10F4800681249096862
:104170008842EDD10B4800F070F904F10C006CE7B7
:10418000FFE70A4800683044466805480068401B5D
:10419000B0423FF67BAF034800F05FF900205CE7D8
:1041A0006C000020982300206800002060000020A0
:1041B000700000207400002064000020F0B50C4660
:1041C0000546E6B2042A15D300F0030797B9014665
:1041D00046EA062343EA034304E008C108C108C1D4
:1041E00008C1103A102AF8D201E008C1121F042AAF
:1041F000FBD20D4601E005F8016B171EA2F101028A
:10420000F9D1F0BD2DE9F04105460F46284600F0F2
:104210003BF80646F068FFF71BFF044614B9002080
:10422000BDE8F081257200206072082239462046E0
:1042300000F0CBF9FBF7C4FF804604F10C01301D00
:10424000FFF7C7FE4046FBF7BFFF2046E8E770B523
:104250000446FBF7B5FF054604F10C00FFF7E5FE49
:104260002846FBF7B1FF2046FFF79EFC70BD70B5F6
:104270000446FBF7A5FF054604F10C00FFF7D5FE49
:104280002846FBF7A1FF70BD024600210AE007485F
:1042900000EB01100078904203D1044800EB0110BC
:1042A0007047491C0429F2DB0020F9E77800002060
:1042B0002DE9F04104460D4616462846FFF7E4FF77
:1042C000074645F08000207208223146204600F063
:1042D0007CF9FBF775FF804604F10C01381DFFF7F0
:1042E00078FE4046FBF770FFBDE8F0810146087A92
:1042F00000F0800008B1012070470020FCE70000BA
:104300002DE9F041FBF75CFF07461B48008868BBBE
:104310001A480068FEF730FD461E194850F836006E
:10432000A0F114041748006884421BD016490E708F
:104330001448056804601548007848B904F11C0168
:1043400005F11C00FBF743FF3846FBF73DFF0CE08F
:1043500004F11C0105F11C00FBF739FF3846FBF79F
:1043600033FF02E03846FBF72FFF02E03846FBF749
:104370002BFFBDE8F0810000B8000020C400002041
:10438000B8230020BC000020C00000205C000020FA
:1043900070B50446FBF714FF054614F8340F20F0FF
:1043A0000F0040F0010020706278343C0A4B03EBB0
:1043B000C20004F114014268116042684A60416021
:1043C000086000BF0549A06B0968084303490860FD
:1043D0002846FBF7F9FE70BDB8230020C40000207A
:1043E00070B50446FBF7ECFE054604F11400D0E975
:1043F00000215160D0E9001211604060006000BFF0
:1044000094F83510094A02EBC1000168814201D1DC
:10441000012100E0002129B10548A16B0068884313
:10442000034908602846FBF7CFFE70BDB823002083
:10443000C40000202DE9F04104460D4616461F46F3
:104440002A4601212046FFF733FF2046FFF798FD5B
:10445000A68367720020BDE8F08170B50446002590
:10446000FBF7AEFE064604F11400FFF7CEFD28B9B7
:1044700004F11400FFF744FD012502E0A08B401C6D
:10448000A0833046FBF7A0FE012D01D1FFF738FFD6
:10449000002070BD73B50546FBF792FE0646A88B5B
:1044A000002806DDA88B401EA8833046FBF78CFE53
:1044B00028E0019828B93046FBF786FE6FF001002E
:1044C0007CBD00F05BFA0446002020636A7A214636
:1044D00005F11400FFF71EFD0198002809DD01AA6F
:1044E000002104F1440000F047FB04F1440000F017
:1044F00087FB3046FBF768FEFFF702FF206B08B131
:10450000206BDDE70020DBE708B509A0FFF740FDE1
:104510000AA0FFF73DFD12A00323002219460090D8
:1045200012A0FFF735FD19A0FFF732FD08BD00000E
:104530000A205C207C202F0A000000002D2052540D
:10454000202D2020202020546872656164204F7047
:1045500065726174696E672053797374656D0A00C2
:104560004A756C202037203230323000202F207CDA
:10457000205C202020202025642E25642E25642008
:104580006275696C642025730A00000020323030A7
:1045900036202D203230313820436F7079726967B0
:1045A00068742062792072742D7468726561642069
:1045B0007465616D0A00000001460A4600E0521C65
:1045C00010780028FBD1501A704770B50346A2B18D
:1045D00018460C4600BF14F8016B00F8016B3EB999
:1045E00002E0002500F8015B551E2A1EF9D102E009
:1045F000551E2A1EEFD100BF00BF184670BD000037
:104600002DE9F04105460E46E81C20F0030726F090
:104610000308B8F1180F09D9A8F11800B84205D35A
:10462000A8EB070018381E49086006E03246294604
:104630001CA0FFF7ADFCBDE8F081294807600468C5
:104640004FF4F5502080164800680C306060002060
:10465000A0606080224960680968084421490860B8
:104660004FF4F5500968088001201E490968488008
:104670000B4800680C301B4909684860084800680E
:104680000C301849096888600023012216A11848D7
:10469000FFF7D0FE124800681649086000BFCAE75D
:1046A0006C0000206D656D20696E69742C20657248
:1046B000726F7220626567696E20616464726573EF
:1046C0007320307825782C20616E6420656E64201C
:1046D0006164647265737320307825780A00000085
:1046E0006000002064000020686561700000000028
:1046F000982300206800002010B500200B49088096
:10470000002405E00A4901EBC400FFF75CFC641CCF
:10471000082CF7DB072007490870002006490860CD
:10472000064908600648FFF74EFC10BDB80000209F
:10473000B8230020C0000020BC000020C4000020DE
:10474000C800002070B508480068FEF715FB451E3C
:10475000064850F83500A0F114040548046004F13F
:104760001C00FBF77AFD70BDC4000020B8230020B8
:10477000BC00002010B5002405E0044901EBC40092
:10478000FFF724FC641C002CF7D010BDD0000020E3
:1047900070472DE9FF5F06460F4690461D46DDE94E
:1047A0000EAB31460020FFF72DFD8146B9F1000F19
:1047B00003D1002004B0BDE8F09F2846FFF748FC75
:1047C000044624B94846FFF742FD0020F2E743467D
:1047D0003A46314648468DE8300CFEF767FF4846BA
:1047E000E8E710B50446204600F0CEF810BD000002
:1047F00070B512480468FBF7E3FC05462046FFF756
:10480000EFFD042084F8340004F1440000F0D0F9F6
:104810002046FFF76BFD012805D1206F18B920460F
:10482000FFF725FD04E004F114010548FFF7D8FB6C
:104830002846FBF7C9FCFFF763FD70BDBC000020F4
:10484000C800002001E000F001F8FCE770B537E097
:10485000FBF7B6FC0546FEF787FB18B31B4800685C
:10486000A0F1140404F11400D0E900215160D0E952
:10487000001211604060006000BFFFF767F9206F11
:1048800010B12046216F88472046FFF72FFD0128F1
:1048900005D1FFF76BF92846FBF796FC70BDFFF7D3
:1048A00065F903E02846FBF78FFCF7E72846FBF79E
:1048B0008BFCA06AFFF778F92046FFF7C8FC00BF21
:1048C000FEF752FB0028C3D100BFE7E7C800002075
:1048D0001FB520200721C200074BCDE90032CDE9EA
:1048E00002100023054A06A1074800F00FF8064809
:1048F00000F06CF81FBD0000182200204548000899
:104900007469646C65000000A02100202DE9FF5F40
:1049100005460C4616461F46DDE910ABDDE90E895B
:10492000224600212846FFF7C3FC3B46324621467B
:1049300028468DE8000FFEF7B9FE04B0BDE8F09FF1
:1049400070B5044694F8340000F00F00022802D03D
:104950004FF0FF3070BDFBF733FC054604F1140047
:10496000FFF76CFB04F1440000F0C6F92846FBF7A2
:104970002BFC2046FFF70CFD0020EBE70148006808
:1049800070470000BC00002031B5FBF719FC05465C
:104990000D480468204600F02FF86A46002104F113
:1049A000440000F0E9F804F1440000F029F9284639
:1049B000FBF70AFCFFF7A4FC206B801C08B9002061
:1049C0002063002038BD0000BC00002010B5044664
:1049D0003434A078607061780120884060600220E3
:1049E00004F834092046FFF7ABFFFFF7C7FF08B113
:1049F000FFF786FC002010BD70B5044694F8340023
:104A000000F00F00012802D04FF0FF3070BDFBF71F
:104A1000D7FB054694F8340020F00F0040F0020068
:104A200084F834002046FFF7DBFC04F1440000F07A
:104A300063F92846FBF7C8FB0020E7E770B504469A
:104A400025466FF00100286305F11400FFF7F6FA20
:104A50002846FFF79DFCFFF753FC70BD70B5FBF7D0
:104A6000AFFB05461448046894F8340000F00F00CA
:104A700001281CD1D4E90510814218D004F114009A
:104A8000FFF7DCFA94F835200C4B03EBC20004F17D
:104A900014014268116042684A604160086000BFCA
:104AA0002846FBF791FBFFF72BFC002070BD284642
:104AB000FBF78AFB0020F9E7BC000020B8230020A8
:104AC00001480068704700005800002010B50A48EF
:104AD0000068401C08490860FFF750FF0446206C3E
:104AE000401E2064206C18B9E06B2064FFF7B6FF0D
:104AF00000F004F810BD00005800002070B5FFF76A
:104B0000DFFF0546FBF75CFB064628E01948006816
:104B1000A0F11404A06A281A6FF0004188421DD247
:104B20002046FEF726FED4E907108847FFF7C8FFA6
:104B30000546607A00F0020058B1607A00F001008A
:104B400038B1607A20F001006072204600F058F819
:104B500005E0607A20F00100607200E004E00548A2
:104B6000FFF75BFA0028D1D000BF3046FBF72CFBE3
:104B700070BD0000D0000020034649B1012904D0D7
:104B8000022908D0032910D10AE0586A10600CE00D
:104B90001068586209E0587A20F00200587204E068
:104BA000587A40F00200587200BF00BF00207047E2
:104BB00070B50446FBF704FB05462046FEF7D9FD19
:104BC0002846FBF701FB2046FFF751FB002070BD94
:104BD0002DE9F84307460C4615461E46DDE90889CF
:104BE000224609213846FFF763FB434632462946F1
:104BF0003846CDF80090FEF79BFDBDE8F883000035
:104C00002DE9F8430546FBF7DBFA80462846FEF718
:104C1000B0FD687A20F0010068724046FBF7D4FAD4
:104C2000FFF74EFF696A0844A862FBF7C9FA80469D
:104C30002F4F009700242AE019E05DF82420116826
:104C4000142202EBC402881A826AAB6AD21A00D11B
:104C500008E0826AAB6AD21A6FF000439A4200D22F
:104C60000CE000BF5DF8240000684DF824005DF8FA
:104C7000240007EBC40149688842DED100BF2CB193
:104C80005DF824000830611C4DF82100641C002CE4
:104C9000D2D018480068401C1649086008460668CB
:104CA00005F114010098FFF7A2F9022412E006F0C2
:104CB000030060B9C4F1010305F1140202EBC30162
:104CC000C4F101025DF82200FFF791F900E003E072
:104CD000B608641C012CEAD900BF687A40F00100D4
:104CE00068724046FBF770FA0020BDE8F8830000C8
:104CF000D0000020D800002070B50446607A00F093
:104D0000010010B94FF0FF3070BDFBF759FA0546AE
:104D10002046FEF72EFD2846FBF756FA607A20F073
:104D2000010060720020EFE72DE9FF4F89B0804657
:104D300044460A984044461E464504D24FF0FF368A
:104D4000A6EB08000A906FE10B980078252806D0A2
:104D5000B44202D80B9800782070641C61E10025F1
:104D600026E00B98401C0B900B9800782D2802D160
:104D700045F010051CE00B9800782B2802D145F077
:104D8000040515E00B980078202802D145F00805AD
:104D90000EE00B980078232802D145F0200507E0AB
:104DA0000B980078302802D145F0010500E000E0C2
:104DB000D7E700BF4FF0FF370B98007830380A284C
:104DC00004D20BA800F061F907460EE00B980078BA
:104DD0002A280AD10B98401C0B900C9880C80C9084
:104DE000002F02DA7F4245F010054FF0FF390B9893
:104DF00000782E281CD10B98401C0B900B98007843
:104E000030380A2804D20BA800F03FF981460AE0A6
:104E10000B9800782A2806D10B98401C0B900C9810
:104E200050F8049B0C90B9F1000F01DA4FF0000923
:104E3000002004900B980078682803D00B98007825
:104E40006C2805D10B98007804900B98401C0B90AF
:104E50000A2005900B9800786F2875D00CDC632829
:104E600013D004DC252870D058286FD18DE0642839
:104E70006DD06928F9D18FE070286AD0732825D0C9
:104E8000752878D07828F0D182E005F0100040B97C
:104E900004E0B44201D820202070641C781E071E54
:104EA000F7DC0C9810F8041B0C90C8B20790B442C1
:104EB00001D807982070641C04E0B44201D8202077
:104EC0002070641C781E071EF7DCAAE00C980068AE
:104ED00006900C98001D0C90069808B95AA00690F0
:104EE0000698FFF769FB8346B9F1000F02DDCB4559
:104EF00000DDCB4605F0100048B904E0B44201D80B
:104F000020202070641C38467F1E5845F6DC0020A7
:104F100008900BE0B44202D8069800782070641C18
:104F20000698401C06900898401C08900898584520
:104F3000F0DB04E0B44201D820202070641C384625
:104F40007F1E5845F6DC6CE01CE015E028E022E00E
:104F5000FFE7781C10B9082745F00105CDE9007975
:104F600002950C9804C8102331460C902046FEF799
:104F7000F5FC044655E012E0B44201D8252020702B
:104F8000641C4EE0082005901DE045F0400500BF80
:104F90001020059017E000BF45F0020500BF12E0A9
:104FA000B44201D825202070641C0B98007830B1E1
:104FB000B44202D80B9800782070641C02E00B9871
:104FC000401E0B902DE000BF04986C2807D10C9870
:104FD00050F804AB0C9005F00200B8B116E004984C
:104FE00068280BD10C9830F8041B1FFA81FA0C903A
:104FF00005F0020050B10FFA8AFA07E00C9850F859
:1050000004AB0C9005F0020000B100BFCDE90079BF
:105010000295524631462046059BFEF79FFC04460A
:1050200000BF0B98401C0B900B98007800287FF471
:105030008BAEB44201D8207001E000203070A4EBA8
:1050400008000DB0BDE8F08F284E554C4C290000EB
:1050500000207047002070470020704700207047F4
:1050600010B5FBF7ADF8FEF717FEFFF74DFAFFF7A7
:1050700081FBFFF741FBFEF737FDFFF789FBFFF7E9
:1050800027FCFFF75FFB002010BD0146002009E070
:105090000B685A1C0A601A7800EB800302EB43028B
:1050A000A2F130000A681278303A0A2AF0D3704729
:1050B00000000000000000000102030406070809C8
:1050C00000000000010203040000010002000100D2
:1050D00003000100020001000400010002000100C1
:1050E00003000100020001000500010002000100B0
:1050F00003000100020001000400010002000100A1
:10510000030001000200010006000100020001008E
:105110000300010002000100040001000200010080
:10512000030001000200010005000100020001006F
:105130000300010002000100040001000200010060
:10514000030001000200010007000100020001004D
:105150000300010002000100040001000200010040
:10516000030001000200010005000100020001002F
:105170000300010002000100040001000200010020
:10518000030001000200010006000100020001000E
:105190000300010002000100040001000200010000
:1051A00003000100020001000500010002000100EF
:1051B00003000100020001000400010002000100E0
:1051C000030001000200010030313233343536373C
:1051D00038396162636465660030313233343536A4
:1051E0003738394142434445460000005D500008CD
:1051F0005550000851500008595000081C52000832
:1052000000000020F0000000C42D00080C5300082E
:10521000F000002008270000D42D00080024F4002E
:10522000000000001000000001000000000000006D
:10523000000000000000000000000000000000006E
:10524000000000000000000000000000000000005E
:10525000000000000000000000000000000000004E
:10526000000000000000000000000000000000003E
:10527000000000000000000000000000000000002E
:10528000000000000000000000000000000000001E
:1052900000000000000000007C0000207C000020D6
:1052A00078000000010000008C0000208C0000202D
:1052B00020000000040000009C0000209C00002052
:1052C0003000000009000000AC000020AC0000200D
:1052D0002C000000000000000000000000000000A2
:1052E00000000000000000000000000000000000BE
:1052F00000000000000000000000000000000000AE
:0C530000000000000000000000000000A1
:040000050800018965
:00000001FF
