:020000040800F2
:10000000401700209D010008C9110008A302000844
:10001000C5110008A3030008D51600080000000061
:10002000000000000000000000000000CB110008EC
:10003000E503000800000000EF010008CD110008F2
:10004000B7010008B7010008B7010008B7010008B0
:10005000B7010008B7010008E7030008B70100086E
:10006000B7010008B7010008B7010008B701000890
:10007000B7010008B7010008B7010008B701000880
:10008000B7010008B7010008B7010008B701000870
:10009000B7010008B7010008B7010008B701000860
:1000A000B7010008B7010008B7010008B701000850
:1000B000B7010008B7010008B7010008B701000840
:1000C000B7010008B7010008B7010008B701000830
:1000D000B7010008B7010008B7010008B701000820
:1000E000B7010008B7010008B7010008B701000810
:1000F000B7010008B7010008B7010008B701000800
:10010000B7010008B7010008B7010008B7010008EF
:10011000B7010008B7010008B7010008B7010008DF
:10012000B7010008B7010008B7010008B7010008CF
:10013000B7010008B7010008B7010008B7010008BF
:10014000B7010008B7010008B7010008B7010008AF
:10015000B7010008B7010008B7010008B70100089F
:10016000B7010008B7010008B7010008B70100088F
:10017000B7010008B7010008B7010008000000003F
:10018000B7010008B7010008DFF80CD000F0F0F864
:1001900000480047950300084017002006488047A4
:1001A00006480047FEE7FEE7FEE7FEE7FEE7FEE75C
:1001B000FEE7FEE7FEE7FEE79D1200088901000862
:1001C000EFF3108072B6704780F3108870473A4A98
:1001D0001368012B04D04FF001031360374A1060FD
:1001E000374A116037484FF0805101607047EFF394
:1001F000108272B63048016851B34FF000010160BF
:100200002E48016891B1EFF309811EF0100F08BF6D
:1002100021ED108B21E9F00F4FF000041EF0100FBC
:1002200008BF012441F8044D0068016024490968B1
:10023000096808C9B1E8F00F002B18BFB1EC108BAA
:1002400081F309884EF0100E002B18BF2EF0100E0F
:1002500082F310884EF0040E704719490860EFF3DE
:10026000148222F0040282F3148814494FF0000033
:10027000086011494FF00100086013484FF47F01F6
:10028000D0F8002041EA020101600E484FF0805191
:1002900001600E480068006880F3088861B662B6A5
:1002A0007047EFF3098000B501F092FD5DF804EBB3
:1002B0004EF0040E70470000A000002098000020BF
:1002C0009C00002004ED00E020ED00E008ED00E0DF
:1002D0002DE9F05F0546002092469B46884606467B
:1002E000814640241BE0284641464746224600F00E
:1002F0002FF853465A46C01A914110D3114618465A
:10030000224600F016F82D1A67EB01084F462246E8
:100310000120002100F00DF817EB00094E41201ECE
:10032000A4F10104DFDC484631462A464346BDE8D5
:10033000F09F202A04DB203A00FA02F100207047E7
:100340009140C2F1200320FA03F319439040704713
:10035000202A04DB203A21FA02F00021704721FA1A
:1003600002F3D040C2F12002914008431946704781
:10037000064C074D06E0E06840F0010394E80700F2
:1003800098471034AC42F6D3FFF702FF68320008FA
:100390008832000810B5FFF713FF02F097FE002027
:1003A00010BD00BFFEE7000010B50C480C49086006
:1003B0004FF4E1304860002109488160C16001616B
:1003C00081610C21416100F00BFD05480068C068A7
:1003D00040F0200002490968C86010BD00100140CB
:1003E000A800002070477047F8B502460B4600256C
:1003F000002400200021DCE0012606FA01F51E6839
:1004000006EA0504AC4273D15E68022E02D05E6833
:10041000122E13D1CF0802F1200656F827004E07FE
:10042000F70E0F26BE40B0434F07FF0E1E69BE40B9
:100430003043CF0802F1200646F8270010684F002D
:100440000326BE40B0431E7906F003064F00BE40AF
:10045000304310605E68012E08D05E68022E05D021
:100460005E68112E02D05E68122E13D190684F0084
:100470000326BE40B0434F00DE68BE40304390606C
:10048000506801268E40B0431E79C6F300168E4098
:1004900030435060D0684F000326BE40B0434F0049
:1004A0009E68BE403043D0605E6806F08056B6F16C
:1004B000805F7DD100BF00260096404E366846F42E
:1004C00080463E4F3E603E46366806F480460096C3
:1004D00000BF00BF3A4E8F0856F827008E07370F2F
:1004E0000F26BE40B043374EB24202D1002624E070
:1004F0005EE0354EB24201D101261EE0334EB242DB
:1005000001D1022619E0324EB24201D1032614E095
:10051000304EB24201D104260FE02F4EB24201D13B
:1005200005260AE02D4EB24201D1062605E02C4EEA
:10053000B24201D1072600E008268F073F0FBE40D8
:1005400030431F4E8F0846F82700264E3068A043E0
:100550005E6806F48036B6F5803F00D12043214E18
:100560003060361D3068A0435E6806F40036B6F58C
:10057000003F00D120431B4E361D3060361D3068D1
:10058000A0435E6806F48016B6F5801F00D12043B4
:10059000144E08363060361D3068A0435E6806F49D
:1005A0000016B6F5001F00D120430E4E0C36306009
:1005B000491C1029FFF420AFF8BD00004438024068
:1005C00008380140000002400004024000080240D8
:1005D000000C0240001002400014024000180240CB
:1005E000001C0240003C014001480068000C7047BC
:1005F000002004E00148006870470000040000206B
:1006000070B504460E4800784FF47A71B1FBF0F0F3
:100610000C490968B1FBF0F5284600F0C7FB08B1AA
:10062000012070BD102C07D200222146501E00F080
:100630001DF80548046001E00120F2E70020F0E722
:100640000C000020000000200800002001460846A1
:10065000002809DB00F01F0301229A4043099B0098
:1006600003F1E023C3F8002100BF70472DE9F05FDC
:1006700080460D461646002701F02EF807463946FB
:100680002A46334601F00700C0F1070ABAF1040F09
:1006900002D94FF0040A01E0C0F1070AD14600F187
:1006A000040ABAF1070F02D24FF0000A01E0A0F1EC
:1006B000030AD4464FF0010A0AFA09FAAAF1010A1C
:1006C0000AEA020A0AFA0CFA4FF0010B0BFA0CFBC9
:1006D000ABF1010B0BEA030B4AEA0B04214640463F
:1006E00001F002F8BDE8F09F70B504460D460CB964
:1006F000012070BD5848006800F00F00A84209D2E0
:1007000055490D700846006800F00F00A84201D05E
:100710000120EEE7207800F0020002281DD12078A9
:1007200000F00400042805D14C48006840F4E05073
:100730004A490860207800F00800082805D1474899
:10074000006840F46040454908604448006820F073
:10075000F000A168084341490860207800F00100DA
:10076000A8B36068012807D13C4808380068C0F386
:100770004040B8B90120BCE76068022802D0606838
:10078000032807D1354808380068C0F3406048B9ED
:100790000120AEE7314808380068C0F3400008B9CE
:1007A0000120A6E72D48006820F003006168084397
:1007B0002A490860FFF71EFF064609E0FFF71AFF07
:1007C000801B41F28831884202D9032091E707E07B
:1007D0002248006800F00C006168B0EB810FEDD199
:1007E0001D48006800F00F00A84209D91A490D7091
:1007F0000846006800F00F00A84201D0012078E709
:10080000207800F00400042807D11448006820F480
:10081000E050E168084311490860207800F00800C2
:10082000082808D10D48006820F46040216940EA9A
:10083000C1000A49086000F03DF808490968C1F3A1
:100840000311074A515CC840064908600F20FFF7B2
:10085000D7FE00204DE70000003C0240083802406F
:100860001C310008000000200148006870470000AB
:100870000000002000B5FFF7F7FF04490968C1F345
:100880008221034A515CC84000BD00000838024084
:100890002C31000800B5FFF7E7FF04490968C1F3F0
:1008A0004231034A515CC84000BD00000838024094
:1008B0002C3100082DE9F047002400250026A14630
:1008C0002548006800F00C0020B1042805D0082855
:1008D0003AD105E0DFF8849039E0DFF8849036E023
:1008E0001D48001F006800F03F041B48001F0068FF
:1008F00000F4800078B11A481749091F0968C1F34C
:100900008811A0FB01700146224600233846FFF7FC
:10091000DFFC05460EE011480F49091F0968C1F3C5
:100920008811A0FB01700146224600233846FFF7DC
:10093000CFFC05460848001F0068C0F30140401C7A
:100940004600B5FBF6F902E0DFF8109000BF00BFEB
:100950004846BDE8F0870000083802400024F40053
:1009600040787D01F8B504460CB90120F8BD207827
:1009700000F00100002874D0F948006800F00C0075
:1009800004280DD0F648006800F00C00082813D1A8
:10099000F348001F006800F48000B0F5800F0BD111
:1009A000EF4808380068C0F34040002859D060681C
:1009B000002856D10120D9E700BF6068B0F5803F1C
:1009C00008D1E7480838006840F48030E449083925
:1009D00008601EE06068B0F5A02F0DD1E04808382F
:1009E000006840F48020DE49083908600846006845
:1009F00040F4803008600CE0D9480838006820F4E2
:100A00008030D749083908600846006820F4802003
:100A1000086000BF606890B1FFF7ECFD054606E096
:100A2000FFF7E8FD401B642801D903209EE7CC486E
:100A300008380068C0F340400028F1D011E0FFF70B
:100A4000D9FD054606E0FFF7D5FD401B642801D916
:100A500003208BE7C24808380068C0F340400028F4
:100A6000F1D1207800F0020002285FD1BC48006874
:100A700000F00C0058B1BA48006800F00C000828DB
:100A80001CD1B748001F006800F48000B0B9B4481A
:100A900008380068C0F3400020B1E068012801D0A8
:100AA000012063E7AE480838006820F0F8002169AB
:100AB00040EAC100AA490839086037E0E06800B39D
:100AC0000120A8490860FFF795FD054606E0FFF7FD
:100AD00091FD401B022801D9032047E7A0480838B0
:100AE0000068C0F340000028F1D09D480838006835
:100AF00020F0F800216940EAC100994908390860EE
:100B000014E0002097490860FFF774FD054606E0F1
:100B1000FFF770FD401B022801D9032026E790480B
:100B200008380068C0F340000028F1D1207800F0B8
:100B3000080008282CD16069A8B101208A49086002
:100B4000FFF758FD054606E0FFF754FD401B02285D
:100B500001D903200AE782486C300068C0F34000E6
:100B60000028F1D014E000207F490860FFF742FD23
:100B7000054606E0FFF73EFD401B022801D9032091
:100B8000F4E677486C300068C0F340000028F1D1EB
:100B9000207800F00400042870D100267048383016
:100BA000006800F0805090B900BF002000906C48B1
:100BB0003830006840F08050694938310860084694
:100BC000006800F08050009000BF00BF0126674819
:100BD000006800F48070B0B96448006840F4807028
:100BE00062490860FFF706FD054606E0FFF702FDD3
:100BF000401B022801D90320B8E65C48006800F4D5
:100C000080700028F2D000BFA068012808D15448A5
:100C10006830006840F001005149683108601DE00B
:100C2000A06805280DD14E486830006840F00400E7
:100C30004B49683108600846006840F001000860D0
:100C40000CE047486830006820F0010044496831F2
:100C500008600846006820F00400086000BFA06833
:100C6000A8B1FFF7C7FC054609E0FFF7C3FC401B2E
:100C700041F28831884202D9032077E626E03848DD
:100C800068300068C0F340000028EED013E0FFF7A2
:100C9000B1FC054608E0FFF7ADFC401B41F288318E
:100CA000884201D9032061E62D4868300068C0F30E
:100CB00040000028EFD1012E07D1294838300068C4
:100CC00020F0805026493831086000BFA069B8B3D1
:100CD0002348006800F00C0008285ED0A0690228B4
:100CE00046D100201F490866FFF784FC054606E050
:100CF000FFF780FC401B022801D9032036E6184884
:100D000008380068C0F340600028F1D1D4E9070139
:100D10000843616A40EA81110122A06AC2EB5000D7
:100D200041EA00412C20005D41EA00600C49091FA6
:100D3000086001200B490866FFF75CFC054607E0E8
:100D40002DE0FFF757FC401B022801D903200DE6D8
:100D5000034808380068C0F340600028F1D01EE066
:100D60000838024000004742800E474200700040B1
:100D700000200C490866FFF73DFC054606E0FFF73A
:100D800039FC401B022801D90320EFE50648006822
:100D9000C0F340600028F2D101E00120E6E5002028
:100DA000E4E50000000047420038024070B5044608
:100DB0002546681EB0F1807F01D301200FE0681E38
:100DC0004FF0E02148610F214FF0FF3000F08CFC24
:100DD00000204FF0E021886107200861002070BDED
:100DE00010B504460CB9012010BDA06900B100E0A7
:100DF00000BF94F8390028B9002084F83800204654
:100E000000F028F8242084F839002068C06820F415
:100E100000502168C860204600F072FA206800691E
:100E200020F49040216808612068406920F02A0081
:100E3000216848612068C06840F400502168C8609B
:100E40000020E063202084F8390084F83A00002074
:100E5000CAE7000010B586B0044600BF002000902D
:100E60002648006840F010002449086008460068E1
:100E700000F01000009000BF00BF00BF00200090F5
:100E80001E481438006840F002001C4914390860FC
:100E90000846006800F00200009000BF00BF00BFDD
:100EA000002000900846006840F0020008600846F4
:100EB000006800F00200009000BF00BF40200190D9
:100EC0000220029001200390032004900720059047
:100ED00001A90B48FFF788FA8020019007200590B0
:100EE00001A90748FFF780FA012200212520FFF71A
:100EF000BDFB2520FFF7AAFB06B010BD4438024019
:100F0000000402402DE9F84304460D4616461F46EC
:100F10004FF0000994F8390020285CD105B116B9CA
:100F20000120BDE8F88300BF94F83800012801D102
:100F30000220F6E7012084F8380000BF0020E063BB
:100F4000212084F83900FFF755FB8146A684E6840A
:100F50002BE0E08C401EE084A068B0F5805F16D1E5
:100F60004B46002280212046009700F07DFB08B10F
:100F70000320D6E7A846B8F80000C0F308002168AF
:100F80004860206908B9AD1C0FE06D1C0DE04B46B0
:100F9000002280212046009700F066FB08B1032064
:100FA000BFE715F8010B21684860E08C0028D0D11C
:100FB0004B46002240212046009700F055FB08B127
:100FC0000320AEE7202084F8390000BF002084F819
:100FD000380000BFA5E70220A3E7000000B587B0F6
:100FE00000BF002001903648006840F001003449FD
:100FF00008600846006800F00100019000BF00BFD3
:1010000000BF002001900846006840F0040008601E
:101010000846006800F00400019000BF00BF00BF58
:10102000002001900846006840F040000860084633
:10103000006800F04000019000BF00BF00BF00202A
:1010400001900846006840F04000086008460068CB
:1010500000F04000019000BF00BF00BF00200190E1
:101060000846006840F0400008600846006800F04C
:101070004000019000BF00BF0120029000200390BB
:10108000049002A90F48FFF7AFF94FF40050029007
:1010900002A90D48FFF7A8F90420029002A90B4805
:1010A000FFF7A2F90820029002A90848FFF79CF96F
:1010B0001020029002A90548FFF796F907B000BD7D
:1010C0003038024000000240000802400018024090
:1010D00000B587B000BF002001903548006840F09F
:1010E0000100334908600846006800F001000190E3
:1010F00000BF00BF00BF002001900846006840F01C
:10110000100008600846006800F01000019000BF61
:1011100000BF00BF002001900846006840F040007A
:1011200008600846006800F04000019000BF00BF62
:1011300000BF002001900846006840F002000860EF
:101140000846006800F00200019000BF00BF4FF4A5
:10115000004002900120039004900320059002A912
:101160001448FFF741F90420029002A91248FFF742
:101170003BF94FF40040029002A91048FFF734F900
:101180004FF48070029002A90D48FFF72DF94FF43B
:1011900000400849886104200749886140030749E5
:1011A00018310860C01106491831086007B000BD49
:1011B0003038024000000240001002400018024097
:1011C0000004024000BFFEE77047704710B500F012
:1011D000ADFE01F0B1FC00F0B9FE10BD00B593B05A
:1011E00000BF002001902A48006840F08050284944
:1011F00008600846006800F08050019000BF00BF02
:1012000000BF002001902348006840F4804021493D
:1012100008600846006800F48040019000BF00BFED
:1012200001200290000403900220089041050991DA
:1012300019210A914FF4A8710B9102210C910721F9
:101240000D9102A8FFF78EFB08B100BFFEE70F204B
:101250000E9002200F90002010904FF4A05011909B
:101260004FF48050129005210EA8FFF73DFA08B107
:1012700000BFFEE7FFF7B8F941F20101884205D14E
:101280000548006840F480700349086013B000BD51
:101290004038024000700040003C024014480068A2
:1012A00040F47000124908601248006840F00100E4
:1012B0001049086000200F49083108600D48006897
:1012C0000D4908400B4908600C48091D0860081FBB
:1012D000006820F48020091F0860002005490C31B7
:1012E00008604FF0006002498039086070470000D4
:1012F00088ED00E000380240FFFFF6FE10300024C9
:101300002DE9F04104462068006920F44050E1686E
:101310000843216808612169A0680843616908439E
:10132000E16940EA01052068C06849F20C61884320
:1013300028432168C8602068406920F44070A16992
:10134000084321684861E069B0F5004F7ED1C44987
:101350002068884203D0C349206888425DD1FFF7E6
:1013600099FA00EBC00101EB001061684900B0FB85
:10137000F1F06421B0FBF1F00601FFF78BFA00EB0E
:10138000C00101EB001061684900B0FBF1F7FFF705
:1013900081FA00EBC00101EB001061684900B0FB6D
:1013A000F1F06421B0FBF1F000EBC00101EB0010A3
:1013B000A7EB8000322101EBC0006421B0FBF1F00B
:1013C00000F0F80006EB4006FFF764FA00EBC001FE
:1013D00001EB001061684900B0FBF1F7FFF75AFA22
:1013E00000EBC00101EB001061684900B0FBF1F0B7
:1013F0006421B0FBF1F000EBC00101EB0010A7EBA2
:101400008000322101EBC0006421B0FBF1F000F05C
:10141000070030442168886020E1FFF72BFA00EBD9
:10142000C00101EB001061684900B0FBF1F06421DC
:10143000B0FBF1F00601FFF71DFA00EBC00101EB74
:10144000001061684900B0FBF1F700E045E0FFF7EC
:1014500011FA00EBC00101EB001061684900B0FB1C
:10146000F1F06421B0FBF1F000EBC00101EB0010E2
:10147000A7EB8000322101EBC0006421B0FBF1F04A
:1014800000F0F80006EB4006FFF7F4F900EBC001AE
:1014900001EB001061684900B0FBF1F7FFF7EAF9D2
:1014A00000EBC00101EB001061684900B0FBF1F0F6
:1014B0006421B0FBF1F000EBC00101EB0010A7EBE1
:1014C0008000322101EBC0006421B0FBF1F000F09C
:1014D0000700304421688860C0E061492068884284
:1014E00003D06049206888425CD1FFF7D3F900EB54
:1014F000C00101EB001061688900B0FBF1F6FFF755
:10150000C9F900EBC00101EB001061688900B0FB74
:10151000F1F06421B0FBF1F000EBC00101EB001031
:10152000A6EB8000322101EB00106421B0FBF1F04A
:1015300000F0F006FFF7AEF900EBC00101EB001080
:1015400061688900B0FBF1F06421B0FBF1F006EBBB
:101550000016FFF79FF900EBC00101EB0010616876
:101560008900B0FBF1F7FFF795F900EBC00101EB43
:10157000001061688900B0FBF1F06421B0FBF1F06C
:1015800000EBC00101EB0010A7EB8000322101EB62
:1015900000106421B0FBF1F000F00F00304421682E
:1015A00088605BE0FFF766F900EBC00101EB00101B
:1015B00061688900B0FBF1F6FFF75CF900EBC00150
:1015C00001EB001061688900B0FBF1F06421B0FB11
:1015D000F1F000EBC00101EB0010A6EB800032211E
:1015E00001EB00106421B0FBF1F000F0F006FFF712
:1015F00041F900EBC00101EB001061688900B0FB0C
:10160000F1F06421B0FBF1F006EB0016FFF732F9C0
:1016100000EBC00101EB001061688900B0FBF1F73D
:10162000FFF728F900EBC00101EB001061688900A9
:10163000B0FBF1F06421B0FBF1F000EBC00101EB75
:101640000010A7EB8000322101EB00106421B0FBF9
:10165000F1F000F00F00304421688860BDE8F081AF
:1016600000100140001401402DE9F04104460D46F0
:1016700017469846069E21E0701CF8B12EB1FEF781
:10168000B9FFA0EB0800B04218D92068C06820F468
:10169000D0702168C8602068406920F0010021688E
:1016A0004861202084F8390084F83A0000BF002007
:1016B00084F8380000BF0320BDE8F081206800688E
:1016C0002840A84201D1012000E00020B842D3D038
:1016D0000020F1E700BFFEE702480068C0F30220E7
:1016E000704700000CED00E010B5002804DB0A078D
:1016F000130E054A135406E00A07140E034A00F0BD
:101700000F031B1FD45410BD00E400E018ED00E0EF
:10171000014609B900207047C8B220B1C8B20E4ACC
:10172000105C401CF7E701F47F4028B10A48C1F380
:101730000722805C0930EEE701F47F0028B10648FB
:10174000C1F30742805C1130E5E7034800EB11600C
:1017500000781930DFE700003431000802E008C8E3
:10176000121F08C1002AFAD170477047002001E01B
:1017700001C1121F002AFBD170470000034908680D
:10178000884201D0012070470020FCE7840000203F
:101790002DE9FC5F04468B4615461E46DDE90C9A92
:1017A000DDE90E7804F114004060006000BF1C34D5
:1017B0006560A660C4F80C90C4F810A02321D4E999
:1017C000030200F031FDD4E9033C63441A1F0F4BC0
:1017D000D4E9010100F082FB2060A7766776002043
:1017E000E061C4F82080C4F82480606120766065E0
:1017F000A0651C3C00902346054A2146019004F157
:10180000440001F01BFA0020BDE8FC9F5D280008A1
:10181000A92A00082DE9F04704460E4617469846C7
:10182000DDF8209084F80990607A20F00100607261
:10183000E66127620020A062C4F82480002506E04B
:1018400004F1140101EBC50000F0F6FB6D1C012D45
:10185000F6DBBDE8F08710B50246002001460EE039
:1018600002F1140303EBC100D0E900436360D0E947
:10187000003423604060006000BF481C014601291D
:10188000EEDB10BD15E04FF000400A4988614FF4CF
:10189000FA7000F0DCFF08A000F0B0FB4FF400404D
:1018A000044988614FF4FA7000F0D1FF05A000F000
:1018B000A5FBE8E7000002404C45445F4F4EA3A162
:1018C0000A0000004C45445F4F4646A3A10A0000B1
:1018D0001CB50EA000F092FB142003214FF40073FE
:1018E0000022CDE90010134913A000F088FF14492D
:1018F00008600846006820B10846006801F09CF8BE
:1019000002E04FF0FF301CBD0020FCE7D5E2CAC763
:10191000D2BBB8F65BD2B0BBF05D2D53544D333221
:101920002D5254542D4C4544B5C6CAB5D1E9A3A196
:101930000A000000851800086C6564310000000092
:101940001000002010B5044600F02AF9FFF7C0FF90
:1019500010BD000030B51A4C43682468191988423C
:1019600015D04B889BB9174B1B6899420FD0164B6B
:101970001B688B4201D1144B18604B684360104BBD
:101980001B68C31A0E4D4C682D682C44A3600C4C88
:10199000836824681A19824211D053887BB90A4B94
:1019A0001B68834201D1084B1A6043685360044BA3
:1019B0001B68D31A024D44682D682C44A36030BDC7
:1019C0001C00002020000020240000202DE9F04F02
:1019D00085B00D469C46DDE90F740E9B04F040086F
:1019E000B8F1000F02D0DFF8688101E0DFF8648110
:1019F000CDF8008004F01008B8F1000F01D024F0F9
:101A0000010404F00108B8F1000F02D04FF03008D3
:101A100001E04FF02008C246002604F00208B8F1A9
:101A2000000F11D0002A02DA2D2652420CE004F0F9
:101A30000408B8F1000F01D02B2605E004F00808D7
:101A4000B8F1000F00D02026002142B94FF0300B32
:101A50008846491C0DF1040909F808B01DE01AE098
:101A6000E146B9F10A0F08D14FF00A0BB2FBFBFEB9
:101A70000BFB1E28B2FBFBF202E002F00F0812097A
:101A800000BFDDF8009019F808B08846491C0DF138
:101A9000040909F808B0002AE2D1B94200DD0F4676
:101AA000DB1B04F01108B8F1000F10D116B1002BA8
:101AB00000DD5B1E06E0A84203D84FF0200880F846
:101AC0000080401CB3F10008A3F10103F3DC26B150
:101AD000A84201D806705B1E401C04F01008B8F143
:101AE000000F0AD104E0A84201D880F800A0401CF1
:101AF000B3F10008A3F10103F5DC06E0A84203D826
:101B00004FF0300880F80080401CB8467F1E8845A2
:101B1000F4DC08E0A84205D80DF1040818F80180AB
:101B200080F80080401CB1F10008A1F10101F1DC56
:101B300006E0A84203D84FF0200880F80080401C3F
:101B4000B3F10008A3F10103F3DC05B0BDE8F08FA9
:101B500045320008343200081CB5142002210B0263
:101B60000022CDE90010044904A000F048FE04461C
:101B7000204600F061FF1CBD451900086D61696ECB
:101B80000000000010B5044C02E020688047241DCE
:101B900002488442F9D310BD5C320008603200086C
:101BA00010B5044C02E020688047241D024884429E
:101BB000F9D310BD603200086432000810B5FEF79A
:101BC000FFFA044604480088401C00B2024908801D
:101BD0002046FEF7F9FA10BD7400002010B5FEF79C
:101BE000EFFA04460B480088401E00B209490880FD
:101BF0000846B0F90000002807DC002008802046D5
:101C0000FEF7E2FA00F0B2FB02E02046FEF7DCFA53
:101C100010BD00007400002070B5054605B970BD08
:101C20001D480068854203D31C480068854200D3E4
:101C3000F5E7A5F10C044FF0FF31194800F060FC06
:101C4000608818B12088B0F5F55F08D015A000F0C5
:101C5000D5F923886288214619A000F0CFF9002029
:101C600060804FF4F550208021480068844201D202
:101C70001F480460084960680968611A401A1D49D4
:101C80000968081A1B4908602046FFF763FE0448EC
:101C900000F019FC00BFC2E71C000020200000205B
:101CA000E0120020746F2066726565206120626119
:101CB00064206461746120626C6F636B3A0A000097
:101CC0006D656D3A203078253038782C2075736535
:101CD0006420666C61673A2025642C206D61676919
:101CE0006320636F64653A203078253034780A00C9
:101CF000240000202C00002000487047E80000204D
:101D000000487047E810002070B51D4800684FF487
:101D10007A72B0FBF2F1481EB0F1807F00D31BE075
:101D2000481E4FF0E022506150170F22002804DBBC
:101D300013071C0E134B1C5406E013071D0E124B09
:101D400000F00F04241F1D5500BF00204FF0E022BB
:101D500090610720106100BFFFF740FAFFF7B8F964
:101D6000FFF73CF9FEF720FBFFF70CFFFFF7C8FF7A
:101D70000446FFF7C1FF0546214600F077FC70BD21
:101D80000000002000E400E018ED00E038B5044653
:101D9000FFF714FF14E020780A2809D10D200090E5
:101DA0004FF47A73012269460848FFF7ABF800BF89
:101DB0002146641C4FF47A7301220448FFF7A2F80D
:101DC00020780028E7D1FFF709FF38BDA8000020E0
:101DD00070B504461948006838B1204617490968AB
:101DE0008847054605B970BD00BF15A0E16900F040
:101DF00005F917A0A16900F001F919A0616900F0C7
:101E0000FDF81BA0216900F0F9F81DA0E16800F0C1
:101E1000F5F81FA0A16800F0F1F821A0616800F0BA
:101E2000EDF823A0216800F0E9F800F0DDFD05469B
:101E3000294623A000F0E2F800BFFEE7A40000203E
:101E40007073723A203078253038780A000000002C
:101E50002070633A203078253038780A000000007E
:101E6000206C723A203078253038780A0000000063
:101E70007231323A203078253038780A000000007C
:101E80007230333A203078253038780A000000006C
:101E90007230323A203078253038780A000000005D
:101EA0007230313A203078253038780A000000004E
:101EB0007230303A203078253038780A000000003F
:101EC00068617264206661756C74206F6E2074683E
:101ED000726561643A2025730A000000F0B504467B
:101EE0000D461646301D20F00700443801460022FA
:101EF00003E00D4F41F82270521C112AF9D34D62B4
:101F00004FF0000CC1F828C0C1F82CC0C1F830C097
:101F1000C1F834C08B63CC634FF0807CC1F840C003
:101F200000270F60F0BD0000EFBEADDE10B5FEF77C
:101F300047F9044604480078401C034908702046CD
:101F4000FEF742F910BD00001800002010B5FEF7A2
:101F500037F9044604480078401E034908702046BB
:101F6000FEF732F910BD00001800002070B50446DD
:101F70002068A0F11405284600F018FD002070BD6F
:101F80002DE9F04105460C469046204600F06AFDDA
:101F9000B8F1000F03D0B8F1010F23D105E004F12F
:101FA0001401284600F060F81CE02E680FE0A6F14E
:101FB000140794F8350097F83510884206DA04F1D2
:101FC000140107F1140000F04FF802E03668AE4249
:101FD000EDD100BFAE4204D104F11401284600F057
:101FE00043F800BF00BF0020BDE8F08110B50446F3
:101FF00004F1140000F01AF8002010BD0FB438B539
:1020000005A800907F210848009B049A00F0C2FEBA
:1020100004467F2C00D97F240348FFF7B7FE002039
:10202000009038BC5DF814FB601200204060006036
:102030007047406000607047406000607047026811
:10204000516002680A600160486070470268516030
:1020500002680A6001604860704702685160026867
:102060000A600160486070474268116042684A60D7
:1020700041600860704701460868884201D101202C
:1020800070470020FCE701460868884201D1012022
:1020900070470020FCE7D0E900215160D0E9001230
:1020A0001160406000607047D0E900215160D0E9C4
:1020B0000012116040600060704700002DE9F0419F
:1020C000054615B90020BDE8F081E81C20F00305A5
:1020D0004E480068854201D90020F4E70C2D00D25B
:1020E0000C254FF0FF314A4800F00AFA49480068D1
:1020F00049490968461A7EE04748006884196088A3
:10210000002874D106F10C006168081AA8426ED349
:1021100006F10C006168091A05F11800814230D3FC
:1021200006F10C0000EB05083B48006800EB0807CF
:102130004FF4F55038800020788060687860BE6089
:10214000C4F80480012060803048796800680C3051
:10215000814205D03049786809680844C0F8088091
:102160002E48016805F10C0008442C4908602C48F1
:1021700000680968884219D2284800682849086020
:1021800014E001206080244960680968611A401ADF
:102190002249096808442149086021480068096803
:1021A000884203D21D4800681D4908604FF4F5506D
:1021B000208018480068844212D107E01548006862
:1021C00040681549096808441249086011480068C8
:1021D000408828B10F480068124909688842EDD14B
:1021E0000B4800F070F904F10C006CE7FFE70A48B7
:1021F00000683044466805480068401BB0423FF61E
:102200007BAF034800F05FF900205CE72800002066
:10221000E0120020240000201C0000202C000020E0
:102220003000002020000020F0B50C460546E6B244
:10223000042A15D300F0030797B9014646EA06239E
:1022400043EA034304E008C108C108C108C1103AC9
:10225000102AF8D201E008C1121F042AFBD20D4651
:1022600001E005F8016B171EA2F10102F9D1F0BDE2
:102270002DE9F04105460F46284600F03BF806469A
:10228000F068FFF71BFF044614B90020BDE8F08199
:1022900025720020607208223946204600F0CBF9F2
:1022A000FDF78EFF804604F10C01301DFFF7C7FEDD
:1022B0004046FDF789FF2046E8E770B50446FDF784
:1022C0007FFF054604F10C00FFF7E5FE2846FDF709
:1022D0007BFF2046FFF7A0FC70BD70B50446FDF7FC
:1022E0006FFF054604F10C00FFF7D5FE2846FDF709
:1022F0006BFF70BD024600210AE0074800EB0110A9
:102300000078904203D1044800EB01107047491C4B
:102310000429F2DB0020F9E7340000202DE9F04128
:1023200004460D4616462846FFF7E4FF074645F0EB
:102330008000207208223146204600F07CF9FDF72B
:102340003FFF804604F10C01381DFFF778FE404640
:10235000FDF73AFFBDE8F0810146087A00F0800001
:1023600008B1012070470020FCE700002DE9F04192
:10237000FDF726FF07461B48008868BB1A4800681F
:10238000FFF7C6F9461E194850F83600A0F11404AC
:102390001748006884421BD016490E70144805681F
:1023A00004601548007848B904F11C0105F11C00CF
:1023B000FDF70DFF3846FDF707FF0CE004F11C01A7
:1023C00005F11C00FDF703FF3846FDF7FDFE02E0B6
:1023D0003846FDF7F9FE02E03846FDF7F5FEBDE8A8
:1023E000F081000074000020800000200013002015
:1023F000780000207C0000201800002070B5044602
:10240000FDF7DEFE054614F8340F20F00F0040F013
:10241000010020706278343C0A4B03EBC20004F1E7
:1024200014014268116042684A604160086000BF60
:102430000549A06B09680843034908602846FDF771
:10244000C3FE70BD001300208000002070B504465C
:10245000FDF7B6FE054604F11400D0E900215160F5
:10246000D0E9001211604060006000BF94F83510A0
:10247000094A02EBC1000168814201D1012100E05B
:10248000002129B10548A16B006888430349086011
:102490002846FDF799FE70BD001300208000002043
:1024A0002DE9F04104460D4616461F462A460121F5
:1024B0002046FFF733FF2046FFF798FDA68367729B
:1024C0000020BDE8F08170B504460025FDF778FED8
:1024D000064604F11400FFF7CEFD28B904F11400FC
:1024E000FFF744FD012502E0A08B401CA08330468D
:1024F000FDF76AFE012D01D1FFF738FF002070BD06
:1025000073B50546FDF75CFE0646A88B002806DD80
:10251000A88B401EA8833046FDF756FE28E00198A0
:1025200028B93046FDF750FE6FF001007CBD00F089
:102530005BFA0446002020636A7A214605F1140004
:10254000FFF71EFD0198002809DD01AA002104F112
:10255000440000F047FB04F1440000F087FB3046E4
:10256000FDF732FEFFF702FF206B08B1206BDDE7BD
:102570000020DBE708B509A0FFF740FD0AA0FFF740
:102580003DFD12A0032300221946009012A0FFF780
:1025900035FD19A0FFF732FD08BD00000A205C20C0
:1025A0007C202F0A000000002D205254202D2020D6
:1025B000202020546872656164204F7065726174D8
:1025C000696E672053797374656D0A004A756C20D3
:1025D0002037203230323000202F207C205C202019
:1025E00020202025642E25642E2564206275696CC8
:1025F000642025730A0000002032303036202D2060
:102600003230313820436F707972696768742062A4
:10261000792072742D746872656164207465616DCF
:102620000A00000001460A4600E0521C107800280B
:10263000FBD1501A704770B50346A2B118460C463C
:1026400000BF14F8016B00F8016B3EB902E00025F1
:1026500000F8015B551E2A1EF9D102E0551E2A1E04
:10266000EFD100BF00BF184670BD00002DE9F0415A
:1026700005460E46E81C20F0030726F00308B8F1D3
:10268000180F09D9A8F11800B84205D3A8EB070024
:1026900018381E49086006E0324629461CA0FFF79C
:1026A000ADFCBDE8F0812948076004684FF4F5509F
:1026B0002080164800680C3060600020A0606080B8
:1026C0002249606809680844214908604FF4F550C0
:1026D0000968088001201E49096848800B48006885
:1026E0000C301B4909684860084800680C301849DC
:1026F000096888600023012216A11848FFF7D0FE60
:10270000124800681649086000BFCAE72800002088
:102710006D656D20696E69742C206572726F722010
:10272000626567696E2061646472657373203078D6
:1027300025782C20616E6420656E6420616464726B
:1027400065737320307825780A0000001C00002093
:10275000200000206865617000000000E012002089
:102760002400002010B500200B490880002405E05B
:102770000A4901EBC400FFF75CFC641C082CF7DB82
:1027800007200749087000200649086006490860CC
:102790000648FFF74EFC10BD740000200013002017
:1027A0007C000020780000208000002084000020B1
:1027B00070B508480068FEF7ABFF451E064850F8A4
:1027C0003500A0F114040548046004F11C00FDF775
:1027D00044FD70BD80000020001300207800002020
:1027E00010B5002405E0044901EBC400FFF724FC08
:1027F000641C002CF7D010BD8C00002070472DE920
:10280000FF5F06460F4690461D46DDE90EAB31469A
:102810000020FFF72DFD8146B9F1000F03D1002004
:1028200004B0BDE8F09F2846FFF748FC044624B9F1
:102830004846FFF742FD0020F2E743463A4631465C
:1028400048468DE8300CFEF7A3FF4846E8E710B590
:102850000446204600F0CEF810BD000070B51248C6
:102860000468FDF7ADFC05462046FFF7EFFD0420A8
:1028700084F8340004F1440000F0D0F92046FFF75A
:102880006BFD012805D1206F18B92046FFF725FD03
:1028900004E004F114010548FFF7D8FB2846FDF7D2
:1028A00093FCFFF763FD70BD7800002084000020DA
:1028B00001E000F001F8FCE770B537E0FDF780FCBF
:1028C0000546FEF75BFF18B31B480068A0F114042F
:1028D00004F11400D0E900215160D0E90012116028
:1028E0004060006000BFFFF769F9206F10B120461B
:1028F000216F88472046FFF72FFD012805D1FFF7FC
:102900006DF92846FDF760FC70BDFFF767F903E03D
:102910002846FDF759FCF7E72846FDF755FCA06A65
:10292000FFF77AF92046FFF7C8FC00BFFEF726FF45
:102930000028C3D100BFE7E7840000201FB5202096
:102940000721C200074BCDE90032CDE90210002378
:10295000054A06A1074800F00FF8064800F06CF899
:102960001FBD000060110020B12800087469646C6C
:1029700065000000E81000202DE9FF5F05460C46C9
:1029800016461F46DDE910ABDDE90E89224600211F
:102990002846FFF7C3FC3B463246214628468DE8D1
:1029A000000FFEF7F5FE04B0BDE8F09F70B50446D9
:1029B00094F8340000F00F00022802D04FF0FF30EE
:1029C00070BDFDF7FDFB054604F11400FFF76CFB3D
:1029D00004F1440000F0C6F92846FDF7F5FB204657
:1029E000FFF70CFD0020EBE701480068704700008E
:1029F0007800002031B5FDF7E3FB05460D4804687B
:102A0000204600F02FF86A46002104F1440000F04F
:102A1000E9F804F1440000F029F92846FDF7D4FB59
:102A2000FFF7A4FC206B801C08B900202063002065
:102A300038BD00007800002010B504463434A0787A
:102A400060706178012088406060022004F83409D9
:102A50002046FFF7ABFFFFF7C7FF08B1FFF786FC83
:102A6000002010BD70B5044694F8340000F00F004B
:102A7000012802D04FF0FF3070BDFDF7A1FB0546E5
:102A800094F8340020F00F0040F0020084F8340085
:102A90002046FFF7DBFC04F1440000F063F9284610
:102AA000FDF792FB0020E7E770B5044625466FF07E
:102AB0000100286305F11400FFF7F6FA2846FFF736
:102AC0009DFCFFF753FC70BD70B5FDF779FB054623
:102AD0001448046894F8340000F00F0001281CD159
:102AE000D4E90510814218D004F11400FFF7DCFA94
:102AF00094F835200C4B03EBC20004F1140142683A
:102B0000116042684A604160086000BF2846FDF7D6
:102B10005BFBFFF72BFC002070BD2846FDF754FB44
:102B20000020F9E778000020001300200148006829
:102B3000704700001400002010B50A480068401CCF
:102B400008490860FFF750FF0446206C401E2064CF
:102B5000206C18B9E06B2064FFF7B6FF00F004F8B2
:102B600010BD00001400002070B5FFF7DFFF054620
:102B7000FDF726FB064628E019480068A0F114047A
:102B8000A06A281A6FF0004188421DD22046FEF745
:102B900062FED4E907108847FFF7C8FF0546607A50
:102BA00000F0020058B1607A00F0010038B1607A9C
:102BB00020F001006072204600F058F805E0607ACD
:102BC00020F00100607200E004E00548FFF75BFAC6
:102BD0000028D1D000BF3046FDF7F6FA70BD0000E6
:102BE0008C000020034649B1012904D0022908D0F5
:102BF000032910D10AE0586A10600CE0106858628E
:102C000009E0587A20F00200587204E0587A40F047
:102C10000200587200BF00BF0020704770B5044624
:102C2000FDF7CEFA05462046FEF715FE2846FDF7CD
:102C3000CBFA2046FFF751FB002070BD2DE9F84389
:102C400007460C4615461E46DDE90889224609213D
:102C50003846FFF763FB4346324629463846CDF8EF
:102C60000090FEF7D7FDBDE8F88300002DE9F8439A
:102C70000546FDF7A5FA80462846FEF7ECFD687A82
:102C800020F0010068724046FDF79EFAFFF74EFF04
:102C9000696A0844A862FDF793FA80462F4F0097AF
:102CA00000242AE019E05DF824201168142202EBC8
:102CB000C402881A826AAB6AD21A00D108E0826A1A
:102CC000AB6AD21A6FF000439A4200D20CE000BF08
:102CD0005DF8240000684DF824005DF8240007EB3F
:102CE000C40149688842DED100BF2CB15DF82400E0
:102CF0000830611C4DF82100641C002CD2D018480B
:102D00000068401C164908600846066805F1140171
:102D10000098FFF7A2F9022412E006F0030060B960
:102D2000C4F1010305F1140202EBC301C4F1010275
:102D30005DF82200FFF791F900E003E0B608641C9B
:102D4000012CEAD900BF687A40F001006872404661
:102D5000FDF73AFA0020BDE8F88300008C0000205F
:102D60009400002070B50446607A00F0010010B9AC
:102D70004FF0FF3070BDFDF723FA05462046FEF701
:102D80006AFD2846FDF720FA607A20F001006072A3
:102D90000020EFE72DE9FF4F89B0804644460A98AE
:102DA0004044461E464504D24FF0FF36A6EB0800CD
:102DB0000A906FE10B980078252806D0B44202D81B
:102DC0000B9800782070641C61E1002526E00B98C8
:102DD000401C0B900B9800782D2802D145F010056F
:102DE0001CE00B9800782B2802D145F0040515E073
:102DF0000B980078202802D145F008050EE00B98CA
:102E00000078232802D145F0200507E00B980078D0
:102E1000302802D145F0010500E000E0D7E700BF0F
:102E20004FF0FF370B98007830380A2804D20BA8EF
:102E300000F061F907460EE00B9800782A280AD1C5
:102E40000B98401C0B900C9880C80C90002F02DA55
:102E50007F4245F010054FF0FF390B9800782E287F
:102E60001CD10B98401C0B900B98007830380A2826
:102E700004D20BA800F03FF981460AE00B980078D5
:102E80002A2806D10B98401C0B900C9850F8049BF4
:102E90000C90B9F1000F01DA4FF000090020049006
:102EA0000B980078682803D00B9800786C2805D11F
:102EB0000B98007804900B98401C0B900A2005900A
:102EC0000B9800786F2875D00CDC632813D004DCD5
:102ED000252870D058286FD18DE064286DD06928DE
:102EE000F9D18FE070286AD0732825D0752878D062
:102EF0007828F0D182E005F0100040B904E0B44237
:102F000001D820202070641C781E071EF7DC0C9866
:102F100010F8041B0C90C8B20790B44201D807986F
:102F20002070641C04E0B44201D820202070641C8E
:102F3000781E071EF7DCAAE00C98006806900C9833
:102F4000001D0C90069808B95AA006900698FFF745
:102F500069FB8346B9F1000F02DDCB4500DDCB46AE
:102F600005F0100048B904E0B44201D820202070D8
:102F7000641C38467F1E5845F6DC002008900BE0A4
:102F8000B44202D8069800782070641C0698401C51
:102F900006900898401C089008985845F0DB04E01B
:102FA000B44201D820202070641C38467F1E58454A
:102FB000F6DC6CE01CE015E028E022E0FFE7781C7E
:102FC00010B9082745F00105CDE9007902950C9864
:102FD00004C8102331460C902046FEF7F7FC044647
:102FE00055E012E0B44201D825202070641C4EE068
:102FF000082005901DE045F0400500BF1020059019
:1030000017E000BF45F0020500BF12E0B44201D84E
:1030100025202070641C0B98007830B1B44202D88F
:103020000B9800782070641C02E00B98401E0B90F7
:103030002DE000BF04986C2807D10C9850F804AB21
:103040000C9005F00200B8B116E0049868280BD186
:103050000C9830F8041B1FFA81FA0C9005F002005E
:1030600050B10FFA8AFA07E00C9850F804AB0C90B4
:1030700005F0020000B100BFCDE90079029552468B
:1030800031462046059BFEF7A1FC044600BF0B9885
:10309000401C0B900B98007800287FF48BAEB44254
:1030A00001D8207001E000203070A4EB08000DB0C2
:1030B000BDE8F08F284E554C4C2900000020704789
:1030C00000207047002070470020704710B5FDF7C2
:1030D00077F8FEF719FEFFF74DFAFFF781FBFFF7D0
:1030E00041FBFEF739FDFFF789FBFFF727FCFFF7F0
:1030F0005FFB002010BD0146002009E00B685A1C50
:103100000A601A7800EB800302EB4302A2F1300060
:103110000A681278303A0A2AF0D37047000000009B
:103120000000000001020304060708090000000077
:10313000010203040000010002000100030001007D
:103140000200010004000100020001000300010070
:10315000020001000500010002000100030001005F
:103160000200010004000100020001000300010050
:10317000020001000600010002000100030001003E
:103180000200010004000100020001000300010030
:10319000020001000500010002000100030001001F
:1031A0000200010004000100020001000300010010
:1031B00002000100070001000200010003000100FD
:1031C00002000100040001000200010003000100F0
:1031D00002000100050001000200010003000100DF
:1031E00002000100040001000200010003000100D0
:1031F00002000100060001000200010003000100BE
:1032000002000100040001000200010003000100AF
:10321000020001000500010002000100030001009E
:10322000020001000400010002000100030001008F
:1032300002000100303132333435363738396162BB
:10324000636465660030313233343536373839419E
:103250004243444546000000C9300008C130000820
:10326000BD300008C530000888320008000000208A
:10327000A80000005C17000830330008A8000020F8
:10328000981600006C1700080024F40000000000ED
:10329000100000000100000000000000000000001D
:1032A000000000000000000000000000000000001E
:1032B000000000000000000000000000000000000E
:1032C00038000020380000207800000001000000D5
:1032D00048000020480000202000000004000000FA
:1032E00058000020580000203000000009000000B5
:1032F00068000020680000202C0000000000000092
:1033000000000000000000000000000000000000BD
:1033100000000000000000000000000000000000AD
:10332000000000000000000000000000000000009D
:040000050800018965
:00000001FF
