:020000040800F2
:10000000901B00209D01000865140008A302000851
:1000100061140008A3030008451B0008000000004D
:100020000000000000000000000000007B14000839
:10003000E503000800000000EF0100087D1400083F
:10004000B7010008B7010008B7010008B7010008B0
:10005000B7010008B7010008E7030008B70100086E
:10006000B7010008B7010008B7010008B701000890
:10007000B7010008B7010008B7010008B701000880
:10008000B7010008B7010008B7010008B701000870
:10009000B7010008B7010008B7010008B701000860
:1000A000B7010008B7010008B7010008B701000850
:1000B000B7010008B7010008B7010008B701000840
:1000C000B7010008B7010008B7010008B701000830
:1000D000B7010008B7010008B7010008B701000820
:1000E000B7010008B7010008B7010008B701000810
:1000F000B7010008B7010008B7010008B701000800
:10010000B7010008B7010008B7010008B7010008EF
:10011000B1150008B7010008B7010008B7010008D1
:10012000B7010008B7010008B7010008B7010008CF
:10013000B7010008B7010008B7010008B7010008BF
:10014000B7010008B7010008B7010008B7010008AF
:10015000B7010008B7010008B7010008B70100089F
:10016000B7010008B7010008B7010008B70100088F
:10017000B7010008B7010008B7010008000000003F
:10018000B7010008B7010008DFF80CD000F0F0F864
:100190000048004795030008901B00200648804750
:1001A00006480047FEE7FEE7FEE7FEE7FEE7FEE75C
:1001B000FEE7FEE7FEE7FEE74D15000889010008AF
:1001C000EFF3108072B6704780F3108870473A4A98
:1001D0001368012B04D04FF001031360374A1060FD
:1001E000374A116037484FF0805101607047EFF394
:1001F000108272B63048016851B34FF000010160BF
:100200002E48016891B1EFF309811EF0100F08BF6D
:1002100021ED108B21E9F00F4FF000041EF0100FBC
:1002200008BF012441F8044D0068016024490968B1
:10023000096808C9B1E8F00F002B18BFB1EC108BAA
:1002400081F309884EF0100E002B18BF2EF0100E0F
:1002500082F310884EF0040E704719490860EFF3DE
:10026000148222F0040282F3148814494FF0000033
:10027000086011494FF00100086013484FF47F01F6
:10028000D0F8002041EA020101600E484FF0805191
:1002900001600E480068006880F3088861B662B6A5
:1002A0007047EFF3098000B502F012FC5DF804EB33
:1002B0004EF0040E70470000AC000020A4000020A7
:1002C000A800002004ED00E020ED00E008ED00E0D3
:1002D0002DE9F05F0546002092469B46884606467B
:1002E000814640241BE0284641464746224600F00E
:1002F0002FF853465A46C01A914110D3114618465A
:10030000224600F016F82D1A67EB01084F462246E8
:100310000120002100F00DF817EB00094E41201ECE
:10032000A4F10104DFDC484631462A464346BDE8D5
:10033000F09F202A04DB203A00FA02F100207047E7
:100340009140C2F1200320FA03F319439040704713
:10035000202A04DB203A21FA02F00021704721FA1A
:1003600002F3D040C2F12002914008431946704781
:10037000064C074D06E0E06840F0010394E80700F2
:1003800098471034AC42F6D3FFF702FF70400008E4
:100390009040000810B5FFF713FF03F02DFD00207B
:1003A00010BD00BFFEE7000010B50C480C49086006
:1003B0004FF4E1304860002109488160C16001616B
:1003C00081610C21416100F0D5FD05480068C068DD
:1003D00040F0200002490968C86010BD00100140CB
:1003E000F804002070477047014691F83500022854
:1003F00003D08020486501207047052081F8350032
:100400000868006820F001000A6810600020F3E727
:10041000F8B502460B460025002400200021DCE050
:10042000012606FA01F51E6806EA0504AC4273D1FE
:100430005E68022E02D05E68122E13D1CF0802F140
:10044000200656F827004E07F70E0F26BE40B04391
:100450004F07FF0E1E69BE403043CF0802F1200651
:1004600046F8270010684F000326BE40B0431E79AF
:1004700006F003064F00BE40304310605E68012E58
:1004800008D05E68022E05D05E68112E02D05E682C
:10049000122E13D190684F000326BE40B0434F0088
:1004A000DE68BE4030439060506801268E40B04305
:1004B0001E79C6F300168E4030435060D0684F005E
:1004C0000326BE40B0434F009E68BE403043D0601C
:1004D0005E6806F08056B6F1805F7DD100BF0026D1
:1004E0000096404E366846F480463E4F3E603E469B
:1004F000366806F48046009600BF00BF3A4E8F086B
:1005000056F827008E07370F0F26BE40B043374EF0
:10051000B24202D1002624E05EE0354EB24201D163
:1005200001261EE0334EB24201D1022619E0324EBE
:10053000B24201D1032614E0304EB24201D104266A
:100540000FE02F4EB24201D105260AE02D4EB242F5
:1005500001D1062605E02C4EB24201D1072600E06B
:1005600008268F073F0FBE4030431F4E8F0846F8C6
:100570002700264E3068A0435E6806F48036B6F544
:10058000803F00D12043214E3060361D3068A043AB
:100590005E6806F40036B6F5003F00D120431B4EDE
:1005A000361D3060361D3068A0435E6806F4801644
:1005B000B6F5801F00D12043144E08363060361D3A
:1005C0003068A0435E6806F40016B6F5001F00D13F
:1005D00020430E4E0C363060491C1029FFF420AF2A
:1005E000F8BD0000443802400838014000000240D5
:1005F0000004024000080240000C024000100240CB
:100600000014024000180240001C0240003C01405F
:10061000024613690B400BB1012000E00020704737
:100620000AB1816101E00B048361704701480068F1
:10063000000C7047002004E001480068704700008B
:100640000400002070B504460E4800784FF47A711B
:10065000B1FBF0F00C490968B1FBF0F5284600F059
:10066000C7FB08B1012070BD102C07D20022214623
:10067000501E00F01DF80548046001E00120F2E77B
:100680000020F0E70C0000200000002008000020FF
:1006900001460846002809DB00F01F0301229A40AA
:1006A00043099B0003F1E023C3F8002100BF70471A
:1006B0002DE9F05F80460D461646002701F0FCFA52
:1006C000074639462A46334601F00700C0F1070ABB
:1006D000BAF1040F02D94FF0040A01E0C0F1070A91
:1006E000D14600F1040ABAF1070F02D24FF0000A16
:1006F00001E0A0F1030AD4464FF0010A0AFA09FA10
:10070000AAF1010A0AEA020A0AFA0CFA4FF0010BEE
:100710000BFA0CFBABF1010B0BEA030B4AEA0B04DF
:100720002146404601F0D0FABDE8F09F70B504467E
:100730000D460CB9012070BD5848006800F00F004C
:10074000A84209D255490D700846006800F00F0014
:10075000A84201D00120EEE7207800F00200022834
:100760001DD1207800F00400042805D14C48006811
:1007700040F4E0504A490860207800F0080008285A
:1007800005D14748006840F4604045490860444846
:10079000006820F0F000A168084341490860207813
:1007A00000F00100A8B36068012807D13C48083870
:1007B0000068C0F34040B8B90120BCE76068022877
:1007C00002D06068032807D1354808380068C0F3B4
:1007D000406048B90120AEE7314808380068C0F3EE
:1007E000400008B90120A6E72D48006820F003006A
:1007F000616808432A490860FFF71EFF064609E0C2
:10080000FFF71AFF801B41F28831884202D903208A
:1008100091E707E02248006800F00C006168B0EB47
:10082000810FEDD11D48006800F00F00A84209D9E2
:100830001A490D700846006800F00F00A84201D068
:10084000012078E7207800F00400042807D114483C
:10085000006820F4E050E1680843114908602078FE
:1008600000F00800082808D10D48006820F4604016
:10087000216940EAC1000A49086000F03DF80849D2
:100880000968C1F30311074A515CC8400649086072
:100890000F20FFF7D7FE00204DE70000003C02408C
:1008A00008380240483E0008000000200148006867
:1008B000704700000000002000B5FFF7F7FF044973
:1008C0000968C1F38221034A515CC84000BD0000A1
:1008D00008380240583E000800B5FFF7E7FF04491A
:1008E0000968C1F34231034A515CC84000BD0000B1
:1008F00008380240583E00082DE9F0470024002542
:100900000026A1462548006800F00C0020B104280C
:1009100005D008283AD105E0DFF8849039E0DFF807
:10092000849036E01D48001F006800F03F041B481B
:10093000001F006800F4800078B11A481749091FA9
:100940000968C1F38811A0FB01700146224600230B
:100950003846FFF7BDFC05460EE011480F49091F58
:100960000968C1F38811A0FB0170014622460023EB
:100970003846FFF7ADFC05460848001F0068C0F385
:100980000140401C4600B5FBF6F902E0DFF810908C
:1009900000BF00BF4846BDE8F087000008380240AD
:1009A0000024F40040787D01F8B504460CB901201C
:1009B000F8BD207800F00100002874D0F9480068E4
:1009C00000F00C0004280DD0F648006800F00C0080
:1009D000082813D1F348001F006800F48000B0F528
:1009E000800F0BD1EF4808380068C0F34040002862
:1009F00059D06068002856D10120D9E700BF60684F
:100A0000B0F5803F08D1E7480838006840F48030EE
:100A1000E449083908601EE06068B0F5A02F0DD1E8
:100A2000E0480838006840F48020DE490839086052
:100A30000846006840F4803008600CE0D948083867
:100A4000006820F48030D7490839086008460068FB
:100A500020F48020086000BF606890B1FFF7ECFDD3
:100A6000054606E0FFF7E8FD401B642801D9032096
:100A70009EE7CC4808380068C0F340400028F1D019
:100A800011E0FFF7D9FD054606E0FFF7D5FD401B55
:100A9000642801D903208BE7C24808380068C0F3F6
:100AA00040400028F1D1207800F0020002285FD1F8
:100AB000BC48006800F00C0058B1BA48006800F06B
:100AC0000C0008281CD1B748001F006800F4800003
:100AD000B0B9B44808380068C0F3400020B1E068FD
:100AE000012801D0012063E7AE480838006820F0F3
:100AF000F800216940EAC100AA490839086037E0D6
:100B0000E06800B30120A8490860FFF795FD05469D
:100B100006E0FFF791FD401B022801D9032047E7BB
:100B2000A04808380068C0F340000028F1D09D4874
:100B30000838006820F0F800216940EAC1009949AE
:100B40000839086014E0002097490860FFF774FD39
:100B5000054606E0FFF770FD401B022801D903207F
:100B600026E7904808380068C0F340000028F1D11B
:100B7000207800F0080008282CD16069A8B1012075
:100B80008A490860FFF758FD054606E0FFF754FD67
:100B9000401B022801D903200AE782486C30006814
:100BA000C0F340000028F1D014E000207F49086025
:100BB000FFF742FD054606E0FFF73EFD401B022819
:100BC00001D90320F4E677486C300068C0F3400098
:100BD0000028F1D1207800F00400042870D100260C
:100BE00070483830006800F0805090B900BF002095
:100BF00000906C483830006840F0805069493831C6
:100C000008600846006800F08050009000BF00BFF8
:100C100001266748006800F48070B0B96448006835
:100C200040F4807062490860FFF706FD054606E063
:100C3000FFF702FD401B022801D90320B8E65C48FB
:100C4000006800F480700028F2D000BFA06801287E
:100C500008D154486830006840F0010051496831BB
:100C600008601DE0A06805280DD14E486830006876
:100C700040F004004B49683108600846006840F0C5
:100C8000010008600CE047486830006820F001006F
:100C90004449683108600846006820F00400086094
:100CA00000BFA068A8B1FFF7C7FC054609E0FFF741
:100CB000C3FC401B41F28831884202D9032077E609
:100CC00026E0384868300068C0F340000028EED0C5
:100CD00013E0FFF7B1FC054608E0FFF7ADFC401B51
:100CE00041F28831884201D9032061E62D486830FD
:100CF0000068C0F340000028EFD1012E07D1294839
:100D00003830006820F0805026493831086000BF34
:100D1000A069B8B32348006800F00C0008285ED032
:100D2000A069022846D100201F490866FFF784FC0D
:100D3000054606E0FFF780FC401B022801D903208E
:100D400036E6184808380068C0F340600028F1D142
:100D5000D4E907010843616A40EA81110122A06ACF
:100D6000C2EB500041EA00412C20005D41EA0060E6
:100D70000C49091F086001200B490866FFF75CFC5D
:100D8000054607E02DE0FFF757FC401B022801D97C
:100D900003200DE6034808380068C0F340600028CF
:100DA000F1D01EE00838024000004742800E474262
:100DB0000070004000200C490866FFF73DFC054626
:100DC00006E0FFF739FC401B022801D90320EFE5BC
:100DD00006480068C0F340600028F2D101E001201D
:100DE000E6E50020E4E5000000004742003802404C
:100DF00070B504462546681EB0F1807F01D30120FE
:100E00000FE0681E4FF0E02148610F214FF0FF30E6
:100E100000F05AFF00204FF0E021886107200861B0
:100E2000002070BD704700002DE9F047044620689F
:100E300005682068C668206847694FF00008C14609
:100E400005F00F08B8F1000F0AD105F0200038B105
:100E500006F0200020B1204600F002FCBDE8F0873B
:100E6000B8F1000F6ED007F0010018B906F49070C9
:100E7000002867D005F0010030B106F4807018B189
:100E8000E06B40F00100E06305F0040030B107F0D2
:100E9000010018B1E06B40F00200E06305F00200D1
:100EA00030B107F0010018B1E06B40F00400E063DE
:100EB00005F0080030B107F0010018B1E06B40F018
:100EC0000800E063E06B70B305F0200028B106F085
:100ED000200010B1204600F0C3FB20684069C0F339
:100EE0008019E06B00F0080010B9B9F1000F23D0B1
:100EF000204600F095FB2068406900F04000402843
:100F000016D12068406920F0400021684861606B7C
:100F100050B11748616B0865606BFFF765FA10B157
:100F2000606B016D88470CE02046FFF77BFF08E00F
:100F30002046FFF777FF04E02046FFF773FF00200D
:100F4000E0638BE705F0800030B106F0800018B157
:100F5000204600F08DFD81E705F0400030B106F03D
:100F6000400018B1204600F06BFB77E700BF75E743
:100F70000D16000810B504460CB9012010BDA0697B
:100F800000B100E000BF94F8390028B9002084F8CF
:100F90003800204600F028F8242084F83900206822
:100FA000C06820F400502168C860204600F0ACFB07
:100FB0002068006920F49040216808612068406939
:100FC00020F02A00216848612068C06840F4005081
:100FD0002168C8600020E063202084F8390084F88C
:100FE0003A000020CAE7000010B586B0044600BFF2
:100FF000002000902648006840F010002449086056
:101000000846006800F01000009000BF00BF00BF5D
:10101000002000901E481438006840F002001C496F
:10102000143908600846006800F00200009000BF14
:1010300000BF00BF002000900846006840F002009A
:1010400008600846006800F00200009000BF00BF82
:101050004020019002200290012003900320049080
:101060000720059001A90B48FFF7D2F980200190D5
:101070000720059001A90748FFF7CAF901220021BE
:101080002520FFF715FB2520FFF702FB06B010BD5A
:1010900044380240000402402DE9F84304460D465E
:1010A00016461F464FF0000994F83A00202860D1F8
:1010B00005B116B90120BDE8F88300BF94F83800E7
:1010C000012801D10220F6E7012084F8380000BF92
:1010D0000020E063222084F83A00FFF7ADFA814651
:1010E000A685E68539E0E08D401EE085A068B0F574
:1010F000805F1BD14B46002220212046009700F044
:10110000EBFC08B10320D6E7A846206938B920686F
:101110004068C0F30800A8F80000AD1C1DE020687E
:101120004068C0B2A8F800006D1C16E04B460022D3
:1011300020212046009700F0CFFC08B10320BAE739
:10114000206920B92068406805F8010B05E0206897
:10115000406800F07F0005F8010BE08D0028C2D147
:10116000202084F83A0000BF002084F8380000BF37
:10117000A1E702209FE770472DE9F84304460D469A
:1011800016461F464FF0000994F8390020285CD11C
:1011900005B116B90120BDE8F88300BF94F8380006
:1011A000012801D10220F6E7012084F8380000BFB1
:1011B0000020E063212084F83900FFF73DFA8146E2
:1011C000A684E6842BE0E08C401EE084A068B0F5A5
:1011D000805F16D14B46002280212046009700F008
:1011E0007BFC08B10320D6E7A846B8F80000C0F39E
:1011F000080021684860206908B9AD1C0FE06D1C2B
:101200000DE04B46002280212046009700F064FC50
:1012100008B10320BFE715F8010B21684860E08C96
:101220000028D0D14B46002240212046009700F0F4
:1012300053FC08B10320AEE7202084F8390000BF3A
:10124000002084F8380000BFA5E70220A3E770471C
:1012500000B587B000BF002001903648006840F01C
:101260000100344908600846006800F00100019060
:1012700000BF00BF00BF002001900846006840F09A
:10128000040008600846006800F00400019000BFF8
:1012900000BF00BF002001900846006840F04000F9
:1012A00008600846006800F04000019000BF00BFE1
:1012B00000BF002001900846006840F04000086030
:1012C0000846006800F04000019000BF00BF00BF6A
:1012D000002001900846006840F040000860084681
:1012E000006800F04000019000BF00BF01200290A4
:1012F00000200390049002A90F48FFF789F84FF4EB
:101300000050029002A90D48FFF782F804200290D5
:1013100002A90B48FFF77CF80820029002A90848B0
:10132000FFF776F81020029002A90548FFF770F841
:1013300007B000BD30380240000002400008024003
:101340000018024070B504460D4629462046FFF7B6
:101350005FF9012808D100BF29462046FFF758F958
:101360000128F9D0012070BD0020FCE700B587B04E
:1013700000BF002001903548006840F0010033496B
:1013800008600846006800F00100019000BF00BF3F
:1013900000BF002001900846006840F0100008607F
:1013A0000846006800F01000019000BF00BF00BFB9
:1013B000002001900846006840F0400008600846A0
:1013C000006800F04000019000BF00BF00BF002097
:1013D00001900846006840F0020008600846006876
:1013E00000F00200019000BF00BF4FF400400290E7
:1013F0000120039004900320059002A91448FFF7F0
:1014000007F80420029002A91248FFF701F84FF4F0
:101410000040029002A91048FEF7FAFF4FF48070D6
:10142000029002A90D48FEF7F3FF4FF4004008496F
:101430008861042007498861400307491831086022
:10144000C01106491831086007B000BD30380240AD
:101450000000024000100240001802400004024058
:1014600000BFFEE7704710B5002206213420FFF7C9
:101470001FF93420FFF70CF910BD704710B501F0CB
:10148000D5FB02F0EFF901F0E1FB10BD00B593B020
:1014900000BF002001902A48006840F08050284991
:1014A00008600846006800F08050019000BF00BF4F
:1014B00000BF002001902348006840F4804021498B
:1014C00008600846006800F48040019000BF00BF3B
:1014D0000120029000040390022008904105099128
:1014E00019210A914FF4A8710B9102210C91072147
:1014F0000D9102A8FFF758FA08B100BFFEE70F20D0
:101500000E9002200F90002010904FF4A0501190E8
:101510004FF48050129005210EA8FFF707F908B18B
:1015200000BFFEE7FFF782F841F20101884205D1D2
:101530000548006840F480700349086013B000BD9E
:101540004038024000700040003C024014480068EF
:1015500040F47000124908601248006840F0010031
:101560001049086000200F49083108600D480068E4
:101570000D4908400B4908600C48091D0860081F08
:10158000006820F48020091F0860002005490C3104
:1015900008604FF000600249803908607047000021
:1015A00088ED00E000380240FFFFF6FE1030002416
:1015B00010B512480088B0F5806F19DA104800683D
:1015C0000068C0F34010A8B10E480C4A1288811878
:1015D0004FF47A7301220A48FFF75EFD074800883E
:1015E000401C064908800848006801F001FE01E03F
:1015F00000F06AFE0248FFF717FC10BD1C00002037
:10160000B8000020F80000201800002070B5054642
:10161000AC6B0020E085E0842046FFF703FC70BD42
:101620000168C96821F490710268D1600168496954
:1016300021F0010102685161202180F83A107047C1
:1016400010B504462068C06820F040002168C860DA
:10165000202084F839002046FFF7F9FD002010BD56
:1016600070B5044694F83A0022284AD1A068B0F533
:10167000805F13D1A56A206940B920684068C0F333
:1016800008002880A06A801CA06219E020684068D9
:10169000C0B22880A06A401CA06211E0206938B95D
:1016A00020684068C1B2A26A501CA062117007E0B5
:1016B0002068406800F07F01A26A501CA06211708F
:1016C000E08D401E80B2E085C8B92068C06820F077
:1016D00020002168C8602068C06820F480702168FC
:1016E000C8602068406920F001002168486120201E
:1016F00084F83A002046FFF73EFD002070BD002030
:10170000FCE70220FAE700002DE9F04104462068DA
:10171000006920F44050E1680843216808612169AC
:10172000A068084361690843E16940EA010520684F
:10173000C06849F20C61884328432168C86020686A
:10174000406920F44070A169084321684861E0695C
:10175000B0F5004F7ED1C4492068884203D0C34908
:10176000206888425DD1FFF7B7F800EBC00101EBBC
:10177000001061684900B0FBF1F06421B0FBF1F0AA
:101780000601FFF7A9F800EBC00101EB001061684A
:101790004900B0FBF1F7FFF79FF800EBC00101EB48
:1017A000001061684900B0FBF1F06421B0FBF1F07A
:1017B00000EBC00101EB0010A7EB8000322101EB30
:1017C000C0006421B0FBF1F000F0F80006EB400629
:1017D000FFF782F800EBC00101EB001061684900DF
:1017E000B0FBF1F7FFF778F800EBC00101EB001058
:1017F00061684900B0FBF1F06421B0FBF1F000EB4F
:10180000C00101EB0010A7EB8000322101EBC0000A
:101810006421B0FBF1F000F00700304421688860DB
:1018200020E1FFF749F800EBC00101EB001061680F
:101830004900B0FBF1F06421B0FBF1F00601FFF7C5
:101840003BF800EBC00101EB001061684900B0FB00
:10185000F1F700E045E0FFF72FF800EBC00101EBE6
:10186000001061684900B0FBF1F06421B0FBF1F0B9
:1018700000EBC00101EB0010A7EB8000322101EB6F
:10188000C0006421B0FBF1F000F0F80006EB400668
:10189000FFF712F800EBC00101EB0010616849008E
:1018A000B0FBF1F7FFF708F800EBC00101EB001007
:1018B00061684900B0FBF1F06421B0FBF1F000EB8E
:1018C000C00101EB0010A7EB8000322101EBC0004A
:1018D0006421B0FBF1F000F007003044216888601B
:1018E000C0E061492068884203D06049206888428E
:1018F0005CD1FEF7F1FF00EBC00101EB0010616865
:101900008900B0FBF1F6FEF7E7FF00EBC00101EB49
:10191000001061688900B0FBF1F06421B0FBF1F0C8
:1019200000EBC00101EB0010A6EB8000322101EBBF
:1019300000106421B0FBF1F000F0F006FEF7CCFFE0
:1019400000EBC00101EB001061688900B0FBF1F011
:101950006421B0FBF1F006EB0016FEF7BDFF00EBD3
:10196000C00101EB001061688900B0FBF1F7FEF7E0
:10197000B3FF00EBC00101EB001061688900B0FB10
:10198000F1F06421B0FBF1F000EBC00101EB0010BD
:10199000A7EB8000322101EB00106421B0FBF1F0D5
:1019A00000F00F003044216888605BE0FEF784FFA0
:1019B00000EBC00101EB001061688900B0FBF1F69B
:1019C000FEF77AFF00EBC00101EB001061688900AF
:1019D000B0FBF1F06421B0FBF1F000EBC00101EBD2
:1019E0000010A6EB8000322101EB00106421B0FB57
:1019F000F1F000F0F006FEF75FFF00EBC00101EB35
:101A0000001061688900B0FBF1F06421B0FBF1F0D7
:101A100006EB0016FEF750FF00EBC00101EB0010D3
:101A200061688900B0FBF1F7FEF746FF00EBC001EB
:101A300001EB001061688900B0FBF1F06421B0FB9C
:101A4000F1F000EBC00101EB0010A7EB80003221A8
:101A500001EB00106421B0FBF1F000F00F00304406
:101A600021688860BDE8F081001001400014014049
:101A7000014691F8390021282CD18868B0F5805FA3
:101A80000FD10A6A1088C0F308000B685860086913
:101A900018B9086A801C086209E0086A401C0862DC
:101AA00005E00B6A581C086218780B685860C88CEF
:101AB000401E80B2C88458B90868C06820F0800011
:101AC0000B68D8600868C06840F040000B68D860B8
:101AD000002070470220FCE72DE9F04104460D4646
:101AE00017469846069E21E0701CF8B12EB1FEF70D
:101AF000A3FDA0EB0800B04218D92068C06820F40C
:101B0000D0702168C8602068406920F00100216819
:101B10004861202084F8390084F83A0000BF002092
:101B200084F8380000BF0320BDE8F0812068006819
:101B30002840A84201D1012000E00020B842D3D0C3
:101B40000020F1E700BFFEE700B587B000BF00202E
:101B500001904148006840F004003F490860084691
:101B6000006800F00400019000BF00BF00BF00202B
:101B700001900846006840F00400086008460068CC
:101B800000F00400019000BF00BF00BF00200190E2
:101B90000846006840F0800008600846006800F0D1
:101BA0008000019000BF00BF00BF002001902A48C4
:101BB0001030006840F400202749103108600846C2
:101BC000006800F40020019000BF00BF08150290DB
:101BD0000220039001200490032005900820069025
:101BE00002A91E48FEF714FC4FF400600290082082
:101BF000069002A91948FEF70BFC4FF40070029002
:101C00000120039004900320059002A91448FEF7D8
:101C1000FFFB1448144908604FF4E130486000218C
:101C200011488160C16001610C2141610021816125
:101C3000C161FFF79FF9FFF716FC0B480068C06809
:101C400040F0200008490968C86001225102044898
:101C5000FEF7E6FC07B000BD303802400008024045
:101C6000001C0240004C0040B800002001B54FF6B7
:101C7000FF73012269460248FFF77EFA08BD0000A3
:101C8000B800002001B502E00098401E00900098C6
:101C90000028F9D108BD00000FB4054B10B503A909
:101CA000044A029800F064F810BC5DF814FB0000D0
:101CB000F1220008B400002002480068C0F30220AE
:101CC000704700000CED00E010B5002804DB0A07A7
:101CD000130E054A135406E00A07140E034A00F0D7
:101CE0000F031B1FD45410BD00E400E018ED00E00A
:101CF000014609B900207047C8B220B1C8B20E4AE7
:101D0000105C401CF7E701F47F4028B10A48C1F39A
:101D10000722805C0930EEE701F47F0028B1064815
:101D2000C1F30742805C1130E5E7034800EB116026
:101D300000781930DFE70000603E000802E008C8C4
:101D4000121F08C1002AFAD170477047002001E035
:101D500001C1121F002AFBD1704700000349086827
:101D6000884201D0012070470020FCE7900000204D
:101D70002DE9FF4F8DB00F460546002606E02528C9
:101D80000BD0DDE90F1290476D1C761C28780028D7
:101D9000F5D111B03046BDE8F08F0024A246A1462F
:101DA0000122EC4900E0044315F8013F203B02FA10
:101DB00003F00842F7D128782A2810D06FF02F02BC
:101DC0002878A0F13001092914D80AEB8A0102EB26
:101DD000410144F0020400EB010A6D1CF0E701CF61
:101DE0005FEA000A03D544F40054CAF1000A44F043
:101DF00002046D1C28782E2817D115F8010F44F025
:101E000004042A280ED06FF02F022878A0F13001A8
:101E100009290AD809EB890102EB410100EB01090C
:101E20006D1CF2E757F8049B6D1C28786C280FD0C6
:101E300006DC4C2817D068280DD06A2814D104E09D
:101E4000742810D07A280FD10DE044F400140AE071
:101E500044F4801401E044F440146978814202D1D2
:101E600004F580146D1C6D1C2A786E2A1FD00CDCC2
:101E7000632A31D004DC002A8BD0582A11D1A3E088
:101E8000642A68D0692A0CD165E0732A2ED004DC5C
:101E90006F2A73D0702A04D19BE0752A6FD0782AFC
:101EA0006ED01046DDE90F129047761C50E1C4F366
:101EB0000250022806D0032809D0042801CF09D0F7
:101EC000066045E101CFF117C0E9006140E101CFB3
:101ED00006803DE106703BE117F8040B8DF8000029
:101EE00000208DF80100EB46012003E057F804BB09
:101EF0004FF0FF3061074FF0000102D40DE008F110
:101F00000101884649450FDA8045F8DB1BF80810C7
:101F10000029F4D108E008F1010188468142FADB8A
:101F20001BF808100029F6D1DDE90F23AAEB080001
:101F30008146214600F036F9304400EB080604E003
:101F4000DDE90F121BF8010B9047B8F10108F7D239
:101F500021464846F7E00A21C4F302534FF0000B34
:101F60000891022B04D001CFC117032B09D00AE03E
:101F7000FF1D27F00707F7E8020108E032E01FE045
:101F800020E000B2C117042B01D140B2C117031EDB
:101F900071F1000307DA4FF0000CD0EB0C006CEB92
:101FA00001012D2302E0230504D52B238DF82430D5
:101FB000012303E0E30701D02023F7E7984658E028
:101FC0000A2110E010210EE010204FF0000B0890C5
:101FD0000CE010214FF0000B44F004044FF008090E
:101FE000089103E008214FF0000B0891C4F302535D
:101FF000022B04D001CF0021032B06D006E0FF1DE9
:1020000027F00707F7E8020103E080B2042B00D1B4
:10201000C0B24FF0000823072BD5702A07D0DDF897
:1020200020C08CF0100C5CEA0B0C05D00EE04023B5
:102030008DF82430012308E050EA010306D0302354
:102040008DF824308DF8252002239846DDF820C035
:102050008CF0080C5CEA0B0C0BD150EA010301D1A7
:10206000630706D530238DF824304FF00108A9F11D
:102070000109582A04D038A20B9208AA0A920BE050
:102080003AA2F9E75B46089AFEF722F90B9B9B5CA4
:102090000A9A521E0A92137050EA0102F2D10A986B
:1020A000ADEB000000F1200B600702D524F4803472
:1020B00001E04FF00109D94502DDA9EB0B0000E07A
:1020C000002000EB0B0141440890AAEB010AE00359
:1020D00006D4DDE90F232146504600F063F806449C
:1020E0004FF0000908E009A911F80900DDE90F1215
:1020F000904709F10109761CC145F4DBE0030CD5DA
:10210000DDE90F232146504600F04CF8064404E078
:10211000DDE90F1230209047761C0899481E089080
:102120000029F5DC08E00A980A990078491C0A9110
:10213000DDE90F129047761CBBF10001ABF1010BFA
:10214000F1DC21465046DDE90F2300F019F8064482
:102150006D1C1BE609280100303132333435363727
:1021600038396162636465660000000030313233E3
:102170003435363738394142434445460000000083
:102180002DE9F041044600251E461746880404D474
:1021900005E039462020B0476D1C641EF9D528465D
:1021A000BDE8F0812DE9F041044600251E46904629
:1021B000C80301D5302700E02027880404D505E0B6
:1021C00041463846B0476D1C641EF9D52846BDE827
:1021D000F08100002DE9FC5F04468B4615461E4643
:1021E000DDE90C9ADDE90E7804F11400406000602E
:1021F00000BF1C346560A660C4F80C90C4F810A041
:102200002321D4E9030200F08FFED4E9033C6344A8
:102210001A1F0F4BD4E9010100F0E0FC2060A77603
:1022200067760020E061C4F82080C4F824806061F3
:1022300020766065A0651C3C00902346054A214637
:10224000019004F1440001F08FFB0020BDE8FC9FE9
:1022500089350008D53700082DE9F04704460E46B9
:1022600017469846DDF8209084F80990607A20F0AF
:1022700001006072E66127620020A062C4F8248039
:10228000002506E004F1140101EBC50000F054FD47
:102290006D1C012DF6DBBDE8F08710B5024600206D
:1022A00001460EE002F1140303EBC100D0E9004344
:1022B0006360D0E9003423604060006000BF481CC8
:1022C00001460129EEDB10BD40F201400021064A23
:1022D000118005E00022411E89B20846034B5A5482
:1022E0000028F7D1704700001C000020F8000020F3
:1022F00013B50C464FF47A73012269460248FEF783
:102300003BFF00981CBD0000F80400200146024875
:1023100000880880014870471C000020F800002059
:102320003BE001211D48FFF70DF8002832D04FF0A7
:1023300000401A4988614FF47A70FFF7A3FC00222D
:102340004FF400711648FEF76BF94FF47A70FFF7FF
:1023500099FC002404E0E0B2FFF788FC601C84B222
:10236000FF2CF8DDC82001F008F94FF47A70FFF770
:1023700089FC012251020A48FEF752F94FF47A70A3
:10238000FFF780FC4FF480200649886106A0FFF724
:1023900083FC00BF0A2001F0F0F8C2E70000024011
:1023A000001C0240001002400D0AB7A2CBCDCAFDAE
:1023B000BEDDB3C9B9A6A3A10D0A000008B5FFF799
:1023C000C3FB2BA0FFF768FC33A0FFF765FC3AA026
:1023D000FFF762FC3CA0FFF75FFC4548FFF75CFCA1
:1023E0004448FFF759FC4448FFF756FC3FE04FF0E4
:1023F000FF314248006800F018FF6846FFF786FF8B
:102400000546BDF80000FF2831DB4FF000403C4995
:102410008861400B3B49886140033B490860C00923
:102420003A490860BDF8001039A0FFF735FC00BF3D
:102430002E463EA0FFF730FC00240EE0315D41A0A7
:10244000FFF72AFC601C0A2190FBF1F201FB12004D
:1024500010B93EA0FFF720FC641CBDF800008442C8
:10246000ECDB3AA0FFF718FC00BFFFF72DFFBEE73B
:102470000D0A20BBB6D3ADCAB9D3C3D2B0BBF020CE
:102480002053544D3332204634303720BFAAB7A2F0
:10249000B0E5A1A30D0A00000D0A20D2B0BBF046A2
:1024A000343037205253343835CDA8D1B6CAB5D1DF
:1024B000E9C0FDB3CC0D0A000D0A20CAB5D1E9B2BE
:1024C000BDD6E8A3BA0D0A000D0A20312ECAB9D331
:1024D000C3B5BCCFDFC1ACBDD3BAC3C1BDB8F63440
:1024E0003835CDA8D1B6C9E8B1B80D0A0000000052
:1024F0001C400008D03F0008843F0008180000205E
:102500000000024000100240181802401804024067
:102510000D0ABDD3CAD5B5BDB3A4B6C8CEAA25642D
:10252000B5C4CAFDBEDD0D0A000000003C3C2D5FB5
:102530003438352D44454255472D41525241592D8D
:102540003E3E0A0025303278202020000A0000009C
:102550001CB520A000F0D2FB0022114629A000F0FB
:102560001FFE2B4908600846006810B129A000F042
:10257000C5FB142003214FF400730022CDE90010A5
:1025800029492AA000F0D1FF2A49086008460068BE
:1025900020B10846006801F0E5F802E04FF0FF3096
:1025A0001CBD142002210B020022CDE9001022499B
:1025B00022A000F0BAFF224908600846006820B156
:1025C0000846006801F0CEF802E04FF0FF30E7E780
:1025D0000020E5E7D5E2CAC7D2BBB8F65BD2B0BBF4
:1025E000F05D2D53544D33322D5254542D525334EB
:1025F0003835CDA8D0C5B2E2CAD4CAB5D1E9A3A1B5
:102600000A000000746573745F73656D000000005C
:1026100018000020D0C5BAC5C1BFB4B4BDA8B3C9A5
:10262000B9A6A3A10A0A0000BD2300086C656431A5
:102630000000000010000020212300086B657900D5
:102640001400002010B5044600F02AF9FFF780FFBF
:1026500010BD000030B51A4C43682468191988422F
:1026600015D04B889BB9174B1B6899420FD0164B5E
:102670001B688B4201D1144B18604B684360104BB0
:102680001B68C31A0E4D4C682D682C44A3600C4C7B
:10269000836824681A19824211D053887BB90A4B87
:1026A0001B68834201D1084B1A6043685360044B96
:1026B0001B68D31A024D44682D682C44A36030BDBA
:1026C000280000202C000020300000202DE9F04FD1
:1026D00085B00D469C46DDE90F740E9B04F0400862
:1026E000B8F1000F02D0DFF8688101E0DFF8648103
:1026F000CDF8008004F01008B8F1000F01D024F0EC
:10270000010404F00108B8F1000F02D04FF03008C6
:1027100001E04FF02008C246002604F00208B8F19C
:10272000000F11D0002A02DA2D2652420CE004F0EC
:102730000408B8F1000F01D02B2605E004F00808CA
:10274000B8F1000F00D02026002142B94FF0300B25
:102750008846491C0DF1040909F808B01DE01AE08B
:10276000E146B9F10A0F08D14FF00A0BB2FBFBFEAC
:102770000BFB1E28B2FBFBF202E002F00F0812096D
:1027800000BFDDF8009019F808B08846491C0DF12B
:10279000040909F808B0002AE2D1B94200DD0F4669
:1027A000DB1B04F01108B8F1000F10D116B1002B9B
:1027B00000DD5B1E06E0A84203D84FF0200880F839
:1027C0000080401CB3F10008A3F10103F3DC26B143
:1027D000A84201D806705B1E401C04F01008B8F136
:1027E000000F0AD104E0A84201D880F800A0401CE4
:1027F000B3F10008A3F10103F5DC06E0A84203D819
:102800004FF0300880F80080401CB8467F1E884595
:10281000F4DC08E0A84205D80DF1040818F801809E
:1028200080F80080401CB1F10008A1F10101F1DC49
:1028300006E0A84203D84FF0200880F80080401C32
:10284000B3F10008A3F10103F3DC05B0BDE8F08F9C
:10285000713F0008603F00081CB5142002210B02E4
:102860000022CDE90010044904A000F05EFE0446F9
:10287000204600F077FF1CBD452600086D61696E9B
:102880000000000010B5044C02E020688047241DC1
:1028900002488442F9D310BD644000086840000833
:1028A00010B5044C02E020688047241D0248844291
:1028B000F9D310BD684000086C40000810B5FDF762
:1028C0007FFC044604480088401C00B2024908808E
:1028D0002046FDF779FC10BD8000002010B5FDF703
:1028E0006FFC04460B480088401E00B2094908806E
:1028F0000846B0F90000002807DC002008802046C8
:10290000FDF762FC00F0B2FB02E02046FDF75CFC44
:1029100010BD00008000002070B5054605B970BDEF
:102920001D480068854203D31C480068854200D3D7
:10293000F5E7A5F10C044FF0FF31194800F075FCE4
:10294000608818B12088B0F5F55F08D015A000F0B8
:10295000D5F923886288214619A000F0CFF900201C
:1029600060804FF4F550208021480068844201D2F5
:102970001F480460084960680968611A401A1D49C7
:102980000968081A1B4908602046FFF763FE0448DF
:1029900000F02EFC00BFC2E7280000202C00002021
:1029A00030170020746F20667265652061206261B7
:1029B00064206461746120626C6F636B3A0A00008A
:1029C0006D656D3A203078253038782C2075736528
:1029D0006420666C61673A2025642C206D6167690C
:1029E0006320636F64653A203078253034780A00BC
:1029F00030000020380000200048704738050020D3
:102A0000004870473815002070B51D4800684FF425
:102A10007A72B0FBF2F1481EB0F1807F00D31BE068
:102A2000481E4FF0E022506150170F22002804DBAF
:102A300013071C0E134B1C5406E013071D0E124BFC
:102A400000F00F04241F1D5500BF00204FF0E022AE
:102A500090610720106100BFFEF718FDFEF786FCAD
:102A6000FEF7F6FBFDF7A0FCFFF70CFFFFF7C8FF32
:102A70000446FFF7C1FF0546214600F08DFC70BDFE
:102A80000000002000E400E018ED00E038B5044646
:102A9000FFF714FF14E020780A2809D10D200090D8
:102AA0004FF47A73012269460848FEF765FB00BFC0
:102AB0002146641C4FF47A7301220448FEF75CFB44
:102AC00020780028E7D1FFF709FF38BDF80400207F
:102AD00070B504461948006838B12046174909689E
:102AE0008847054605B970BD00BF15A0E16900F033
:102AF00005F917A0A16900F001F919A0616900F0BA
:102B0000FDF81BA0216900F0F9F81DA0E16800F0B4
:102B1000F5F81FA0A16800F0F1F821A0616800F0AD
:102B2000EDF823A0216800F0E9F800F0F3FD054678
:102B3000294623A000F0E2F800BFFEE7B000002025
:102B40007073723A203078253038780A000000001F
:102B50002070633A203078253038780A0000000071
:102B6000206C723A203078253038780A0000000056
:102B70007231323A203078253038780A000000006F
:102B80007230333A203078253038780A000000005F
:102B90007230323A203078253038780A0000000050
:102BA0007230313A203078253038780A0000000041
:102BB0007230303A203078253038780A0000000032
:102BC00068617264206661756C74206F6E20746831
:102BD000726561643A2025730A000000F0B504466E
:102BE0000D461646301D20F00700443801460022ED
:102BF00003E00D4F41F82270521C112AF9D34D62A7
:102C00004FF0000CC1F828C0C1F82CC0C1F830C08A
:102C1000C1F834C08B63CC634FF0807CC1F840C0F6
:102C200000270F60F0BD0000EFBEADDE10B5FDF770
:102C3000C7FA044604480078401C0349087020463F
:102C4000FDF7C2FA10BD00002400002010B5FDF70A
:102C5000B7FA044604480078401E0349087020462D
:102C6000FDF7B2FA10BD00002400002070B5044644
:102C70002068A0F11405284600F02EFD002070BD4C
:102C80002DE9F04105460C469046204600F080FDB7
:102C9000B8F1000F03D0B8F1010F23D105E004F122
:102CA0001401284600F060F81CE02E680FE0A6F141
:102CB000140794F8350097F83510884206DA04F1C5
:102CC000140107F1140000F04FF802E03668AE423C
:102CD000EDD100BFAE4204D104F11401284600F04A
:102CE00043F800BF00BF0020BDE8F08110B50446E6
:102CF00004F1140000F01AF8002010BD0FB438B52C
:102D000005A800907F210848009B049A00F0D8FE97
:102D100004467F2C00D97F240348FFF7B7FE00202C
:102D2000009038BC5DF814FBB016002040600060D5
:102D30007047406000607047406000607047026804
:102D4000516002680A600160486070470268516023
:102D500002680A600160486070470268516002685A
:102D60000A600160486070474268116042684A60CA
:102D700041600860704701460868884201D101201F
:102D800070470020FCE701460868884201D1012015
:102D900070470020FCE7D0E900215160D0E9001223
:102DA0001160406000607047D0E900215160D0E9B7
:102DB0000012116040600060704700002DE9F04192
:102DC000054615B90020BDE8F081E81C20F0030598
:102DD0004E480068854201D90020F4E70C2D00D24E
:102DE0000C254FF0FF314A4800F01FFA49480068AF
:102DF00049490968461A7EE0474800688419608896
:102E0000002874D106F10C006168081AA8426ED33C
:102E100006F10C006168091A05F11800814230D3EF
:102E200006F10C0000EB05083B48006800EB0807C2
:102E30004FF4F55038800020788060687860BE607C
:102E4000C4F80480012060803048796800680C3044
:102E5000814205D03049786809680844C0F8088084
:102E60002E48016805F10C0008442C4908602C48E4
:102E700000680968884219D2284800682849086013
:102E800014E001206080244960680968611A401AD2
:102E900022490968084421490860214800680968F6
:102EA000884203D21D4800681D4908604FF4F55060
:102EB000208018480068844212D107E01548006855
:102EC00040681549096808441249086011480068BB
:102ED000408828B10F480068124909688842EDD13E
:102EE0000B4800F085F904F10C006CE7FFE70A4895
:102EF00000683044466805480068401BB0423FF611
:102F00007BAF034800F074F900205CE73400002038
:102F1000301700203000002028000020380000205A
:102F20003C0000202C000020F0B50C460546E6B21F
:102F3000042A15D300F0030797B9014646EA062391
:102F400043EA034304E008C108C108C108C1103ABC
:102F5000102AF8D201E008C1121F042AFBD20D4644
:102F600001E005F8016B171EA2F10102F9D1F0BDD5
:102F70002DE9F04105460F46284600F03BF806468D
:102F8000F068FFF71BFF044614B90020BDE8F0818C
:102F900025720020607208223946204600F0E1F9CF
:102FA000FDF70EF9804604F10C01301DFFF7C7FE56
:102FB0004046FDF709F92046E8E770B50446FDF7FD
:102FC000FFF8054604F10C00FFF7E5FE2846FDF783
:102FD000FBF82046FFF7A0FC70BD70B50446FDF776
:102FE000EFF8054604F10C00FFF7D5FE2846FDF783
:102FF000EBF870BD024600210AE0074800EB011023
:103000000078904203D1044800EB01107047491C3E
:103010000429F2DB0020F9E7400000202DE9F0410F
:1030200004460D4616462846FFF7E4FF074645F0DE
:103030008000207208223146204600F092F9FDF708
:10304000BFF8804604F10C01381DFFF778FE4046BA
:10305000FDF7BAF8BDE8F0810146087A00F080007B
:1030600008B1012070470020FCE700002DE9F04185
:10307000FDF7A6F807461B48008868BB1A48006899
:10308000FEF736FE461E194850F83600A0F114042B
:103090001748006884421BD016490E701448056812
:1030A00004601548007848B904F11C0105F11C00C2
:1030B000FDF78DF83846FDF787F80CE004F11C01A8
:1030C00005F11C00FDF783F83846FDF77DF802E0B6
:1030D0003846FDF779F802E03846FDF775F8BDE8A7
:1030E000F0810000800000208C000020501700209C
:1030F00084000020880000202400002070B50446D1
:10310000FDF75EF8054614F8340F20F00F0040F08C
:10311000010020706278343C0A4B03EBC20004F1DA
:1031200014014268116042684A604160086000BF53
:103130000549A06B09680843034908602846FDF764
:1031400043F870BD501700208C00002070B5044675
:10315000FDF736F8054604F11400D0E9002151606E
:10316000D0E9001211604060006000BF94F8351093
:10317000094A02EBC1000168814201D1012100E04E
:10318000002129B10548A16B006888430349086004
:103190002846FDF719F870BD501700208C0000205C
:1031A0002DE9F04105460E46174629460120FFF756
:1031B000DFFE044614B92046BDE8F0812046FFF743
:1031C00095FDA68367722046F6E72DE9F041044697
:1031D0000D4616461F462A4601212046FFF71EFFD0
:1031E0002046FFF783FDA68367720020BDE8F081CB
:1031F00070B504460025FCF7E3FF064604F1140011
:10320000FFF7B9FD28B904F11400FFF72FFD0125E0
:1032100002E0A08B401CA0833046FCF7D5FF012DB7
:1032200001D1FFF723FF002070BD73B50546FCF701
:10323000C7FF0646A88B002806DDA88B401EA88382
:103240003046FCF7C1FF28E0019828B93046FCF76A
:10325000BBFF6FF001007CBD00F05CFA044600206B
:1032600020636A7A214605F11400FFF709FD0198F1
:10327000002809DD01AA002104F1440000F048FB08
:1032800004F1440000F088FB3046FCF79DFFFFF797
:10329000EDFE206B08B1206BDDE70020DBE70000CE
:1032A00008B509A0FFF72AFD0AA0FFF727FD12A025
:1032B000032300221946009012A0FFF71FFD19A05A
:1032C000FFF71CFD08BD00000A205C207C202F0AAF
:1032D000000000002D205254202D202020202054BA
:1032E0006872656164204F7065726174696E6720F1
:1032F00053797374656D0A004A756C20203820324A
:1033000030323000202F207C205C202020202025FF
:10331000642E25642E2564206275696C64202573F3
:103320000A0000002032303036202D203230313873
:1033300020436F70797269676874206279207274B3
:103340002D746872656164207465616D0A00000007
:1033500001460A4600E0521C10780028FBD1501AA2
:10336000704770B50346A2B118460C4600BF14F86A
:10337000016B00F8016B3EB902E0002500F8015B2B
:10338000551E2A1EF9D102E0551E2A1EEFD100BF9C
:1033900000BF184670BD00002DE9F04105460E46FD
:1033A000E81C20F0030726F00308B8F1180F09D92C
:1033B000A8F11800B84205D3A8EB070018381E4939
:1033C000086006E0324629461CA0FFF797FCBDE8DE
:1033D000F0812948076004684FF4F55020801648B2
:1033E00000680C3060600020A06060802249606846
:1033F00009680844214908604FF4F55009680880BD
:1034000001201E49096848800B4800680C301B49A0
:1034100009684860084800680C30184909688860E5
:103420000023012216A11848FFF7CFFE12480068BA
:103430001649086000BFCAE7340000206D656D20A2
:10344000696E69742C206572726F7220626567699B
:103450006E206164647265737320307825782C2047
:10346000616E6420656E64206164647265737320AC
:10347000307825780A000000280000202C00002069
:1034800068656170000000003017002030000020E7
:1034900010B500200B490880002405E00A4901EB23
:1034A000C400FFF746FC641C082CF7DB0720074923
:1034B0000870002006490860064908600648FFF7C2
:1034C00038FC10BD8000002050170020880000202C
:1034D000840000208C0000209000002070B5084877
:1034E0000068FEF705FC451E064850F83500A0F1BF
:1034F00014040548046004F11C00FCF7AEFE70BD26
:103500008C000020501700208400002010B50024FB
:1035100005E0044901EBC400FFF70EFC641C002C1D
:10352000F7D010BD9800002070472DE9FF5F0646D8
:103530000F4690461D46DDE90EAB31460020FFF7F1
:1035400017FD8146B9F1000F03D1002004B0BDE89A
:10355000F09F2846FFF732FC044624B94846FFF79F
:103560002CFD0020F2E743463A46314648468DE8B6
:10357000300CFEF72FFE4846E8E710B5044620461B
:1035800000F0CEF810BD000070B512480468FCF7DA
:1035900017FE05462046FFF7D9FD042084F83400C5
:1035A00004F1440000F0D0F92046FFF755FD012852
:1035B00005D1206F18B92046FFF70FFD04E004F194
:1035C00014010548FFF7C2FB2846FCF7FDFDFFF795
:1035D0004DFD70BD840000209000002001E000F04F
:1035E00001F8FCE770B537E0FCF7EAFD0546FEF7A9
:1035F000B5FB18B31B480068A0F1140404F11400D3
:10360000D0E900215160D0E90012116040600060F3
:1036100000BFFFF753F9206F10B12046216F884794
:103620002046FFF719FD012805D1FFF757F9284675
:10363000FCF7CAFD70BDFFF751F903E02846FCF71F
:10364000C3FDF7E72846FCF7BFFDA06AFFF764F962
:103650002046FFF7B2FC00BFFEF780FB0028C3D175
:1036600000BFE7E7900000201FB520200721C2001F
:10367000074BCDE90032CDE902100023054A06A12F
:10368000074800F00FF8064800F06CF81FBD000076
:10369000B0150020DD3500087469646C6500000019
:1036A000381500202DE9FF5F05460C4616461F46DB
:1036B000DDE910ABDDE90E89224600212846FFF73F
:1036C000ADFC3B463246214628468DE8000FFEF70A
:1036D00081FD04B0BDE8F09F70B5044694F8340055
:1036E00000F00F00022802D04FF0FF3070BDFCF751
:1036F00067FD054604F11400FFF756FB04F1440092
:1037000000F0C6F92846FCF75FFD2046FFF7F6FCFF
:103710000020EBE7014800687047000084000020AB
:1037200031B5FCF74DFD05460D480468204600F014
:103730002FF86A46002104F1440000F0E9F804F192
:10374000440000F029F92846FCF73EFDFFF78EFC07
:10375000206B801C08B900202063002038BD0000C9
:103760008400002010B504463434A078607061787D
:10377000012088406060022004F834092046FFF7E9
:10378000ABFFFFF7C7FF08B1FFF770FC002010BDCB
:1037900070B5044694F8340000F00F00012802D000
:1037A0004FF0FF3070BDFCF70BFD054694F8340078
:1037B00020F00F0040F0020084F834002046FFF7AC
:1037C000C5FC04F1440000F063F92846FCF7FCFC5A
:1037D0000020E7E770B5044625466FF00100286336
:1037E00005F11400FFF7E0FA2846FFF787FCFFF722
:1037F0003DFC70BD70B5FCF7E3FC05461448046859
:1038000094F8340000F00F0001281CD1D4E9051011
:10381000814218D004F11400FFF7C6FA94F835205D
:103820000C4B03EBC20004F11401426811604268C2
:103830004A604160086000BF2846FCF7C5FCFFF7FE
:1038400015FC002070BD2846FCF7BEFC0020F9E7FF
:1038500084000020501700200148006870470000D5
:103860002000002010B50A480068401C0849086084
:10387000FFF750FF0446206C401E2064206C18B9EE
:10388000E06B2064FFF7B6FF00F004F810BD000005
:103890002000002070B5FFF7DFFF0546FCF790FC25
:1038A000064628E019480068A0F11404A06A281A06
:1038B0006FF0004188421DD22046FEF7EEFCD4E9AD
:1038C00007108847FFF7C8FF0546607A00F002003E
:1038D00058B1607A00F0010038B1607A20F0010040
:1038E0006072204600F058F805E0607A20F0010090
:1038F000607200E004E00548FFF745FA0028D1D0E7
:1039000000BF3046FCF760FC70BD0000980000204E
:10391000034649B1012904D0022908D0032910D156
:103920000AE0586A10600CE01068586209E0587AA2
:1039300020F00200587204E0587A40F002005872F9
:1039400000BF00BF0020704770B50446FCF738FC8C
:1039500005462046FEF7A1FC2846FCF735FC20462C
:10396000FFF73BFB002070BD2DE9F84307460C46EE
:1039700015461E46DDE90889224609213846FFF72B
:103980004DFB4346324629463846CDF80090FEF7B7
:1039900063FCBDE8F88300002DE9F8430546FCF719
:1039A0000FFC80462846FEF778FC687A20F001007C
:1039B00068724046FCF708FCFFF74EFF696A08444E
:1039C000A862FCF7FDFB80462F4F009700242AE0F9
:1039D00019E05DF824201168142202EBC402881A51
:1039E000826AAB6AD21A00D108E0826AAB6AD21A44
:1039F0006FF000439A4200D20CE000BF5DF8240053
:103A000000684DF824005DF8240007EBC401496804
:103A10008842DED100BF2CB15DF824000830611C63
:103A20004DF82100641C002CD2D018480068401CBE
:103A3000164908600846066805F114010098FFF76A
:103A40008CF9022412E006F0030060B9C4F101030E
:103A500005F1140202EBC301C4F101025DF822007A
:103A6000FFF77BF900E003E0B608641C012CEAD9FB
:103A700000BF687A40F0010068724046FCF7A4FB82
:103A80000020BDE8F883000098000020A00000207E
:103A900070B50446607A00F0010010B94FF0FF30B5
:103AA00070BDFCF78DFB05462046FEF7F6FB284669
:103AB000FCF78AFB607A20F0010060720020EFE7DB
:103AC0002DE9FF4F89B0804644460A984044461E7F
:103AD000464504D24FF0FF36A6EB08000A906FE18E
:103AE0000B980078252806D0B44202D80B980078AD
:103AF0002070641C61E1002526E00B98401C0B90AF
:103B00000B9800782D2802D145F010051CE00B9889
:103B100000782B2802D145F0040515E00B980078B9
:103B2000202802D145F008050EE00B9800782328E4
:103B300002D145F0200507E00B980078302802D12B
:103B400045F0010500E000E0D7E700BF4FF0FF3788
:103B50000B98007830380A2804D20BA800F061F9DD
:103B600007460EE00B9800782A280AD10B98401CD3
:103B70000B900C9880C80C90002F02DA7F4245F021
:103B800010054FF0FF390B9800782E281CD10B98A8
:103B9000401C0B900B98007830380A2804D20BA8F0
:103BA00000F03FF981460AE00B9800782A2806D1F8
:103BB0000B98401C0B900C9850F8049B0C90B9F19A
:103BC000000F01DA4FF00009002004900B980078F4
:103BD000682803D00B9800786C2805D10B980078E2
:103BE00004900B98401C0B900A2005900B980078CD
:103BF0006F2875D00CDC632813D004DC252870D026
:103C000058286FD18DE064286DD06928F9D18FE0F4
:103C100070286AD0732825D0752878D07828F0D1FC
:103C200082E005F0100040B904E0B44201D8202041
:103C30002070641C781E071EF7DC0C9810F8041B1B
:103C40000C90C8B20790B44201D807982070641C49
:103C500004E0B44201D820202070641C781E071EA6
:103C6000F7DCAAE00C98006806900C98001D0C90F8
:103C7000069808B95AA006900698FFF769FB834694
:103C8000B9F1000F02DDCB4500DDCB4605F0100099
:103C900048B904E0B44201D820202070641C3846A2
:103CA0007F1E5845F6DC002008900BE0B44202D895
:103CB000069800782070641C0698401C06900898AE
:103CC000401C089008985845F0DB04E0B44201D845
:103CD00020202070641C38467F1E5845F6DC6CE0BE
:103CE0001CE015E028E022E0FFE7781C10B9082767
:103CF00045F00105CDE9007902950C9804C8102320
:103D000031460C902046FEF7E1FC044655E012E0F7
:103D1000B44201D825202070641C4EE00820059094
:103D20001DE045F0400500BF1020059017E000BFE2
:103D300045F0020500BF12E0B44201D825202070F2
:103D4000641C0B98007830B1B44202D80B9800780C
:103D50002070641C02E00B98401E0B902DE000BF09
:103D600004986C2807D10C9850F804AB0C9005F01F
:103D70000200B8B116E0049868280BD10C9830F80E
:103D8000041B1FFA81FA0C9005F0020050B10FFAE3
:103D90008AFA07E00C9850F804AB0C9005F002008A
:103DA00000B100BFCDE90079029552463146204668
:103DB000059BFEF78BFC044600BF0B98401C0B9044
:103DC0000B98007800287FF48BAEB44201D82070A5
:103DD00001E000203070A4EB08000DB0BDE8F08FCA
:103DE000284E554C4C290000002070470020704799
:103DF000002070470020704710B5FCF7E1F9FEF78E
:103E000003FEFFF74DFAFFF781FBFFF741FBFEF7DB
:103E100023FDFFF789FBFFF727FCFFF75FFB00207F
:103E200010BD0146002009E00B685A1C0A601A7890
:103E300000EB800302EB4302A2F130000A68127823
:103E4000303A0A2AF0D3704700000000000000005A
:103E50000102030406070809000000000102030430
:103E60000000010002000100030001000200010047
:103E70000400010002000100030001000200010033
:103E80000500010002000100030001000200010022
:103E90000400010002000100030001000200010013
:103EA0000600010002000100030001000200010001
:103EB00004000100020001000300010002000100F3
:103EC00005000100020001000300010002000100E2
:103ED00004000100020001000300010002000100D3
:103EE00007000100020001000300010002000100C0
:103EF00004000100020001000300010002000100B3
:103F000005000100020001000300010002000100A1
:103F10000400010002000100030001000200010092
:103F20000600010002000100030001000200010080
:103F30000400010002000100030001000200010072
:103F40000500010002000100030001000200010061
:103F50000400010002000100030001000200010052
:103F600030313233343536373839616263646566EF
:103F700000303132333435363738394142434445E5
:103F8000460000000D0A20342EC8F4BFAAB7A2B024
:103F9000E5B5C4343835BDD3CAD5B5BD323536B82C
:103FA000F6D7D6BDDACAFDBEDDA3ACBBE1B0D1CA3F
:103FB000FDBEDDD2D43136BDF8D6C6D0CECABDB432
:103FC000F2D3A1B3F6C0B4A1A3200D0A00000000F3
:103FD0000D0A20332ED7BCB1B8BAC3BAF3A3ACB024
:103FE000B4CFC2C6E4D6D0D2BBB8F6BFAAB7A2B08F
:103FF000E5B5C44B455931BCFCA3ACBBE1CAB9D350
:10400000C3343835CFF2CDE2B7A2CBCD302D323527
:1040100035B5C4CAFDD7D6200D0A00000D0A2032DE
:104020002EC8F4CAB9D3C3C1BDB8F6D2B0BBF0BF75
:10403000AAB7A2B0E5BDF8D0D0CAB5D1E9A3ACB853
:10404000F8C1BDB8F6BFAAB7A2B0E5B6BCCFC2D41E
:10405000D8B1BEB3CCD0F2BCB4BFC9A1A30D0A0085
:10406000F53D0008ED3D0008E93D0008F13D000880
:104070009040000800000020B80000003C1D00082F
:1040800048410008B8000020D81A00004C1D000864
:104090000024F400000000001000000001000000F7
:1040A000000000000000000000000000010000000F
:1040B0000000000000000000000000000000000000
:1040C00000000000000000000000000000000000F0
:1040D00000000000440000204400002078000000A0
:1040E00001000000540000205400002020000000C7
:1040F0000400000064000020640000203000000084
:104100000900000074000020740000202C00000052
:10411000000000000000000000000000000000009F
:10412000000000000000000000000000000000008F
:10413000000000000000000000000000000000007F
:08414000000000000000000077
:040000050800018965
:00000001FF
