:020000040800F2
:10000000081800209D010008ED1C0008A30200084C
:10001000E91C0008B5090008ED22000800000000F6
:10002000000000000000000000000000E11D0008CA
:10003000F509000800000000EF010008E31D0008BA
:10004000B7010008B7010008B7010008B7010008B0
:10005000B7010008B7010008F7090008B701000858
:10006000B7010008B7010008B7010008B701000890
:10007000B7010008B7010008B7010008B701000880
:10008000B7010008B701000845080008B7010008DB
:10009000B7010008B7010008B7010008B701000860
:1000A000B7010008B7010008B7010008B701000850
:1000B000B7010008B7010008B7010008B701000840
:1000C000B7010008B7010008B7010008B701000830
:1000D000B7010008B7010008B7010008B701000820
:1000E000B7010008B7010008B7010008B701000810
:1000F000B7010008B7010008B7010008B701000800
:10010000B7010008B7010008B7010008B7010008EF
:10011000B7010008B7010008B7010008B7010008DF
:10012000B7010008B7010008B7010008B7010008CF
:10013000B7010008B7010008B7010008B7010008BF
:10014000B7010008B7010008B7010008B7010008AF
:10015000B7010008B7010008B7010008B70100089F
:10016000B7010008B7010008B7010008B70100088F
:10017000B7010008B7010008B7010008000000003F
:10018000B7010008B7010008DFF80CD000F0D2FA80
:100190000048004737080008081800200648804734
:1001A00006480047FEE7FEE7FEE7FEE7FEE7FEE75C
:1001B000FEE7FEE7FEE7FEE7B51E0008890100083E
:1001C000EFF3108072B6704780F3108870473A4A98
:1001D0001368012B04D04FF001031360374A1060FD
:1001E000374A116037484FF0805101607047EFF394
:1001F000108272B63048016851B34FF000010160BF
:100200002E48016891B1EFF309811EF0100F08BF6D
:1002100021ED108B21E9F00F4FF000041EF0100FBC
:1002200008BF012441F8044D0068016024490968B1
:10023000096808C9B1E8F00F002B18BFB1EC108BAA
:1002400081F309884EF0100E002B18BF2EF0100E0F
:1002500082F310884EF0040E704719490860EFF3DE
:10026000148222F0040282F3148814494FF0000033
:10027000086011494FF00100086013484FF47F01F6
:10028000D0F8002041EA020101600E484FF0805191
:1002900001600E480068006880F3088861B662B6A5
:1002A0007047EFF3098000B503F090F85DF804EBB8
:1002B0004EF0040E70470000AC000020A4000020A7
:1002C000A800002004ED00E020ED00E008ED00E0D3
:1002D0002DE9F05F0546002092469B46884606467B
:1002E000814640241BE0284641464746224600F00E
:1002F00058F853465A46C01A914110D31146184631
:10030000224600F03FF82D1A67EB01084F462246BF
:100310000120002100F036F817EB00094E41201EA5
:10032000A4F10104DFDC484631462A464346BDE8D5
:10033000F09F00F0004230F000400AD0C10D01F5FE
:100340006071C0F3160042EA0151C2084007114330
:10035000704700200146704730B50B46014600202B
:100360002022012409E021FA02F59D4205D303FA77
:1003700002F5491B04FA02F52844151EA2F10102F8
:10038000F1DC30BD202A04DB203A00FA02F1002023
:1003900070479140C2F1200320FA03F319439040C3
:1003A0007047202A04DB203A21FA02F0002170472E
:1003B00021FA02F3D040C2F12002914008431946CD
:1003C00070472DE9FE4F804681EA0300C00F0C46BE
:1003D000009021F0004123F00045B8EB0200A94154
:1003E00005D24046214690461C460B46024623F065
:1003F0000040104347D0270DC7F30A00C3F30A514A
:100400000290401A019040286BDAC3F3130040F4C5
:10041000801B0098924620B10023D2EB030A63EBC5
:100420000B0B01985946C0F140025046FFF7AAFF56
:1004300006460D4650465946019A00F08DF910EBDC
:1004400008006141002487EA115284EAE7731A43E5
:1004500040D0009A62B3019A012A4FEA075215DC94
:10046000001B61EB02014FF0004202EA0752CDE9A6
:100470000042001C41F5801132462B4600F08DF9F8
:1004800003B0BDE8F08F40462146F9E7001B61EB61
:100490000201001C41F5801300185B412018A2F5F1
:1004A000001747EB030140EAD570B6196D4111E022
:1004B0006D084FEA360645EAC0754FEA0752001B41
:1004C00061EB0201001C41F5801149084FEA300040
:1004D0000019514132462B4603B0BDE8F04F00F001
:1004E0004DB90098012240000023D0EB020263EBDB
:1004F000E073009821464FEAE074B8EB000061EB2E
:100500000401E9E783F000435BE781F0004158E72D
:100510002DE9FE4F81EA030404F0004421F000417C
:1005200000944FF0000B23F0004350EA01045ED02A
:1005300052EA03045BD0C3F30A54C1F30A552C44B6
:10054000A4F2F3340194A0FB0254C1F3130141F46B
:100550008011C3F3130343F4801301FB024400FB37
:10056000034E840A970A44EA815447EA8357A4FB5E
:10057000076802958D0A05FB07854FEA932C04FB5B
:100580000C542705029D4FEA065847EA1637B5EB8B
:1005900008056EEB070C870E920E47EA811742EAB8
:1005A0008312A7FB0201B6EB0B0164EB00042B0DD9
:1005B00043EA0C335E1844EB1C50DA465146E7FB25
:1005C0000201C5F313044FEA0B3343EA14534FEA15
:1005D0000432019C43EA0603A4F10C040294009C3B
:1005E000CDE900B400F0D9F803B0BDE8F08F0020E9
:1005F0000146F9E72DE9F04D81EA030404F0004BD0
:1006000021F0004514464FF0000A23F0004150EA63
:10061000050220D054EA01021DD0C5F30A57024654
:10062000C5F31303C1F31300C1F30A5640F4801558
:1006300043F48013A7EB0608101BD64608F2FD38DA
:1006400073EB050002D308F1010801E092185B4149
:10065000B8F1000F03DA00200146BDE8F08D00205C
:100660004FF48011064684460EE0171B73EB050716
:1006700005D3121B63EB050306434CEA010C490842
:100680004FEA300092185B4150EA0107EDD152EA7F
:10069000030012D082EA040083EA0501084305D072
:1006A000101BAB4106D20122002306E000224FF0CE
:1006B000004302E06FF0010253101AEB06004CEB0E
:1006C000085110EB0A0041EB0B01BDE8F04D00F0C2
:1006D00055B8C1F30A52C1F3130140F2FF3341F49C
:1006E00080119A4202DA00200146704740F23343FB
:1006F0009A42A2F2334202DC5242FFF752BEFFF7A7
:1007000041BE000030B5041E71F1000404DB4FF05F
:100710000044404264EB0101141E73F1000405DB48
:100720001C464FF00043524263EB0403994208BF5A
:10073000904230BD064C074D06E0E06840F00103F2
:1007400094E8070098471034AC42F6D3FFF720FD39
:100750006448000884480008202A06DBCB17203AAA
:1007600041FA02F043EAE07306E041FA02F3D040B6
:10077000C2F12002914008431946704710B5141E7B
:1007800073F1000408DA401C41F1000192185B414A
:100790001A4301D120F0010010BD2DE9F04D924621
:1007A0009B4611B1B1FA81F202E0B0FA80F2203238
:1007B0009046FFF7E7FD04460F4640EA0A0041EA8B
:1007C0000B0153465A46084313D0114653EA010021
:1007D00019D0C8F140025046FFF7E3FD05460E462A
:1007E000504659464246FFF7CDFD084305D001204B
:1007F00004E020463946BDE8F08D0020054346EA76
:10080000E0762C4337430A986305E40AA0EB08001E
:100810000022FD0A44EA47540A3002D5002001466E
:10082000E9E7010510196941DDE908450019694149
:10083000BDE8F04DA2E710B5FFF7C2FC03F044FF9E
:10084000002010BD10B5024800F0ADF910BD000049
:100850005801002055494A6822F440324A604A68EB
:1008600043681A434A600268526822F4807203683F
:100870005A6002685368026943EA022203685A60B8
:100880000268526822F0407203685A600268526837
:1008900083681A4303685A600268926822F400620F
:1008A00003689A6002689268C3681A4303689A6092
:1008B0003F4B826A9A4218D00268926822F07062B6
:1008C00003689A6002689268836A1A4303689A60B0
:1008D0000268926822F0405203689A600268926847
:1008E000C36A1A4303689A600BE00268926822F0B8
:1008F000706203689A600268926822F0405203684E
:100900009A600268926822F0020203689A600268A4
:100910009368027E43EA420203689A602022125CD6
:10092000A2B10268526842F4006203685A60026829
:10093000526822F4604203685A6002685368426A4F
:10094000521E43EA423203685A6005E00268526868
:1009500022F4006203685A600268D26A22F47002CC
:100960000368DA620268D36A828B521E43EA02523B
:100970000368DA620268926822F4007203689A607F
:100980000268936890F8302043EA422203689A6034
:100990000268926822F4806203689A600268936831
:1009A000426943EA822203689A607047002301404B
:1009B0000100000F00BFFEE710B50C480C490860AD
:1009C0004FF4E1304860002109488160C160016155
:1009D00081610C21416100F081FF05480068C06819
:1009E00040F0200002490968C86010BD00100140B5
:1009F000B8000020704770477047000038B50246C5
:100A00000020009000BF92F83C00012801D1022094
:100A100038BD012082F83C0000BF0868092816D9BB
:100A20001068C0680C780A3C04EB44050724AC400D
:100A3000A0431468E0600C780A3C04EB4404886826
:100A4000A0401468E46820431468E06013E0106874
:100A500000690C7804EB44050724AC40A0431468FB
:100A600020610C7804EB44048868A0401468246971
:100A70002043146820614868072817D21068406B2B
:100A80000C79641E04EB84051F24AC40A043146859
:100A90006063088880B20C79641E04EB8404A04073
:100AA0001468646B20431468606331E048680D2863
:100AB00017D21068006B0C79E41F04EB84051F2427
:100AC000AC40A04314682063088880B20C79E41F0E
:100AD00004EB8404A0401468246B20431468206352
:100AE00016E01068C06A0C790D3C04EB84051F24E5
:100AF000AC40A0431468E062088880B20C790D3CD9
:100B000004EB8404A0401468E46A20431468E062A3
:100B1000194B1A4C1068A04206D10868122803D15C
:100B2000586840F480005860144C1068A0421CD1F2
:100B30000868102802D00868112816D1586840F4B7
:100B400000005860086810280FD10D4800680D4C4F
:100B5000B0FBF4F000EB80004000009002E0009851
:100B6000401E009000980028F9D100BF002082F8B4
:100B70003C0000BF00BF4BE70023014000200140C4
:100B80000000002040420F0010B50446204600F04F
:100B900006F80149088010BD1C000020704701467E
:100BA0000868C06C704770B50446002500262068B0
:100BB0000068C0F3400520684068C0F3401695B354
:100BC0008EB3206C00F0100018B9206C40F4007057
:100BD00020642068806800F04050E8B9207ED8B9D1
:100BE0002068C06A00F4700020B12068806800F4BA
:100BF000806088B92068406820F020002168486043
:100C0000206C20F480702064206C00F4805018B9AF
:100C1000206C40F0010020642046FFF7B5FF6FF024
:100C200012002168086020680068C0F38005206811
:100C30004068C0F3C016E5B3DEB3206C00F01000CE
:100C400018B9206C40F4005020642068806800F4DB
:100C5000401038BB2068806B00F4401020B1206841
:100C6000806800F48060E8B92068406800F4806023
:100C7000C0B92068806800F0405098B9207E88B9DB
:100C80002068406820F0800021684860206C20F4D3
:100C900080502064206C00F4807018B9206C40F003
:100CA000010020642046FFF7A7FE6FF00C002168CA
:100CB00008602068006800F0010520684068C0F303
:100CC000801685B17EB12068006800F0010050B147
:100CD000206C40F480302064204600F053F86FF020
:100CE00001002168086020680068C0F34015206892
:100CF0004068C0F380667DB176B1606C40F0020060
:100D000060646FF02000216808602046FFF746FF0E
:100D10006FF020002168086070BD000070B50446C7
:100D200000250CB9012070BD1549A06A884200D089
:100D300000BF206C30B9204600F025F80020606428
:100D400084F83C00206C00F0100088B9206C20F47E
:100D5000885040F0020020642046FFF77BFD002011
:100D60006064206C20F0020040F00100206400E08C
:100D7000012500BF002084F83C0000BF2846D2E7D0
:100D80000100000F7047704708B501460020009031
:100D900000BF91F83C00012801D1022008BD0120CC
:100DA00081F83C0000BF0868806800F00100A0B92D
:100DB0000868806840F001000B6898603E48006851
:100DC0003E4BB0FBF3F000EB4000009002E00098D7
:100DD000401E009000980028F9D10868806800F053
:100DE0000100002865D0086C40F20163984340F48C
:100DF000807008640868406800F4806028B1086C5E
:100E000020F4005040F480500864086C00F48050D6
:100E1000B0F5805F04D1486C20F00600486401E022
:100E20000020486400BF002081F83C0000BF244A35
:100E30006FF022000B68186008684068214B184367
:100E40000B685860506800F01F0018BB1E4B086804
:100E5000984213D01D4B0868984204D1101D0068B9
:100E600000F01F0050B11A4B0868984221D1144875
:100E7000001D006800F01F0010281AD20868806862
:100E800000F0405028B90868806840F080400B6846
:100E900098600EE00C4B086898420AD10868806898
:100EA00000F0405028B90868806840F080400B6826
:100EB0009860002072E700000000002040420F0010
:100EC00000230140200000040020014000210140D7
:100ED00000220140F8B502460B4600250024002000
:100EE0000021DCE0012606FA01F51E6806EA050489
:100EF000AC4273D15E68022E02D05E68122E13D10E
:100F0000CF0802F1200656F827004E07F70E0F26ED
:100F1000BE40B0434F07FF0E1E69BE403043CF08AE
:100F200002F1200646F8270010684F000326BE4055
:100F3000B0431E7906F003064F00BE4030431060F8
:100F40005E68012E08D05E68022E05D05E68112E04
:100F500002D05E68122E13D190684F000326BE4067
:100F6000B0434F00DE68BE403043906050680126B9
:100F70008E40B0431E79C6F300168E403043506059
:100F8000D0684F000326BE40B0434F009E68BE406D
:100F90003043D0605E6806F08056B6F1805F7DD148
:100FA00000BF00260096404E366846F480463E4F0D
:100FB0003E603E46366806F48046009600BF00BF9D
:100FC0003A4E8F0856F827008E07370F0F26BE407F
:100FD000B043374EB24202D1002624E05EE0354EE7
:100FE000B24201D101261EE0334EB24201D10226A7
:100FF00019E0324EB24201D1032614E0304EB24223
:1010000001D104260FE02F4EB24201D105260AE09D
:101010002D4EB24201D1062605E02C4EB24201D13E
:10102000072600E008268F073F0FBE4030431F4EC3
:101030008F0846F82700264E3068A0435E6806F405
:101040008036B6F5803F00D12043214E3060361DFA
:101050003068A0435E6806F40036B6F5003F00D164
:1010600020431B4E361D3060361D3068A0435E683D
:1010700006F48016B6F5801F00D12043144E0836C2
:101080003060361D3068A0435E6806F40016B6F581
:10109000001F00D120430E4E0C363060491C102931
:1010A000FFF420AFF8BD000044380240083801408A
:1010B000000002400004024000080240000C024010
:1010C000001002400014024000180240001C0240C0
:1010D000003C0140024613690B400BB1012000E0C7
:1010E0000020704701480068000C7047002004E0B1
:1010F00001480068704700000400002070B50446F5
:101100000E4800784FF47A71B1FBF0F00C49096891
:10111000B1FBF0F5284600F0C7FB08B1012070BD17
:10112000102C07D200222146501E00F01DF8054861
:10113000046001E00120F2E70020F0E70C0000204D
:10114000000000200800002001460846002809DBB6
:1011500000F01F0301229A4043099B0003F1E023A2
:10116000C3F8002100BF70472DE9F05F80460D46AF
:101170001646002701F0CCF8074639462A46334682
:1011800001F00700C0F1070ABAF1040F02D94FF0CD
:10119000040A01E0C0F1070AD14600F1040ABAF1DD
:1011A000070F02D24FF0000A01E0A0F1030AD44673
:1011B0004FF0010A0AFA09FAAAF1010A0AEA020A38
:1011C0000AFA0CFA4FF0010B0BFA0CFBABF1010B16
:1011D0000BEA030B4AEA0B042146404601F0A0F853
:1011E000BDE8F09F70B504460D460CB9012070BDF6
:1011F0005848006800F00F00A84209D255490D7008
:101200000846006800F00F00A84201D00120EEE778
:10121000207800F0020002281DD1207800F00400A0
:10122000042805D14C48006840F4E0504A49086061
:10123000207800F00800082805D14748006840F4ED
:101240006040454908604448006820F0F000A1680B
:10125000084341490860207800F00100A8B36068A5
:10126000012807D13C4808380068C0F34040B8B9AD
:101270000120BCE76068022802D06068032807D11B
:10128000354808380068C0F3406048B90120AEE72F
:10129000314808380068C0F3400008B90120A6E7CB
:1012A0002D48006820F00300616808432A4908605F
:1012B000FFF71EFF064609E0FFF71AFF801B41F209
:1012C0008831884202D9032091E707E0224800686C
:1012D00000F00C006168B0EB810FEDD11D48006893
:1012E00000F00F00A84209D91A490D70084600689D
:1012F00000F00F00A84201D0012078E7207800F02C
:101300000400042807D11448006820F4E050E16884
:10131000084311490860207800F00800082808D127
:101320000D48006820F46040216940EAC1000A4984
:10133000086000F03DF808490968C1F30311074A45
:10134000515CC840064908600F20FFF7D7FE002017
:101350004DE70000003C02400838024018470008F2
:1013600000000020014800687047000000000020D5
:1013700000B5FFF7F7FF04490968C1F38221034A6A
:10138000515CC84000BD00000838024028470008F2
:1013900000B5FFF7E7FF04490968C1F34231034A8A
:1013A000515CC84000BD00000838024028470008D2
:1013B0002DE9F047002400250026A14625480068B5
:1013C00000F00C0020B1042805D008283AD105E02F
:1013D000DFF8849039E0DFF8849036E01D48001F84
:1013E000006800F03F041B48001F006800F4800004
:1013F00078B11A481749091F0968C1F38811A0FB81
:1014000001700146224600233846FEF761FF05467B
:101410000EE011480F49091F0968C1F38811A0FBAC
:1014200001700146224600233846FEF751FF05466B
:101430000848001F0068C0F30140401C4600B5FB8F
:10144000F6F902E0DFF8109000BF00BF4846BDE8A3
:10145000F0870000083802400024F40040787D0145
:10146000F8B504460CB90120F8BD207800F0010061
:10147000002874D0F948006800F00C0004280DD052
:10148000F648006800F00C00082813D1F348001F4C
:10149000006800F48000B0F5800F0BD1EF480838E9
:1014A0000068C0F34040002859D06068002856D139
:1014B0000120D9E700BF6068B0F5803F08D1E74858
:1014C0000838006840F48030E449083908601EE0BC
:1014D0006068B0F5A02F0DD1E0480838006840F4EE
:1014E0008020DE49083908600846006840F48030F2
:1014F00008600CE0D9480838006820F48030D749EB
:10150000083908600846006820F48020086000BFA1
:10151000606890B1FFF7ECFD054606E0FFF7E8FDD7
:10152000401B642801D903209EE7CC480838006896
:10153000C0F340400028F1D011E0FFF7D9FD054687
:1015400006E0FFF7D5FD401B642801D903208BE797
:10155000C24808380068C0F340400028F1D1207824
:1015600000F0020002285FD1BC48006800F00C00C7
:1015700058B1BA48006800F00C0008281CD1B748E0
:10158000001F006800F48000B0B9B4480838006853
:10159000C0F3400020B1E068012801D0012063E7DA
:1015A000AE480838006820F0F800216940EAC10020
:1015B000AA490839086037E0E06800B30120A8496B
:1015C0000860FFF795FD054606E0FFF791FD401B1B
:1015D000022801D9032047E7A04808380068C0F373
:1015E00040000028F1D09D480838006820F0F8003D
:1015F000216940EAC10099490839086014E00020D7
:1016000097490860FFF774FD054606E0FFF770FD97
:10161000401B022801D9032026E7904808380068BB
:10162000C0F340000028F1D1207800F0080008281D
:101630002CD16069A8B101208A490860FFF758FDE4
:10164000054606E0FFF754FD401B022801D90320A0
:101650000AE782486C300068C0F340000028F1D0EF
:1016600014E000207F490860FFF742FD054606E0D0
:10167000FFF73EFD401B022801D90320F4E677481E
:101680006C300068C0F340000028F1D1207800F0F1
:101690000400042870D1002670483830006800F03B
:1016A000805090B900BF002000906C48383000682E
:1016B00040F080506949383108600846006800F001
:1016C0008050009000BF00BF01266748006800F40A
:1016D0008070B0B96448006840F480706249086066
:1016E000FFF706FD054606E0FFF702FD401B022856
:1016F00001D90320B8E65C48006800F48070002837
:10170000F2D000BFA068012808D1544868300068B2
:1017100040F001005149683108601DE0A0680528CB
:101720000DD14E486830006840F004004B496831E4
:1017300008600846006840F0010008600CE0474877
:101740006830006820F001004449683108600846AC
:10175000006820F00400086000BFA068A8B1FFF78F
:10176000C7FC054609E0FFF7C3FC401B41F2883186
:10177000884202D9032077E626E0384868300068BE
:10178000C0F340000028EED013E0FFF7B1FC05469F
:1017900008E0FFF7ADFC401B41F28831884201D9D7
:1017A000032061E62D4868300068C0F3400000283F
:1017B000EFD1012E07D129483830006820F0805041
:1017C00026493831086000BFA069B8B323480068D3
:1017D00000F00C0008285ED0A069022846D1002045
:1017E0001F490866FFF784FC054606E0FFF780FC0A
:1017F000401B022801D9032036E618480838006843
:10180000C0F340600028F1D1D4E907010843616AC0
:1018100040EA81110122A06AC2EB500041EA004176
:101820002C20005D41EA00600C49091F086001207E
:101830000B490866FFF75CFC054607E02DE0FFF763
:1018400057FC401B022801D903200DE60348083845
:101850000068C0F340600028F1D01EE00838024064
:1018600000004742800E47420070004000200C49B3
:101870000866FFF73DFC054606E0FFF739FC401B14
:10188000022801D90320EFE506480068C0F3406054
:101890000028F2D101E00120E6E50020E4E50000A7
:1018A000000047420038024070B504462546681ED5
:1018B000B0F1807F01D301200FE0681E4FF0E021DE
:1018C00048610F214FF0FF3000F02AFD00204FF05B
:1018D000E021886107200861002070BD10B5044632
:1018E0000CB9012010BDA06900B100E000BF94F860
:1018F000390028B9002084F83800204600F028F884
:10190000242084F839002068C06820F40050216841
:10191000C860204600F000FB2068006920F4904079
:10192000216808612068406920F02A002168486128
:101930002068C06840F400502168C8600020E0635F
:10194000202084F8390084F83A000020CAE700001B
:1019500010B586B0044600BF0020009026480068FD
:1019600040F01000244908600846006800F01000AC
:10197000009000BF00BF00BF002000901E48143838
:10198000006840F002001C491439086008460068ED
:1019900000F00200009000BF00BF00BF00200090D8
:1019A0000846006840F0020008600846006800F041
:1019B0000200009000BF00BF402001900220029072
:1019C00001200390032004900720059001A90B48F3
:1019D000FFF780FA802001900720059001A90748B1
:1019E000FFF778FA012200212520FFF7BDFB252013
:1019F000FFF7AAFB06B010BD4438024000040240C5
:101A00002DE9F84304460D4616461F464FF00009DF
:101A100094F8390020285CD105B116B90120BDE841
:101A2000F88300BF94F83800012801D10220F6E7BE
:101A3000012084F8380000BF0020E063212084F8F2
:101A40003900FFF755FB8146A684E6842BE0E08C45
:101A5000401EE084A068B0F5805F16D14B4600229E
:101A600080212046009700F00BFC08B10320D6E748
:101A7000A846B8F80000C0F3080021684860206953
:101A800008B9AD1C0FE06D1C0DE04B460022802113
:101A90002046009700F0F4FB08B10320BFE715F8DB
:101AA000010B21684860E08C0028D0D14B46002211
:101AB00040212046009700F0E3FB08B10320AEE789
:101AC000202084F8390000BF002084F8380000BFCF
:101AD000A5E70220A3E7000000B587B000BF002003
:101AE00001903648006840F001003449086008461B
:101AF000006800F00100019000BF00BF00BF00209F
:101B000001900846006840F004000860084600683C
:101B100000F00400019000BF00BF00BF0020019052
:101B20000846006840F0400008600846006800F081
:101B30004000019000BF00BF00BF00200190084698
:101B4000006840F0400008600846006800F040006F
:101B5000019000BF00BF00BF002001900846006850
:101B600040F0400008600846006800F04000019026
:101B700000BF00BF0120029000200390049002A942
:101B80000F48FFF7A7F94FF40050029002A90D4843
:101B9000FFF7A0F90420029002A90B48FFF79AF979
:101BA0000820029002A90848FFF794F9102002903B
:101BB00002A90548FFF78EF907B000BD3038024092
:101BC00000000240000802400018024070B50446C0
:101BD0000D4629462046FFF77DFA012808D100BFAF
:101BE00029462046FFF776FA0128F9D0012070BD7A
:101BF0000020FCE700B587B000BF00200190354809
:101C0000006840F00100334908600846006800F0B1
:101C10000100019000BF00BF00BF002001900846F6
:101C2000006840F0100008600846006800F01000EE
:101C3000019000BF00BF00BF00200190084600686F
:101C400040F0400008600846006800F04000019045
:101C500000BF00BF00BF002001900846006840F0B0
:101C6000020008600846006800F00200019000BF12
:101C700000BF4FF400400290012003900490032025
:101C8000059002A91448FFF725F90420029002A943
:101C90001248FFF71FF94FF40040029002A91048C4
:101CA000FFF718F94FF48070029002A90D48FFF772
:101CB00011F94FF400400849886104200749886100
:101CC0004003074918310860C011064918310860FF
:101CD00007B000BD30380240000002400010024052
:101CE000001802400004024000BFFEE770470000F9
:101CF00000B587B000BF002001900C48006840F09C
:101D000002000A4908600846006800F002000190DD
:101D100000BF00BF01200290032003900020049028
:101D200002A90348FFF7D6F807B000BD30380240DB
:101D30000004024008B500BF002000901B48006866
:101D400040F48070194908600846006800F480700B
:101D5000009000BF00BF1648164908604FF480305D
:101D60004860002113488160016101210176002152
:101D700080F820104162C162C1600121C16180F818
:101D8000301000214161FEF7C9FF08200A490860B0
:101D900001204860032088600020C8600548FEF7E5
:101DA0002DFE0448FEF7F0FF08BD00004438024055
:101DB0000020014058010020A001002010B50022A1
:101DC00011461220FFF7D0F91220FFF7BDF910BD20
:101DD00010B5FFF78DFFFFF7ADFFFFF7EFFF10BD69
:101DE000704710B501F0A0FB02F0A4F901F0ACFBC4
:101DF00010BD000000B593B000BF002001902A483C
:101E0000006840F08050284908600846006800F0EB
:101E10008050019000BF00BF00BF00200190234808
:101E2000006840F48040214908600846006800F4DA
:101E30008040019000BF00BF012002900004039089
:101E4000022008904105099119210A914FF4A871C7
:101E50000B9102210C9107210D9102A8FFF700FBC5
:101E600008B100BFFEE70F200E9002200F90002067
:101E700010904FF4A05011904FF480501290052113
:101E80000EA8FFF7AFF908B100BFFEE7FFF72AF988
:101E900041F20101884205D10548006840F4807094
:101EA0000349086013B000BD403802400070004094
:101EB000003C02401448006840F470001249086079
:101EC0001248006840F001001049086000200F49E6
:101ED000083108600D4800680D4908400B4908604A
:101EE0000C48091D0860081F006820F48020091FA5
:101EF0000860002005490C3108604FF0006002497D
:101F0000803908607047000088ED00E0003802402A
:101F1000FFFFF6FE103000242DE9F0410446206852
:101F2000006920F44050E168084321680861216994
:101F3000A068084361690843E16940EA0105206837
:101F4000C06849F20C61884328432168C860206852
:101F5000406920F44070A169084321684861E06944
:101F6000B0F5004F7ED1C4492068884203D0C349F0
:101F7000206888425DD1FFF70BFA00EBC00101EB4E
:101F8000001061684900B0FBF1F06421B0FBF1F092
:101F90000601FFF7FDF900EBC00101EB00106168DD
:101FA0004900B0FBF1F7FFF7F3F900EBC00101EBDB
:101FB000001061684900B0FBF1F06421B0FBF1F062
:101FC00000EBC00101EB0010A7EB8000322101EB18
:101FD000C0006421B0FBF1F000F0F80006EB400611
:101FE000FFF7D6F900EBC00101EB00106168490072
:101FF000B0FBF1F7FFF7CCF900EBC00101EB0010EB
:1020000061684900B0FBF1F06421B0FBF1F000EB36
:10201000C00101EB0010A7EB8000322101EBC000F2
:102020006421B0FBF1F000F00700304421688860C3
:1020300020E1FFF79DF900EBC00101EB00106168A2
:102040004900B0FBF1F06421B0FBF1F00601FFF7AD
:102050008FF900EBC00101EB001061684900B0FB93
:10206000F1F700E045E0FFF783F900EBC00101EB79
:10207000001061684900B0FBF1F06421B0FBF1F0A1
:1020800000EBC00101EB0010A7EB8000322101EB57
:10209000C0006421B0FBF1F000F0F80006EB400650
:1020A000FFF766F900EBC00101EB00106168490021
:1020B000B0FBF1F7FFF75CF900EBC00101EB00109A
:1020C00061684900B0FBF1F06421B0FBF1F000EB76
:1020D000C00101EB0010A7EB8000322101EBC00032
:1020E0006421B0FBF1F000F0070030442168886003
:1020F000C0E061492068884203D060492068884276
:102100005CD1FFF745F900EBC00101EB00106168FD
:102110008900B0FBF1F6FFF73BF900EBC00101EBE2
:10212000001061688900B0FBF1F06421B0FBF1F0B0
:1021300000EBC00101EB0010A6EB8000322101EBA7
:1021400000106421B0FBF1F000F0F006FFF720F979
:1021500000EBC00101EB001061688900B0FBF1F0F9
:102160006421B0FBF1F006EB0016FFF711F900EB6C
:10217000C00101EB001061688900B0FBF1F7FFF7C7
:1021800007F900EBC00101EB001061688900B0FBAA
:10219000F1F06421B0FBF1F000EBC00101EB0010A5
:1021A000A7EB8000322101EB00106421B0FBF1F0BD
:1021B00000F00F003044216888605BE0FFF7D8F83A
:1021C00000EBC00101EB001061688900B0FBF1F683
:1021D000FFF7CEF800EBC00101EB00106168890049
:1021E000B0FBF1F06421B0FBF1F000EBC00101EBBA
:1021F0000010A6EB8000322101EB00106421B0FB3F
:10220000F1F000F0F006FFF7B3F800EBC00101EBCE
:10221000001061688900B0FBF1F06421B0FBF1F0BF
:1022200006EB0016FFF7A4F800EBC00101EB00106D
:1022300061688900B0FBF1F7FFF79AF800EBC00185
:1022400001EB001061688900B0FBF1F06421B0FB84
:10225000F1F000EBC00101EB0010A7EB8000322190
:1022600001EB00106421B0FBF1F000F00F003044EE
:1022700021688860BDE8F081001001400014014031
:102280002DE9F04104460D4617469846069E21E08A
:10229000701CF8B12EB1FEF72BFFA0EB0800B04286
:1022A00018D92068C06820F4D0702168C860206800
:1022B000406920F0010021684861202084F839003D
:1022C00084F83A0000BF002084F8380000BF0320E3
:1022D000BDE8F081206800682840A84201D10120B3
:1022E00000E00020B842D3D00020F1E700BFFEE7B5
:1022F0000FB4054B10B503A9044A029800F026F963
:1023000010BC5DF814FB0000712D0008B400002023
:1023100002480068C0F30220704700000CED00E0A6
:1023200010B5002804DB0A07130E054A135406E013
:102330000A07140E034A00F00F031B1FD45410BDEC
:1023400000E400E018ED00E0014609B90020704704
:10235000C8B220B1C8B20E4A105C401CF7E701F4C5
:102360007F4028B10A48C1F30722805C0930EEE7BC
:1023700001F47F0028B10648C1F30742805C1130A8
:10238000E5E7034800EB116000781930DFE7000053
:102390003047000802E008C8121F08C1002AFAD11D
:1023A00070477047002001E001C1121F002AFBD1D5
:1023B000704700002DE9FF5F82B00021DDE90430A5
:1023C000020DDDF840B0034318D044F61050A2F2DD
:1023D000FF3242431514119801281FD0A5EB0B00C2
:1023E000401C5FEA000A4FF000064E4FDFF83891BC
:1023F000B046504615D5CAF1000413E011980124E7
:102400004AA3012801D16FEA0B010298119AC0E991
:102410000031C0E9024206B0BDE8F09FCBF10000F8
:10242000DFE704460021404A491842EB0450CDE959
:10243000001012E0E00707D032463B4640464946CE
:10244000FEF766F88046894632463B4610461946F6
:10245000FEF75EF806460F466410002CEAD1DDE96F
:102460000401DDE90023BAF1000F06DAFEF750F8A7
:1024700042464B46FEF74CF805E0FEF7BBF84246F5
:102480004B46FEF7B7F804460E460022284BFEF7EF
:1024900039F903D84FF0FF30014607E00022254B01
:1024A00020463146FDF78DFFFEF713F9102409E0B1
:1024B000002C0ADB0A220023FDF70AFF039B3032BF
:1024C0001A55641E50EA0102F2D1641C039AC4F149
:1024D00011031444119A012A03D0012208430DD19B
:1024E0000AE0084304D000204FF0110B119072E76E
:1024F000A3EB0B056D1E0DE05B4504DD4FF0000204
:1025000005F1010504E003DA4FF00002A5F1010531
:10251000002AECD002981199C0E90231C0E90045C7
:1025200079E70000000014400000F03F3000000098
:102530000000F0430000E03F03490868884201D0F2
:10254000012070470020FCE7900000202DE9FF4F9C
:1025500095B09B468946064600250FE2252877D18F
:1025600000242746F84A0121059400E0044316F8A8
:10257000013F203B01FA03F01042F7D130782A28BE
:1025800011D06FF02F033078A0F13002092A16D84D
:10259000059A44F0020402EB820203EB420210446B
:1025A000761C0590EFE759F8042B0592002A03DA10
:1025B000504244F40054059044F00204761C3078F4
:1025C0002E2816D116F8010F44F004042A280DD045
:1025D0006FF02F023078A0F13003092B09D807EBF8
:1025E000870302EB4303C718761CF3E759F8047B13
:1025F000761C30786C280FD006DC4C2817D0682861
:102600000DD06A2814D104E0742810D07A280FD194
:102610000DE044F400140AE044F4801401E044F4B2
:1026200040147278824202D104F58014761C761C24
:10263000307866280BD013DC582877D009DC0028C6
:1026400075D04528F6D04628F4D047281AD19DE108
:1026500018E0632835D0642879D0652812D195E137
:10266000702873D008DC6728F1D069286FD06E28F5
:102670000DD06F2806D1B5E073282CD0752875D001
:10268000782874D05A46179990476D1C75E1C4F3A9
:102690000250022809D003280DD0D9F800100428D0
:1026A0000DD00D6009F1040967E1D9F80010EA17AF
:1026B000C1E90052F6E7D9F800100D80F2E70D707D
:1026C000F0E719F8041B8DF8001000208DF80100C8
:1026D000EA46012003E059F804AB4FF0FF306107F0
:1026E0004FF0000102D40DE008F101018846B94223
:1026F0000FDA8045F8DB1AF808100029F4D108E059
:1027000008F1010188468142FADB1AF80810002915
:10271000F6D105985B46A0EB080721463846179A84
:1027200000F094FA284400EB080507E04DE029E1A9
:102730000DE01AF8010B5A4617999047B8F10108B5
:10274000F7D25B4621463846179A13E142E00A2247
:102750000092C4F302524FF0000A022A08D059F83E
:1027600004CB032A4FEAEC710AD00DE029E02AE0FD
:1027700009F1070121F00702F2E802C1914609E0E0
:102780000FFA8CFC4FEAEC71042A03D14FFA8CFC4F
:102790004FEAEC71002907DA0A460021DCF1000C4F
:1027A00061EB02012D2202E0220504D52B228DF8D7
:1027B0000420012203E0E20701D02022F7E790463F
:1027C00059E00A2102E010220DE010214FF0000A2A
:1027D00000910BE010224FF0000A44F00404082797
:1027E000009203E008224FF0000A0092C4F3025264
:1027F000022A05D059F804CB0021032A08D009E0A9
:1028000009F1070121F00702F2E802C1914605E053
:102810001FFA8CFC042A01D10CF0FF0C4FF00008C9
:10282000220728D5702806D0009B83F0100353EAB6
:102830000A0305D00EE040228DF80420012208E0B2
:102840005CEA010206D030228DF804208DF80500E4
:1028500002229046009B83F0080353EA0A030AD140
:102860005CEA010201D1620705D530228DF804200F
:102870004FF001087F1E582804D034A003900EA802
:1028800002900DE036A0F9E753466046009AFDF746
:102890001FFD84460398825C0298401E02900270DD
:1028A0005CEA0100F0D1029806A9081A00F1200A9A
:1028B000600702D524F4803400E00127574502DD8B
:1028C000A7EB0A0000E0002000EB0A010090059849
:1028D0004144401A0590E00306D45B462146179A0E
:1028E000059800F0B3F90544002706E001A85A4610
:1028F000C05D179990476D1C7F1C4745F6DBE003D0
:102900000CD55B462146179A059800F09FF90544BF
:1029100004E030205A46179990476D1C0099481ED4
:1029200000900029F5DC08E0029802995A460078E8
:10293000491C0291179990476D1CBAF10001AAF148
:10294000010AF1DC65E10000092801003031323371
:1029500034353637383961626364656600000000DB
:1029600030313233343536373839414243444546C5
:102970000000000000F058F90544761C307800286B
:102980007FF4ECAD19B02846BDE8F08F620700D4A3
:10299000062709F1070222F0070CFCE80223E146B2
:1029A00003F000485FEA080C02D00FF2702C0DE033
:1029B0005FEA045C02D50FF2682C07E05FEAC47C92
:1029C00002D00FF2602C01E0AFF2700C4FF0FF3834
:1029D00023F00043CDF850C065280CD006DC452814
:1029E00009D046281DD047283DD13DE0662818D0A3
:1029F00067287ED138E00021112F01DB112000E093
:102A0000781CCDE9000106A90EA8FFF7D3FCDDE98B
:102A10000F010E9A03910021009207F1010A04911F
:102A20004DE04FF000400097CDE9011006A90EA837
:102A3000FFF7C0FCDDE90F0203920E9B1199002203
:102A4000DDF80CA00093049211B9791C00EB010A87
:102A5000B7EB0A0004D4C0F1FF3007F1010A04907B
:102A6000AAEB0700019044E0012F00DA01270021C2
:102A7000112F01DD112000E03846CDE9000106A943
:102A80000EA8FFF797FCDDE90F010E9A03910021D4
:102A900004910092BA4621070CD40399514500DAFB
:102AA0008A46BAF1010F05DD009AAAF10101515CD5
:102AB000302908D0B84202DA10F1040F06DA0121F9
:102AC000CDE9011015E0AAF10101E9E7002805DCD4
:102AD000049901440491AAEB000102E0411C514514
:102AE00000DD8A460499401A401C01904FF00040D6
:102AF0000290200704D40198504501DBCDF80480F2
:102B000000208DF84F0002980DF14F07B0F1004FF3
:102B100025D02B200E9002984FF0020800280CDAE6
:102B2000404202902D200E9007E00A210298FDF706
:102B300013FC3031029007F8011DB8F10001A8F133
:102B40000108F2DC02980028EFD1791E0E98087077
:102B5000307800F0200040F0450007F8020D12A880
:102B6000C01B00F107081498007800B1012000EBA9
:102B70000A01019801EBE07105984144401A401E9A
:102B80000590E00306D45B462146179A059800F0AD
:102B90005DF805441498007818B15A461799904783
:102BA0006D1CE00324D55B462146179A059800F07A
:102BB0004DF805441CE00498002807DBDDE903011B
:102BC000884203DD0098405C179901E01799302096
:102BD0005A469047049805F10105401C049001985D
:102BE000401E019004D12E205A46179990476D1C23
:102BF000BAF10001AAF1010ADDDC05E017F8010BCA
:102C00005A46179990476D1CB8F10001A8F10108C8
:102C1000F4DC5B462146179A0598ABE62D000000D0
:102C20002B000000200000002DE9F04104460025A3
:102C30001E461746880404D405E039462020B047D4
:102C40006D1C641EF9D52846BDE8F0812DE9F041E0
:102C5000044600251E469046C80301D5302700E0F3
:102C60002027880404D505E041463846B0476D1C4E
:102C7000641EF9D52846BDE8F08100002DE9FC5F0F
:102C800004468B4615461E46DDE90C9ADDE90E78B2
:102C900004F114004060006000BF1C346560A66051
:102CA000C4F80C90C4F810A02321D4E9030200F06A
:102CB000B9FDD4E9033C63441A1F0F4BD4E9010169
:102CC00000F00AFC2060A77667760020E061C4F877
:102CD0002080C4F82480606120766065A0651C3C7B
:102CE00000902346054A2146019004F1440001F07A
:102CF000A3FA0020BDE8FC9F593E0008A54000084B
:102D00002DE9F04704460E4617469846DDF8209018
:102D100084F80990607A20F001006072E661276211
:102D20000020A062C4F82480002506E004F114010C
:102D300001EBC50000F07EFC6D1C012DF6DBBDE84B
:102D4000F08710B50246002001460EE002F11403A0
:102D500003EBC100D0E900436360D0E90034236095
:102D60004060006000BF481C01460129EEDB10BD39
:102D700013B50C464FF47A73012269460248FEF7F8
:102D80003FFE00981CBD0000B800002010E00121AB
:102D90000848FEF71BFF40B10748406980F0040077
:102DA0000549486105A000F027FC0A2001F04DF814
:102DB000EDE7000000000240001002404C4544D7FF
:102DC000B4CCACB7ADD7AA0A000000002DED028B41
:102DD00024E01348008800EE100AF8EE400A9FED48
:102DE000111A80EE810ADFED100A20EE200A0F484A
:102DF00080ED000A0A4801880DA0FFF779FA0B4818
:102E00000068FDF796FA41EC180B53EC182B11A053
:102E1000FFF76EFA4FF4FA7001F017F8D9E70000E7
:102E20001C00002000008045333353401800002070
:102E30000D0A205468652063757272656E742041B6
:102E4000442076616C7565203D20307825303458FB
:102E5000200D0A000D0A20546865206375727265A2
:102E60006E742041442076616C7565203D20256696
:102E70002056200D0A0000001CB51AA000F0BCFB73
:102E8000142003214FF400730022CDE900102449DF
:102E900024A000F0B2FF254908600846006820B170
:102EA0000846006801F0C6F802E04FF0FF301CBD94
:102EB00014200421CB010022CDE900101C491DA0E3
:102EC00000F09BFF1C4908600846006820B10846D6
:102ED000006801F0AFF802E04FF0FF30E7E70020B4
:102EE000E5E70000D5E2CAC7D2BBB8F65BD2B0BBFB
:102EF000F05D2D53544D33322D5254542D414443E3
:102F0000A1AAB6C0C1A2C4A3CABD2DB5A5CDA8B5FE
:102F1000C02DD6D0B6CFCAB5D1E9A3A10A00000012
:102F2000CD2D00086C656431000000001000002009
:102F30008D2D00086B6579001400002010B5044643
:102F400000F02AF9FFF798FF10BD000030B51A4CC9
:102F5000436824681919884215D04B889BB9174BD0
:102F60001B6899420FD0164B1B688B4201D1144B42
:102F700018604B684360104B1B68C31A0E4D4C68B9
:102F80002D682C44A3600C4C836824681A19824273
:102F900011D053887BB90A4B1B68834201D1084B7F
:102FA0001A6043685360044B1B68D31A024D44688F
:102FB0002D682C44A36030BD280000202C00002088
:102FC000300000202DE9F04F85B00D469C46DDE92C
:102FD0000F740E9B04F04008B8F1000F02D0DFF828
:102FE000688101E0DFF86481CDF8008004F010080A
:102FF000B8F1000F01D024F0010404F00108B8F189
:10300000000F02D04FF0300801E04FF02008C24618
:10301000002604F00208B8F1000F11D0002A02DAED
:103020002D2652420CE004F00408B8F1000F01D044
:103030002B2605E004F00808B8F1000F00D0202688
:10304000002142B94FF0300B8846491C0DF10409AC
:1030500009F808B01DE01AE0E146B9F10A0F08D1FD
:103060004FF00A0BB2FBFBFE0BFB1E28B2FBFBF280
:1030700002E002F00F08120900BFDDF8009019F815
:1030800008B08846491C0DF1040909F808B0002A67
:10309000E2D1B94200DD0F46DB1B04F01108B8F1A4
:1030A000000F10D116B1002B00DD5B1E06E0A84218
:1030B00003D84FF0200880F80080401CB3F10008CE
:1030C000A3F10103F3DC26B1A84201D806705B1E10
:1030D000401C04F01008B8F1000F0AD104E0A84227
:1030E00001D880F800A0401CB3F10008A3F101034F
:1030F000F5DC06E0A84203D84FF0300880F80080E5
:10310000401CB8467F1E8845F4DC08E0A84205D87C
:103110000DF1040818F8018080F80080401CB1F11E
:103120000008A1F10101F1DC06E0A84203D84FF04C
:10313000200880F80080401CB3F10008A3F10103CF
:10314000F3DC05B0BDE8F08F4148000830480008C6
:103150001CB5142002210B020022CDE90010044905
:1031600004A000F04AFE0446204600F063FF1CBDA8
:103170003D2F00086D61696E0000000010B5044C21
:1031800002E020688047241D02488442F9D310BD24
:10319000584800085C48000810B5044C02E020685C
:1031A0008047241D02488442F9D310BD5C480008C2
:1031B0006048000810B5FDF703F80446044800888D
:1031C000401C00B2024908802046FCF7FDFF10BDFC
:1031D0008000002010B5FCF7F3FF04460B48008880
:1031E000401E00B2094908800846B0F900000028D6
:1031F00007DC002008802046FCF7E6FF00F0B4FB67
:1032000002E02046FCF7E0FF10BD00008000002037
:1032100070B5054605B970BD1D480068854203D3E9
:103220001C480068854200D3F5E7A5F10C044FF077
:10323000FF31194800F062FC608818B12088B0F5B1
:10324000F55F08D015A000F0D7F9238862882146E1
:1032500019A000F0D1F9002060804FF4F5502080D3
:1032600021480068844201D21F4804600849606810
:103270000968611A401A1D490968081A1B49086043
:103280002046FFF763FE044800F01BFC00BFC2E7C6
:10329000280000202C000020A8130020746F206656
:1032A00072656520612062616420646174612062DE
:1032B0006C6F636B3A0A00006D656D3A20307825BB
:1032C0003038782C207573656420666C61673A200D
:1032D00025642C206D6167696320636F64653A2003
:1032E0003078253034780A00300000203800002083
:1032F00000487047B001002000487047B01100201E
:1033000070B51E4800684FF47A72B0FBF2F1481EA7
:10331000B0F1807F00D31BE0481E4FF0E0225061E7
:1033200050170F22002804DB13071C0E144B1C54EB
:1033300006E013071D0E134B00F00F04241F1D554C
:1033400000BF00204FF0E02290610720106100BF15
:10335000FEF750FDFEF74EFCFEF7BEFBFDF72CFB23
:10336000FEF736FDFFF70AFFFFF7C6FF0446FFF73B
:10337000BFFF0546214600F077FC70BD000000202D
:1033800000E400E018ED00E038B50446FFF712FF56
:1033900014E020780A2809D10D2000904FF47A73A8
:1033A000012269460848FEF72BFB00BF2146641C3A
:1033B0004FF47A7301220448FEF722FB207800289C
:1033C000E7D1FFF707FF38BDB800002070B504460D
:1033D0001948006838B120461749096888470546EA
:1033E00005B970BD00BF15A0E16900F005F917A08F
:1033F000A16900F001F919A0616900F0FDF81BA0B6
:10340000216900F0F9F81DA0E16800F0F5F81FA0AF
:10341000A16800F0F1F821A0616800F0EDF823A0A8
:10342000216800F0E9F800F0DDFD0546294623A0FB
:1034300000F0E2F800BFFEE7B00000207073723ABF
:10344000203078253038780A000000002070633A78
:10345000203078253038780A00000000206C723A5D
:10346000203078253038780A000000007231323A76
:10347000203078253038780A000000007230333A66
:10348000203078253038780A000000007230323A57
:10349000203078253038780A000000007230313A48
:1034A000203078253038780A000000007230303A39
:1034B000203078253038780A000000006861726496
:1034C000206661756C74206F6E207468726561642B
:1034D0003A2025730A000000F0B504460D46164652
:1034E000301D20F0070044380146002203E00D4F54
:1034F00041F82270521C112AF9D34D624FF0000C92
:10350000C1F828C0C1F82CC0C1F830C0C1F834C01F
:103510008B63CC634FF0807CC1F840C000270F6004
:10352000F0BD0000EFBEADDE10B5FCF749FE04466D
:1035300004480078401C034908702046FCF744FE0C
:1035400010BD00002400002010B5FCF739FE044631
:1035500004480078401E034908702046FCF734FEFA
:1035600010BD00002400002070B504462068A0F1C2
:103570001405284600F018FD002070BD2DE9F0412B
:1035800005460C469046204600F06AFDB8F1000F53
:1035900003D0B8F1010F23D105E004F1140128464E
:1035A00000F060F81CE02E680FE0A6F1140794F814
:1035B000350097F83510884206DA04F1140107F156
:1035C000140000F04FF802E03668AE42EDD100BFC3
:1035D000AE4204D104F11401284600F043F800BFC4
:1035E00000BF0020BDE8F08110B5044604F11400CE
:1035F00000F01AF8002010BD0FB438B505A80090EF
:103600007F210848009B049A00F0C2FE04467F2CEC
:1036100000D97F240348FFF7B7FE0020009038BC94
:103620005DF814FB28130020406000607047406084
:103630000060704740600060704702685160026837
:103640000A600160486070470268516002680A6061
:103650000160486070470268516002680A6001605A
:10366000486070474268116042684A604160086083
:10367000704701460868884201D101207047002048
:10368000FCE701460868884201D10120704700200C
:10369000FCE7D0E900215160D0E9001211604060E0
:1036A00000607047D0E900215160D0E9001211603C
:1036B00040600060704700002DE9F041054615B9F3
:1036C0000020BDE8F081E81C20F003054E480068AA
:1036D000854201D90020F4E70C2D00D20C254FF0D3
:1036E000FF314A4800F00AFA494800684949096828
:1036F000461A7EE04748006884196088002874D123
:1037000006F10C006168081AA8426ED306F10C009D
:103710006168091A05F11800814230D306F10C00E6
:1037200000EB05083B48006800EB08074FF4F55034
:1037300038800020788060687860BE60C4F80480BB
:10374000012060803048796800680C30814205D0E3
:103750003049786809680844C0F808802E48016834
:1037600005F10C0008442C4908602C4800680968E1
:10377000884219D2284800682849086014E00120CE
:103780006080244960680968611A401A2249096802
:10379000084421490860214800680968884203D22A
:1037A0001D4800681D4908604FF4F55020801848F6
:1037B0000068844212D107E0154800684068154946
:1037C000096808441249086011480068408828B117
:1037D0000F480068124909688842EDD10B4800F093
:1037E00070F904F10C006CE7FFE70A480068304408
:1037F000466805480068401BB0423FF67BAF03486F
:1038000000F05FF900205CE734000020A8130020DE
:103810003000002028000020380000203C0000205C
:103820002C000020F0B50C460546E6B2042A15D35C
:1038300000F0030797B9014646EA062343EA03432B
:1038400004E008C108C108C108C1103A102AF8D222
:1038500001E008C1121F042AFBD20D4601E005F861
:10386000016B171EA2F10102F9D1F0BD2DE9F04163
:1038700005460F46284600F03BF80646F068FFF77D
:103880001BFF044614B90020BDE8F081257200201A
:10389000607208223946204600F0CBF9FCF790FC14
:1038A000804604F10C01301DFFF7C7FE4046FCF7CF
:1038B0008BFC2046E8E770B50446FCF781FC054622
:1038C00004F10C00FFF7E5FE2846FCF77DFC2046DE
:1038D000FFF79EFC70BD70B50446FCF771FC054611
:1038E00004F10C00FFF7D5FE2846FCF76DFC70BD17
:1038F000024600210AE0074800EB011000789042E0
:1039000003D1044800EB01107047491C0429F2DB85
:103910000020F9E7400000202DE9F04104460D4663
:1039200016462846FFF7E4FF074645F08000207260
:1039300008223146204600F07CF9FCF741FC804625
:1039400004F10C01381DFFF778FE4046FCF73CFC03
:10395000BDE8F0810146087A00F0800008B101203E
:1039600070470020FCE700002DE9F041FCF728FC3F
:1039700007461B48008868BB1A480068FEF7E4FC4D
:10398000461E194850F83600A0F114041748006884
:1039900084421BD016490E7014480568046015480F
:1039A000007848B904F11C0105F11C00FCF70FFC7C
:1039B0003846FCF709FC0CE004F11C0105F11C0081
:1039C000FCF705FC3846FCF7FFFB02E03846FCF745
:1039D000FBFB02E03846FCF7F7FBBDE8F081000096
:1039E000800000208C000020C813002084000020EC
:1039F000880000202400002070B50446FCF7E0FB9E
:103A0000054614F8340F20F00F0040F0010020703C
:103A10006278343C0A4B03EBC20004F114014268A3
:103A2000116042684A604160086000BF0549A06BB0
:103A300009680843034908602846FCF7C5FB70BDC8
:103A4000C81300208C00002070B50446FCF7B8FBBA
:103A5000054604F11400D0E900215160D0E90012BC
:103A600011604060006000BF94F83510094A02EB15
:103A7000C1000168814201D1012100E0002129B18A
:103A80000548A16B00688843034908602846FCF795
:103A90009BFB70BDC81300208C0000202DE9F04175
:103AA00004460D4616461F462A4601212046FFF7CA
:103AB00033FF2046FFF798FDA68367720020BDE81C
:103AC000F08170B504460025FCF77AFB064604F148
:103AD0001400FFF7CEFD28B904F11400FFF744FDF0
:103AE000012502E0A08B401CA0833046FCF76CFB54
:103AF000012D01D1FFF738FF002070BD73B50546D9
:103B0000FCF75EFB0646A88B002806DDA88B401E4E
:103B1000A8833046FCF758FB28E0019828B93046C6
:103B2000FCF752FB6FF001007CBD00F05BFA04462D
:103B3000002020636A7A214605F11400FFF71EFD7C
:103B40000198002809DD01AA002104F1440000F0D9
:103B500047FB04F1440000F087FB3046FCF734FBE0
:103B6000FFF702FF206B08B1206BDDE70020DBE7E9
:103B700008B509A0FFF740FD0AA0FFF73DFD12A020
:103B8000032300221946009012A0FFF735FD19A06B
:103B9000FFF732FD08BD00000A205C207C202F0AC0
:103BA000000000002D205254202D202020202054E1
:103BB0006872656164204F7065726174696E672018
:103BC00053797374656D0A004A756C202037203272
:103BD00030323000202F207C205C20202020202527
:103BE000642E25642E2564206275696C642025731B
:103BF0000A0000002032303036202D20323031389B
:103C000020436F70797269676874206279207274DA
:103C10002D746872656164207465616D0A0000002E
:103C200001460A4600E0521C10780028FBD1501AC9
:103C3000704770B50346A2B118460C4600BF14F891
:103C4000016B00F8016B3EB902E0002500F8015B52
:103C5000551E2A1EF9D102E0551E2A1EEFD100BFC3
:103C600000BF184670BD00002DE9F04105460E4624
:103C7000E81C20F0030726F00308B8F1180F09D953
:103C8000A8F11800B84205D3A8EB070018381E4960
:103C9000086006E0324629461CA0FFF7ADFCBDE8EF
:103CA000F0812948076004684FF4F55020801648D9
:103CB00000680C3060600020A0606080224960686D
:103CC00009680844214908604FF4F55009680880E4
:103CD00001201E49096848800B4800680C301B49C8
:103CE00009684860084800680C301849096888600D
:103CF0000023012216A11848FFF7D0FE12480068E1
:103D00001649086000BFCAE7340000206D656D20C9
:103D1000696E69742C206572726F722062656769C2
:103D20006E206164647265737320307825782C206E
:103D3000616E6420656E64206164647265737320D3
:103D4000307825780A000000280000202C00002090
:103D50006865617000000000A8130020300000209A
:103D600010B500200B490880002405E00A4901EB4A
:103D7000C400FFF75CFC641C082CF7DB0720074934
:103D80000870002006490860064908600648FFF7E9
:103D90004EFC10BD80000020C813002088000020C9
:103DA000840000208C0000209000002070B508489E
:103DB0000068FEF7C9FA451E064850F83500A0F124
:103DC00014040548046004F11C00FCF746FA70BDB9
:103DD0008C000020C81300208400002010B50024AF
:103DE00005E0044901EBC400FFF724FC641C002C2F
:103DF000F7D010BD9800002070472DE9FF5F064600
:103E00000F4690461D46DDE90EAB31460020FFF718
:103E10002DFD8146B9F1000F03D1002004B0BDE8AB
:103E2000F09F2846FFF748FC044624B94846FFF7B0
:103E300042FD0020F2E743463A46314648468DE8C7
:103E4000300CFEF71BFF4846E8E710B50446204655
:103E500000F0CEF810BD000070B512480468FCF701
:103E6000AFF905462046FFF7EFFD042084F8340043
:103E700004F1440000F0D0F92046FFF76BFD012863
:103E800005D1206F18B92046FFF725FD04E004F1A5
:103E900014010548FFF7D8FB2846FCF795F9FFF712
:103EA00063FD70BD840000209000002001E000F060
:103EB00001F8FCE770B537E0FCF782F90546FEF73C
:103EC0003BFB18B31B480068A0F1140404F1140074
:103ED000D0E900215160D0E900121160406000601B
:103EE00000BFFFF767F9206F10B12046216F8847A8
:103EF0002046FFF72FFD012805D1FFF76BF9284673
:103F0000FCF762F970BDFFF765F903E02846FCF79E
:103F10005BF9F7E72846FCF757F9A06AFFF778F94D
:103F20002046FFF7C8FC00BFFEF706FB0028C3D100
:103F300000BFE7E7900000201FB520200721C20046
:103F4000074BCDE90032CDE902100023054A06A156
:103F5000074800F00FF8064800F06CF81FBD00009D
:103F600028120020AD3E00087469646C65000000F2
:103F7000B01100202DE9FF5F05460C4616461F468E
:103F8000DDE910ABDDE90E89224600212846FFF766
:103F9000C3FC3B463246214628468DE8000FFEF71B
:103FA0006DFE04B0BDE8F09F70B5044694F834008F
:103FB00000F00F00022802D04FF0FF3070BDFCF778
:103FC000FFF8054604F11400FFF76CFB04F1440010
:103FD00000F0C6F92846FCF7F7F82046FFF70CFD7D
:103FE0000020EBE7014800687047000084000020D3
:103FF00031B5FCF7E5F805460D480468204600F0A9
:104000002FF86A46002104F1440000F0E9F804F1B9
:10401000440000F029F92846FCF7D6F8FFF7A4FC85
:10402000206B801C08B900202063002038BD0000F0
:104030008400002010B504463434A07860706178A4
:10404000012088406060022004F834092046FFF710
:10405000ABFFFFF7C7FF08B1FFF786FC002010BDDC
:1040600070B5044694F8340000F00F00012802D027
:104070004FF0FF3070BDFCF7A3F8054694F834000C
:1040800020F00F0040F0020084F834002046FFF7D3
:10409000DBFC04F1440000F063F92846FCF794F8D7
:1040A0000020E7E770B5044625466FF0010028635D
:1040B00005F11400FFF7F6FA2846FFF79DFCFFF71D
:1040C00053FC70BD70B5FCF77BF8054614480468D6
:1040D00094F8340000F00F0001281CD1D4E9051039
:1040E000814218D004F11400FFF7DCFA94F835206F
:1040F0000C4B03EBC20004F11401426811604268EA
:104100004A604160086000BF2846FCF75DF8FFF791
:104110002BFC002070BD2846FCF756F80020F9E77C
:1041200084000020C8130020014800687047000088
:104130002000002010B50A480068401C08490860AB
:10414000FFF750FF0446206C401E2064206C18B915
:10415000E06B2064FFF7B6FF00F004F810BD00002C
:104160002000002070B5FFF7DFFF0546FCF728F8B8
:10417000064628E019480068A0F11404A06A281A2D
:104180006FF0004188421DD22046FEF7DAFDD4E9E7
:1041900007108847FFF7C8FF0546607A00F0020065
:1041A00058B1607A00F0010038B1607A20F0010067
:1041B0006072204600F058F805E0607A20F00100B7
:1041C000607200E004E00548FFF75BFA0028D1D0F8
:1041D00000BF3046FBF7F8FF70BD000098000020DC
:1041E000034649B1012904D0022908D0032910D17E
:1041F0000AE0586A10600CE01068586209E0587ACA
:1042000020F00200587204E0587A40F00200587220
:1042100000BF00BF0020704770B50446FBF7D0FF19
:1042200005462046FEF78DFD2846FBF7CDFF2046CC
:10423000FFF751FB002070BD2DE9F84307460C46FF
:1042400015461E46DDE90889224609213846FFF752
:1042500063FB4346324629463846CDF80090FEF7C8
:104260004FFDBDE8F88300002DE9F8430546FBF754
:10427000A7FF80462846FEF764FD687A20F001001B
:1042800068724046FBF7A0FFFFF74EFF696A0844DB
:10429000A862FBF795FF80462F4F009700242AE085
:1042A00019E05DF824201168142202EBC402881A78
:1042B000826AAB6AD21A00D108E0826AAB6AD21A6B
:1042C0006FF000439A4200D20CE000BF5DF824007A
:1042D00000684DF824005DF8240007EBC40149682C
:1042E0008842DED100BF2CB15DF824000830611C8B
:1042F0004DF82100641C002CD2D018480068401CE6
:10430000164908600846066805F114010098FFF791
:10431000A2F9022412E006F0030060B9C4F101031F
:1043200005F1140202EBC301C4F101025DF82200A1
:10433000FFF791F900E003E0B608641C012CEAD90C
:1043400000BF687A40F0010068724046FBF73CFF0E
:104350000020BDE8F883000098000020A0000020A5
:1043600070B50446607A00F0010010B94FF0FF30DC
:1043700070BDFBF725FF05462046FEF7E2FC284608
:10438000FBF722FF607A20F0010060720020EFE767
:104390002DE9FF4F89B0804644460A984044461EA6
:1043A000464504D24FF0FF36A6EB08000A906FE1B5
:1043B0000B980078252806D0B44202D80B980078D4
:1043C0002070641C61E1002526E00B98401C0B90D6
:1043D0000B9800782D2802D145F010051CE00B98B1
:1043E00000782B2802D145F0040515E00B980078E1
:1043F000202802D145F008050EE00B98007823280C
:1044000002D145F0200507E00B980078302802D152
:1044100045F0010500E000E0D7E700BF4FF0FF37AF
:104420000B98007830380A2804D20BA800F061F904
:1044300007460EE00B9800782A280AD10B98401CFA
:104440000B900C9880C80C90002F02DA7F4245F048
:1044500010054FF0FF390B9800782E281CD10B98CF
:10446000401C0B900B98007830380A2804D20BA817
:1044700000F03FF981460AE00B9800782A2806D11F
:104480000B98401C0B900C9850F8049B0C90B9F1C1
:10449000000F01DA4FF00009002004900B9800781B
:1044A000682803D00B9800786C2805D10B98007809
:1044B00004900B98401C0B900A2005900B980078F4
:1044C0006F2875D00CDC632813D004DC252870D04D
:1044D00058286FD18DE064286DD06928F9D18FE01C
:1044E00070286AD0732825D0752878D07828F0D124
:1044F00082E005F0100040B904E0B44201D8202069
:104500002070641C781E071EF7DC0C9810F8041B42
:104510000C90C8B20790B44201D807982070641C70
:1045200004E0B44201D820202070641C781E071ECD
:10453000F7DCAAE00C98006806900C98001D0C901F
:10454000069808B95AA006900698FFF769FB8346BB
:10455000B9F1000F02DDCB4500DDCB4605F01000C0
:1045600048B904E0B44201D820202070641C3846C9
:104570007F1E5845F6DC002008900BE0B44202D8BC
:10458000069800782070641C0698401C06900898D5
:10459000401C089008985845F0DB04E0B44201D86C
:1045A00020202070641C38467F1E5845F6DC6CE0E5
:1045B0001CE015E028E022E0FFE7781C10B908278E
:1045C00045F00105CDE9007902950C9804C8102347
:1045D00031460C902046FEF7F5FC044655E012E00B
:1045E000B44201D825202070641C4EE008200590BC
:1045F0001DE045F0400500BF1020059017E000BF0A
:1046000045F0020500BF12E0B44201D82520207019
:10461000641C0B98007830B1B44202D80B98007833
:104620002070641C02E00B98401E0B902DE000BF30
:1046300004986C2807D10C9850F804AB0C9005F046
:104640000200B8B116E0049868280BD10C9830F835
:10465000041B1FFA81FA0C9005F0020050B10FFA0A
:104660008AFA07E00C9850F804AB0C9005F00200B1
:1046700000B100BFCDE9007902955246314620468F
:10468000059BFEF79FFC044600BF0B98401C0B9057
:104690000B98007800287FF48BAEB44201D82070CC
:1046A00001E000203070A4EB08000DB0BDE8F08FF1
:1046B000284E554C4C2900000020704700207047C0
:1046C000002070470020704710B5FBF779FDFEF71A
:1046D00017FEFFF74DFAFFF781FBFFF741FBFEF7EF
:1046E00037FDFFF789FBFFF727FCFFF75FFB002093
:1046F00010BD0146002009E00B685A1C0A601A78B8
:1047000000EB800302EB4302A2F130000A6812784A
:10471000303A0A2AF0D37047000000000000000081
:104720000102030406070809000000000102030457
:10473000000001000200010003000100020001006E
:10474000040001000200010003000100020001005A
:104750000500010002000100030001000200010049
:10476000040001000200010003000100020001003A
:104770000600010002000100030001000200010028
:10478000040001000200010003000100020001001A
:104790000500010002000100030001000200010009
:1047A00004000100020001000300010002000100FA
:1047B00007000100020001000300010002000100E7
:1047C00004000100020001000300010002000100DA
:1047D00005000100020001000300010002000100C9
:1047E00004000100020001000300010002000100BA
:1047F00006000100020001000300010002000100A8
:104800000400010002000100030001000200010099
:104810000500010002000100030001000200010088
:104820000400010002000100030001000200010079
:104830003031323334353637383961626364656616
:10484000003031323334353637383941424344450C
:1048500046000000C5460008BD460008B9460008ED
:10486000C14600088448000800000020B80000008D
:10487000942300083C490008B800002050170000AD
:10488000A42300080024F400000000001000000031
:104890000100000000000000000000000000000017
:1048A0000000000000000000000000000000000008
:1048B00000000000000000000000000000000000F8
:1048C0000000000000000000440000204400002020
:1048D0007800000001000000540000205400002077
:1048E000200000000400000064000020640000209C
:1048F0003000000009000000740000207400002057
:104900002C0000000000000000000000000000007B
:104910000000000000000000000000000000000097
:104920000000000000000000000000000000000087
:0C4930000000000000000000000000007B
:040000050800018965
:00000001FF
