:020000040800F2
:10000000106D00209D0100087D260008A302000855
:100010007926000871040008492D0008000000003E
:100020000000000000000000000000003D28000863
:10003000B104000800000000EF0100083F2800089C
:10004000B7010008B7010008B7010008B7010008B0
:10005000B7010008B7010008C5040008B70100088F
:10006000B7010008B7010008B7010008B701000890
:10007000B7010008B7010008B7010008B701000880
:10008000B7010008B7010008B7010008B701000870
:10009000B7010008B7010008B7010008B701000860
:1000A000B7010008B7010008B7010008B701000850
:1000B000B7010008B7010008B7010008B701000840
:1000C000B7010008B7010008B7010008B701000830
:1000D000B7010008B7010008B7010008B701000820
:1000E000B7010008B7010008B7010008B701000810
:1000F000B7010008B7010008B7010008B701000800
:10010000B7010008B7010008B7010008B7010008EF
:10011000B7010008B7010008B7010008B7010008DF
:10012000B7010008B7010008B7010008B7010008CF
:10013000B7010008B7010008B7010008B7010008BF
:10014000B7010008B7010008B7010008B7010008AF
:10015000B7010008B7010008B7010008B70100089F
:10016000B7010008B7010008B7010008B70100088F
:10017000B7010008B7010008B7010008000000003F
:10018000B7010008B7010008DFF80CD000F02CF927
:100190000048004763040008106D002006488047AF
:1001A00006480047FEE7FEE7FEE7FEE7FEE7FEE75C
:1001B000FEE7FEE7FEE7FEE71129000889010008D7
:1001C000EFF3108072B6704780F3108870473A4A98
:1001D0001368012B04D04FF001031360374A1060FD
:1001E000374A116037484FF0805101607047EFF394
:1001F000108272B63048016851B34FF000010160BF
:100200002E48016891B1EFF309811EF0100F08BF6D
:1002100021ED108B21E9F00F4FF000041EF0100FBC
:1002200008BF012441F8044D0068016024490968B1
:10023000096808C9B1E8F00F002B18BFB1EC108BAA
:1002400081F309884EF0100E002B18BF2EF0100E0F
:1002500082F310884EF0040E704719490860EFF3DE
:10026000148222F0040282F3148814494FF0000033
:10027000086011494FF00100086013484FF47F01F6
:10028000D0F8002041EA020101600E484FF0805191
:1002900001600E480068006880F3088861B662B6A5
:1002A0007047EFF3098000B503F0D6F95DF804EB71
:1002B0004EF0040E704700002801002020010020AD
:1002C0002401002004ED00E020ED00E008ED00E056
:1002D0002DE9F05F0546002092469B46884606467B
:1002E000814640241BE0284641464746224600F00E
:1002F00065F853465A46C01A914110D31146184624
:10030000224600F04CF82D1A67EB01084F462246B2
:100310000120002100F043F817EB00094E41201E98
:10032000A4F10104DFDC484631462A464346BDE8D5
:10033000F09F421C10F8011B0029FBD1801A704766
:100340002DE9F0410546002090460E46044600E0A7
:10035000641C44450BD2285D00F040F80746305D30
:1003600000F03CF8381A02D1295D0029F0D1BDE82F
:10037000F08130B50B46014600202022012409E01F
:1003800021FA02F59D4205D303FA02F5491B04FA4E
:1003900002F52844151EA2F10102F1DC30BD202A2D
:1003A00004DB203A00FA02F1002070479140C2F1CC
:1003B000200320FA03F3194390407047202A04DBFE
:1003C000203A21FA02F00021704721FA02F3D040CE
:1003D000C2F120029140084319467047A0F1410143
:1003E000192900D820307047064C074D06E0E06818
:1003F00040F0010394E8070098471034AC42F6D36C
:10040000FFF7C6FEF89E0008189F000870B58C180C
:1004100010F8015B15F0070301D110F8013B2A1118
:1004200006D110F8012B03E010F8016B01F8016B05
:100430005B1EF9D12B0705D40023521E0DD401F801
:10044000013BFAE710F8013BCB1A921C03E013F8CA
:10045000015B01F8015B521EF9D5A142D8D30020FF
:1004600070BD10B5FFF7ACFE04F074FA002010BDAB
:1004700000BFFEE710B50C480C4908604FF4E130AE
:100480004860002109488160C160016181610C21DF
:10049000416100F0D4FE05480068C06840F02000CB
:1004A00002490968C86010BD0010014034010020F5
:1004B000704701B502E00098401E009000980028A7
:1004C000F9D108BD7047000070B504461D460023F1
:1004D000B5F5804F13D154F822300C480340D1E9D0
:1004E000000640EA06108E6840EA06208E8940EA3F
:1004F00006408E693043034344F8223003E06FF036
:10050000704044F82200002070BD00000000F0CFD1
:1005100010B503460022086853F820201248024014
:10052000D1E901042043CC6820430C6920434C6985
:1005300020438C692043CC6920430C6A20434C6AD9
:1005400020438C6A2043CC6A2043CC6B20430C6B45
:10055000204302438868082801D142F0400208681D
:1005600043F82020002010BD8000F0FF30B5034686
:100570000024501C53F8204004F04044D1E9000509
:1005800040EA05108D6840EA05208D8940EA05455E
:10059000088A401E45EA0055087D801E45EA006035
:1005A0008D6928430443501C43F82040002030BD8F
:1005B0002DE9F0418CB080460C461848007888B987
:1005C00002F0B4F8012015490870694614A002F041
:1005D00061F81849086008460068401C10B91648C0
:1005E00002F0B4FB2512E6B2A5F1A101C1EB0112A4
:1005F00002EB411106EB4101A1398802C11700EB62
:100600005171CF100B480068C1198022404602F09A
:1006100065F800200CB0BDE8F081000090000020DB
:100620004742323331325F48333233322E464F4EF7
:1006300000000000940000209C9E0008F8B50246CF
:100640000B460025002400200021DCE0012606FAEC
:1006500001F51E6806EA0504AC4273D15E68022EFD
:1006600002D05E68122E13D1CF0802F1200656F890
:1006700027004E07F70E0F26BE40B0434F07FF0E70
:100680001E69BE403043CF0802F1200646F827001D
:1006900010684F000326BE40B0431E7906F00306E3
:1006A0004F00BE40304310605E68012E08D05E6887
:1006B000022E05D05E68112E02D05E68122E13D174
:1006C00090684F000326BE40B0434F00DE68BE4036
:1006D00030439060506801268E40B0431E79C6F3C7
:1006E00000168E4030435060D0684F000326BE4055
:1006F000B0434F009E68BE403043D0605E6806F055
:100700008056B6F1805F7DD100BF00260096404E36
:10071000366846F480463E4F3E603E46366806F4F4
:100720008046009600BF00BF3A4E8F0856F827005B
:100730008E07370F0F26BE40B043374EB24202D16C
:10074000002624E05EE0354EB24201D101261EE0D3
:10075000334EB24201D1022619E0324EB24201D1EB
:10076000032614E0304EB24201D104260FE02F4E92
:10077000B24201D105260AE02D4EB24201D1062631
:1007800005E02C4EB24201D1072600E008268F0773
:100790003F0FBE4030431F4E8F0846F82700264EBD
:1007A0003068A0435E6806F48036B6F5803F00D11D
:1007B0002043214E3060361D3068A0435E6806F449
:1007C0000036B6F5003F00D120431B4E361D306089
:1007D000361D3068A0435E6806F48016B6F5801FAB
:1007E00000D12043144E08363060361D3068A043D7
:1007F0005E6806F40016B6F5001F00D120430E4EC9
:100800000C363060491C1029FFF420AFF8BD000001
:100810004438024008380140000002400004024011
:1008200000080240000C0240001002400014024088
:1008300000180240001C0240003C014002461369BF
:100840000B400BB1012000E0002070470148006818
:10085000000C7047002004E0014800687047000069
:100860000400002070B504460E4800784FF47A71F9
:10087000B1FBF0F00C490968B1FBF0F5284600F037
:10088000C4FC08B1012070BD102C07D20022214603
:10089000501E00F01DF80548046001E00120F2E759
:1008A0000020F0E70C0000200000002008000020DD
:1008B00001460846002809DB00F01F0301229A4088
:1008C00043099B0003F1E023C3F8002100BF7047F8
:1008D0002DE9F05F80460D461646002702F05AFAD1
:1008E000074639462A46334601F00700C0F1070A99
:1008F000BAF1040F02D94FF0040A01E0C0F1070A6F
:10090000D14600F1040ABAF1070F02D24FF0000AF3
:1009100001E0A0F1030AD4464FF0010A0AFA09FAED
:10092000AAF1010A0AEA020A0AFA0CFA4FF0010BCC
:100930000BFA0CFBABF1010B0BEA030B4AEA0B04BD
:100940002146404602F02EFABDE8F09F70B50446FD
:100950000D460CB9012070BD5848006800F00F002A
:10096000A84209D255490D700846006800F00F00F2
:10097000A84201D00120EEE7207800F00200022812
:100980001DD1207800F00400042805D14C480068EF
:1009900040F4E0504A490860207800F00800082838
:1009A00005D14748006840F4604045490860444824
:1009B000006820F0F000A1680843414908602078F1
:1009C00000F00100A8B36068012807D13C4808384E
:1009D0000068C0F34040B8B90120BCE76068022855
:1009E00002D06068032807D1354808380068C0F392
:1009F000406048B90120AEE7314808380068C0F3CC
:100A0000400008B90120A6E72D48006820F0030047
:100A1000616808432A490860FFF71EFF064609E09F
:100A2000FFF71AFF801B41F28831884202D9032068
:100A300091E707E02248006800F00C006168B0EB25
:100A4000810FEDD11D48006800F00F00A84209D9C0
:100A50001A490D700846006800F00F00A84201D046
:100A6000012078E7207800F00400042807D114481A
:100A7000006820F4E050E1680843114908602078DC
:100A800000F00800082808D10D48006820F46040F4
:100A9000216940EAC1000A49086000F03DF80849B0
:100AA0000968C1F30311074A515CC8400649086050
:100AB0000F20FFF7D7FE00204DE70000003C02406A
:100AC00008380240A44900080000002001480068DE
:100AD000704700000000002000B5FFF7F7FF044951
:100AE0000968C1F38221034A515CC84000BD00007F
:100AF00008380240B449000800B5FFF7E7FF044991
:100B00000968C1F34231034A515CC84000BD00008E
:100B100008380240B44900082DE9F04700240025B8
:100B20000026A1462548006800F00C0020B10428EA
:100B300005D008283AD105E0DFF8849039E0DFF8E5
:100B4000849036E01D48001F006800F03F041B48F9
:100B5000001F006800F4800078B11A481749091F87
:100B60000968C1F38811A0FB0170014622460023E9
:100B70003846FFF7ADFB05460EE011480F49091F47
:100B80000968C1F38811A0FB0170014622460023C9
:100B90003846FFF79DFB05460848001F0068C0F374
:100BA0000140401C4600B5FBF6F902E0DFF810906A
:100BB00000BF00BF4846BDE8F0870000083802408B
:100BC0000024F40040787D01F8B504460CB90120FA
:100BD000F8BD207800F00100002874D0F9480068C2
:100BE00000F00C0004280DD0F648006800F00C005E
:100BF000082813D1F348001F006800F48000B0F506
:100C0000800F0BD1EF4808380068C0F3404000283F
:100C100059D06068002856D10120D9E700BF60682C
:100C2000B0F5803F08D1E7480838006840F48030CC
:100C3000E449083908601EE06068B0F5A02F0DD1C6
:100C4000E0480838006840F48020DE490839086030
:100C50000846006840F4803008600CE0D948083845
:100C6000006820F48030D7490839086008460068D9
:100C700020F48020086000BF606890B1FFF7ECFDB1
:100C8000054606E0FFF7E8FD401B642801D9032074
:100C90009EE7CC4808380068C0F340400028F1D0F7
:100CA00011E0FFF7D9FD054606E0FFF7D5FD401B33
:100CB000642801D903208BE7C24808380068C0F3D4
:100CC00040400028F1D1207800F0020002285FD1D6
:100CD000BC48006800F00C0058B1BA48006800F049
:100CE0000C0008281CD1B748001F006800F48000E1
:100CF000B0B9B44808380068C0F3400020B1E068DB
:100D0000012801D0012063E7AE480838006820F0D0
:100D1000F800216940EAC100AA490839086037E0B3
:100D2000E06800B30120A8490860FFF795FD05467B
:100D300006E0FFF791FD401B022801D9032047E799
:100D4000A04808380068C0F340000028F1D09D4852
:100D50000838006820F0F800216940EAC10099498C
:100D60000839086014E0002097490860FFF774FD17
:100D7000054606E0FFF770FD401B022801D903205D
:100D800026E7904808380068C0F340000028F1D1F9
:100D9000207800F0080008282CD16069A8B1012053
:100DA0008A490860FFF758FD054606E0FFF754FD45
:100DB000401B022801D903200AE782486C300068F2
:100DC000C0F340000028F1D014E000207F49086003
:100DD000FFF742FD054606E0FFF73EFD401B0228F7
:100DE00001D90320F4E677486C300068C0F3400076
:100DF0000028F1D1207800F00400042870D10026EA
:100E000070483830006800F0805090B900BF002072
:100E100000906C483830006840F0805069493831A3
:100E200008600846006800F08050009000BF00BFD6
:100E300001266748006800F48070B0B96448006813
:100E400040F4807062490860FFF706FD054606E041
:100E5000FFF702FD401B022801D90320B8E65C48D9
:100E6000006800F480700028F2D000BFA06801285C
:100E700008D154486830006840F001005149683199
:100E800008601DE0A06805280DD14E486830006854
:100E900040F004004B49683108600846006840F0A3
:100EA000010008600CE047486830006820F001004D
:100EB0004449683108600846006820F00400086072
:100EC00000BFA068A8B1FFF7C7FC054609E0FFF71F
:100ED000C3FC401B41F28831884202D9032077E6E7
:100EE00026E0384868300068C0F340000028EED0A3
:100EF00013E0FFF7B1FC054608E0FFF7ADFC401B2F
:100F000041F28831884201D9032061E62D486830DA
:100F10000068C0F340000028EFD1012E07D1294816
:100F20003830006820F0805026493831086000BF12
:100F3000A069B8B32348006800F00C0008285ED010
:100F4000A069022846D100201F490866FFF784FCEB
:100F5000054606E0FFF780FC401B022801D903206C
:100F600036E6184808380068C0F340600028F1D120
:100F7000D4E907010843616A40EA81110122A06AAD
:100F8000C2EB500041EA00412C20005D41EA0060C4
:100F90000C49091F086001200B490866FFF75CFC3B
:100FA000054607E02DE0FFF757FC401B022801D95A
:100FB00003200DE6034808380068C0F340600028AD
:100FC000F1D01EE00838024000004742800E474240
:100FD0000070004000200C490866FFF73DFC054604
:100FE00006E0FFF739FC401B022801D90320EFE59A
:100FF00006480068C0F340600028F2D101E00120FB
:10100000E6E50020E4E50000000047420038024029
:1010100010B504460CB9012010BD606A00B900BFCC
:10102000A06AB0F5005F00D100BF94F8510028B964
:10103000002084F85000204600F03AF8022084F89E
:1010400051002068006820F0400021680860D4E961
:1010500001010843E16808432169084361690843C5
:10106000218B01F400710843E1690843216A0843B8
:10107000A16A0843216808600421A06901EA1040C0
:10108000616A084321684860A06AB0F5005F02D138
:101090002168E06A08612068C06920F40060216866
:1010A000C86100206065012084F851000020B3E78A
:1010B00010B586B0044600BF002000903948006893
:1010C00040F00200374908600846006800F002005E
:1010D000009000BF00BF00BF0020009008460068DD
:1010E00040F0020008600846006800F0020000902E
:1010F00000BF00BF00BF002000900846006840F01D
:10110000020008600846006800F00200009000BF7E
:1011100000BF00BF002000900846006840F040007B
:1011200008600846006800F04000009000BF00BF63
:1011300000BF002000901B481430006840F480502D
:101140001849143108600846006800F48050009087
:1011500000BF00BF082001900220029001200390F0
:10116000022004900520059001A90F48FFF766FAB8
:10117000102001900520059001A90B48FFF75EFAA9
:10118000202001900520059001A90748FFF756FA95
:10119000402001900120029001A90448FFF74EFA77
:1011A00006B010BD30380240000402400018024072
:1011B00070B504460E4615460CB9012070BD94F872
:1011C000490028B9002084F84800204600F01CF8A7
:1011D00004F108012068FFF79BF93146A2682068F6
:1011E000FFF7C4F92946236BD4E90102FFF76CF934
:1011F000A168206850F8210040F00100A268216831
:1012000041F822000020D9E7704770B50446254612
:10121000681EB0F1807F01D301200FE0681E4FF0FF
:10122000E02148610F214FF0FF3001F0BBFD0020AD
:101230004FF0E021886107200861002070BD10B5E3
:1012400004460CB9012010BDA06900B100E000BF48
:1012500094F8390028B9002084F83800204600F0BE
:1012600027F8242084F839002068C06820F4005052
:101270002168C860204601F07DFB2068006920F4E9
:101280009040216808612068406920F02A002168A8
:1012900048612068C06840F400502168C8600020A0
:1012A000E063202084F8390084F83A000020CAE77F
:1012B00010B586B0044600BF0020009026480068A4
:1012C00040F01000244908600846006800F0100053
:1012D000009000BF00BF00BF002000901E481438DF
:1012E000006840F002001C49143908600846006894
:1012F00000F00200009000BF00BF00BF002000907F
:101300000846006840F0020008600846006800F0E7
:101310000200009000BF00BF402001900220029018
:1013200001200390032004900720059001A90B4899
:10133000FFF784F9802001900720059001A9074854
:10134000FFF77CF9012200212520FFF7C1FA2520B3
:10135000FFF7AEFA06B010BD443802400004024068
:101360002DE9F84304460D4616461F464FF0000986
:1013700094F8390020285CD105B116B90120BDE8E8
:10138000F88300BF94F83800012801D10220F6E765
:10139000012084F8380000BF0020E063212084F899
:1013A0003900FFF759FA8146A684E6842BE0E08CE9
:1013B000401EE084A068B0F5805F16D14B46002245
:1013C00080212046009701F089FC08B10320D6E770
:1013D000A846B8F80000C0F30800216848602069FA
:1013E00008B9AD1C0FE06D1C0DE04B4600228021BA
:1013F0002046009701F072FC08B10320BFE715F802
:10140000010B21684860E08C0028D0D14B460022B7
:1014100040212046009701F061FC08B10320AEE7AF
:10142000202084F8390000BF002084F8380000BF75
:10143000A5E70220A3E7000018B12021034A91612B
:1014400003E04FF40011014A91617047001002401F
:101450002DE9F04106460F4614461D462B4622460E
:101460003946304600F0E0FB04FB05F002490988EC
:1014700000F0BEFABDE8F0817600002070B50446A9
:1014800000F0C6FEC5882B4603480288214600208E
:10149000FFF7DEFF70BD00006800002001B502E02C
:1014A0000098401E009000980028F9D108BD000067
:1014B0002DE9F04780468946174620231A464946BB
:1014C000404600F0B1FB2C2000F00CFE39461A48D3
:1014D000FFF76EF800242BE0174810F824502D0277
:1014E000012000EB84001449085C05432D02022012
:1014F00000EB8400085C05432D02032000EB840010
:10150000085C054300260FE04FF00040F040284003
:1015100020B10A48008800F0E9FD03E0084800888F
:1015200000F0E4FD701CC6B2202EEDDB601CC4B2DE
:10153000202CD1DBBDE8F087E00100207400002002
:10154000760000202DE9F05F804689461646A6F118
:1015500020001FFA80FA1E49096889881C4A12680F
:10156000D28801FB02F0C11700EB5171C1F3C7072C
:101570001748006800680AFB070B15480068C38815
:101580001348006882884946404600F04DFB2C20F5
:1015900000F0A8FD002416E0002510E01BF8040070
:1015A00080212941084020B10A48008800F09EFDB2
:1015B00003E00948008800F099FD681CC5B2082DB9
:1015C000ECDB601CC4B2BC42E6DBBDE8F09F00006F
:1015D00070000020740000207600002070B50446E2
:1015E0000D46002624E030461349096889880844DE
:1015F00012490988884205DD00260F480068C08826
:10160000204484B220460C490968C98808440C4922
:101610000988884201DD002600242A7821463046C8
:10162000FFF790FF6D1C044800688088304486B244
:1016300028780028D7D170BD7000002068000020F5
:101640006A0000202DE9F04105460C46002648E0DE
:1016500020787E2825DC304624490968898808449A
:1016600023490988884205DD002620480068C08893
:10167000284485B228461D490968C98808441D497F
:101680000988884201DD0026002522782946304657
:10169000FFF758FF154800688088304486B2641C04
:1016A0001FE03046203012490988884203DD0026B9
:1016B00005F1200085B2284620300E49098888426D
:1016C00001DD002600252788380200EB272087B29D
:1016D0003A4629463046FFF7EBFE06F1200086B277
:1016E000A41C20780028B3D1BDE8F0817000002050
:1016F000680000206A0000202DE9F05F05460E46D4
:1017000091469B4600240FFA89F70320A0EB49007D
:101710000FFA80FA87E0BBF1000F40D0A0463BE013
:1017200006EB080291B22A1990B200F0BFFC06EB5A
:10173000080291B22A1B90B200F0B8FC321991B2A3
:10174000A5EB080290B200F0B1FC321B91B2A5EB00
:10175000080290B200F0AAFCA6EB080291B22A1B84
:1017600090B200F0A3FCA6EB080291B22A1990B245
:1017700000F09CFC321B91B205EB080290B200F025
:1017800095FC321991B205EB080290B200F08EFC84
:1017900008F101000FFA80F8B845C1DD2FE0F21919
:1017A00091B22A1990B200F081FCF21991B22A1B71
:1017B00090B200F07BFC321991B2EA1B90B200F0BB
:1017C00075FC321B91B2EA1B90B200F06FFCF21B69
:1017D00091B22A1B90B200F069FCF21B91B22A1957
:1017E00090B200F063FC321B91B2EA1990B200F0A3
:1017F0005DFC321991B2EA1990B200F057FC601CFE
:1018000004B2BAF1000F05DAA000801D50440FFAAF
:1018100080FA07E0E01B80000A3050440FFA80FA9B
:10182000781E07B200BFBC427FF775AFBDE8F09FDE
:101830002DE9FF4F83B081464FF0000AD34605984B
:10184000A0EB090504990698461ACDF8049004986F
:101850000090002D01DD012705E00DB9002702E011
:101860004FF0FF376D42002E02DD4FF0010806E019
:1018700016B94FF0000802E04FF0FF387642B5424B
:1018800001DD2C4600E034460020029019E0DDE93D
:10189000001000F00BFCAA44B344A24505DDAAEBFE
:1018A000040A0198384480B20190A34505DDABEBF2
:1018B000040B0098404480B200900298401C80B213
:1018C0000290611C02988842E1DD07B0BDE8F08F0C
:1018D0002DE9F04104460D4616461F46DDF81880F6
:1018E000B8F1000F0CD03B4632462946204600F0A6
:1018F0009BF906FB07F01749098800F079F827E003
:10190000A019401E82B22B4629462046FFF790FFC1
:10191000E819401E83B2A019401E82B2E819401E89
:1019200081B22046FFF784FFE819401E83B22246A9
:1019300029462046FFF77CFFE919491E8BB2A11901
:10194000491E8AB2A119491E88B22946FFF770FFC5
:10195000BDE8F0817400002008B54FF02040204918
:1019600008602048486000BF002000901E480068C2
:1019700040F001001C4908600846006800F00100C2
:10198000009000BF00BF0420184908600020486094
:10199000042088600020C860086148614FF08050D2
:1019A000886104200E49886000210D48C16008212B
:1019B00001611021416100218161C16141624FF4E7
:1019C000805181620021C1620163416381634FF4F0
:1019D0008011C163054A1146FFF7EAFB08BD00000C
:1019E00074010020040100A038380240C401002026
:1019F00070B504460D4600262C2000F073FB00BF96
:101A000003E0284600F072FB761CA642F9D370BDB5
:101A100000B587B000BF002001903F48006840F04B
:101A200008003D4908600846006800F00800019081
:101A300000BF00BF00BF002001900846006840F0D2
:101A4000100008600846006800F01000019000BF18
:101A500000BF00BF002001900846006840F0200051
:101A600008600846006800F02000019000BF00BF39
:101A700000BF002001900846006840F04000086068
:101A80000846006800F04000019000BF00BF00BFA2
:101A90000020019020480830006840F001001E49F5
:101AA000083108600846006800F00100019000BF9E
:101AB00000BF012003900490032005902020029095
:101AC00002A91648FEF7BAFD4FF48060029002A901
:101AD0001348FEF7B3FD4FF40060029002A91148CD
:101AE000FEF7ACFD022003900C2006904CF2337000
:101AF000029002A90C48FEF7A1FD4FF680700290FB
:101B000002A90648FEF79AFD0120029002A90548A5
:101B1000FEF794FD07B000BD3038024000100240CF
:101B20000018024000140240000C024010B50446A8
:101B3000072C00DD10BD29480470204604EBD0714D
:101B40004910A4EB410141B94FF4F07024490880D9
:101B500040F256302349088007E040F256302049D1
:101B600008804FF4F0701F490880362000F0BAFA60
:101B7000002141EA441000F0B9FA2A2000F0B2FA3C
:101B8000002000F0B3FA002000F0B0FA14490988F0
:101B9000491EC1F3072000F0A9FA11490978491E2E
:101BA000C8B200F0A3FA2B2000F09CFA002000F04D
:101BB0009DFA002000F09AFA0A490988491EC1F3EB
:101BC000072000F093FA07490978491EC8B200F0CF
:101BD0008DFA2C2000F086FA00BFABE76C000020E5
:101BE000680000206A00002010B5FFF711FFFFF722
:101BF000B3FE00F03DFA00F047F808480078FFF720
:101C000095FF074803880748028800210846FFF728
:101C10001FFC0120FFF710FC10BD00006C0000202D
:101C20006A000020680000202DE9F04104460D46BE
:101C300016461F462A2000F055FA201200F056FAE8
:101C4000E0B200F053FAA119491EC1F30F2000F0D1
:101C50004DFAA119491EC8B200F048FA2B2000F035
:101C600041FA281200F042FAE8B200F03FFAE9190E
:101C7000491EC1F30F2000F039FAE919491EC8B214
:101C800000F034FABDE8F08110B54FF4A040FEF743
:101C900010FCFF2000F026FAFF2000F027FA982021
:101CA00000F024FA062000F021FA4FF4A040FEF7DD
:101CB00000FCBA2000F016FA602000F017FA4FF48A
:101CC000A040FEF7F6FBBC2000F00CFA032000F069
:101CD0000DFA0E2000F00AFA612000F007FAFF204A
:101CE00000F004FA052000F001FA052000F0FEF9EA
:101CF0001B2000F0FBF9102000F0F8F9732000F031
:101D0000F5F9632000F0F2F9FF2000F0EFF9FF2071
:101D100000F0ECF9052000F0E9F9052000F0E6F903
:101D2000002000F0E3F9002000F0E0F9D52000F0F9
:101D3000DDF9D02000F0DAF9012000F0D7F9002019
:101D400000F0D4F9402000F0D1F94FF4A040FEF7A4
:101D5000B0FBBD2000F0C6F9012000F0C7F9232038
:101D600000F0C4F9452000F0C1F9672000F0BEF989
:101D7000012000F0BBF9232000F0B8F9452000F065
:101D8000B5F9672000F0B2F94FF4A040FEF791FBDF
:101D9000BE2000F0A7F9012000F0A8F92D2000F0E6
:101DA000A5F9CB2000F0A2F9A22000F09FF9622053
:101DB00000F09CF9F22000F099F9E22000F096F989
:101DC000222000F093F9222000F090F94FF4A04077
:101DD000FEF76FFBC72000F085F9632000F086F95D
:101DE0004FF4A040FEF765FBED2000F07BF97F206B
:101DF00000F07CF90F2000F079F9002000F076F96E
:101E00004FF4A040FEF755FBC02000F06BF9032013
:101E100000F06CF90B2000F069F9002000F066F981
:101E20004FF4A040FEF745FBFC2000F05BF90820D2
:101E300000F05CF94FF4A040FEF73BFBDF2000F020
:101E400051F9002000F052F9002000F04FF9002075
:101E500000F04CF9002000F049F9002000F046F9AC
:101E6000202000F043F94FF4A040FEF722FBF320BE
:101E700000F038F9742000F039F94FF4A040FEF773
:101E800018FBF92000F02EF9002000F02FF9FD20BA
:101E900000F02CF9802000F029F9802000F026F9CC
:101EA000C02000F023F94FF4A040FEF702FBB4205D
:101EB00000F018F9022000F019F9022000F016F9DC
:101EC000022000F013F94FF4A040FEF7F2FAF720D9
:101ED00000F008F9812000F009F94FF4A040FEF766
:101EE000E8FAB12000F0FEF8002000F0FFF813201F
:101EF00000F0FCF8132000F0F9F84FF4A040FEF7D2
:101F0000D8FAF22000F0EEF8C02000F0EFF802203E
:101F100000F0ECF8402000F0E9F8282000F0E6F8A6
:101F20004FF4A040FEF7C5FAC12000F0DBF81720FF
:101F300000F0DCF8752000F0D9F8752000F0D6F834
:101F4000202000F0D3F84FF4A040FEF7B2FAE020D2
:101F500000F0C8F8002000F0C9F8052000F0C6F82D
:101F6000082000F0C3F80C2000F0C0F80F2000F0AB
:101F7000BDF8152000F0BAF8092000F0B7F80720E6
:101F800000F0B4F8012000F0B1F8062000F0AEF83F
:101F9000092000F0ABF8162000F0A8F8142000F09B
:101FA000A5F83E2000F0A2F83E2000F09FF80020A7
:101FB00000F09CF84FF4A040FEF77BFAE12000F01F
:101FC00091F8002000F092F8092000F08FF812201C
:101FD00000F08CF8122000F089F8132000F086F849
:101FE0001C2000F083F8072000F080F8082000F0A3
:101FF0007DF8052000F07AF8082000F077F803203B
:1020000000F074F8022000F071F8042000F06EF87F
:102010001E2000F06BF81B2000F068F8002000F094
:1020200065F84FF4A040FEF744FA3A2000F05AF861
:10203000552000F05BF84FF4A040FEF73AFA352047
:1020400000F050F8002000F051F84FF4A040FEF7E7
:1020500030FA112000F046F84FF4A040FEF729FABC
:10206000292000F03FF84FF4A040FEF722FA10BDFF
:1020700010B54FF000600749086040F6FF20FFF7F9
:102080000DFA4FF400600349086040F6FF20FFF7A7
:1020900005FA10BD1814024070B504460D46012320
:1020A0001A4629462046FFF7BFFD70BD70B50546AC
:1020B0000C460948008885420CDA084800888442AA
:1020C00008DA21462846FFF7E7FF05480188012086
:1020D000FFF78EFC70BD0000680000206A00002041
:1020E000740000204FF0D041088070474FF0D0417D
:1020F0004880704700B587B000BF00200190364887
:10210000006840F00100344908600846006800F0AB
:102110000100019000BF00BF00BF002001900846F1
:10212000006840F0040008600846006800F0040001
:10213000019000BF00BF00BF00200190084600686A
:1021400040F0400008600846006800F04000019040
:1021500000BF00BF00BF002001900846006840F0AB
:10216000400008600846006800F04000019000BF91
:1021700000BF00BF002001900846006840F040000A
:1021800008600846006800F04000019000BF00BFF2
:102190000120029000200390049002A90F48FEF74E
:1021A0004DFA4FF40050029002A90D48FEF746FA8E
:1021B0000420029002A90B48FEF740FA0820029082
:1021C00002A90848FEF73AFA1020029002A9054831
:1021D000FEF734FA07B000BD30380240000002407C
:1021E000000802400018024070B504460D4629461A
:1021F0002046FEF723FB012808D100BF29462046D0
:10220000FEF71CFB0128F9D0012070BD0020FCE77F
:10221000014800687047000070000020024A1080EA
:10222000024A1180704700007400002076000020F0
:1022300001490860704700007000002001490880D3
:10224000704700007400002010B59AB0A84800F054
:102250007DFDA84800F07AFD0620FFF767FCA64840
:102260000078401CA4490870A448FFF7E1FF002152
:102270004FF47840FFF7D2FFA1480388A1480288B5
:1022800000210846FFF7E4F8FFF7C2FF00249EA1F3
:102290002046FFF7D7F9FFF7BBFFC0884004040CC6
:1022A0009EA12046FFF7CEF9FFF7B2FFC08800EBF2
:1022B000400084B29EA12046FFF7C4F9FFF7A8FFB3
:1022C000C0888004040C9FA12046FFF7BBF94FF49F
:1022D000FC60FFF7B3FF884802789FA101A800F0D7
:1022E00045FDFFF795FFC088C0EBC00084B22046D3
:1022F000FFF7C4F8FFF78CFFC088C0EBC00084B2C2
:1023000001A92046FFF76AF9FFF782FFC088C0EBFA
:10231000C00084B22046FFF7B1F81F20FFF78EFF00
:10232000FFF776FFC088C0EBC00084B28FA12046C3
:10233000FFF788F94FF47840FFF780FF40F213135E
:102340004FF4D272591F3220FFF772FA40F277131E
:102350004FF4D2724FF496713220FFF769FA4FF4BE
:10236000FC60FFF76BFF40F2DB134FF4D2724FF4C7
:10237000B9713220FFF75CFA40F2DB134FF4D272EE
:102380004FF4C8713220FFF753FA1F20FFF756FFB2
:1023900040F245134FF4D27211463220FFF748FA4B
:1023A00040F28B134FF4D2724FF4E1713220FFF7F9
:1023B0003FFA4FF47A7001F08EFE51480088E03801
:1023C00083B250480288E0210020FFF741F8FFF770
:1023D0001FFFC088C0EBC00084B22046FFF74EF854
:1023E0001F20FFF72BFFFFF713FFC088C0EBC000D3
:1023F00084B260A12046FFF725F94FF47840FFF73B
:102400001DFF01206423C8224FF4967100903220F2
:10241000FFF75EFA4FF4FC60FFF710FF002078230F
:10242000C8224FF4967100906420FFF751FA1F20E4
:10243000FFF704FF01209623C82259000090FA20DC
:10244000FFF746FA4FF47A7001F045FE2C480088F9
:10245000E03883B22B480288E0210020FEF7F8FF25
:10246000FFF7D6FEC088C0EBC00084B22046FFF75D
:1024700005F81F20FFF7E2FEFFF7CAFEC088C0EB99
:10248000C00084B23DA12046FFF7DCF84FF478404D
:10249000FFF7D4FE01233C224FF4C8719620FFF7CA
:1024A0002BF94FF4FC60FFF7C9FE00233C224FF4E8
:1024B000C871FA20FFF720F91F20FFF7BFFE0123A4
:1024C0003C224FF4C8714FF4AF70FFF715F94FF489
:1024D0007A7001F000FE0A480088E03883B20948AB
:1024E0000288E0210020FEF7B3FF1AB010BD000003
:1024F000009E0008449E0008640000208000002028
:102500006A00002068000020D2B0BBF0342E35B441
:10251000E74C4344B2CECAFDA3BA0000B7D6B1E639
:10252000C2CAA3BA34383078383534207078000005
:10253000494C493938303647D2BABEA7C7FDB6AF85
:1025400000000000475435363838B4A5C3FEC6C174
:10255000C7FDB6AF00000000CFD4CABEB1E4C1BF12
:10256000BCC6CAFD203A202564200000BBADD6B110
:10257000CFDF3A00BBADBED8D0CE3A00BBADD4B2AF
:102580003A00000000B587B000BF00200190354838
:10259000006840F00100334908600846006800F018
:1025A0000100019000BF00BF00BF0020019008465D
:1025B000006840F0100008600846006800F0100055
:1025C000019000BF00BF00BF0020019008460068D6
:1025D00040F0400008600846006800F040000190AC
:1025E00000BF00BF00BF002001900846006840F017
:1025F000020008600846006800F00200019000BF79
:1026000000BF4FF40040029001200390049003208B
:10261000059002A91448FEF711F80420029002A9BF
:102620001248FEF70BF84FF40040029002A9104840
:10263000FEF704F84FF48070029002A90D48FDF7F0
:10264000FDFF4FF400400849886104200749886174
:102650004003074918310860C01106491831086065
:1026600007B000BD303802400000024000100240B8
:10267000001802400004024000BFFEE7704770B53A
:1026800005460E461446A2B23146284600F026F80A
:10269000012070BD2DE9F04106460C463046FDF79D
:1026A00048FE0746002513E005F5805130222046FC
:1026B000FFF7E5FF3A4631462046FDF741FE30B9C7
:1026C000E06A00F58050E062E06ABDE8F0813035F4
:1026D000B5F5005FE8DB4FF0FF30F6E770B5054673
:1026E0000C4616464FF480000F490860032000F0A6
:1026F00049F8C4F3074000F045F8C4F3072000F0A0
:1027000041F8E0B200F03EF804E0FF2000F03AF8B3
:1027100028706D1C301EA6F101018EB2F5D140204B
:102720000149086070BD00001818024010B5134838
:102730001349086000211248C16181600121416193
:1027400002210161002181620721C1620021C16073
:1027500001624FF400718161002141624FF4827087
:10276000074948600846FEF753FC054800680068C2
:1027700040F0400002490968086010BD0030014087
:102780006046002010B504464FF480501949086097
:102790000AE018490868411E164A116020B9002055
:1027A00000F02CF8C0B210BD134800688068C0F378
:1027B00040000028EDD010480068C4604FF48050FD
:1027C0000C4908600AE00B490868411E094A11607B
:1027D00020B9012000F012F8C0B2E4E70648006812
:1027E000806800F001000028EDD003480068C06850
:1027F000C0B2D8E7980000206046002010B504461B
:10280000214602A000F0A2FA002010BD3C3C2D465B
:102810004C4153482D4552524F522D3E3E2053506D
:102820004920B5C8B4FDB3ACCAB1216572726F72EC
:10283000436F6465203D2025640A0000704710B591
:1028400000F0B8FF01F0BCFD00F0C4FF10BD0000B7
:1028500000B593B000BF002001902A48006840F006
:102860008050284908600846006800F080500190B8
:1028700000BF00BF00BF002001902348006840F463
:102880008040214908600846006800F480400190BB
:1028900000BF00BF012002900004039002200890B6
:1028A0004105099119210A914FF4A8710B91022158
:1028B0000C9107210D9102A8FEF786F908B100BF1F
:1028C000FEE70F200E9002200F90002010904FF492
:1028D000A05011904FF48050129005210EA8FEF7E1
:1028E00035F808B100BFFEE7FDF7B0FF41F2010186
:1028F000884205D10548006840F4807003490860AB
:1029000013B000BD4038024000700040003C02405F
:102910001448006840F470001249086012480068CA
:1029200040F001001049086000200F49083108609C
:102930000D4800680D4908400B4908600C48091D06
:102940000860081F006820F48020091F086000202C
:1029500005490C3108604FF0006002498039086079
:102960007047000088ED00E000380240FFFFF6FEEF
:10297000103000242DE9F04104462068006920F45D
:102980004050E1680843216808612169A068084354
:1029900061690843E16940EA01052068C06849F2BD
:1029A0000C61884328432168C8602068406920F48E
:1029B0004070A169084321684861E069B0F5004FA3
:1029C0007ED1C4492068884203D0C3492068884228
:1029D0005DD1FEF791F800EBC00101EB00106168DA
:1029E0004900B0FBF1F06421B0FBF1F00601FEF705
:1029F00083F800EBC00101EB001061684900B0FBF7
:102A0000F1F7FEF779F800EBC00101EB0010616807
:102A10004900B0FBF1F06421B0FBF1F000EBC00124
:102A200001EB0010A7EB8000322101EBC000642114
:102A3000B0FBF1F000F0F80006EB4006FEF75CF8A2
:102A400000EBC00101EB001061684900B0FBF1F739
:102A5000FEF752F800EBC00101EB0010616849007D
:102A6000B0FBF1F06421B0FBF1F000EBC00101EB31
:102A70000010A7EB8000322101EBC0006421B0FB05
:102A8000F1F000F0070030442168886020E1FEF793
:102A900023F800EBC00101EB001061684900B0FBB6
:102AA000F1F06421B0FBF1F00601FEF715F800EB40
:102AB000C00101EB001061684900B0FBF1F700E0D4
:102AC00045E0FEF709F800EBC00101EB001061687A
:102AD0004900B0FBF1F06421B0FBF1F000EBC00164
:102AE00001EB0010A7EB8000322101EBC000642154
:102AF000B0FBF1F000F0F80006EB4006FDF7ECFF4C
:102B000000EBC00101EB001061684900B0FBF1F778
:102B1000FDF7E2FF00EBC00101EB00106168490026
:102B2000B0FBF1F06421B0FBF1F000EBC00101EB70
:102B30000010A7EB8000322101EBC0006421B0FB44
:102B4000F1F000F00700304421688860C0E061497E
:102B50002068884203D06049206888425CD1FDF734
:102B6000CBFF00EBC00101EB001061688900B0FBF6
:102B7000F1F6FDF7C1FF00EBC00101EB0010616849
:102B80008900B0FBF1F06421B0FBF1F000EBC00173
:102B900001EB0010A6EB8000322101EB0010642154
:102BA000B0FBF1F000F0F006FDF7A6FF00EBC0016E
:102BB00001EB001061688900B0FBF1F06421B0FB0B
:102BC000F1F006EB0016FDF797FF00EBC00101EBFB
:102BD000001061688900B0FBF1F7FDF78DFF00EB95
:102BE000C00101EB001061688900B0FBF1F06421C5
:102BF000B0FBF1F000EBC00101EB0010A7EB80008F
:102C0000322101EB00106421B0FBF1F000F00F0065
:102C10003044216888605BE0FDF75EFF00EBC00197
:102C200001EB001061688900B0FBF1F6FDF754FF7D
:102C300000EBC00101EB001061688900B0FBF1F00E
:102C40006421B0FBF1F000EBC00101EB0010A6EB3A
:102C50008000322101EB00106421B0FBF1F000F0A4
:102C6000F006FDF739FF00EBC00101EB00106168D1
:102C70008900B0FBF1F06421B0FBF1F006EB001627
:102C8000FDF72AFF00EBC00101EB0010616889002D
:102C9000B0FBF1F7FDF720FF00EBC00101EB0010E6
:102CA00061688900B0FBF1F06421B0FBF1F000EB4A
:102CB000C00101EB0010A7EB8000322101EB0010F6
:102CC0006421B0FBF1F000F00F003044216888600F
:102CD000BDE8F08100100140001401402DE9F041F1
:102CE00004460D4617469846069E21E0701CF8B132
:102CF0002EB1FDF7B1FDA0EB0800B04218D9206855
:102D0000C06820F4D0702168C8602068406920F055
:102D1000010021684861202084F8390084F83A00D5
:102D200000BF002084F8380000BF0320BDE8F08118
:102D3000206800682840A84201D1012000E000205E
:102D4000B842D3D00020F1E700BFFEE70FB4054B37
:102D500010B503A9044A029800F078F810BC5DF899
:102D600014FB0000A1300008300100200FB4084B14
:102D700010B504A902AA039800F068F8044602A955
:102D8000002000F087F9204610BC5DF814FB00001D
:102D90009530000802480068C0F302207047000028
:102DA0000CED00E010B5002804DB0A07130E054AFD
:102DB000135406E00A07140E034A00F00F031B1F0A
:102DC000D45410BD00E400E018ED00E0014609B95C
:102DD00000207047C8B220B1C8B20E4A105C401C37
:102DE000F7E701F47F4028B10A48C1F30722805C6D
:102DF0000930EEE701F47F0028B10648C1F307422D
:102E0000805C1130E5E7034800EB11600078193071
:102E1000DFE70000DC9C000802E008C8121F08C1C0
:102E2000002AFAD170477047002001E001C1121F4B
:102E3000002AFBD17047000003490868884201D08E
:102E4000012070470020FCE70C0100202DE9FF4F16
:102E500089B09B460446002506E025280BD05A463B
:102E60000B999047641C6D1C20780028F5D10DB09B
:102E70002846BDE8F08F0027B8460122474900E008
:102E8000074314F8013F203B02FA03F00842F7D150
:102E900020782E2819D114F8010F47F004072A28AA
:102EA0000ED06FF02F022078A0F1300109290CD844
:102EB00008EB880102EB410100EB0108641CF2E71A
:102EC0000A98641C50F8048B0A9020780028CED011
:102ED000642808D0692806D075281ED05A460B9958
:102EE00090476D1C58E00A994FF00A0901C90A91F0
:102EF000002802DA40422D2102E0390504D52B21B9
:102F00008DF82010012103E0F90704D02021F7E714
:102F10008A4608AE0DE00021FAE70A994FF00A0947
:102F200001C90A91F7E74946FDF723FA303106F85F
:102F3000011D0028F7D1ADEB060000F1200978074C
:102F400001D44FF00108C84502DDA8EB090000E0FC
:102F500000208046002706E008A85A46C05D0B996D
:102F600090476D1C7F1C5745F6DB04E030205A4625
:102F70000B9990476D1CB8F10001A8F10108F5DC30
:102F800005E016F8010B5A460B9990476D1CB9F1F4
:102F90000001A9F10109F4DC641C65E709280100BE
:102FA0002DE9FC5F04468B4615461E46DDE90C9A6A
:102FB000DDE90E7804F114004060006000BF1C34AD
:102FC0006560A660C4F80C90C4F810A02321D4E971
:102FD000030200F06DFDD4E9033C63441A1F0F4B5C
:102FE000D4E9010100F0BEFB2060A77667760020DF
:102FF000E061C4F82080C4F82480606120766065B8
:10300000A0651C3C00902346054A2146019004F12E
:10301000440001F057FA0020BDE8FC9FE54000089D
:10302000314300082DE9F04704460E4617469846FE
:10303000DDF8209084F80990607A20F00100607239
:10304000E66127620020A062C4F82480002506E023
:1030500004F1140101EBC50000F032FC6D1C012DE0
:10306000F6DBBDE8F08710B50246002001460EE011
:1030700002F1140303EBC100D0E900436360D0E91F
:10308000003423604060006000BF481C01460129F5
:10309000EEDB10BD0A68531C0B6010707047000017
:1030A00013B50C464FF47A73012269460248FEF7C5
:1030B00057F900981CBD00003401002010E00121E8
:1030C0000848FFF791F840B10748406980F00400D4
:1030D0000549486105A000F0D5FB0A2000F0FBFF80
:1030E000EDE7000000000240001002404C4544D7CC
:1030F000B4CCACB7ADD7AA0A0000000005E0FFF7DA
:10310000A3F84FF47A7000F0E6FFF8E71CB51AA0B8
:1031100000F0B8FB142003214FF480630022CDE9B6
:103120000010214921A000F0AEFF224908600846A6
:10313000006820B10846006801F0C2F802E04FF0D4
:10314000FF301CBD14200421CB010022CDE900106A
:1031500019491AA000F097FF19490860084600684D
:1031600020B10846006801F0ABF802E04FF0FF30F4
:10317000E7E70020E5E70000D5E2CAC7D2BBB8F612
:103180005BD2B0BBF05D2D53544D33322D525454AD
:103190002D4C4344CFD4CABED6D0D3A2CEC4CAB5D8
:1031A000D1E9A3A10A000000FD3000086C6564317C
:1031B0000000000010000020BD3000086B657900A1
:1031C0001400002010B5044600F02AF9FFF79EFF16
:1031D00010BD000030B51A4C4368246819198842A4
:1031E00015D04B889BB9174B1B6899420FD0164BD3
:1031F0001B688B4201D1144B18604B684360104B25
:103200001B68C31A0E4D4C682D682C44A3600C4CEF
:10321000836824681A19824211D053887BB90A4BFB
:103220001B68834201D1084B1A6043685360044B0A
:103230001B68D31A024D44682D682C44A36030BD2E
:10324000A4000020A8000020AC0000202DE9F04FD1
:1032500085B00D469C46DDE90F740E9B04F04008D6
:10326000B8F1000F02D0DFF8688101E0DFF8648177
:10327000CDF8008004F01008B8F1000F01D024F060
:10328000010404F00108B8F1000F02D04FF030083B
:1032900001E04FF02008C246002604F00208B8F111
:1032A000000F11D0002A02DA2D2652420CE004F061
:1032B0000408B8F1000F01D02B2605E004F008083F
:1032C000B8F1000F00D02026002142B94FF0300B9A
:1032D0008846491C0DF1040909F808B01DE01AE000
:1032E000E146B9F10A0F08D14FF00A0BB2FBFBFE21
:1032F0000BFB1E28B2FBFBF202E002F00F081209E2
:1033000000BFDDF8009019F808B08846491C0DF19F
:10331000040909F808B0002AE2D1B94200DD0F46DD
:10332000DB1B04F01108B8F1000F10D116B1002B0F
:1033300000DD5B1E06E0A84203D84FF0200880F8AD
:103340000080401CB3F10008A3F10103F3DC26B1B7
:10335000A84201D806705B1E401C04F01008B8F1AA
:10336000000F0AD104E0A84201D880F800A0401C58
:10337000B3F10008A3F10103F5DC06E0A84203D88D
:103380004FF0300880F80080401CB8467F1E88450A
:10339000F4DC08E0A84205D80DF1040818F8018013
:1033A00080F80080401CB1F10008A1F10101F1DCBE
:1033B00006E0A84203D84FF0200880F80080401CA7
:1033C000B3F10008A3F10103F3DC05B0BDE8F08F11
:1033D000ED9D0008DC9D00081CB5142002210B02A5
:1033E0000022CDE90010044904A000F04CFE044680
:1033F000204600F065FF1CBDC53100086D61696E97
:103400000000000010B5044C02E020688047241D35
:1034100002488442F9D310BDEC9E0008F09E0008DB
:1034200010B5044C02E020688047241D0248844205
:10343000F9D310BDF09E0008F49E000810B5FCF70B
:10344000BFFE044604480088401C00B202490880C0
:103450002046FCF7B9FE10BDFC00002010B5FCF7BB
:10346000AFFE04460B480088401E00B209490880A0
:103470000846B0F90000002807DC0020088020463C
:10348000FCF7A2FE00F0B6FB02E02046FCF79CFE33
:1034900010BD0000FC00002070B5054605B970BDE8
:1034A0001D480068854203D31C480068854200D34C
:1034B000F5E7A5F10C044FF0FF31194800F064FC6A
:1034C000608818B12088B0F5F55F08D015A000F02D
:1034D000D9F923886288214619A000F0D3F9002089
:1034E00060804FF4F550208021480068844201D26A
:1034F0001F480460084960680968611A401A1D493C
:103500000968081A1B4908602046FFF763FE044853
:1035100000F01DFC00BFC2E7A4000020A8000020AE
:10352000B0680020746F206672656520612062615A
:1035300064206461746120626C6F636B3A0A0000FE
:103540006D656D3A203078253038782C207573659C
:103550006420666C61673A2025642C206D61676980
:103560006320636F64653A203078253034780A0030
:10357000AC000020B400002000487047B84600208E
:1035800000487047B866002070B51F4800684FF4C7
:103590007A72B0FBF2F1481EB0F1807F00D31BE0DD
:1035A000481E4FF0E022506150170F22002804DB24
:1035B00013071C0E154B1C5406E013071D0E144B6D
:1035C00000F00F04241F1D5500BF00204FF0E02223
:1035D00090610720106100BFFFF73AF9FEF7D2FFB4
:1035E000FEF788FDFCF746FFFFF7A0F8FEF7FCFAB0
:1035F000FFF708FFFFF7C4FF0446FFF7BDFF0546CE
:10360000214600F077FC70BD0000002000E400E0DF
:1036100018ED00E038B50446FFF710FF14E02078FD
:103620000A2809D10D2000904FF47A7301226946CF
:103630000848FDF795FE00BF2146641C4FF47A73DD
:1036400001220448FDF78CFE20780028E7D1FFF71F
:1036500005FF38BD3401002070B5044619480068E4
:1036600038B12046174909688847054605B970BD35
:1036700000BF15A0E16900F005F917A0A16900F0ED
:1036800001F919A0616900F0FDF81BA0216900F0A3
:10369000F9F81DA0E16800F0F5F81FA0A16800F09E
:1036A000F1F821A0616800F0EDF823A0216800F096
:1036B000E9F800F0DDFD0546294623A000F0E2F818
:1036C00000BFFEE72C0100207073723A203078258D
:1036D0003038780A000000002070633A20307825E6
:1036E0003038780A00000000206C723A20307825CB
:1036F0003038780A000000007231323A20307825E4
:103700003038780A000000007230333A20307825D3
:103710003038780A000000007230323A20307825C4
:103720003038780A000000007230313A20307825B5
:103730003038780A000000007230303A20307825A6
:103740003038780A00000000686172642066617594
:103750006C74206F6E207468726561643A20257302
:103760000A000000F0B504460D461646301D20F054
:10377000070044380146002203E00D4F41F8227053
:10378000521C112AF9D34D624FF0000CC1F828C029
:10379000C1F82CC0C1F830C0C1F834C08B63CC6311
:1037A0004FF0807CC1F840C000270F60F0BD0000E2
:1037B000EFBEADDE10B5FCF703FD0446044800780B
:1037C000401C034908702046FCF7FEFC10BD0000B9
:1037D000A000002010B5FCF7F3FC04460448007874
:1037E000401E034908702046FCF7EEFC10BD0000A7
:1037F000A000002070B504462068A0F114052846FA
:1038000000F018FD002070BD2DE9F04105460C4682
:103810009046204600F06AFDB8F1000F03D0B8F1E1
:10382000010F23D105E004F11401284600F060F8EF
:103830001CE02E680FE0A6F1140794F8350097F805
:103840003510884206DA04F1140107F1140000F083
:103850004FF802E03668AE42EDD100BFAE4204D16F
:1038600004F11401284600F043F800BF00BF002017
:10387000BDE8F08110B5044604F1140000F01AF818
:10388000002010BD0FB438B505A800907F2108486E
:10389000009B049A00F0C2FE04467F2C00D97F24CE
:1038A0000348FFF7B7FE0020009038BC5DF814FB1A
:1038B00030680020406000607047406000607047E2
:1038C0004060006070470268516002680A600160F1
:1038D000486070470268516002680A600160486091
:1038E00070470268516002680A6001604860704772
:1038F0004268116042684A60416008607047014652
:103900000868884201D1012070470020FCE7014689
:103910000868884201D1012070470020FCE7D0E907
:1039200000215160D0E900121160406000607047D2
:10393000D0E900215160D0E90012116040600060C0
:10394000704700002DE9F041054615B90020BDE89B
:10395000F081E81C20F003054E480068854201D93B
:103960000020F4E70C2D00D20C254FF0FF314A481F
:1039700000F00AFA4948006849490968461A7EE099
:103980004748006884196088002874D106F10C004B
:103990006168081AA8426ED306F10C006168091A22
:1039A00005F11800814230D306F10C0000EB050848
:1039B0003B48006800EB08074FF4F55038800020C2
:1039C000788060687860BE60C4F804800120608000
:1039D0003048796800680C30814205D030497868F9
:1039E00009680844C0F808802E48016805F10C00F9
:1039F00008442C4908602C4800680968884219D29C
:103A0000284800682849086014E0012060802449A3
:103A100060680968611A401A224909680844214906
:103A20000860214800680968884203D21D48006880
:103A30001D4908604FF4F550208018480068844202
:103A400012D107E015480068406815490968084424
:103A50001249086011480068408828B10F48006882
:103A6000124909688842EDD10B4800F070F904F161
:103A70000C006CE7FFE70A480068304446680548D8
:103A80000068401BB0423FF67BAF034800F05FF98F
:103A900000205CE7B0000020B0680020AC000020EF
:103AA000A4000020B4000020B8000020A8000020DE
:103AB000F0B50C460546E6B2042A15D300F003071C
:103AC00097B9014646EA062343EA034304E008C1E6
:103AD00008C108C108C1103A102AF8D201E008C193
:103AE000121F042AFBD20D4601E005F8016B171ED8
:103AF000A2F10102F9D1F0BD2DE9F04105460F46D2
:103B0000284600F03BF80646F068FFF71BFF044626
:103B100014B90020BDE8F0812572002060720822EF
:103B20003946204600F0CBF9FCF74AFB804604F109
:103B30000C01301DFFF7C7FE4046FCF745FB204651
:103B4000E8E770B50446FCF73BFB054604F10C00C2
:103B5000FFF7E5FE2846FCF737FB2046FFF79CFC05
:103B600070BD70B50446FCF72BFB054604F10C0054
:103B7000FFF7D5FE2846FCF727FB70BD0246002163
:103B80000AE0074800EB01100078904203D1044896
:103B900000EB01107047491C0429F2DB0020F9E713
:103BA000BC0000202DE9F04104460D46164628468B
:103BB000FFF7E4FF074645F08000207208223146F7
:103BC000204600F07CF9FCF7FBFA804604F10C017A
:103BD000381DFFF778FE4046FCF7F6FABDE8F081A5
:103BE0000146087A00F0800008B1012070470020EB
:103BF000FCE700002DE9F041FCF7E2FA07461B481C
:103C0000008868BB1A480068FFF7E0F8461E1948AC
:103C100050F83600A0F114041748006884421BD005
:103C200016490E701448056804601548007848B9B4
:103C300004F11C0105F11C00FCF7C9FA3846FCF739
:103C4000C3FA0CE004F11C0105F11C00FCF7BFFAFB
:103C50003846FCF7B9FA02E03846FCF7B5FA02E05C
:103C60003846FCF7B1FABDE8F0810000FC00002006
:103C700008010020D068002000010020040100207D
:103C8000A000002070B50446FCF79AFA054614F827
:103C9000340F20F00F0040F0010020706278343CB7
:103CA0000A4B03EBC20004F1140142681160426840
:103CB0004A604160086000BF0549A06B096808437D
:103CC000034908602846FCF77FFA70BDD0680020E1
:103CD0000801002070B50446FCF772FA054604F1AD
:103CE0001400D0E900215160D0E900121160406059
:103CF000006000BF94F83510094A02EBC10001686A
:103D0000814201D1012100E0002129B10548A16BC8
:103D100000688843034908602846FCF755FA70BDDF
:103D2000D0680020080100202DE9F04104460D462E
:103D300016461F462A4601212046FFF733FF20463C
:103D4000FFF798FDA68367720020BDE8F08170B58B
:103D500004460025FCF734FA064604F11400FFF788
:103D6000CEFD28B904F11400FFF744FD012502E05F
:103D7000A08B401CA0833046FCF726FA012D01D110
:103D8000FFF738FF002070BD73B50546FCF718FA41
:103D90000646A88B002806DDA88B401EA883304667
:103DA000FCF712FA28E0019828B93046FCF70CFA23
:103DB0006FF001007CBD00F05BFA04460020206338
:103DC0006A7A214605F11400FFF71EFD01980028CC
:103DD00009DD01AA002104F1440000F047FB04F1D1
:103DE000440000F087FB3046FCF7EEF9FFF702FFD6
:103DF000206B08B1206BDDE70020DBE708B509A0E8
:103E0000FFF740FD0AA0FFF73DFD12A003230022AB
:103E10001946009012A0FFF735FD19A0FFF732FDFB
:103E200008BD00000A205C207C202F0A0000000052
:103E30002D205254202D20202020205468726561AE
:103E400064204F7065726174696E67205379737472
:103E5000656D0A004A756C20203720323032300000
:103E6000202F207C205C202020202025642E25640B
:103E70002E2564206275696C642025730A00000099
:103E80002032303036202D203230313820436F70D0
:103E90007972696768742062792072742D7468720F
:103EA000656164207465616D0A00000001460A4680
:103EB00000E0521C10780028FBD1501A704770B5F2
:103EC0000346A2B118460C4600BF14F8016B00F877
:103ED000016B3EB902E0002500F8015B551E2A1E69
:103EE000F9D102E0551E2A1EEFD100BF00BF1846CF
:103EF00070BD00002DE9F04105460E46E81C20F09B
:103F0000030726F00308B8F1180F09D9A8F1180023
:103F1000B84205D3A8EB070018381E49086006E030
:103F2000324629461CA0FFF7ADFCBDE8F0812948C8
:103F3000076004684FF4F5502080164800680C3084
:103F400060600020A06060802249606809680844C1
:103F5000214908604FF4F5500968088001201E4986
:103F6000096848800B4800680C301B4909684860A4
:103F7000084800680C30184909688860002301224D
:103F800016A11848FFF7D0FE1248006816490860CD
:103F900000BFCAE7B00000206D656D20696E6974CE
:103FA0002C206572726F7220626567696E20616491
:103FB000647265737320307825782C20616E6420DC
:103FC000656E64206164647265737320307825784F
:103FD0000A000000A4000020A800002068656170AD
:103FE00000000000B0680020AC00002010B50020E8
:103FF0000B490880002405E00A4901EBC400FFF7E3
:104000005CFC641C082CF7DB0720074908700020C3
:1040100006490860064908600648FFF74EFC10BDD7
:10402000FC000020D06800200401002000010020D6
:10403000080100200C01002070B508480068FEF758
:10404000C5FE451E064850F83500A0F11404054889
:10405000046004F11C00FCF700F970BD08010020A9
:10406000D06800200001002010B5002405E00449BC
:1040700001EBC400FFF724FC641C002CF7D010BD3A
:104080001401002070472DE9FF5F06460F46904659
:104090001D46DDE90EAB31460020FFF72DFD8146C0
:1040A000B9F1000F03D1002004B0BDE8F09F28460D
:1040B000FFF748FC044624B94846FFF742FD0020BC
:1040C000F2E743463A46314648468DE8300CFEF763
:1040D00067FF4846E8E710B50446204600F0CEF8F2
:1040E00010BD000070B512480468FCF769F8054679
:1040F0002046FFF7EFFD042084F8340004F144006B
:1041000000F0D0F92046FFF76BFD012805D1206FA4
:1041100018B92046FFF725FD04E004F11401054815
:10412000FFF7D8FB2846FCF74FF8FFF763FD70BD9B
:10413000000100200C01002001E000F001F8FCE784
:1041400070B537E0FCF73CF80546FEF775FE18B38E
:104150001B480068A0F1140404F11400D0E9002108
:104160005160D0E9001211604060006000BFFFF7AD
:1041700065F9206F10B12046216F88472046FFF770
:104180002FFD012805D1FFF769F92846FCF71CF837
:1041900070BDFFF763F903E02846FCF715F8F7E771
:1041A0002846FCF711F8A06AFFF776F92046FFF7DA
:1041B000C8FC00BFFEF740FE0028C3D100BFE7E700
:1041C0000C0100201FB520200721C200074BCDE9BC
:1041D0000032CDE902100023054A06A1074800F08D
:1041E0000FF8064800F06CF81FBD00003067002093
:1041F000394100087469646C65000000B8660020ED
:104200002DE9FF5F05460C4616461F46DDE910AB5B
:10421000DDE90E89224600212846FFF7C3FC3B4614
:104220003246214628468DE8000FFEF7B9FE04B05D
:10423000BDE8F09F70B5044694F8340000F00F001C
:10424000022802D04FF0FF3070BDFBF7B9FF0546E2
:1042500004F11400FFF76CFB04F1440000F0C6F910
:104260002846FBF7B1FF2046FFF70CFD0020EBE7E7
:1042700001480068704700000001002031B5FBF7DD
:104280009FFF05460D480468204600F02FF86A4657
:10429000002104F1440000F0E9F804F1440000F0CA
:1042A00029F92846FBF790FFFFF7A4FC206B801C40
:1042B00008B900202063002038BD00000001002064
:1042C00010B504463434A0786070617801208840CD
:1042D0006060022004F834092046FFF7ABFFFFF7C7
:1042E000C7FF08B1FFF786FC002010BD70B504467B
:1042F00094F8340000F00F00012802D04FF0FF3096
:1043000070BDFBF75DFF054694F8340020F00F0008
:1043100040F0020084F834002046FFF7DBFC04F193
:10432000440000F063F92846FBF74EFF0020E7E762
:1043300070B5044625466FF00100286305F11400AE
:10434000FFF7F6FA2846FFF79DFCFFF753FC70BD18
:1043500070B5FBF735FF05461448046894F834003F
:1043600000F00F0001281CD1D4E90510814218D0BB
:1043700004F11400FFF7DCFA94F835200C4B03EB42
:10438000C20004F114014268116042684A60416051
:10439000086000BF2846FBF717FFFFF72BFC002043
:1043A00070BD2846FBF710FF0020F9E70001002050
:1043B000D068002001480068704700009C00002081
:1043C00010B50A480068401C08490860FFF750FF14
:1043D0000446206C401E2064206C18B9E06B2064F9
:1043E000FFF7B6FF00F004F810BD00009C000020AD
:1043F00070B5FFF7DFFF0546FBF7E2FE064628E053
:1044000019480068A0F11404A06A281A6FF000414E
:1044100088421DD22046FEF726FED4E907108847C1
:10442000FFF7C8FF0546607A00F0020058B1607AD5
:1044300000F0010038B1607A20F00100607220467F
:1044400000F058F805E0607A20F00100607200E0AA
:1044500004E00548FFF75BFA0028D1D000BF3046E2
:10446000FBF7B2FE70BD000014010020034649B105
:10447000012904D0022908D0032910D10AE0586A82
:1044800010600CE01068586209E0587A20F00200D1
:10449000587204E0587A40F00200587200BF00BF22
:1044A0000020704770B50446FBF78AFE054620469B
:1044B000FEF7D9FD2846FBF787FE2046FFF751FBA4
:1044C000002070BD2DE9F84307460C4615461E46F0
:1044D000DDE90889224609213846FFF763FB434698
:1044E000324629463846CDF80090FEF79BFDBDE8E0
:1044F000F88300002DE9F8430546FBF761FE80468E
:104500002846FEF7B0FD687A20F001006872404648
:10451000FBF75AFEFFF74EFF696A0844A862FBF7F3
:104520004FFE80462F4F009700242AE019E05DF8E7
:1045300024201168142202EBC402881A826AAB6A32
:10454000D21A00D108E0826AAB6AD21A6FF0004337
:104550009A4200D20CE000BF5DF8240000684DF8DC
:1045600024005DF8240007EBC40149688842DED1CD
:1045700000BF2CB15DF824000830611C4DF821000B
:10458000641C002CD2D018480068401C16490860F2
:104590000846066805F114010098FFF7A2F9022405
:1045A00012E006F0030060B9C4F1010305F1140242
:1045B00002EBC301C4F101025DF82200FFF791F99B
:1045C00000E003E0B608641C012CEAD900BF687A59
:1045D00040F0010068724046FBF7F6FD0020BDE8A0
:1045E000F8830000140100201C01002070B504466F
:1045F000607A00F0010010B94FF0FF3070BDFBF79A
:10460000DFFD05462046FEF72EFD2846FBF7DCFDC4
:10461000607A20F0010060720020EFE72DE9FF4F83
:1046200089B0804644460A984044461E464504D216
:104630004FF0FF36A6EB08000A906FE10B98007868
:10464000252806D0B44202D80B9800782070641C4C
:1046500061E1002526E00B98401C0B900B98007838
:104660002D2802D145F010051CE00B9800782B286E
:1046700002D145F0040515E00B980078202802D1FE
:1046800045F008050EE00B980078232802D145F08C
:10469000200507E00B980078302802D145F001058D
:1046A00000E000E0D7E700BF4FF0FF370B9800783D
:1046B00030380A2804D20BA800F061F907460EE052
:1046C0000B9800782A280AD10B98401C0B900C9864
:1046D00080C80C90002F02DA7F4245F010054FF0A1
:1046E000FF390B9800782E281CD10B98401C0B909A
:1046F0000B98007830380A2804D20BA800F03FF954
:1047000081460AE00B9800782A2806D10B98401CB5
:104710000B900C9850F8049B0C90B9F1000F01DA43
:104720004FF00009002004900B980078682803D00F
:104730000B9800786C2805D10B98007804900B98A2
:10474000401C0B900A2005900B9800786F2875D0BC
:104750000CDC632813D004DC252870D058286FD1D6
:104760008DE064286DD06928F9D18FE070286AD077
:10477000732825D0752878D07828F0D182E005F00C
:10478000100040B904E0B44201D820202070641C1D
:10479000781E071EF7DC0C9810F8041B0C90C8B2AA
:1047A0000790B44201D807982070641C04E0B4421A
:1047B00001D820202070641C781E071EF7DCAAE0B8
:1047C0000C98006806900C98001D0C90069808B98B
:1047D0005AA006900698FFF769FB8346B9F1000FCF
:1047E00002DDCB4500DDCB4605F0100048B904E002
:1047F000B44201D820202070641C38467F1E5845E2
:10480000F6DC002008900BE0B44202D8069800784D
:104810002070641C0698401C06900898401C089064
:1048200008985845F0DB04E0B44201D820202070FD
:10483000641C38467F1E5845F6DC6CE01CE015E031
:1048400028E022E0FFE7781C10B9082745F00105B1
:10485000CDE9007902950C9804C8102331460C90DC
:104860002046FEF7F3FC044655E012E0B44201D8BE
:1048700025202070641C4EE0082005901DE045F0C6
:10488000400500BF1020059017E000BF45F002056D
:1048900000BF12E0B44201D825202070641C0B98A0
:1048A000007830B1B44202D80B9800782070641CB4
:1048B00002E00B98401E0B902DE000BF04986C287E
:1048C00007D10C9850F804AB0C9005F00200B8B179
:1048D00016E0049868280BD10C9830F8041B1FFAD6
:1048E00081FA0C9005F0020050B10FFA8AFA07E045
:1048F0000C9850F804AB0C9005F0020000B100BF1A
:10490000CDE900790295524631462046059BFEF7D7
:104910009DFC044600BF0B98401C0B900B98007840
:1049200000287FF48BAEB44201D8207001E0002053
:104930003070A4EB08000DB0BDE8F08F284E554C48
:104940004C2900000020704700207047002070476D
:104950000020704710B5FBF733FCFEF715FEFFF79C
:104960004DFAFFF781FBFFF741FBFEF735FDFFF73F
:1049700089FBFFF727FCFFF75FFB002010BD014616
:10498000002009E00B685A1C0A601A7800EB8003CB
:1049900002EB4302A2F130000A681278303A0A2A88
:1049A000F0D3704700000000000000000102030483
:1049B00006070809000000000102030400000000CF
:1049C00000000000000000000000000000000018CF
:1049D0001818181818080008180000000000003403
:1049E000242424000000000000000000000000005B
:1049F00016247F2424247E242400000000000008C4
:104A00003E6848681C1612127C10100000000061FD
:104A1000D296740810162949C60000000000000054
:104A20003C646438724ACE467F00000000000018E3
:104A3000181818000000000000000000000000042A
:104A4000081810303030301010180C04000000200E
:104A50001008080C0404040C0818102000000008BA
:104A60000A341C6A0800000000000000000000007A
:104A700000001818187F1818180000000000000027
:104A800000000000000000181808300000000000BE
:104A900000000000003C00000000000000000000DA
:104AA00000000000000000181800000000000002D4
:104AB00006040C0808101020204000000000000030
:104AC0003C6642475B7342663C0000000000000009
:104AD00018784808080808087E0000000000000058
:104AE0003C460606040810207E000000000000007E
:104AF0007C0606043C0202067C0000000000000068
:104B00000C1C14246444FF04040000000000000096
:104B10007E6060607E0202067C00000000000000F3
:104B20001E306048764242623C00000000000000F7
:104B30007E0206040C08181030000000000000007F
:104B40003C6242361C6642423C000000000000000D
:104B50003C664242661A0204780000000000000031
:104B600000001818000000181800000000000000E5
:104B7000000018180000001818083000000000009D
:104B8000000004183060100C060000000000000057
:104B9000000000007E007E00000000000000000019
:104BA0000000301804060C10200000000000003047
:104BB0001C06060618100010100000000000001C63
:104BC000224141DDB5A5A5AF94C0403C00000000E6
:104BD000181C342426627E43C1000000000000003F
:104BE0007C4642467C4242427C00000000000000BD
:104BF0001E204040404040603E0000000000000099
:104C00007C464243434342467800000000000000D7
:104C10007E6060607E6060607E00000000000000DA
:104C20007E6060607E6060606000000000000000E8
:104C30001E604040CE4242623E0000000000000084
:104C4000424242427E4242424200000000000000D6
:104C50007E181818181818187E00000000000000B0
:104C60007C040404040404447800000000000000F4
:104C70004244485070584C4442000000000000007C
:104C800020202020202020203E00000000000000E6
:104C90006266675F5B5BC1C1C1000000000000008D
:104CA000626272525A4A4E464600000000000000FE
:104CB0003C6243C3C3C343623C00000000000000E9
:104CC0007C46424246784040400000000000000020
:104CD0003C6243C3C3C343623C180F0000000000A2
:104CE0007C6662667C6C6466620000000000000006
:104CF0003E6040601C0602027C00000000000000D4
:104D00007F18181818181818180000000000000064
:104D100042424242424242623C0000000000000027
:104D2000C14342622624341C180000000000000029
:104D3000C1C141495B5B766666000000000000006F
:104D400043663418181C2466C300000000000000ED
:104D5000C14266341C18181818000000000000003A
:104D60007E02040C181020607E0000000000001C71
:104D700010101010101010101010101C0000004027
:104D80002020101008080C04060200000000003C5F
:104D90000C0C0C0C0C0C0C0C0C0C0C3C0000000053
:104DA000181C246200000000000000000000000049
:104DB0000000000000000000000000FF00000020D4
:104DC00010000000000000000000000000000000D3
:104DD00000003C06023E42467A000000000000400F
:104DE00040405C62424242427C0000000000000001
:104DF00000001E20604060203E0000000000000215
:104E000002023E62424242663A0000000000000098
:104E100000003C62427E40603E0000000000000F47
:104E20001810107E1010101010000000000000007C
:104E300000003F66426658403E43423C000000404E
:104E400040405C62424242424200000000000018C2
:104E500018007808080808087E0000000000000418
:104E60000C007C040404040404040C7800000060BA
:104E70006060626C78706864620000000000007816
:104E800008080808080808087E0000000000000064
:104E90000000764B4B4B4B4B4B00000000000000DA
:104EA00000005C62424242424200000000000000FA
:104EB00000003C62424342623C00000000000000EF
:104EC00000005C62424242427C40404000000000E0
:104ED00000003E62424242663A02020200000000C6
:104EE00000006E72636060606000000000000000FF
:104EF00000003E20203C06027C0000000000000074
:104F00001010FE10101010101E0000000000000015
:104F100000004242424242663A00000000000000A7
:104F2000000043426624341818000000000000000E
:104F30000000C1C15B5A5E66660000000000000010
:104F4000000062261C181C26620000000000000001
:104F5000000043426624341C181830E000000000B2
:104F600000007E060C1810207E0000000000000EDD
:104F700018101010307010101010180E00000808D3
:104F80000808080808080808080808080000003091
:104F9000180808080C0E080808081830000000005F
:104FA00000000000714B060000000000000000003F
:104FB00000000000000000000000000000000000F1
:104FC00000000000000000000000000000000000E1
:104FD00000000000000000000000000000000000D1
:104FE00000000000000000000000000000000000C1
:104FF00000000000000000000380038001800180A9
:105000000180018001800180018001800180018098
:105010000180018000000000038003C003800000C5
:105020000000000000000000000000000000000080
:1050300000000000000000000E700E700E700E7078
:105040000E700C300C30000000000000000000006A
:105050000000000000000000000000000000000050
:105060000000000000000000000000000000000040
:1050700000000000000000000000000006180638D4
:10508000063006307FFE7FFE0C300C300C300C30CA
:105090007FFE7FFE0C601C601860186018600000C6
:1050A0000000000000000000000000000000000000
:1050B00000000000000000C000C000C007F81FF89A
:1050C00038C031C0318039803D801F8007F001F841
:1050D00003BC031C030C031C233C3FF83FE0070008
:1050E00006000600000000000000000000000000B4
:1050F00000000000000000001C077E06630C63181F
:10510000633863307E603CE000C001800380033878
:10511000067E0CC61CC618C630C670EE607C000049
:10512000000000000000000000000000000000007F
:10513000000000000000000000000FC01FE0187019
:105140003870387018701CE00FC00F003F8C3B8C1B
:1051500071CC60EC607C7038707C3FFE1FCF00002B
:10516000000000000000000000000000000000003F
:10517000000000000000000003C003C003800180A5
:10518000018001800180000000000000000000009C
:10519000000000000000000000000000000000000F
:1051A00000000000000000000000000000000000FF
:1051B00000000000000000000030006000E001C0BE
:1051C000038003000700070006000E000E000E001B
:1051D0000E000E000E00060007000700038003808B
:1051E00001C000E00070003000000000000000007E
:1051F00000000000000000000C000E00070003800B
:1052000001C001C000E000E00060007000700070AC
:10521000007000700060006000E000E001C001C0AC
:10522000038007000E000C000000000000000000DA
:105230000000000000000000018001800188199832
:105240000FF803C003C01FF8199801800180018086
:10525000000000000000000000000000000000004E
:10526000000000000000000000000000000000003E
:10527000000000000000000000000000000000002E
:1052800000000180018001800180018001807FFE9B
:105290007FFE01800180018001800180000000000C
:1052A00000000000000000000000000000000000FE
:1052B00000000000000000000000000000000000EE
:1052C00000000000000000000000000000000000DE
:1052D000000000000000038003C003C001C001C043
:1052E00001C007801F001000000000000000000047
:1052F00000000000000000000000000000000000AE
:1053000000000000000000000000000000000FF09E
:105310000FF000000000000000000000000000008E
:10532000000000000000000000000000000000007D
:10533000000000000000000000000000000000006D
:10534000000000000000000000000000000000005D
:1053500000000000000003C003C003C003C0000041
:10536000000000000000000000000000000000003D
:105370000000000000000000001C00180038003091
:1053800000700060006000C000C001C001800380A8
:105390000300070006000E000C000C0018001800A7
:1053A0003800300000000000000000000000000095
:1053B00000000000000000000000000007F01FF8DF
:1053C0001838381C300C303C707E71EE73CE7F0E76
:1053D0007E0E380C300C381C1C381FF007E0000023
:1053E00000000000000000000000000000000000BD
:1053F00000000000000000000000000003C00FC01B
:105400003FC039C001C001C001C001C001C001C01E
:1054100001C001C001C001C001C03FFC3FFC000051
:10542000000000000000000000000000000000007C
:105430000000000000000000000000000FE03FF04E
:10544000183800380018001800380030007000E0EC
:1054500001C0038007000E001C003FFC3FFC000061
:10546000000000000000000000000000000000003C
:105470000000000000000000000000001FE01FF01E
:105480000038003800380038007007E007F0007876
:10549000001C001C001C001C00383FF03FC0000036
:1054A00000000000000000000000000000000000FC
:1054B00000000000000000000000000000F001F00B
:1054C00001B00330073006300C301C30383030303B
:1054D00070307FFE7FFE0030003000300030000072
:1054E00000000000000000000000000000000000BC
:1054F0000000000000000000000000001FF81FF87E
:10550000180018001800180018001FE01FF80038D5
:10551000001C001C001C001800381FF01FC00000F9
:10552000000000000000000000000000000000007B
:1055300000000000000000000000000001F807F873
:105540000E001C001800380031C03FF83E3C301CF3
:10555000300C300C380C380C1C1C1FF807E0000015
:10556000000000000000000000000000000000003B
:105570000000000000000000000000003FFC3FFCB5
:10558000001C0018003800300070006000E000C00F
:1055900001C001800380070007000E000E0000001C
:1055A00000000000000000000000000000000000FB
:1055B0000000000000000000000000000FF01E7856
:1055C000381C381C381C3C181E780FE007E01E7889
:1055D0003C3C381C300C300C381C1FF80FF000001D
:1055E00000000000000000000000000000000000BB
:1055F0000000000000000000000000000FE01E7826
:105600003838301C701C700C300C381C3EFC0FEC11
:10561000001C001C0018003800F01FE01F000000F4
:10562000000000000000000000000000000000007A
:10563000000000000000000000000000000000006A
:105640000000000003C003C003C001800000000090
:10565000000000000000018003C003C003C0000080
:10566000000000000000000000000000000000003A
:10567000000000000000000000000000000000002A
:105680000000000003C003C003C001800000000050
:1056900000000000000003C003C003C001C001C03F
:1056A00001C007800F0000000000000000000000A3
:1056B00000000000000000000000000000000000EA
:1056C00000100038007001E003C007000E003C002D
:1056D0001C000E00078001C000E0007800100000F0
:1056E00000000000000000000000000000000000BA
:1056F00000000000000000000000000000000000AA
:10570000000000000000000000003FFC000000005E
:1057100000003FFC3FFC0000000000000000000013
:105720000000000000000000000000000000000079
:105730000000000000000000000000000000000069
:1057400008001C000E00070003C000E00070003CD1
:105750000038007001E0038007001E000800000010
:105760000000000000000000000000000000000039
:1057700000000000000000000E000FC003E00070F9
:105780000038003800380038007803F003C0030008
:10579000030003000000000007000780070000006E
:1057A00000000000000000000000000000000000F9
:1057B000000000000000000001E007F80E1C1C0EB5
:1057C00018063006300361F363F36633E673CE6385
:1057D000CC63CC66CC66CCE6CFFCC73C60006000F6
:1057E000600030003C301FF00000000000000000AE
:1057F00000000000000000000000000003C003C023
:1058000007E006E006600E700C700C301C3818388B
:10581000381C3FFC3FFC700E700E6006E007000075
:105820000000000000000000000000000000000078
:105830000000000000000000000000003FF03FF802
:105840003838381C381C381838383FF03FF0383CAE
:10585000381C380C380C381C383C3FF83FE000004E
:105860000000000000000000000000000000000038
:1058700000000000000000000000000007FC0FFC1A
:105880001E0038003800300070007000700070009A
:105890007000300038003C001E040FFC03FC0000C8
:1058A00000000000000000000000000000000000F8
:1058B0000000000000000000000000003FE03FF09A
:1058C0003038301C300C300E300E300E300E300EB2
:1058D000300E300C301C301C30783FF03F80000020
:1058E00000000000000000000000000000000000B8
:1058F0000000000000000000000000001FF81FF87A
:10590000180018001800180018001FF81FF81800D9
:10591000180018001800180018001FF81FF80000E1
:105920000000000000000000000000000000000077
:105930000000000000000000000000001FF81FF839
:10594000180018001800180018001FF81FF8180099
:10595000180018001800180018001800180000009F
:105960000000000000000000000000000000000037
:1059700000000000000000000000000007FC0FFC19
:105980001C00380030007000700070FC70FC700C5F
:10599000700C700C300C380C1C0C0FFC07FC000059
:1059A00000000000000000000000000000000000F7
:1059B000000000000000000000000000300C300C6F
:1059C000300C300C300C300C300C3FFC3FFC300CF9
:1059D000300C300C300C300C300C300C300C000023
:1059E00000000000000000000000000000000000B7
:1059F0000000000000000000000000003FFC3FFC31
:105A0000018001800180018001800180018001808E
:105A1000018001800180018001803FFC3FFC00008B
:105A20000000000000000000000000000000000076
:105A30000000000000000000000000001FF01FF048
:105A400000300030003000300030003000300030D6
:105A5000003000300030003010701FE01FC0000028
:105A60000000000000000000000000000000000036
:105A7000000000000000000000000000381C383862
:105A8000387038E038C039803B003F003F003B00B1
:105A90003B8039C038E038703838383C381C00005A
:105AA00000000000000000000000000000000000F6
:105AB0000000000000000000000000001C001C00AE
:105AC0001C001C001C001C001C001C001C001C00F6
:105AD0001C001C001C001C001C001FFC1FFC000004
