:020000040800F2
:10000000E86E00209D01000879360008A302000870
:10001000753600088D040008B14200080000000099
:10002000000000000000000000000000A9380008E7
:100030004D05000800000000EF010008AB38000883
:10004000B7010008B7010008B7010008B7010008B0
:10005000B7010008B7010008ED0C0008B70100085F
:10006000B7010008B7010008B7010008B701000890
:10007000B7010008B7010008B7010008B701000880
:10008000B7010008B7010008B7010008B701000870
:10009000B7010008B7010008B7010008F10C00081B
:1000A000B7010008B7010008B7010008B701000850
:1000B000B7010008B7010008B7010008B701000840
:1000C000B7010008B7010008B7010008B701000830
:1000D000B7010008B7010008B7010008B701000820
:1000E000B7010008B7010008B7010008B701000810
:1000F000B7010008B7010008B7010008B701000800
:10010000B7010008B7010008B7010008B7010008EF
:10011000B7010008B7010008B7010008B7010008DF
:10012000B7010008B7010008B7010008B7010008CF
:10013000B7010008B7010008B7010008B7010008BF
:10014000B7010008B7010008B7010008B7010008AF
:10015000B7010008B7010008B7010008B70100089F
:10016000B7010008B7010008B7010008B70100088F
:10017000B7010008B7010008B7010008000000003F
:10018000B7010008B7010008DFF80CD000F03AF919
:10019000004800477F040008E86E002006488047BA
:1001A00006480047FEE7FEE7FEE7FEE7FEE7FEE75C
:1001B000FEE7FEE7FEE7FEE77D390008890100085B
:1001C000EFF3108072B6704780F3108870473A4A98
:1001D0001368012B04D04FF001031360374A1060FD
:1001E000374A116037484FF0805101607047EFF394
:1001F000108272B63048016851B34FF000010160BF
:100200002E48016891B1EFF309811EF0100F08BF6D
:1002100021ED108B21E9F00F4FF000041EF0100FBC
:1002200008BF012441F8044D0068016024490968B1
:10023000096808C9B1E8F00F002B18BFB1EC108BAA
:1002400081F309884EF0100E002B18BF2EF0100E0F
:1002500082F310884EF0040E704719490860EFF3DE
:10026000148222F0040282F3148814494FF0000033
:10027000086011494FF00100086013484FF47F01F6
:10028000D0F8002041EA020101600E484FF0805191
:1002900001600E480068006880F3088861B662B6A5
:1002A0007047EFF3098000B504F0E4FE5DF804EB5D
:1002B0004EF0040E7047000050010020480100205D
:1002C0004C01002004ED00E020ED00E008ED00E02E
:1002D0002DE9F05F0546002092469B46884606467B
:1002E000814640241BE0284641464746224600F00E
:1002F00073F853465A46C01A914110D31146184616
:10030000224600F05AF82D1A67EB01084F462246A4
:100310000120002100F051F817EB00094E41201E8A
:10032000A4F10104DFDC484631462A464346BDE8D5
:10033000F09F40EA01039B0703D009E008C9121FA0
:1003400008C0042AFAD203E011F8013B00F8013B8F
:10035000521EF9D27047D2B201E000F8012B491EBB
:10036000FBD270470022F6E710B513460A46044652
:100370001946FFF7F0FF204610BD421C10F8011B84
:100380000029FBD1801A70472DE9F0410546002075
:1003900090460E46044600E0641C44450BD2285D9E
:1003A00000F02AF80746305D00F026F8381A02D12E
:1003B000295D0029F0D1BDE8F081202A04DB203A34
:1003C00000FA02F1002070479140C2F1200320FAA8
:1003D00003F3194390407047202A04DB203A21FAA6
:1003E00002F00021704721FA02F3D040C2F120024E
:1003F0009140084319467047A0F14101192900D8DE
:1004000020307047064C074D06E0E06840F00103DD
:1004100094E8070098471034AC42F6D3FFF7B8FED3
:100420006CBB00088CBB000870B58C1810F8015B21
:1004300015F0070301D110F8013B2A1106D110F87D
:10044000012B03E010F8016B01F8016B5B1EF9D181
:100450002B0705D40023521E0DD401F8013BFAE707
:1004600010F8013BCB1A921C03E013F8015B01F872
:10047000015B521EF9D5A142D8D3002070BD10B542
:10048000FFF79EFE05F074FF002010BD00BFFEE7E1
:1004900038B504464FF6FF71084603F05BF80120BB
:1004A00000900648008883B205480088B63882B2BA
:1004B0000021B52002F0A8FB38BD00006A00002032
:1004C0006800002070B504462546287A0449087162
:1004D000098888B24FF6FF7103F03CF870BD000048
:1004E000B800002070B5044625460849A868086091
:1004F000098888B24FF6FF7103F02CF803480079A1
:10050000082802D100200149087170BDB800002000
:1005100010B50C480C4908604FF4E13048600021E8
:1005200009488160C160016181610C21416101F074
:1005300056FE05480068C06840F02000024909687E
:10054000C86010BD001001405C010020704701B57B
:1005500002E00098401E009000980028F9D108BDE4
:1005600001B502E00098401E009000980028F9D1E3
:1005700008BD0000F8B505462C46207BA0BB4FF611
:10058000FF714DF6FB6002F0E5FF01200090E68868
:100590006788F61BB3B2A6882788F61BB2B26188BB
:1005A000384602F031FB4DF6FB614FF4784002F023
:1005B000D1FF324802F0D8FFE2886388D21AA2F154
:1005C000200606EBD67203EB620291B2A288238862
:1005D000D21AA2F1400707EBD77203EB620290B286
:1005E00027A202F019F933E0FFE74FF6FF71084642
:1005F00002F0B0FF01200090E6886788F61BB3B2D6
:10060000A6882788F61BB2B26188384602F0FCFA49
:100610004FF6FF714FF4784002F09CFF174802F04C
:10062000A3FFE2886388D21AA2F1200606EBD672F5
:1006300003EB620291B2A2882388D21AA2F140078A
:1006400007EBD77203EB620290B20DA202F0E4F85E
:100650004FF6FF714FF4047002F07CFF0020009011
:10066000E6886788F61BB3B2A6882788F61BB2B265
:100670006188384602F0C8FAF8BD0000800000200A
:10068000C7E5C6C100000000F8B505462C46207B32
:10069000A0B9218988B24FF6FF7102F05BFF0120FB
:1006A0000090E6886788F61BB3B2A6882788F61BF9
:1006B000B2B26188384602F0A7FA12E04FF6FF7135
:1006C000084602F047FF01200090E6886788F61B85
:1006D000B3B2A6882788F61BB2B26188384602F00A
:1006E00093FA4FF6FF714FF4047002F033FF0020CD
:1006F0000090E6886788F61BB3B2A6882788F61BA9
:10070000B2B26188384602F07FFAF8BD2DE9F843AD
:1007100006463446207B80BB4FF6FF714DF6FB60EA
:1007200002F018FF01200090E788B4F802C0A7EBA0
:100730000C07BBB2A788B4F800C0A7EB0C07BAB28D
:100740006188604602F060FA4DF6FB614FF4047078
:1007500002F000FF00200090E788B4F802C0A7EB89
:100760000C07BBB2A788B4F800C0A7EB0C07BAB25D
:100770006188604602F048FA2FE0FFE74FF6FF710C
:10078000084602F0E7FE01200090E788B4F802C0B6
:10079000A7EB0C07BBB2A788B4F800C0A7EB0C0707
:1007A000BAB26188604602F02FFA4FF6FF714FF43B
:1007B000047002F0CFFE00200090E788B4F802C079
:1007C000A7EB0C07BBB2A788B4F800C0A7EB0C07D7
:1007D000BAB26188604602F017FA4FF6FF71002046
:1007E00002F0B8FEA06809282FD2DFE800F0052F3C
:1007F000567DA4CBF5F3F2004FF6FF71002002F016
:10080000A9FEB4F806C0B4F80290ACEB090707EBF8
:10081000D77C09EB6C0C1FFA8CF3B4F806C0ACEB78
:10082000090808EBD87C09EB6C0C1FFA8CF1B4F8C2
:1008300004C0ACF1140C1FFA8CF2B4F800C00CF137
:10084000140C1FFA8CF002F0DDF877E10120009023
:10085000B4F806C0B4F80290ACEB090808EBD87CF9
:1008600009EB6C0C1FFA8CF3B4F806C0ACEB09076B
:1008700007EBD77C09EB6C0C1FFA8CF1B4F804C0C1
:10088000ACF1140C1FFA8CF2B4F800C00CF1140C8B
:100890001FFA8CF002F006F950E102200090B4F843
:1008A00006C0B4F80290ACEB090707EBD77C09EB64
:1008B0006C0C1FFA8CF3B4F806C0ACEB090808EB1B
:1008C000D87C09EB6C0C1FFA8CF1B4F804C0ACF1C5
:1008D000140C1FFA8CF2B4F800C00CF1140C1FFABF
:1008E0008CF002F0DFF829E103200090B4F806C094
:1008F000B4F80290ACEB090707EBD77C09EB6C0C62
:100900001FFA8CF3B4F806C0ACEB090808EBD87CEE
:1009100009EB6C0C1FFA8CF1B4F804C0ACF1140CA8
:100920001FFA8CF2B4F800C00CF1140C1FFA8CF012
:1009300002F0B8F802E104200090B4F806C0B4F860
:100940000290ACEB090808EBD87C09EB6C0C1FFAA1
:100950008CF3B4F806C0ACEB090707EBD77C09EBC6
:100960006C0C1FFA8CF1B4F804C0ACF1140C1FFA33
:100970008CF2B4F800C00CF1140C1FFA8CF002F0E9
:1009800091F8DBE008200090B4F806C0B4F80290BB
:10099000ACEB090707EBD77C09EB6C0C1FFA8CF367
:1009A000B4F806C0ACEB090808EBD87C09EB6C0C7A
:1009B0001FFA8CF1B4F804C0ACF1140C1FFA8CF2DD
:1009C000B4F800C00CF1140C1FFA8CF002F06AF8B5
:1009D000B4E072E027E0FFE70A200090B4F806C018
:1009E000B4F80290ACEB090808EBD87C09EB6C0C6E
:1009F0001FFA8CF3B4F806C0ACEB090707EBD77C01
:100A000009EB6C0C1FFA8CF1B4F804C0ACF1140CB7
:100A10001FFA8CF2B4F800C00CF1140C1FFA8CF021
:100A200002F040F88AE04FF6FF71002002F092FDDC
:100A3000B4F806C0B4F80290ACEB090707EBD77C1A
:100A400009EB6C0C1FFA8CF3B4F806C0ACEB090888
:100A500008EBD87C09EB6C0C1FFA8CF1B4F804C0DD
:100A6000ACF1050C1FFA8CF2B4F800C00CF1050CC7
:100A70001FFA8CF001F0C6FF002514E0E2886388BD
:100A8000D71A07EBD77203EB620291B22288521D8C
:100A900005EB850302EB430290B20123032201F030
:100AA00015FF681C85B2A0882188401A0A380A21DF
:100AB00090FBF1F0A842E1DC40E000214FF6FF702E
:100AC00002F048FD01200090E2886388D21AA2F16A
:100AD000460707EBD77203EB620291B2A288238824
:100AE000D21AA2F1280808EBD87203EB620290B286
:100AF00028231A4602F088F84DF6FB614FF478403F
:100B000002F028FD0F4802F02FFDE2886388D21A18
:100B1000A2F1300707EBD77203EB6202203291B2E9
:100B2000A2882388D21AA2F1400808EBD87203EBFE
:100B3000620290B204A201F06FFE00BF00BFBDE8E8
:100B4000F883000080000020CFF0C6A40000000061
:100B50002DE9F84305460F4614461E46DDF8208071
:100B6000B52C72DDB52DFCDD98F80400092810D2F3
:100B7000DFE800F005102030405062758D00002D38
:100B800007DB002F05DBB3B2A2B2B9B2A8B201F005
:100B900039FFA4E0601EB52802DB681EB52800DA24
:100BA0009DE00120B3B2A2B2B9B20090A8B201F0A8
:100BB00079FF94E0A01EB52802DBA81EB52800DA54
:100BC0008DE00220B3B2A2B2B9B20090A8B201F097
:100BD00069FF84E0E01EB52802DBE81EB52800DAD4
:100BE0007DE00320B3B2A2B2B9B20090A8B201F086
:100BF00059FF74E0201FB52802DB281FB52800DA52
:100C00006DE00420B3B2A2B2B9B20090A8B201F074
:100C100049FF64E0A4F10800B52803DBA5F1080052
:100C2000B52800DA5BE00820B3B2A2B2B9B20090F6
:100C3000A8B201F037FF52E0A4F10A00B52803DBA7
:100C4000A5F10A00B52801DA49E049E00A20B3B26B
:100C5000A2B2B9B20090A8B201F024FF3FE0E01EBA
:100C6000B52802DBE81EB52800DA38E0002D0DDBE0
:100C7000002F0BDBB3B2A2B2B9B2A8B201F0C2FE30
:100C8000B1B2A0B20123032201F020FE27E0A4F1BB
:100C90001400B52810DB28301249098888420BDC83
:100CA0002838002808D406F114000F490988884222
:100CB00002DC2838002800D511E04FF6FF71084605
:100CC00002F048FC0120A6F1140291B2A4F1140232
:100CD000009090B228231A4601F096FF00BF00BF93
:100CE000BDE8F883680000206A000020704700001B
:100CF00010B504F087F80A48006800F4807058B115
:100D00000848406980F004000649486100F0B6FADE
:100D10004FF480700249086004F084F810BD0000B0
:100D2000143C01400010024070B504461D460023EB
:100D3000B5F5804F13D154F822300C480340D1E967
:100D4000000640EA06108E6840EA06208E8940EAD6
:100D500006408E693043034344F8223003E06FF0CD
:100D6000704044F82200002070BD00000000F0CF69
:100D700010B503460022086853F8202012480240AC
:100D8000D1E901042043CC6820430C6920434C691D
:100D900020438C692043CC6920430C6A20434C6A71
:100DA00020438C6A2043CC6A2043CC6B20430C6BDD
:100DB000204302438868082801D142F040020868B5
:100DC00043F82020002010BD8000F0FF30B503461E
:100DD0000024501C53F8204004F04044D1E90005A1
:100DE00040EA05108D6840EA05208D8940EA0545F6
:100DF000088A401E45EA0055087D801E45EA0060CD
:100E00008D6928430443501C43F82040002030BD26
:100E1000FEB50020009001900290002440F256356B
:100E20004FF4F076002780208DF8000051208DF8D7
:100E300001000A226946BA2000F052F80446002C4C
:100E400001DA0020FEBD9DF802009DF8031000EBC2
:100E5000012085B29DF804009DF8051000EB0120EB
:100E600086B200BF00BF00BF684600BF80208DF87B
:100E7000000056208DF8010003226946BA2000F0D8
:100E80002FF80446002C01DA0020DBE79DF8020071
:100E900000F003073B463246294602A003F00AFA57
:100EA0000120CFE73C3C2D4754502D494E464F2D55
:100EB0003E3E20585F4D4158203D2025642C20594E
:100EC0005F4D4158203D2025642C2054524947470E
:100ED0004552203D203078253032780A000000004D
:100EE0002DE9F04186B005460C4616464FF0FF3717
:100EF0004FF0000800BF00BF0020ADF802008DF8E1
:100F000000500220ADF8040002940121ADF80E104B
:100F10008DF80C50B01E81B2ADF81010A01C0590D9
:100F200009E00221684601F043FB0746022F00D189
:100F300004E008F10108B8F1050FF2DB00BFB8F1D9
:100F4000050F08DB6078237840EA0321B21E3B4698
:100F5000034803F0AFF9384606B0BDE8F081000061
:100F600060BA000838B50E480068009000256C1E75
:100F700000BF00BF0DE003226946BA20FFF7B0FFB3
:100F800044B2002C01DD204638BD294605A003F0FF
:100F900091F92846691CCDB20528ECDB2046F3E721
:100FA000DCB800083C3C2D4754502D4552524F525E
:100FB0002D3E3E204754502069326320746573747F
:100FC000206661696C65642074696D652025642EF6
:100FD0000A0000002DE9FE4380460C4615464FF0FE
:100FE000FF36002700BF00BF0020ADF802008DF8DB
:100FF0000080A8B2ADF80400029408E00121684620
:1010000001F0D6FA0646012E00D102E07F1C052F22
:10101000F4DB00BF052F08DB6078237840EA03216A
:10102000AA1E3346024803F045F93046BDE8FE8368
:10103000B0BA00082DE9F0414FF0FF34002500263A
:1010400000274FF0000800BF00BF01F0A9FAFFF72A
:1010500089FF0446002C05DA06A003F02BF9204690
:10106000BDE8F08100F01CF801F024FAFFF7D0FE93
:101070000020F5E73C3C2D4754502D4552524F522D
:101080002D3E3E2049324320636F6D6D756E69635E
:101090006174696F6E204552524F52210A00000060
:1010A00010B586B04FF0FF34434903C9CDE90401C0
:1010B00000BF00BF082204A9BA20FFF711FF0446B1
:1010C000002C05DA3DA003F0F5F8204606B010BD6F
:1010D0009DF81200352825D19DF816009DF81710AF
:1010E0009DF81520CDE9002102909DF814309DF85F
:1010F00013209DF812103CA003F0DCF89DF81200BC
:10110000352856D19DF81300362852D19DF8140089
:1011100038284ED19DF8150038284AD102203E4982
:10112000087046E09DF81500F0B99DF816009DF88E
:101130001710CDE900109DF814309DF813209DF88C
:10114000121036A003F0B6F89DF81200392830D1FD
:101150009DF8130031282CD19DF81400312828D196
:1011600001202D49087024E09DF816009DF8171005
:101170009DF81520CDE9002102909DF814309DF8CE
:1011800013209DF8121031A003F094F89DF812007E
:1011900039280ED19DF8130031280AD19DF814008A
:1011A000352806D19DF81500372802D100201A49AC
:1011B000087020468AE70000C4B800083C3C2D4770
:1011C00054502D4552524F522D3E3E2047545020F0
:1011D000726561642076657273696F6E20666169FD
:1011E0006C65640A000000003C3C2D4754502D49BA
:1011F0004E464F2D3E3E204943312056657273695D
:101200006F6E3A2025632563256325635F253032A1
:1012100078253032780A0000980000203C3C2D47A9
:1012200054502D494E464F2D3E3E204943322056C4
:10123000657273696F6E3A202563256325635F25A8
:10124000303278253032780A000000003C3C2D47CF
:1012500054502D494E464F2D3E3E20494333205693
:10126000657273696F6E3A20256325632563256374
:101270005F25303278253032780A000010B500BF83
:1012800000BF00F08BF810BDF8B504460D461646B9
:101290001F4600BF00BF00BF00BFB1B2A8B202F03E
:1012A0009FFB0A480A4A009032F91410094A32F9A1
:1012B000140033B22AB2FFF74BFC28B2054921F8DB
:1012C000140030B2024921F81400F8BDB800002023
:1012D000A40000209A00002010B504460A4A32F803
:1012E000142091B2094A32F8142090B202F0AEFDF7
:1012F0004FF0FF30054921F81400034921F814008C
:1013000000BF00BF10BD0000A40000209A00002014
:101310002DE9F0418CB080460C461848007888B919
:1013200002F03AFA012015490870694614A002F04B
:10133000E6F91849086008460068401C10B91648CC
:1013400002F0B8FF2512E6B2A5F1A101C1EB01122E
:1013500002EB411106EB4101A1398802C11700EBF4
:101360005171CF100B480068C1198022404602F02D
:10137000EBF900200CB0BDE8F081000090000020E7
:101380004742323331325F48333233322E464F4E8A
:10139000000000009400002014BA00082DE9F04F6E
:1013A00099B070A00068189028210EA8FEF7DAFF07
:1013B0006D4800680D900025A846BA200C900026C4
:1013C0004FF000094FF0000A00200B9083460024E4
:1013D000401E0A9000BF00BF0C220DA90C98FFF719
:1013E0007FFD0A900A98002806DA60A00A9902F0A8
:1013F00061FF19B0BDE8F08F9DF83680B8F1000F9D
:1014000000D1F6E708F0800000B99DE008F00F0574
:10141000052D00DD98E0012D17DD242101A8FEF740
:10142000A1FF5148001D00680090681EC000821C8A
:1014300069460C98FFF754FD0A90681EC2000DF132
:10144000020110A8FEF775FF00BF54480088A842AB
:1014500021DD00241BE0002715E0032000EBC7007E
:101460000DA94618307800F00F0B4D48005D584527
:1014700000D10AE0681EB84203DC4949085DFFF765
:101480002BFF781CC7B2AF42E7DB00BF641C4348A8
:1014900000888442DFDB002D45D0002440E003209B
:1014A00000EBC4000DA94618307800F00F0B3C4843
:1014B00000F804B07078B17840EA0129F078317909
:1014C00040EA012A7079B17940EA01200B90354851
:1014D000007808281BD2DFE800F004140A0B1A1A5F
:1014E000150500BF30480088A0EB0A0A10E000BFD5
:1014F0002E480088A0EB09092B480088A0EB0A0AB7
:1015000006E000BF29480088A0EB090900E000BF01
:1015100000BF5246494658460B9BFFF7B5FE641C78
:10152000AC42BCDB0DE01D48008850B1002404E053
:101530001B49085DFFF7D0FE641C184800888442F0
:10154000F6DB1648058000BF032218A90C98FFF7A8
:1015500041FD0A900A98002802DA15A002F0AAFEBE
:1015600000BF46E7814E000068B800083C3C2D47AC
:1015700054502D4552524F522D3E3E204932432069
:101580007472616E73666572206572726F722E205E
:101590006572726E6F3A25640A200A00AE00002060
:1015A000B00000206C0000206A00002068000020CD
:1015B0003C3C2D4754502D494E464F2D3E3E204930
:1015C000324320777269746520656E645F636D6471
:1015D000206572726F72210A00000000F8B50246A1
:1015E0000B460025002400200021DCE0012606FA3D
:1015F00001F51E6806EA0504AC4273D15E68022E4E
:1016000002D05E68122E13D1CF0802F1200656F8E0
:1016100027004E07F70E0F26BE40B0434F07FF0EC0
:101620001E69BE403043CF0802F1200646F827006D
:1016300010684F000326BE40B0431E7906F0030633
:101640004F00BE40304310605E68012E08D05E68D7
:10165000022E05D05E68112E02D05E68122E13D1C4
:1016600090684F000326BE40B0434F00DE68BE4086
:1016700030439060506801268E40B0431E79C6F317
:1016800000168E4030435060D0684F000326BE40A5
:10169000B0434F009E68BE403043D0605E6806F0A5
:1016A0008056B6F1805F7DD100BF00260096404E87
:1016B000366846F480463E4F3E603E46366806F445
:1016C0008046009600BF00BF3A4E8F0856F82700AC
:1016D0008E07370F0F26BE40B043374EB24202D1BD
:1016E000002624E05EE0354EB24201D101261EE024
:1016F000334EB24201D1022619E0324EB24201D13C
:10170000032614E0304EB24201D104260FE02F4EE2
:10171000B24201D105260AE02D4EB24201D1062681
:1017200005E02C4EB24201D1072600E008268F07C3
:101730003F0FBE4030431F4E8F0846F82700264E0D
:101740003068A0435E6806F48036B6F5803F00D16D
:101750002043214E3060361D3068A0435E6806F499
:101760000036B6F5003F00D120431B4E361D3060D9
:10177000361D3068A0435E6806F48016B6F5801FFB
:1017800000D12043144E08363060361D3068A04327
:101790005E6806F40016B6F5001F00D120430E4E19
:1017A0000C363060491C1029FFF420AFF8BD000052
:1017B0004438024008380140000002400004024062
:1017C00000080240000C02400010024000140240D9
:1017D00000180240001C0240003C01400246136910
:1017E0000B400BB1012000E0002070470148006869
:1017F000000C7047002004E00148006870470000BA
:101800000400002070B504460E4800784FF47A7149
:10181000B1FBF0F00C490968B1FBF0F5284600F087
:10182000C4FC08B1012070BD102C07D20022214653
:10183000501E00F01DF80548046001E00120F2E7A9
:101840000020F0E70C00002000000020080000202D
:1018500001460846002809DB00F01F0301229A40D8
:1018600043099B0003F1E023C3F8002100BF704748
:101870002DE9F05F80460D461646002702F02AFD4E
:10188000074639462A46334601F00700C0F1070AE9
:10189000BAF1040F02D94FF0040A01E0C0F1070ABF
:1018A000D14600F1040ABAF1070F02D24FF0000A44
:1018B00001E0A0F1030AD4464FF0010A0AFA09FA3E
:1018C000AAF1010A0AEA020A0AFA0CFA4FF0010B1D
:1018D0000BFA0CFBABF1010B0BEA030B4AEA0B040E
:1018E0002146404602F0FEFCBDE8F09F70B504467C
:1018F0000D460CB9012070BD5848006800F00F007B
:10190000A84209D255490D700846006800F00F0042
:10191000A84201D00120EEE7207800F00200022862
:101920001DD1207800F00400042805D14C4800683F
:1019300040F4E0504A490860207800F00800082888
:1019400005D14748006840F4604045490860444874
:10195000006820F0F000A168084341490860207841
:1019600000F00100A8B36068012807D13C4808389E
:101970000068C0F34040B8B90120BCE760680228A5
:1019800002D06068032807D1354808380068C0F3E2
:10199000406048B90120AEE7314808380068C0F31C
:1019A000400008B90120A6E72D48006820F0030098
:1019B000616808432A490860FFF71EFF064609E0F0
:1019C000FFF71AFF801B41F28831884202D90320B9
:1019D00091E707E02248006800F00C006168B0EB76
:1019E000810FEDD11D48006800F00F00A84209D911
:1019F0001A490D700846006800F00F00A84201D097
:101A0000012078E7207800F00400042807D114486A
:101A1000006820F4E050E16808431149086020782C
:101A200000F00800082808D10D48006820F4604044
:101A3000216940EAC1000A49086000F03DF8084900
:101A40000968C1F30311074A515CC84006490860A0
:101A50000F20FFF7D7FE00204DE70000003C0240BA
:101A600008380240C06300080000002001480068F8
:101A7000704700000000002000B5FFF7F7FF0449A1
:101A80000968C1F38221034A515CC84000BD0000CF
:101A900008380240D063000800B5FFF7E7FF0449AB
:101AA0000968C1F34231034A515CC84000BD0000DF
:101AB00008380240D06300082DE9F04700240025D3
:101AC0000026A1462548006800F00C0020B104283B
:101AD00005D008283AD105E0DFF8849039E0DFF836
:101AE000849036E01D48001F006800F03F041B484A
:101AF000001F006800F4800078B11A481749091FD8
:101B00000968C1F38811A0FB017001462246002339
:101B10003846FEF7DDFB05460EE011480F49091F68
:101B20000968C1F38811A0FB017001462246002319
:101B30003846FEF7CDFB05460848001F0068C0F395
:101B40000140401C4600B5FBF6F902E0DFF81090BA
:101B500000BF00BF4846BDE8F087000008380240DB
:101B60000024F40040787D01F8B504460CB901204A
:101B7000F8BD207800F00100002874D0F948006812
:101B800000F00C0004280DD0F648006800F00C00AE
:101B9000082813D1F348001F006800F48000B0F556
:101BA000800F0BD1EF4808380068C0F34040002890
:101BB00059D06068002856D10120D9E700BF60687D
:101BC000B0F5803F08D1E7480838006840F480301D
:101BD000E449083908601EE06068B0F5A02F0DD117
:101BE000E0480838006840F48020DE490839086081
:101BF0000846006840F4803008600CE0D948083896
:101C0000006820F48030D749083908600846006829
:101C100020F48020086000BF606890B1FFF7ECFD01
:101C2000054606E0FFF7E8FD401B642801D90320C4
:101C30009EE7CC4808380068C0F340400028F1D047
:101C400011E0FFF7D9FD054606E0FFF7D5FD401B83
:101C5000642801D903208BE7C24808380068C0F324
:101C600040400028F1D1207800F0020002285FD126
:101C7000BC48006800F00C0058B1BA48006800F099
:101C80000C0008281CD1B748001F006800F4800031
:101C9000B0B9B44808380068C0F3400020B1E0682B
:101CA000012801D0012063E7AE480838006820F021
:101CB000F800216940EAC100AA490839086037E004
:101CC000E06800B30120A8490860FFF795FD0546CC
:101CD00006E0FFF791FD401B022801D9032047E7EA
:101CE000A04808380068C0F340000028F1D09D48A3
:101CF0000838006820F0F800216940EAC1009949DD
:101D00000839086014E0002097490860FFF774FD67
:101D1000054606E0FFF770FD401B022801D90320AD
:101D200026E7904808380068C0F340000028F1D149
:101D3000207800F0080008282CD16069A8B10120A3
:101D40008A490860FFF758FD054606E0FFF754FD95
:101D5000401B022801D903200AE782486C30006842
:101D6000C0F340000028F1D014E000207F49086053
:101D7000FFF742FD054606E0FFF73EFD401B022847
:101D800001D90320F4E677486C300068C0F34000C6
:101D90000028F1D1207800F00400042870D100263A
:101DA00070483830006800F0805090B900BF0020C3
:101DB00000906C483830006840F0805069493831F4
:101DC00008600846006800F08050009000BF00BF27
:101DD00001266748006800F48070B0B96448006864
:101DE00040F4807062490860FFF706FD054606E092
:101DF000FFF702FD401B022801D90320B8E65C482A
:101E0000006800F480700028F2D000BFA0680128AC
:101E100008D154486830006840F0010051496831E9
:101E200008601DE0A06805280DD14E4868300068A4
:101E300040F004004B49683108600846006840F0F3
:101E4000010008600CE047486830006820F001009D
:101E50004449683108600846006820F004000860C2
:101E600000BFA068A8B1FFF7C7FC054609E0FFF76F
:101E7000C3FC401B41F28831884202D9032077E637
:101E800026E0384868300068C0F340000028EED0F3
:101E900013E0FFF7B1FC054608E0FFF7ADFC401B7F
:101EA00041F28831884201D9032061E62D4868302B
:101EB0000068C0F340000028EFD1012E07D1294867
:101EC0003830006820F0805026493831086000BF63
:101ED000A069B8B32348006800F00C0008285ED061
:101EE000A069022846D100201F490866FFF784FC3C
:101EF000054606E0FFF780FC401B022801D90320BD
:101F000036E6184808380068C0F340600028F1D170
:101F1000D4E907010843616A40EA81110122A06AFD
:101F2000C2EB500041EA00412C20005D41EA006014
:101F30000C49091F086001200B490866FFF75CFC8B
:101F4000054607E02DE0FFF757FC401B022801D9AA
:101F500003200DE6034808380068C0F340600028FD
:101F6000F1D01EE00838024000004742800E474290
:101F70000070004000200C490866FFF73DFC054654
:101F800006E0FFF739FC401B022801D90320EFE5EA
:101F900006480068C0F340600028F2D101E001204B
:101FA000E6E50020E4E5000000004742003802407A
:101FB00010B504460CB9012010BD606A00B900BF1D
:101FC000A06AB0F5005F00D100BF94F8510028B9B5
:101FD000002084F85000204600F03AF8022084F8EF
:101FE00051002068006820F0400021680860D4E9B2
:101FF00001010843E1680843216908436169084316
:10200000218B01F400710843E1690843216A084308
:10201000A16A0843216808600421A06901EA104010
:10202000616A084321684860A06AB0F5005F02D188
:102030002168E06A08612068C06920F400602168B6
:10204000C86100206065012084F851000020B3E7DA
:1020500010B586B0044600BF0020009039480068E3
:1020600040F00200374908600846006800F00200AE
:10207000009000BF00BF00BF00200090084600682D
:1020800040F0020008600846006800F0020000907E
:1020900000BF00BF00BF002000900846006840F06D
:1020A000020008600846006800F00200009000BFCF
:1020B00000BF00BF002000900846006840F04000CC
:1020C00008600846006800F04000009000BF00BFB4
:1020D00000BF002000901B481430006840F480507E
:1020E0001849143108600846006800F480500090D8
:1020F00000BF00BF08200190022002900120039041
:10210000022004900520059001A90F48FFF766FA08
:10211000102001900520059001A90B48FFF75EFAF9
:10212000202001900520059001A90748FFF756FAE5
:10213000402001900120029001A90448FFF74EFAC7
:1021400006B010BD303802400004024000180240C2
:1021500070B504460E4615460CB9012070BD94F8C2
:10216000490028B9002084F84800204600F01CF8F7
:1021700004F108012068FEF7FBFD3146A2682068E3
:10218000FEF724FE2946236BD4E90102FEF7CCFDBD
:10219000A168206850F8210040F00100A268216881
:1021A00041F822000020D9E7704770B50446254663
:1021B000681EB0F1807F01D301200FE0681E4FF050
:1021C000E02148610F214FF0FF3002F08BF8002032
:1021D0004FF0E021886107200861002070BD10B534
:1021E00004460CB9012010BDA06900B100E000BF99
:1021F00094F8390028B9002084F83800204600F00F
:1022000027F8242084F839002068C06820F40050A2
:102210002168C860204601F061FE2068006920F452
:102220009040216808612068406920F02A002168F8
:1022300048612068C06840F400502168C8600020F0
:10224000E063202084F8390084F83A000020CAE7CF
:1022500010B586B0044600BF0020009026480068F4
:1022600040F01000244908600846006800F01000A3
:10227000009000BF00BF00BF002000901E4814382F
:10228000006840F002001C491439086008460068E4
:1022900000F00200009000BF00BF00BF00200090CF
:1022A0000846006840F0020008600846006800F038
:1022B0000200009000BF00BF402001900220029069
:1022C00001200390032004900720059001A90B48EA
:1022D000FFF784F9802001900720059001A90748A5
:1022E000FFF77CF9012200212520FFF7C1FA252004
:1022F000FFF7AEFA06B010BD4438024000040240B9
:102300002DE9F84304460D4616461F464FF00009D6
:1023100094F8390020285CD105B116B90120BDE838
:10232000F88300BF94F83800012801D10220F6E7B5
:10233000012084F8380000BF0020E063212084F8E9
:102340003900FFF759FA8146A684E6842BE0E08C39
:10235000401EE084A068B0F5805F16D14B46002295
:1023600080212046009701F06DFF08B10320D6E7D9
:10237000A846B8F80000C0F308002168486020694A
:1023800008B9AD1C0FE06D1C0DE04B46002280210A
:102390002046009701F056FF08B10320BFE715F86B
:1023A000010B21684860E08C0028D0D14B46002208
:1023B00040212046009701F045FF08B10320AEE719
:1023C000202084F8390000BF002084F8380000BFC6
:1023D000A5E70220A3E7000000B587B000BF0020FA
:1023E00001903048006840F080002E49086008469F
:1023F000006800F08000019000BF00BF00BF002017
:1024000001900846006840F08000086008460068B7
:1024100000F08000019000BF00BF00BF00200190CD
:102420000846006840F0080008600846006800F0B0
:102430000800019000BF00BF00BF002001900846C7
:10244000006840F0400008600846006800F0400066
:10245000019000BF00BF10200290112003900020C7
:1024600004900320059002A90F48FFF7B7F8202039
:10247000029002A90C48FFF7B1F840200290012019
:102480000390022004900320059002A90748FFF75B
:10249000A5F84020029002A90548FFF79FF807B071
:1024A00000BD000030380240001C0240000C024019
:1024B0000018024000B585B04FF4807000900A48C3
:1024C0000190002002900320039069460748FFF71F
:1024D00085F8012211461720FFF7CAF91720FFF7E8
:1024E000B7F905B000BD000000001110001802404F
:1024F00070B506460D46144602F082FA46F0010019
:1025000002F054FA02F0A4FA00B114E00DE0012C3C
:1025100003D102F015FA02F08BFA02F025FA2870C6
:102520006D1C601E84B202F0EBF9002CEFD102F0BA
:102530007FFA002070BD02F07BFA0120FAE700006C
:1025400000B585B04FF4807000900120019002200A
:1025500002900320039069460E48FFF73FF84FF4BE
:1025600080000D4908600D48FDF7FAFF40200A4938
:1025700008600A48FDF7F4FF4FF4807000900020D7
:10258000019002900320039069460248FFF726F865
:1025900005B000BD00180240180C0240FFFF0F00FC
:1025A00010B5FFF719FFFFF7CBFFFFF783FF10BD53
:1025B0002DE9F04105460F460024002600BF00BF6C
:1025C00000BF2BE004EB440005EB8000807800F0B6
:1025D000010088B104EB440305EB83039A8804EB04
:1025E000440305EB8303996804EB440315F82300C7
:1025F000FFF77EFF064610E004EB440305EB830380
:102600001A7904EB440305EB8303996804EB440354
:1026100015F8230000F00BF80646641C0EB9BC4206
:10262000D0D116B13046BDE8F0812046FBE72DE958
:10263000F04104460D46174602F0FAF900260AE07A
:1026400002F0DEF9204602F0B1F902F001FA00B919
:1026500004E0701C86B2B6F57A7FF1DB00BFB6F5F8
:102660007A7F00D112E007E0287802F09FF902F0AB
:10267000EFF900B10AE06D1C381EA7F10101CFB2DD
:10268000F2D102F0D5F90020BDE8F08102F0D0F9D6
:102690000120F9E718B12021034A916103E04FF4CA
:1026A0000011014A91617047001002402DE9F0418C
:1026B00006460F4614461D462B46224639463046EE
:1026C00000F04EFC04FB05F00249098800F02CFBE9
:1026D000BDE8F0817600002001B502E00098401EC0
:1026E000009000980028F9D108BD00002DE9F047BE
:1026F00080468946174620231A464946404600F040
:102700002FFC2C2000F08AFE39461A48FEF700FE06
:1027100000242BE0174810F824502D02012000EB74
:1027200084001449085C05432D02022000EB84005C
:10273000085C05432D02032000EB8400085C054380
:1027400000260FE04FF00040F040284020B10A483A
:10275000008800F067FE03E00848008800F062FE91
:10276000701CC6B2202EEDDB601CC4B2202CD1DB65
:10277000BDE8F087080200207400002076000020E9
:102780002DE9F05F804689461646A6F120001FFA23
:1027900080FA1E49096889881C4A1268D28801FBA0
:1027A00002F0C11700EB5171C1F3C7071748006869
:1027B00000680AFB070B15480068C38813480068C7
:1027C00082884946404600F0CBFB2C2000F026FED4
:1027D000002416E0002510E01BF8040080212941A8
:1027E000084020B10A48008800F01CFE03E00948B8
:1027F000008800F017FE681CC5B2082DECDB601CD9
:10280000C4B2BC42E6DBBDE8F09F000070000020CF
:1028100074000020760000202DE9F04105460E46A8
:10282000144648E020787E2825DC2846244909689B
:102830008988084423490988884205DD0025204805
:102840000068C088304486B230461D490968C9888E
:1028500008441D490988884201DD002500262278A8
:1028600031462846FFF78CFF1548006880882844C9
:1028700085B2641C1FE0284620301249098888422E
:1028800003DD002506F1200086B2304620300E49D7
:102890000988884201DD002500262788380200EBE0
:1028A000272087B23A4631462846FFF71FFF05F139
:1028B000200085B2A41C20780028B3D1BDE8F081A7
:1028C00070000020680000206A0000202DE9F05F01
:1028D00005460E4691469B4600240FFA89F70320D1
:1028E000A0EB49000FFA80FA87E0BBF1000F40D05F
:1028F000A0463BE006EB080291B22A1990B200F024
:1029000071FD06EB080291B22A1B90B200F06AFD3D
:10291000321991B2A5EB080290B200F063FD321BB0
:1029200091B2A5EB080290B200F05CFDA6EB0802A4
:1029300091B22A1B90B200F055FDA6EB080291B2AD
:102940002A1990B200F04EFD321B91B205EB08023D
:1029500090B200F047FD321991B205EB080290B237
:1029600000F040FD08F101000FFA80F8B845C1DD24
:102970002FE0F21991B22A1990B200F033FDF2194A
:1029800091B22A1B90B200F02DFD321991B2EA1BD0
:1029900090B200F027FD321B91B2EA1B90B200F01A
:1029A00021FDF21B91B22A1B90B200F01BFDF21B1D
:1029B00091B22A1990B200F015FD321B91B2EA19BA
:1029C00090B200F00FFD321991B2EA1990B200F006
:1029D00009FD601C04B2BAF1000F05DAA000801DE9
:1029E00050440FFA80FA07E0E01B80000A305044A0
:1029F0000FFA80FA781E07B200BFBC427FF775AFAE
:102A0000BDE8F09F2DE9FF4F83B081464FF0000AEB
:102A1000D3460598A0EB090504990698461ACDF807
:102A2000049004980090002D01DD012705E00DB908
:102A3000002702E04FF0FF376D42002E02DD4FF01D
:102A4000010806E016B94FF0000802E04FF0FF3829
:102A50007642B54201DD2C4600E03446002002906B
:102A600019E0DDE9001000F0BDFCAA44B344A24522
:102A700005DDAAEB040A0198384480B20190A34511
:102A800005DDABEB040B0098404480B20090029847
:102A9000401C80B20290611C02988842E1DD07B0C0
:102AA000BDE8F08F2DE9F04F8BB005460E469146FC
:102AB0009A46DDF850B00027B84600200A900990E9
:102AC00008900790069005900024049003900290CF
:102AD0000190A9EB0500002802DDA9EB050001E04B
:102AE000A5EB090007B2AAEB0600002802DDAAEB5D
:102AF000060001E0A6EB0A000FFA80F828B20A905F
:102B000030B20990A94503DB01200890079003E04B
:102B10004FF0FF3008900790B24503DB012006908C
:102B2000059003E04FF0FF300690059047450DDB20
:102B30000020089005903C46384607EBD0714910BC
:102B400009B20491CDF80C8002970CE000200790A8
:102B500006904446404608EBD071491009B20491F2
:102B60000397CDF808800020019041E00A9858446E
:102B70002349098888420DDC0A98B0EB0B0009D480
:102B8000099858441F490988884203DC0998B0EB2A
:102B90000B0000D528E0099A91B20A9A90B201235D
:102BA0005A46FFF793FEDDE90310084400B2049093
:102BB0000498A0420DDB0498001B00B20490089911
:102BC0000A98084400B20A9006990998084400B28D
:102BD000099007990A98084400B20A900599099843
:102BE000084400B2099000BF0198401C00B2019057
:102BF000DDE901018842B9DD0BB0BDE8F08F0000CE
:102C0000680000206A0000202DE9F04104460D46CE
:102C100016461F46DDF81880B8F1000F0CD03B4671
:102C200032462946204600F09BF906FB07F017497B
:102C3000098800F079F827E0A019401E82B22B46DF
:102C400029462046FFF7DEFEE819401E83B2A01990
:102C5000401E82B2E819401E81B22046FFF7D2FE24
:102C6000E819401E83B2224629462046FFF7CAFED5
:102C7000E919491E8BB2A119491E8AB2A119491E30
:102C800088B22946FFF7BEFEBDE8F081740000203F
:102C900008B54FF02040204908602048486000BF38
:102CA000002000901E48006840F001001C490860A8
:102CB0000846006800F00100009000BF00BF04203B
:102CC0001849086000204860042088600020C8601F
:102CD000086148614FF08050886104200E49886087
:102CE00000210D48C16008210161102141610021CE
:102CF0008161C16141624FF4805181620021C162F2
:102D00000163416381634FF48011C163054A114639
:102D1000FFF71EFA08BD00009C010020040100A07E
:102D200038380240EC01002070B504460D460026FC
:102D30002C2000F073FB00BF03E0284600F072FB7C
:102D4000761CA642F9D370BD00B587B000BF002045
:102D500001903F48006840F008003D49086008467F
:102D6000006800F00800019000BF00BF00BF002015
:102D700001900846006840F01000086008460068AE
:102D800000F01000019000BF00BF00BF00200190C4
:102D90000846006840F0200008600846006800F01F
:102DA0002000019000BF00BF00BF00200190084636
:102DB000006840F0400008600846006800F04000ED
:102DC000019000BF00BF00BF0020019020480830E4
:102DD000006840F001001E4908310860084600689C
:102DE00000F00100019000BF00BF0120039004909B
:102DF000032005902020029002A91648FEF7EEFB62
:102E00004FF48060029002A91348FEF7E7FB4FF4ED
:102E10000060029002A91148FEF7E0FB0220039037
:102E20000C2006904CF23370029002A90C48FEF779
:102E3000D5FB4FF68070029002A90648FEF7CEFB44
:102E40000120029002A90548FEF7C8FB07B000BDAB
:102E500030380240001002400018024000140240C6
:102E6000000C024010B50446072C00DD10BD2948B7
:102E70000470204604EBD0714910A4EB410141B924
:102E80004FF4F0702449088040F2563023490880FE
:102E900007E040F25630204908804FF4F0701F4997
:102EA0000880362000F0BAFA002141EA441000F010
:102EB000B9FA2A2000F0B2FA002000F0B3FA00209C
:102EC00000F0B0FA14490988491EC1F3072000F048
:102ED000A9FA11490978491EC8B200F0A3FA2B20BB
:102EE00000F09CFA002000F09DFA002000F09AFA11
:102EF0000A490988491EC1F3072000F093FA0749DF
:102F00000978491EC8B200F08DFA2C2000F086FA2C
:102F100000BFABE76C000020680000206A000020C2
:102F200010B5FFF711FFFFF7B3FE00F03DFA00F018
:102F300047F808480078FFF795FF074803880748D7
:102F4000028800210846FFF7B1FB0120FFF7A2FB32
:102F500010BD00006C0000206A0000206800002006
:102F60002DE9F04104460D4616461F462A2000F082
:102F700055FA201200F056FAE0B200F053FAA11907
:102F8000491EC1F30F2000F04DFAA119491EC8B225
:102F900000F048FA2B2000F041FA281200F042FA23
:102FA000E8B200F03FFAE919491EC1F30F2000F022
:102FB00039FAE919491EC8B200F034FABDE8F081C7
:102FC00010B54FF4A040FDF7C2FAFF2000F026FA3A
:102FD000FF2000F027FA982000F024FA062000F0E5
:102FE00021FA4FF4A040FDF7B2FABA2000F016FA29
:102FF000602000F017FA4FF4A040FDF7A8FABC20BB
:1030000000F00CFA032000F00DFA0E2000F00AFA8E
:10301000612000F007FAFF2000F004FA052000F01C
:1030200001FA052000F0FEF91B2000F0FBF910204A
:1030300000F0F8F9732000F0F5F9632000F0F2F9E0
:10304000FF2000F0EFF9FF2000F0ECF9052000F080
:10305000E9F9052000F0E6F9002000F0E3F900208E
:1030600000F0E0F9D52000F0DDF9D02000F0DAF929
:10307000012000F0D7F9002000F0D4F9402000F042
:10308000D1F94FF4A040FDF762FABD2000F0C6F977
:10309000012000F0C7F9232000F0C4F9452000F01A
:1030A000C1F9672000F0BEF9012000F0BBF9232030
:1030B00000F0B8F9452000F0B5F9672000F0B2F94A
:1030C0004FF4A040FDF743FABE2000F0A7F901201D
:1030D00000F0A8F92D2000F0A5F9CB2000F0A2F90E
:1030E000A22000F09FF9622000F09CF9F22000F08D
:1030F00099F9E22000F096F9222000F093F92220BD
:1031000000F090F94FF4A040FDF721FAC72000F03D
:1031100085F9632000F086F94FF4A040FDF717FA17
:10312000ED2000F07BF97F2000F07CF90F2000F00B
:1031300079F9002000F076F94FF4A040FDF707FA86
:10314000C02000F06BF9032000F06CF90B2000F0B8
:1031500069F9002000F066F94FF4A040FDF7F7F997
:10316000FC2000F05BF9082000F05CF94FF4A0406F
:10317000FDF7EDF9DF2000F051F9002000F052F9E1
:10318000002000F04FF9002000F04CF9002000F082
:1031900049F9002000F046F9202000F043F94FF4EF
:1031A000A040FDF7D4F9F32000F038F9742000F0C6
:1031B00039F94FF4A040FDF7CAF9F92000F02EF9D3
:1031C000002000F02FF9FD2000F02CF9802000F005
:1031D00029F9802000F026F9C02000F023F94FF4EF
:1031E000A040FDF7B4F9B42000F018F9022000F077
:1031F00019F9022000F016F9022000F013F94FF43B
:10320000A040FDF7A4F9F72000F008F9812000F0B4
:1032100009F94FF4A040FDF79AF9B12000F0FEF84B
:10322000002000F0FFF8132000F0FCF8132000F05D
:10323000F9F84FF4A040FDF78AF9F22000F0EEF81B
:10324000C02000F0EFF8022000F0ECF8402000F081
:10325000E9F8282000F0E6F84FF4A040FDF777F9F0
:10326000C12000F0DBF8172000F0DCF8752000F03A
:10327000D9F8752000F0D6F8202000F0D3F84FF4EC
:10328000A040FDF764F9E02000F0C8F8002000F04D
:10329000C9F8052000F0C6F8082000F0C3F80C209B
:1032A00000F0C0F80F2000F0BDF8152000F0BAF8CB
:1032B000092000F0B7F8072000F0B4F8012000F072
:1032C000B1F8062000F0AEF8092000F0ABF81620A7
:1032D00000F0A8F8142000F0A5F83E2000F0A2F8B5
:1032E0003E2000F09FF8002000F09CF84FF4A04032
:1032F000FDF72DF9E12000F091F8002000F092F8A0
:10330000092000F08FF8122000F08CF8122000F055
:1033100089F8132000F086F81C2000F083F80720BD
:1033200000F080F8082000F07DF8052000F07AF821
:10333000082000F077F8032000F074F8022000F075
:1033400071F8042000F06EF81E2000F06BF81B20CE
:1033500000F068F8002000F065F84FF4A040FDF799
:10336000F6F83A2000F05AF8552000F05BF84FF4D8
:10337000A040FDF7ECF8352000F050F8002000F0F8
:1033800051F84FF4A040FDF7E2F8112000F046F8A4
:103390004FF4A040FDF7DBF8292000F03FF84FF490
:1033A000A040FDF7D4F810BD10B54FF000600749FC
:1033B000086040F6FF20FFF78FF94FF400600349E3
:1033C000086040F6FF20FFF787F910BD181402408F
:1033D00070B504460D4601231A4629462046FFF7DC
:1033E000BFFD70BD70B505460C4609480088854292
:1033F0000CDA08480088844208DA21462846FFF79C
:10340000E7FF054801880120FFF78EFC70BD000032
:10341000680000206A000020740000204FF0D041B6
:10342000088070474FF0D0414880704700B587B0A2
:1034300000BF002001903648006840F00100344988
:1034400008600846006800F00100019000BF00BF5E
:1034500000BF002001900846006840F004000860AA
:103460000846006800F00400019000BF00BF00BFE4
:10347000002001900846006840F0400008600846BF
:10348000006800F04000019000BF00BF00BF0020B6
:1034900001900846006840F0400008600846006857
:1034A00000F04000019000BF00BF00BF002001906D
:1034B0000846006840F0400008600846006800F0D8
:1034C0004000019000BF00BF012002900020039047
:1034D000049002A90F48FEF781F84FF400500290C3
:1034E00002A90D48FEF77AF80420029002A90B48C1
:1034F000FEF774F80820029002A90848FEF76EF85B
:103500001020029002A90548FEF768F807B000BD38
:10351000303802400000024000080240001802401B
:1035200070B504460D4629462046FEF757F9012896
:1035300008D100BF29462046FEF750F90128F9D0EE
:10354000012070BD0020FCE70149088070470000A1
:1035500076000020024A1080024A11807047000065
:1035600074000020760000200149086070470000C8
:10357000700000200149088070470000740000209E
:1035800000B587B000BF002001903548006840F0CA
:103590000100334908600846006800F0010001900E
:1035A00000BF00BF00BF002001900846006840F047
:1035B000100008600846006800F01000019000BF8D
:1035C00000BF00BF002001900846006840F04000A6
:1035D00008600846006800F04000019000BF00BF8E
:1035E00000BF002001900846006840F0020008601B
:1035F0000846006800F00200019000BF00BF4FF4D1
:10360000004002900120039004900320059002A93D
:103610001448FDF7E3FF0420029002A91248FDF7C9
:10362000DDFF4FF40040029002A91048FDF7D6FFDD
:103630004FF48070029002A90D48FDF7CFFF4FF4C0
:103640000040084988610420074988614003074910
:1036500018310860C01106491831086007B000BD74
:1036600030380240000002400010024000180240C2
:103670000004024000BFFEE77047000070B5054639
:103680002846FFF7EFFB4FF6FF70FFF75DFF12488C
:1036900003881248028800210846FFF707F800F067
:1036A000FBF900240CE004EB44020D4B03EBC200D9
:1036B00004EB440203EBC20211698847601CC4B2E8
:1036C000122CF0DB0020074908600871098888B2D5
:1036D000FFF750FF70BD00006A0000206800002066
:1036E00088460020B800002070B505460E461446F6
:1036F000A2B23146284600F027F8012070BD2DE91E
:10370000F04106460C463046FCF737FE07460025DA
:1037100013E005F5805130222046FFF7E5FF3A46D9
:1037200031462046FCF730FE30B9E06A00F58050A3
:10373000E062E06ABDE8F0813035B5F5005FE8DBB6
:103740004FF0FF30F6E7000070B505460C46164610
:103750004FF480000F490860032000F049F8C4F3DB
:10376000074000F045F8C4F3072000F041F8E0B24C
:1037700000F03EF804E0FF2000F03AF828706D1CDD
:10378000301EA6F101018EB2F5D14020014908603A
:1037900070BD00001818024010B5134813490860A6
:1037A00000211248C1618160012141610221016152
:1037B000002181620721C1620021C16001624FF4D2
:1037C00000718161002141624FF4827007494860B5
:1037D0000846FEF7EDFB05480068006840F0400031
:1037E00002490968086010BD0030014038480020D7
:1037F00010B504464FF48050194908600AE0184992
:103800000868411E164A116020B9002000F02CF80B
:10381000C0B210BD134800688068C0F340000028A3
:10382000EDD010480068C4604FF480500C49086027
:103830000AE00B490868411E094A116020B90120BD
:1038400000F012F8C0B2E4E706480068806800F0B3
:1038500001000028EDD003480068C068C0B2D8E776
:10386000C00000203848002010B50446214602A0C0
:1038700000F020FD002010BD3C3C2D464C4153483B
:103880002D4552524F522D3E3E2053504920B5C82F
:10389000B4FDB3ACCAB1216572726F72436F6465D7
:1038A000203D2025640A0000704710B501F090FC0F
:1038B00002F094FA01F09CFC10BD000000B593B03A
:1038C00000BF002001902A48006840F0805028493D
:1038D00008600846006800F08050019000BF00BFFB
:1038E00000BF002001902348006840F48040214937
:1038F00008600846006800F48040019000BF00BFE7
:1039000001200290000403900220089041050991D3
:1039100019210A914FF4A8710B9102210C910721F2
:103920000D9102A8FEF720F908B100BFFEE70F20B5
:103930000E9002200F90002010904FF4A050119094
:103940004FF48050129005210EA8FDF7CFFF08B16B
:1039500000BFFEE7FDF74AFF41F20101884205D1B1
:103960000548006840F480700349086013B000BD4A
:103970004038024000700040003C0240144800689B
:1039800040F47000124908601248006840F00100DD
:103990001049086000200F49083108600D48006890
:1039A0000D4908400B4908600C48091D0860081FB4
:1039B000006820F48020091F0860002005490C31B0
:1039C00008604FF0006002498039086070470000CD
:1039D00088ED00E000380240FFFFF6FE10300024C2
:1039E00070B505460E46002450E004EB440029491A
:1039F00001EBC0008088A8422CDB04EB440001EB03
:103A0000C000C088B04225DB04EB440001EBC000DD
:103A10004088B0421EDC04EB440031F83000A8427C
:103A200018DC04EB440001EBC000007B60BB01200C
:103A300004EB4401174A02EBC101087304EB440292
:103A4000144B03EBC20004EB440203EBC202116906
:103A5000884719E004EB44000E4901EBC000007BED
:103A6000012811D1002004EB44010A4A02EBC101F4
:103A7000087304EB4402074B03EBC20004EB44025F
:103A800003EBC20211698847601CC4B2122CACDB84
:103A900070BD0000884600200020E449088048806E
:103AA0005A2088803220C880002088600873E0484F
:103AB0000861E0484861002008833221DB484183E7
:103AC0005A2181836421C18346F20C3101620021B5
:103AD00080F82410D6498162D649C1620020D349BA
:103AE00008866421D14841865A2181869621C18663
:103AF0001F218163002180F83C10CD490164CD492C
:103B000041640020C949A1F848009621C748A0F89F
:103B10004A105A21A0F84C10C821A0F84E101021CC
:103B20000165002180F85410C1498165C149C16512
:103B30000020BE49A1F86000C821BC48A0F862106E
:103B40005A21A0F86410FA21A0F866104FF47841C9
:103B50008166002180F86C10B5490167B54941675D
:103B60000020B249A1F87800FA21B048A0F87A10F4
:103B70005A21A0F87C104FF49671A0F87E104FF6F1
:103B80001F01C0F88010002180F88410A849C0F8F7
:103B90008810A849C0F88C100020A449A1F8900012
:103BA0004FF49671A148A0F892105A21A0F89410F1
:103BB0004FF4AF71A0F896104FF4FC61C0F8981064
:103BC000002180F89C109A49C0F8A0109949C0F8CB
:103BD000A41000209549A1F8A8004FF4AF719348B4
:103BE000A0F8AA105A21A0F8AC104FF4C871A0F8A0
:103BF000AE1040F2FF71C0F8B010002180F8B41090
:103C00008B49C0F8B8108B49C0F8BC100020874918
:103C1000A1F8C0004FF4C8718448A0F8C2105A211E
:103C2000A0F8C410844801888048A0F8C6104DF65A
:103C3000FB61C0F8C810002180F8CC107F49C0F8A3
:103C4000D0107F49C0F8D4105A207849A1F8D80084
:103C500000217648A0F8DA10B421A0F8DC10322157
:103C6000A0F8DE100021C0F8E01080F8E4107549DB
:103C7000C0F8E8107449C0F8EC105A206B49A1F85C
:103C8000F00032216948A0F8F210B421A0F8F41035
:103C90006421A0F8F6100121C0F8F810002180F886
:103CA000FC106849C0F800116749C0F804115A2097
:103CB0005E49A1F8080164215C48A0F80A11B4210A
:103CC000A0F80C119621A0F80E110221C0F81011D5
:103CD000002180F814115B49C0F818115A49C0F846
:103CE0001C115A205149A1F8200196214F48A0F8F3
:103CF0002211B421A0F82411C821A0F82611032113
:103D0000C0F82811002180F82C114E49C0F830115C
:103D10004D49C0F834115A204449A1F83801C8214E
:103D20004248A0F83A11B421A0F83C11FA21A0F8B9
:103D30003E110421C0F84011002180F8441141498E
:103D4000C0F848114049C0F84C115A203749A1F831
:103D50005001FA213548A0F85211B421A0F85411AD
:103D60004FF49671A0F856110521C0F858110021A2
:103D700080F85C113349C0F860113349C0F8641110
:103D80005A202A49A1F868014FF496712748A0F8F3
:103D90006A11B421A0F86C114FF4AF71A0F86E1144
:103DA0000621C0F87011002180F874112549C0F86F
:103DB00078112549C0F87C115A201C49A1F88001CE
:103DC0004FF4AF711948A0F88211B421A0F8841102
:103DD0004FF4C871A0F886110721C0F8881100219E
:103DE00080F88C111749C0F890111749C0F8941148
:103DF0005A200E49A1F898014FF4C8710B48A0F859
:103E00009A11B421A0F89C110B4801880748A0F82A
:103E10009E110821C0F8A011002180F8A4110949C1
:103E2000C0F8A8110849C0F8AC11704788460020B6
:103E300089060008E50400086A00002075050008EE
:103E4000910400080D070008C504000870B5054678
:103E50000E4600243BE004EB44001F4901EBC00088
:103E60008088A84231DD04EB440031F83000A842DC
:103E70002BDA04EB440001EBC000C088B04224DD23
:103E800004EB440001EBC0004088B0421DDA002082
:103E900004EB4401104A02EBC101087304EB440235
:103EA0000D4B03EBC20004EB440203EBC2021169A9
:103EB000884704EB4402084B03EBC20004EB4402C6
:103EC00003EBC2025169884703E0601CC4B2122CA4
:103ED000C1DB00BF70BD0000884600202DE9F04125
:103EE00004462068006920F44050E16808432168D6
:103EF00008612169A068084361690843E16940EAF3
:103F000001052068C06849F20C6188432843216894
:103F1000C8602068406920F44070A16908432168A6
:103F20004861E069B0F5004F7ED1C44920688842FD
:103F300003D0C349206888425DD1FDF7ADFD00EB99
:103F4000C00101EB001061684900B0FBF1F0642191
:103F5000B0FBF1F00601FDF79FFD00EBC00101EBA6
:103F6000001061684900B0FBF1F7FDF795FD00EB2B
:103F7000C00101EB001061684900B0FBF1F0642161
:103F8000B0FBF1F000EBC00101EB0010A7EB8000EB
:103F9000322101EBC0006421B0FBF1F000F0F80029
:103FA00006EB4006FDF778FD00EBC00101EB0010C9
:103FB00061684900B0FBF1F7FDF76EFD00EBC00151
:103FC00001EB001061684900B0FBF1F06421B0FB27
:103FD000F1F000EBC00101EB0010A7EB80003221F3
:103FE00001EBC0006421B0FBF1F000F007003044A9
:103FF0002168886020E1FDF73FFD00EBC00101EB87
:10400000001061684900B0FBF1F06421B0FBF1F0F1
:104010000601FDF731FD00EBC00101EB0010616806
:104020004900B0FBF1F700E045E0FDF725FD00EBAE
:10403000C00101EB001061684900B0FBF1F06421A0
:10404000B0FBF1F000EBC00101EB0010A7EB80002A
:10405000322101EBC0006421B0FBF1F000F0F80068
:1040600006EB4006FDF708FD00EBC00101EB001078
:1040700061684900B0FBF1F7FDF7FEFC00EBC00101
:1040800001EB001061684900B0FBF1F06421B0FB66
:10409000F1F000EBC00101EB0010A7EB8000322132
:1040A00001EBC0006421B0FBF1F000F007003044E8
:1040B00021688860C0E061492068884203D0604977
:1040C000206888425CD1FDF7E7FC00EBC00101EB02
:1040D000001061688900B0FBF1F6FDF7DDFC00EB34
:1040E000C00101EB001061688900B0FBF1F06421B0
:1040F000B0FBF1F000EBC00101EB0010A6EB80007B
:10410000322101EB00106421B0FBF1F000F0F00669
:10411000FDF7C2FC00EBC00101EB001061688900F3
:10412000B0FBF1F06421B0FBF1F006EB0016FDF7F7
:10413000B3FC00EBC00101EB001061688900B0FB2B
:10414000F1F7FDF7A9FC00EBC00101EB001061687D
:104150008900B0FBF1F06421B0FBF1F000EBC0018D
:1041600001EB0010A7EB8000322101EB001064216D
:10417000B0FBF1F000F00F003044216888605BE094
:10418000FDF77AFC00EBC00101EB001061688900CB
:10419000B0FBF1F6FDF770FC00EBC00101EB001085
:1041A00061688900B0FBF1F06421B0FBF1F000EB35
:1041B000C00101EB0010A6EB8000322101EB0010E2
:1041C0006421B0FBF1F000F0F006FDF755FC00EBC8
:1041D000C00101EB001061688900B0FBF1F06421BF
:1041E000B0FBF1F006EB0016FDF746FC00EBC0015A
:1041F00001EB001061688900B0FBF1F7FDF73CFCB2
:1042000000EBC00101EB001061688900B0FBF1F028
:104210006421B0FBF1F000EBC00101EB0010A7EB53
:104220008000322101EB00106421B0FBF1F000F0BE
:104230000F00304421688860BDE8F0810010014023
:10424000001401402DE9F04104460D4617469846FA
:10425000069E21E0701CF8B12EB1FDF7CDFAA0EB5F
:104260000800B04218D92068C06820F4D0702168D6
:10427000C8602068406920F0010021684861202062
:1042800084F8390084F83A0000BF002084F8380030
:1042900000BF0320BDE8F081206800682840A842E4
:1042A00001D1012000E00020B842D3D00020F1E786
:1042B00000BFFEE70FB4054B10B503A9044A0298EE
:1042C00000F064F810BC5DF814FB0000E54800083D
:1042D0005801002002480068C0F302207047000027
:1042E0000CED00E010B5002804DB0A07130E054AA8
:1042F000135406E00A07140E034A00F00F031B1FB5
:10430000D45410BD00E400E018ED00E0014609B906
:1043100000207047C8B220B1C8B20E4A105C401CE1
:10432000F7E701F47F4028B10A48C1F30722805C17
:104330000930EEE701F47F0028B10648C1F30742D7
:10434000805C1130E5E7034800EB1160007819301C
:10435000DFE70000F0B8000802E008C8121F08C13B
:10436000002AFAD170477047002001E001C1121FF6
:10437000002AFBD17047000003490868884201D039
:10438000012070470020FCE7340100202DE9FF4F99
:104390008DB00F460546002606E025280BD0DDE946
:1043A0000F1290476D1C761C28780028F5D111B0AB
:1043B0003046BDE8F08F0024A246A1460122EC4918
:1043C00000E0044315F8013F203B02FA03F00842E5
:1043D000F7D128782A2810D06FF02F022878A0F182
:1043E0003001092914D80AEB8A0102EB410144F09B
:1043F000020400EB010A6D1CF0E701CF5FEA000A3E
:1044000003D544F40054CAF1000A44F002046D1CC0
:1044100028782E2817D115F8010F44F004042A2813
:104420000ED06FF02F022878A0F1300109290AD8A8
:1044300009EB890102EB410100EB01096D1CF2E778
:1044400057F8049B6D1C28786C280FD006DC4C288C
:1044500017D068280DD06A2814D104E0742810D031
:104460007A280FD10DE044F400140AE044F48014DB
:1044700001E044F440146978814202D104F58014CB
:104480006D1C6D1C2A786E2A1FD00CDC632A31D07B
:1044900004DC002A8BD0582A11D1A3E0642A68D00A
:1044A000692A0CD165E0732A2ED004DC6F2A73D000
:1044B000702A04D19BE0752A6FD0782A6ED01046FE
:1044C000DDE90F129047761C50E1C4F30250022838
:1044D00006D0032809D0042801CF09D0066045E1A1
:1044E00001CFF117C0E9006140E101CF06803DE155
:1044F00006703BE117F8040B8DF8000000208DF8E2
:104500000100EB46012003E057F804BB4FF0FF30F9
:1045100061074FF0000102D40DE008F10101884667
:1045200049450FDA8045F8DB1BF808100029F4D163
:1045300008E008F1010188468142FADB1BF8081007
:104540000029F6D1DDE90F23AAEB080081462146B8
:1045500000F036F9304400EB080604E0DDE90F1204
:104560001BF8010B9047B8F10108F7D221464846E5
:10457000F7E00A21C4F302534FF0000B0891022B1D
:1045800004D001CFC117032B09D00AE0FF1D27F08B
:104590000707F7E8020108E032E01FE020E000B280
:1045A000C117042B01D140B2C117031E71F10003E2
:1045B00007DA4FF0000CD0EB0C006CEB01012D235F
:1045C00002E0230504D52B238DF82430012303E0DA
:1045D000E30701D02023F7E7984658E00A2110E0CE
:1045E00010210EE010204FF0000B08900CE010217D
:1045F0004FF0000B44F004044FF00809089103E069
:1046000008214FF0000B0891C4F30253022B04D091
:1046100001CF0021032B06D006E0FF1D27F007077E
:10462000F7E8020103E080B2042B00D1C0B24FF0E2
:10463000000823072BD5702A07D0DDF820C08CF0A6
:10464000100C5CEA0B0C05D00EE040238DF82430F2
:10465000012308E050EA010306D030238DF824300E
:104660008DF8252002239846DDF820C08CF0080C38
:104670005CEA0B0C0BD150EA010301D1630706D5AC
:1046800030238DF824304FF00108A9F10109582A90
:1046900004D038A20B9208AA0A920BE03AA2F9E7DA
:1046A0005B46089AFBF714FE0B9B9B5C0A9A521E12
:1046B0000A92137050EA0102F2D10A98ADEB0000A1
:1046C00000F1200B600702D524F4803401E04FF0A4
:1046D0000109D94502DDA9EB0B0000E0002000EB49
:1046E0000B0141440890AAEB010AE00306D4DDE97E
:1046F0000F232146504600F063F806444FF00009AE
:1047000008E009A911F80900DDE90F12904709F145
:104710000109761CC145F4DBE0030CD5DDE90F236C
:104720002146504600F04CF8064404E0DDE90F1243
:1047300030209047761C0899481E08900029F5DC27
:1047400008E00A980A990078491C0A91DDE90F12DD
:104750009047761CBBF10001ABF1010BF1DC214667
:104760005046DDE90F2300F019F806446D1C1BE6E6
:104770000928010030313233343536373839616237
:1047800063646566000000003031323334353637FB
:104790003839414243444546000000002DE9F041CC
:1047A000044600251E461746880404D405E0394611
:1047B0002020B0476D1C641EF9D52846BDE8F08165
:1047C0002DE9F041044600251E469046C80301D558
:1047D000302700E02027880404D505E0414638460C
:1047E000B0476D1C641EF9D52846BDE8F081000075
:1047F0002DE9FC5F04468B4615461E46DDE90C9A02
:10480000DDE90E7804F114004060006000BF1C3444
:104810006560A660C4F80C90C4F810A02321D4E908
:10482000030200F053FED4E9033C63441A1F0F4B0C
:10483000D4E9010100F0A4FC2060A776677600208F
:10484000E061C4F82080C4F824806061207660654F
:10485000A0651C3C00902346054A2146019004F1C6
:10486000440001F03DFB0020BDE8FC9F015B000817
:104870004D5D00082DE9F04704460E461746984660
:10488000DDF8209084F80990607A20F001006072D1
:10489000E66127620020A062C4F82480002506E0BB
:1048A00004F1140101EBC50000F018FD6D1C012D91
:1048B000F6DBBDE8F08710B50246002001460EE0A9
:1048C00002F1140303EBC100D0E900436360D0E9B7
:1048D000003423604060006000BF481C014601298D
:1048E000EEDB10BD13B50C464FF47A730122694616
:1048F0000248FDF705FD00981CBD00005C0100208A
:1049000010B54FF400100949086000F011F81020AC
:104910000649086000F00CF84FF480100349086065
:1049200000F006F820200149086010BD181C024064
:10493000002001E0411CC8B21428FBDB70470000D6
:1049400010B5202007490860FFF7F2FF1020054945
:104950000860FFF7EDFF4FF4801002490860FFF791
:10496000E7FF10BD181C024070B50024002516E0BA
:104970006006040E10200C490860FFF7D9FF2021C3
:1049800009481838FCF72AFF08B1601CC4B24FF47C
:10499000801005490860FFF7CBFF681CC5B2082DE1
:1049A000E6DB204670BD0000181C024070B50446CE
:1049B00000251FE004F0800018B120200F49086096
:1049C00003E04FF400100D490860FFF7B1FF10201D
:1049D0000A490860FFF7ACFF4FF4801007490860F0
:1049E000072D01D1202008606006040EFFF7A0FF0C
:1049F000681CC5B2082DDDDB70BD0000181C02402C
:104A000010B520200949086010200860FFF790FFCA
:104A10004FF4001005490860FFF78AFF4FF480103B
:104A200002490860FFF784FF10BD0000181C024017
:104A300010B54FF400100549086010200860FFF71A
:104A400077FF20200149086010BD0000181C0240BB
:104A500010B520200C490860FFF76AFF10200A49B2
:104A60000860FFF765FF202107481838FCF7B6FEFD
:104A700008B1012400E000244FF4801002490860CE
:104A8000FFF756FF204610BD181C024010E0012120
:104A90000848FEF745FD40B10748406980F0040032
:104AA0000549486105A000F0FBFB0A2001F021F850
:104AB000EDE7000000000240001002404C4544D7E2
:104AC000B4CCACB7ADD7AA0A0000000003E04FF4A5
:104AD0007A7001F00EF8FAE71CB51AA000F0E0FBBE
:104AE000142003214FF480630022CDE900102049F7
:104AF00020A000F0D6FF214908600846006820B1D8
:104B00000846006801F0EAF802E04FF0FF301CBDF3
:104B100014200421CB010022CDE90010184919A06E
:104B200000F0BFFF184908600846006820B1084639
:104B3000006801F0D3F802E04FF0FF30E7E7002013
:104B4000E5E70000D5E2CAC7D2BBB8F65BD2B0BB7E
:104B5000F05D2D53544D33322D5254542DB4A5C312
:104B6000FEBBADB0E5CAB5D1E9A3A10A00000000C3
:104B7000CD4A00086C656431000000001000002080
:104B80008D4A00086B6579001400002010B50446BA
:104B900000F02AF9FFF7A0FF10BD000030B51A4C55
:104BA000436824681919884215D04B889BB9174B64
:104BB0001B6899420FD0164B1B688B4201D1144BD6
:104BC00018604B684360104B1B68C31A0E4D4C684D
:104BD0002D682C44A3600C4C836824681A19824207
:104BE00011D053887BB90A4B1B68834201D1084B13
:104BF0001A6043685360044B1B68D31A024D446823
:104C00002D682C44A36030BDCC000020D0000020D3
:104C1000D40000202DE9F04F85B00D469C46DDE91B
:104C20000F740E9B04F04008B8F1000F02D0DFF8BB
:104C3000688101E0DFF86481CDF8008004F010089D
:104C4000B8F1000F01D024F0010404F00108B8F11C
:104C5000000F02D04FF0300801E04FF02008C246AC
:104C6000002604F00208B8F1000F11D0002A02DA81
:104C70002D2652420CE004F00408B8F1000F01D0D8
:104C80002B2605E004F00808B8F1000F00D020261C
:104C9000002142B94FF0300B8846491C0DF1040940
:104CA00009F808B01DE01AE0E146B9F10A0F08D191
:104CB0004FF00A0BB2FBFBFE0BFB1E28B2FBFBF214
:104CC00002E002F00F08120900BFDDF8009019F8A9
:104CD00008B08846491C0DF1040909F808B0002AFB
:104CE000E2D1B94200DD0F46DB1B04F01108B8F138
:104CF000000F10D116B1002B00DD5B1E06E0A842AC
:104D000003D84FF0200880F80080401CB3F1000861
:104D1000A3F10103F3DC26B1A84201D806705B1EA3
:104D2000401C04F01008B8F1000F0AD104E0A842BA
:104D300001D880F800A0401CB3F10008A3F10103E2
:104D4000F5DC06E0A84203D84FF0300880F8008078
:104D5000401CB8467F1E8845F4DC08E0A84205D810
:104D60000DF1040818F8018080F80080401CB1F1B2
:104D70000008A1F10101F1DC06E0A84203D84FF0E0
:104D8000200880F80080401CB3F10008A3F1010363
:104D9000F3DC05B0BDE8F08F01BA0008F0B90008F7
:104DA0001CB5142002210B020022CDE90010044999
:104DB00004A000F076FE0446204600F08FFF1CBDE4
:104DC0008D4B00086D61696E0000000010B5044C49
:104DD00002E020688047241D02488442F9D310BDB8
:104DE00060BB000864BB000810B5044C02E02068FA
:104DF0008047241D02488442F9D310BD64BB0008DB
:104E000068BB000810B5FBF7DBF9044604480088CE
:104E1000401C00B2024908802046FBF7D5F910BDBE
:104E20002401002010B5FBF7CBF904460B4800889D
:104E3000401E00B2094908800846B0F90000002869
:104E400007DC002008802046FBF7BEF900F0E0FBFD
:104E500002E02046FBF7B8F910BD00002401002055
:104E600070B5054605B970BD1D480068854203D37D
:104E70001C480068854200D3F5E7A5F10C044FF00B
:104E8000FF31194800F08EFC608818B12088B0F519
:104E9000F55F08D015A000F003FA23886288214648
:104EA00019A000F0FDF9002060804FF4F55020803B
:104EB00021480068844201D21F48046008496068A4
:104EC0000968611A401A1D490968081A1B490860D7
:104ED0002046FFF763FE044800F047FC00BFC2E72E
:104EE000CC000020D0000020886A0020746F20666B
:104EF0007265652061206261642064617461206272
:104F00006C6F636B3A0A00006D656D3A203078254E
:104F10003038782C207573656420666C61673A20A0
:104F200025642C206D6167696320636F64653A2096
:104F30003078253034780A00D4000020DC000020CE
:104F40000048704790480020004870479068002053
:104F500070B5274800684FF47A72B0FBF2F1481E32
:104F6000B0F1807F00D31BE0481E4FF0E02250617B
:104F700050170F22002804DB13071C0E1D4B1C5476
:104F800006E013071D0E1C4B00F00F04241F1D55D7
:104F900000BF00204FF0E02290610720106100BFA9
:104FA000FEF78CFCFEF7ECFAFEF740FAFBF7B0FADE
:104FB000FEF7F2FBFDF7B4FF0320FDF753FFFCF70C
:104FC00039F80EA0FFF776F91748FFF773F917487D
:104FD0000078FEF753FBFFF7F9FEFFF7B5FF044635
:104FE000FFF7AEFF0546214600F092FC70BD0000C1
:104FF0000000002000E400E018ED00E00D0A202A87
:105000002A2A2A2A2A2A2A2A2A20B4A5C3FEBBAD84
:10501000B0E5B3CCD0F2202A2A2A2A2A2A2A2A2A20
:105020002A2A200D0A00000004BB00086C000020A2
:1050300038B50446FFF7E6FE14E020780A2809D1C7
:105040000D2000904FF47A73012269460848FDF75D
:1050500057F900BF2146641C4FF47A7301220448BB
:10506000FDF74EF920780028E7D1FFF7DBFE38BDC9
:105070005C01002070B504461948006838B120462C
:10508000174909688847054605B970BD00BF15A0D6
:10509000E16900F005F917A0A16900F001F919A074
:1050A000616900F0FDF81BA0216900F0F9F81DA06E
:1050B000E16800F0F5F81FA0A16800F0F1F821A068
:1050C000616800F0EDF823A0216800F0E9F800F035
:1050D000DDFD0546294623A000F0E2F800BFFEE70B
:1050E000540100207073723A203078253038780AE5
:1050F000000000002070633A203078253038780AAC
:1051000000000000206C723A203078253038780A90
:10511000000000007231323A203078253038780AA9
:10512000000000007230333A203078253038780A99
:10513000000000007230323A203078253038780A8A
:10514000000000007230313A203078253038780A7B
:10515000000000007230303A203078253038780A6C
:105160000000000068617264206661756C74206FD5
:105170006E207468726561643A2025730A0000002D
:10518000F0B504460D461646301D20F007004438A1
:105190000146002203E00D4F41F82270521C112AF3
:1051A000F9D34D624FF0000CC1F828C0C1F82CC0F3
:1051B000C1F830C0C1F834C08B63CC634FF0807C41
:1051C000C1F840C000270F60F0BD0000EFBEADDEAB
:1051D00010B5FAF7F5FF044604480078401C03496F
:1051E00008702046FAF7F0FF10BD0000C80000204C
:1051F00010B5FAF7E5FF044604480078401E03495D
:1052000008702046FAF7E0FF10BD0000C80000203B
:1052100070B504462068A0F11405284600F018FD7A
:10522000002070BD2DE9F04105460C469046204611
:1052300000F06AFDB8F1000F03D0B8F1010F23D1DF
:1052400005E004F11401284600F060F81CE02E6827
:105250000FE0A6F1140794F8350097F8351088424E
:1052600006DA04F1140107F1140000F04FF802E02F
:105270003668AE42EDD100BFAE4204D104F1140154
:10528000284600F043F800BF00BF0020BDE8F081D1
:1052900010B5044604F1140000F01AF8002010BD07
:1052A0000FB438B505A800907F210848009B049AE8
:1052B00000F0C2FE04467F2C00D97F240348FFF78C
:1052C000B7FE0020009038BC5DF814FB086A00208F
:1052D0004060006070474060006070474060006060
:1052E00070470268516002680A6001604860704758
:1052F0000268516002680A60016048607047026895
:10530000516002680A60016048607047426811603D
:1053100042684A60416008607047014608688842F8
:1053200001D1012070470020FCE70146086888424F
:1053300001D1012070470020FCE7D0E90021516035
:10534000D0E900121160406000607047D0E9002190
:105350005160D0E9001211604060006070470000A9
:105360002DE9F041054615B90020BDE8F081E81CA3
:1053700020F003054E480068854201D90020F4E77B
:105380000C2D00D20C254FF0FF314A4800F00AFAEC
:105390004948006849490968461A7EE0474800685C
:1053A00084196088002874D106F10C006168081A1D
:1053B000A8426ED306F10C006168091A05F11800C5
:1053C000814230D306F10C0000EB05083B48006831
:1053D00000EB08074FF4F5503880002078806068B3
:1053E0007860BE60C4F8048001206080304879682D
:1053F00000680C30814205D030497868096808445B
:10540000C0F808802E48016805F10C0008442C49BA
:1054100008602C4800680968884219D2284800684A
:105420002849086014E00120608024496068096808
:10543000611A401A22490968084421490860214834
:1054400000680968884203D21D4800681D49086049
:105450004FF4F550208018480068844212D107E0CC
:1054600015480068406815490968084412490860F1
:1054700011480068408828B10F480068124909683F
:105480008842EDD10B4800F070F904F10C006CE794
:10549000FFE70A4800683044466805480068401B3A
:1054A000B0423FF67BAF034800F05FF900205CE7B5
:1054B000D8000020886A0020D4000020CC00002002
:1054C000DC000020E0000020D0000020F0B50C46F9
:1054D0000546E6B2042A15D300F0030797B9014642
:1054E00046EA062343EA034304E008C108C108C1B1
:1054F00008C1103A102AF8D201E008C1121F042A8C
:10550000FBD20D4601E005F8016B171EA2F1010266
:10551000F9D1F0BD2DE9F04105460F46284600F0CF
:105520003BF80646F068FFF71BFF044614B900205D
:10553000BDE8F081257200206072082239462046BD
:1055400000F0CBF9FAF73CFE804604F10C01301D67
:10555000FFF7C7FE4046FAF737FE2046E8E770B58A
:105560000446FAF72DFE054604F10C00FFF7E5FEB0
:105570002846FAF729FE2046FFF772FC70BD70B589
:105580000446FAF71DFE054604F10C00FFF7D5FEB0
:105590002846FAF719FE70BD024600210AE00748C6
:1055A00000EB01100078904203D1044800EB011099
:1055B0007047491C0429F2DB0020F9E7E4000020D1
:1055C0002DE9F04104460D4616462846FFF7E4FF54
:1055D000074645F08000207208223146204600F040
:1055E0007CF9FAF7EDFD804604F10C01381DFFF758
:1055F00078FE4046FAF7E8FDBDE8F0810146087AFA
:1056000000F0800008B1012070470020FCE7000096
:105610002DE9F041FAF7D4FD07461B48008868BB26
:105620001A480068FEF772FE461E194850F8360008
:10563000A0F114041748006884421BD016490E706C
:105640001448056804601548007848B904F11C0145
:1056500005F11C00FAF7BBFD3846FAF7B5FD0CE082
:1056600004F11C0105F11C00FAF7B1FD3846FAF708
:10567000ABFD02E03846FAF7A7FD02E03846FAF73C
:10568000A3FDBDE8F08100002401002030010020CE
:10569000A86A0020280100202C010020C80000205A
:1056A00070B50446FAF78CFD054614F8340F20F067
:1056B0000F0040F0010020706278343C0A4B03EB8D
:1056C000C20004F114014268116042684A604160FE
:1056D000086000BF0549A06B0968084303490860DA
:1056E0002846FAF771FD70BDA86A0020300100203D
:1056F00070B50446FAF764FD054604F11400D0E9DC
:1057000000215160D0E9001211604060006000BFCC
:1057100094F83510094A02EBC1000168814201D1B9
:10572000012100E0002129B10548A16B00688843F0
:10573000034908602846FAF747FD70BDA86A0020B3
:10574000300100202DE9F04104460D4616461F4663
:105750002A4601212046FFF733FF2046FFF798FD38
:10576000A68367720020BDE8F08170B5044600256D
:10577000FAF726FD064604F11400FFF7CEFD28B91E
:1057800004F11400FFF744FD012502E0A08B401C4A
:10579000A0833046FAF718FD012D01D1FFF738FF3D
:1057A000002070BD73B50546FAF70AFD0646A88BC2
:1057B000002806DDA88B401EA8833046FAF704FDBA
:1057C00028E0019828B93046FAF7FEFC6FF0010096
:1057D0007CBD00F05BFA0446002020636A7A214613
:1057E00005F11400FFF71EFD0198002809DD01AA4C
:1057F000002104F1440000F047FB04F1440000F0F4
:1058000087FB3046FAF7E0FCFFF702FF206B08B198
:10581000206BDDE70020DBE708B509A0FFF740FDBE
:105820000AA0FFF73DFD12A00323002219460090B5
:1058300012A0FFF735FD19A0FFF732FD08BD0000EB
:105840000A205C207C202F0A000000002D205254EA
:10585000202D2020202020546872656164204F7024
:1058600065726174696E672053797374656D0A009F
:105870004A756C202037203230323000202F207CB7
:10588000205C202020202025642E25642E256420E5
:105890006275696C642025730A0000002032303084
:1058A00036202D203230313820436F70797269678D
:1058B00068742062792072742D7468726561642046
:1058C0007465616D0A00000001460A4600E0521C42
:1058D00010780028FBD1501A704770B50346A2B16A
:1058E00018460C4600BF14F8016B00F8016B3EB976
:1058F00002E0002500F8015B551E2A1EF9D102E0E6
:10590000551E2A1EEFD100BF00BF184670BD000013
:105910002DE9F04105460E46E81C20F0030726F06D
:105920000308B8F1180F09D9A8F11800B84205D337
:10593000A8EB070018381E49086006E032462946E1
:105940001CA0FFF7ADFCBDE8F081294807600468A2
:105950004FF4F5502080164800680C30606000203D
:10596000A060608022496068096808442149086095
:105970004FF4F5500968088001201E4909684880E5
:105980000B4800680C301B490968486008480068EB
:105990000C301849096888600023012216A11848B4
:1059A000FFF7D0FE124800681649086000BFCAE73A
:1059B000D80000206D656D20696E69742C206572B9
:1059C000726F7220626567696E20616464726573CC
:1059D0007320307825782C20616E6420656E6420F9
:1059E0006164647265737320307825780A00000062
:1059F000CC000020D000002068656170000000002D
:105A0000886A0020D400002010B500200B490880CF
:105A1000002405E00A4901EBC400FFF75CFC641CAC
:105A2000082CF7DB072007490870002006490860AA
:105A3000064908600648FFF74EFC10BD240100200F
:105A4000A86A00202C01002028010020300100203D
:105A50003401002070B508480068FEF757FC451E69
:105A6000064850F83500A0F114040548046004F11C
:105A70001C00FAF7F2FB70BD30010020A86A00207C
:105A80002801002010B5002405E0044901EBC40002
:105A9000FFF724FC641C002CF7D010BD3C01002053
:105AA00070472DE9FF5F06460F4690461D46DDE92B
:105AB0000EAB31460020FFF72DFD8146B9F1000FF6
:105AC00003D1002004B0BDE8F09F2846FFF748FC52
:105AD000044624B94846FFF742FD0020F2E743465A
